{
  "_format": "hh-sol-artifact-1",
  "contractName": "BurnableBEP20",
  "sourceName": "contracts/token/BEP20/BurnableBEP20.sol",
  "abi": [
    {
      "inputs": [
        {
          "internalType": "string",
          "name": "name",
          "type": "string"
        },
        {
          "internalType": "string",
          "name": "symbol",
          "type": "string"
        },
        {
          "internalType": "uint8",
          "name": "decimals",
          "type": "uint8"
        },
        {
          "internalType": "uint256",
          "name": "initialBalance",
          "type": "uint256"
        },
        {
          "internalType": "address payable",
          "name": "feeReceiver",
          "type": "address"
        }
      ],
      "stateMutability": "payable",
      "type": "constructor"
    },
    {
      "anonymous": false,
      "inputs": [
        {
          "indexed": true,
          "internalType": "address",
          "name": "owner",
          "type": "address"
        },
        {
          "indexed": true,
          "internalType": "address",
          "name": "spender",
          "type": "address"
        },
        {
          "indexed": false,
          "internalType": "uint256",
          "name": "value",
          "type": "uint256"
        }
      ],
      "name": "Approval",
      "type": "event"
    },
    {
      "anonymous": false,
      "inputs": [
        {
          "indexed": true,
          "internalType": "address",
          "name": "previousOwner",
          "type": "address"
        },
        {
          "indexed": true,
          "internalType": "address",
          "name": "newOwner",
          "type": "address"
        }
      ],
      "name": "OwnershipTransferred",
      "type": "event"
    },
    {
      "anonymous": false,
      "inputs": [
        {
          "indexed": true,
          "internalType": "address",
          "name": "from",
          "type": "address"
        },
        {
          "indexed": true,
          "internalType": "address",
          "name": "to",
          "type": "address"
        },
        {
          "indexed": false,
          "internalType": "uint256",
          "name": "value",
          "type": "uint256"
        }
      ],
      "name": "Transfer",
      "type": "event"
    },
    {
      "inputs": [
        {
          "internalType": "address",
          "name": "owner",
          "type": "address"
        },
        {
          "internalType": "address",
          "name": "spender",
          "type": "address"
        }
      ],
      "name": "allowance",
      "outputs": [
        {
          "internalType": "uint256",
          "name": "",
          "type": "uint256"
        }
      ],
      "stateMutability": "view",
      "type": "function"
    },
    {
      "inputs": [
        {
          "internalType": "address",
          "name": "spender",
          "type": "address"
        },
        {
          "internalType": "uint256",
          "name": "amount",
          "type": "uint256"
        }
      ],
      "name": "approve",
      "outputs": [
        {
          "internalType": "bool",
          "name": "",
          "type": "bool"
        }
      ],
      "stateMutability": "nonpayable",
      "type": "function"
    },
    {
      "inputs": [
        {
          "internalType": "address",
          "name": "account",
          "type": "address"
        }
      ],
      "name": "balanceOf",
      "outputs": [
        {
          "internalType": "uint256",
          "name": "",
          "type": "uint256"
        }
      ],
      "stateMutability": "view",
      "type": "function"
    },
    {
      "inputs": [
        {
          "internalType": "uint256",
          "name": "amount",
          "type": "uint256"
        }
      ],
      "name": "burn",
      "outputs": [],
      "stateMutability": "nonpayable",
      "type": "function"
    },
    {
      "inputs": [
        {
          "internalType": "address",
          "name": "account",
          "type": "address"
        },
        {
          "internalType": "uint256",
          "name": "amount",
          "type": "uint256"
        }
      ],
      "name": "burnFrom",
      "outputs": [],
      "stateMutability": "nonpayable",
      "type": "function"
    },
    {
      "inputs": [],
      "name": "decimals",
      "outputs": [
        {
          "internalType": "uint8",
          "name": "",
          "type": "uint8"
        }
      ],
      "stateMutability": "view",
      "type": "function"
    },
    {
      "inputs": [
        {
          "internalType": "address",
          "name": "spender",
          "type": "address"
        },
        {
          "internalType": "uint256",
          "name": "subtractedValue",
          "type": "uint256"
        }
      ],
      "name": "decreaseAllowance",
      "outputs": [
        {
          "internalType": "bool",
          "name": "",
          "type": "bool"
        }
      ],
      "stateMutability": "nonpayable",
      "type": "function"
    },
    {
      "inputs": [],
      "name": "getOwner",
      "outputs": [
        {
          "internalType": "address",
          "name": "",
          "type": "address"
        }
      ],
      "stateMutability": "view",
      "type": "function"
    },
    {
      "inputs": [
        {
          "internalType": "address",
          "name": "spender",
          "type": "address"
        },
        {
          "internalType": "uint256",
          "name": "addedValue",
          "type": "uint256"
        }
      ],
      "name": "increaseAllowance",
      "outputs": [
        {
          "internalType": "bool",
          "name": "",
          "type": "bool"
        }
      ],
      "stateMutability": "nonpayable",
      "type": "function"
    },
    {
      "inputs": [],
      "name": "name",
      "outputs": [
        {
          "internalType": "string",
          "name": "",
          "type": "string"
        }
      ],
      "stateMutability": "view",
      "type": "function"
    },
    {
      "inputs": [],
      "name": "owner",
      "outputs": [
        {
          "internalType": "address",
          "name": "",
          "type": "address"
        }
      ],
      "stateMutability": "view",
      "type": "function"
    },
    {
      "inputs": [],
      "name": "renounceOwnership",
      "outputs": [],
      "stateMutability": "nonpayable",
      "type": "function"
    },
    {
      "inputs": [],
      "name": "symbol",
      "outputs": [
        {
          "internalType": "string",
          "name": "",
          "type": "string"
        }
      ],
      "stateMutability": "view",
      "type": "function"
    },
    {
      "inputs": [],
      "name": "totalSupply",
      "outputs": [
        {
          "internalType": "uint256",
          "name": "",
          "type": "uint256"
        }
      ],
      "stateMutability": "view",
      "type": "function"
    },
    {
      "inputs": [
        {
          "internalType": "address",
          "name": "recipient",
          "type": "address"
        },
        {
          "internalType": "uint256",
          "name": "amount",
          "type": "uint256"
        }
      ],
      "name": "transfer",
      "outputs": [
        {
          "internalType": "bool",
          "name": "",
          "type": "bool"
        }
      ],
      "stateMutability": "nonpayable",
      "type": "function"
    },
    {
      "inputs": [
        {
          "internalType": "address",
          "name": "sender",
          "type": "address"
        },
        {
          "internalType": "address",
          "name": "recipient",
          "type": "address"
        },
        {
          "internalType": "uint256",
          "name": "amount",
          "type": "uint256"
        }
      ],
      "name": "transferFrom",
      "outputs": [
        {
          "internalType": "bool",
          "name": "",
          "type": "bool"
        }
      ],
      "stateMutability": "nonpayable",
      "type": "function"
    },
    {
      "inputs": [
        {
          "internalType": "address",
          "name": "newOwner",
          "type": "address"
        }
      ],
      "name": "transferOwnership",
      "outputs": [],
      "stateMutability": "nonpayable",
      "type": "function"
    }
  ],
  "bytecode": "0x60806040526040516200458b3803806200458b833981810160405281019062000029919062000ca8565b806040518060400160405280600d81526020017f4275726e61626c6542455032300000000000000000000000000000000000000081525086866000620000746200063360201b60201c565b9050806000806101000a81548173ffffffffffffffffffffffffffffffffffffffff021916908373ffffffffffffffffffffffffffffffffffffffff1602179055508073ffffffffffffffffffffffffffffffffffffffff16600073ffffffffffffffffffffffffffffffffffffffff167f8be0079c531659141344cd1fd0a4f28419497f9722a3daafe3b4186f6b6457e060405160405180910390a350620001467f988c686810207ed93ab03e92de42c56418b37c2f953dba9b8e376eb7019227cc60001b6200063b60201b60201c565b6200017a7f83bf5b641243954ba6e2587536bbdc5632174acbf79f9e2259dc8842a8de2e9160001b6200063b60201b60201c565b620001ae7f34a1179d446b62fb2b3144621868fcb0b3f774ec803e3731c1c3b137fc2d9a1760001b6200063b60201b60201c565b8160049080519060200190620001c692919062000b41565b50620001fb7fa3c4015a7ec527b93366675b6103cc92f011f47ffe38b50636c1fec4ff70af8960001b6200063b60201b60201c565b6200022f7f10107d6c06b1e06b9403856460cada69e7306d2991103571a3dd26bf2fbee78c60001b6200063b60201b60201c565b80600590805190602001906200024792919062000b41565b506200027c7fa14ef190c94a053d9cf0c57eb766be9784eb6385bc7980a6a36875dcee52db9e60001b6200063b60201b60201c565b620002b07fdc19d005d429b0093c3b547d1a17bc935b455085669625bcce78b7b836ab852e60001b6200063b60201b60201c565b6012600660006101000a81548160ff021916908360ff1602179055505050620003027f04b479a92492eccd6b8c8d2e9f2dd244002fe580e4a7e225c6da3bd47a3e6fa260001b6200063e60201b60201c565b620003367f045b82a93d3a47ecba356839e714349d6b8e366ce921d86e727670685db1bd9560001b6200063e60201b60201c565b6200036a7f5e20d3adb67b9201f934093bb4a46286b78b040934c2c5dffded5a5dadd9502660001b6200063e60201b60201c565b8173ffffffffffffffffffffffffffffffffffffffff16632b66d72e34836040518363ffffffff1660e01b8152600401620003a6919062000dfc565b6000604051808303818588803b158015620003c057600080fd5b505af1158015620003d5573d6000803e3d6000fd5b50505050505050620004107fc48a47b197817d6646641f1092deb608b37feeb89e6982886a2494c2e4e69a5560001b6200064160201b60201c565b620004447fc684f20b602245efc6e6a00e5337a7b1168ed0a6cc777bec1974ecb50131120b60001b6200064160201b60201c565b620004787f44aefe688e23c1f1fa4815d27bbd9c7a9485cfd882f4a892030660e109f5acf060001b6200064160201b60201c565b620004ac7ffb48bd60b7eafbe33caf8d858b55fc83a6aec6c94b08d58403655ee9b0792e4060001b6200064160201b60201c565b60008211620004f2576040517f08c379a0000000000000000000000000000000000000000000000000000000008152600401620004e99062000e42565b60405180910390fd5b620005267f35063a6275dcb40f5b058e140f26196a419acc83f44b9b9804bb66768a9724fb60001b6200064160201b60201c565b6200055a7f2a4c12fbb2252caa7dab876491a225116bb4247b5c847d5450eccdb6288b4eb960001b6200064160201b60201c565b6200058e7f8844f14d05b8cb9f9f98001eb5a0fff87f3e576ebf858b96772a977625f3a88860001b6200064160201b60201c565b6200059f836200064460201b60201c565b620005d37fcdb4254129b400a4f91a9f1614a7ce6ce50f8187e1c26bff7b536f524af6a82260001b6200064160201b60201c565b620006077f68278fecbb0f93f6128bf91affe99d9409cf88265fef704f8c625f60c0281b6860001b6200064160201b60201c565b620006286200061b6200063360201b60201c565b83620006fe60201b60201c565b5050505050620011aa565b600033905090565b50565b50565b50565b620006787f91627bb9556277aa30c1b19062a1a02b113c6674c802ba44c615d14666f6fd9860001b6200063b60201b60201c565b620006ac7f7d80bd734fd99c4b6216fc8a91a28d0239e9ac7019c8e18d160fad43aad53aea60001b6200063b60201b60201c565b620006e07f5f8dabd086842b030d4a3703d1cf5548d1de895e2ebd6dac49d3de16808adf6c60001b6200063b60201b60201c565b80600660006101000a81548160ff021916908360ff16021790555050565b620007327f1c22ea87892a53b18e8c380e0541bfc55eb83d37b01945606c5b3a858c9a16ae60001b6200063b60201b60201c565b620007667fec4b583e7a3abe290b53c6f583c0836a513d5932fdd3837a91933e0617c30c2e60001b6200063b60201b60201c565b6200079a7fd6508c3686ebd2e39a62760e9b4b71151d08cf90be446edf5aad5cf49066abc760001b6200063b60201b60201c565b620007ce7f4869c1f45f78c3ff5935ff0f6e9bc6377f400ed71694adb3e7b6e78162e97a9360001b6200063b60201b60201c565b600073ffffffffffffffffffffffffffffffffffffffff168273ffffffffffffffffffffffffffffffffffffffff16141562000841576040517f08c379a0000000000000000000000000000000000000000000000000000000008152600401620008389062000e20565b60405180910390fd5b620008757f85a78fa52fbda579e9874d6e94a6ed44c6f059c0edd51c9861cb2d7b93aff01f60001b6200063b60201b60201c565b620008a97f3db9f5b6011d3b15c25f808a551c0ec974ab120115ae112e18fe2e80cb596fcf60001b6200063b60201b60201c565b620008dd7f9df3ccf91c06a4848c0fc41e85b4ec1c2e3ae3bafc3facb84e62bec0c611d93260001b6200063b60201b60201c565b620008f16000838362000b0860201b60201c565b620009257f97471b0e7fbd3c8184a86b00d5ce32819633f8728af61fc43a68a79ac7599a2260001b6200063b60201b60201c565b620009597fda59c8a9ad27f6548cb398ab91dcf98721adcc59f7d1a1c4f0704d02c44e628c60001b6200063b60201b60201c565b80600360008282546200096d919062000efc565b92505081905550620009a87fd61a8de8eefdce39f57a1f0eb0257ce9a70c3440baba9721ae47e086b23026db60001b6200063b60201b60201c565b620009dc7fb75e24f8b862d249d4aee7402c9fac020c64717b8b5c37f0077a0e3253ffe2ea60001b6200063b60201b60201c565b80600160008473ffffffffffffffffffffffffffffffffffffffff1673ffffffffffffffffffffffffffffffffffffffff168152602001908152602001600020600082825462000a2d919062000efc565b9250508190555062000a687fd9eae19e483846b3084401bd7cbc3b6a4bee948ee40c023bda99d897349e1ca160001b6200063b60201b60201c565b62000a9c7f64c28404cfcea01737e5ccb040880a1fe979beaf1b8852abc72c4bb836b26f1760001b6200063b60201b60201c565b8173ffffffffffffffffffffffffffffffffffffffff16600073ffffffffffffffffffffffffffffffffffffffff167fddf252ad1be2c89b69c2b068fc378daa952ba7f163c4a11628f55a4df523b3ef8360405162000afc919062000e64565b60405180910390a35050565b62000b3c7fdf1dfb0e3ec8664c0b9154c19ea4e17ab3772d3c93d8913baf6671d66a2dae1c60001b6200063b60201b60201c565b505050565b82805462000b4f9062000fda565b90600052602060002090601f01602090048101928262000b73576000855562000bbf565b82601f1062000b8e57805160ff191683800117855562000bbf565b8280016001018555821562000bbf579182015b8281111562000bbe57825182559160200191906001019062000ba1565b5b50905062000bce919062000bd2565b5090565b5b8082111562000bed57600081600090555060010162000bd3565b5090565b600062000c0862000c028462000eaa565b62000e81565b90508281526020810184848401111562000c2157600080fd5b62000c2e84828562000fa4565b509392505050565b60008151905062000c47816200115c565b92915050565b600082601f83011262000c5f57600080fd5b815162000c7184826020860162000bf1565b91505092915050565b60008151905062000c8b8162001176565b92915050565b60008151905062000ca28162001190565b92915050565b600080600080600060a0868803121562000cc157600080fd5b600086015167ffffffffffffffff81111562000cdc57600080fd5b62000cea8882890162000c4d565b955050602086015167ffffffffffffffff81111562000d0857600080fd5b62000d168882890162000c4d565b945050604062000d298882890162000c91565b935050606062000d3c8882890162000c7a565b925050608062000d4f8882890162000c36565b9150509295509295909350565b600062000d698262000ee0565b62000d75818562000eeb565b935062000d8781856020860162000fa4565b62000d9281620010d3565b840191505092915050565b600062000dac601f8362000eeb565b915062000db982620010e4565b602082019050919050565b600062000dd360248362000eeb565b915062000de0826200110d565b604082019050919050565b62000df68162000f8d565b82525050565b6000602082019050818103600083015262000e18818462000d5c565b905092915050565b6000602082019050818103600083015262000e3b8162000d9d565b9050919050565b6000602082019050818103600083015262000e5d8162000dc4565b9050919050565b600060208201905062000e7b600083018462000deb565b92915050565b600062000e8d62000ea0565b905062000e9b828262001010565b919050565b6000604051905090565b600067ffffffffffffffff82111562000ec85762000ec7620010a4565b5b62000ed382620010d3565b9050602081019050919050565b600081519050919050565b600082825260208201905092915050565b600062000f098262000f8d565b915062000f168362000f8d565b9250827fffffffffffffffffffffffffffffffffffffffffffffffffffffffffffffffff0382111562000f4e5762000f4d62001046565b5b828201905092915050565b600062000f668262000f6d565b9050919050565b600073ffffffffffffffffffffffffffffffffffffffff82169050919050565b6000819050919050565b600060ff82169050919050565b60005b8381101562000fc457808201518184015260208101905062000fa7565b8381111562000fd4576000848401525b50505050565b6000600282049050600182168062000ff357607f821691505b602082108114156200100a576200100962001075565b5b50919050565b6200101b82620010d3565b810181811067ffffffffffffffff821117156200103d576200103c620010a4565b5b80604052505050565b7f4e487b7100000000000000000000000000000000000000000000000000000000600052601160045260246000fd5b7f4e487b7100000000000000000000000000000000000000000000000000000000600052602260045260246000fd5b7f4e487b7100000000000000000000000000000000000000000000000000000000600052604160045260246000fd5b6000601f19601f8301169050919050565b7f42455032303a206d696e7420746f20746865207a65726f206164647265737300600082015250565b7f4275726e61626c6542455032303a20737570706c792063616e6e6f742062652060008201527f7a65726f00000000000000000000000000000000000000000000000000000000602082015250565b620011678162000f59565b81146200117357600080fd5b50565b620011818162000f8d565b81146200118d57600080fd5b50565b6200119b8162000f97565b8114620011a757600080fd5b50565b6133d180620011ba6000396000f3fe608060405234801561001057600080fd5b506004361061010b5760003560e01c8063715018a6116100a257806395d89b411161007157806395d89b41146102a8578063a457c2d7146102c6578063a9059cbb146102f6578063dd62ed3e14610326578063f2fde38b146103565761010b565b8063715018a61461024657806379cc679014610250578063893d20e81461026c5780638da5cb5b1461028a5761010b565b8063313ce567116100de578063313ce567146101ac57806339509351146101ca57806342966c68146101fa57806370a08231146102165761010b565b806306fdde0314610110578063095ea7b31461012e57806318160ddd1461015e57806323b872dd1461017c575b600080fd5b610118610372565b6040516101259190612c38565b60405180910390f35b61014860048036038101906101439190612984565b610488565b6040516101559190612c1d565b60405180910390f35b610166610582565b6040516101739190612dda565b60405180910390f35b61019660048036038101906101919190612935565b610610565b6040516101a39190612c1d565b60405180910390f35b6101b461094d565b6040516101c19190612df5565b60405180910390f35b6101e460048036038101906101df9190612984565b6109e8565b6040516101f19190612c1d565b60405180910390f35b610214600480360381019061020f91906129c0565b610b70565b005b610230600480360381019061022b91906128d0565b610c08565b60405161023d9190612dda565b60405180910390f35b61024e610cd5565b005b61026a60048036038101906102659190612984565b610e0f565b005b610274611077565b6040516102819190612c02565b60405180910390f35b61029261110a565b60405161029f9190612c02565b60405180910390f35b6102b0611133565b6040516102bd9190612c38565b60405180910390f35b6102e060048036038101906102db9190612984565b611249565b6040516102ed9190612c1d565b60405180910390f35b610310600480360381019061030b9190612984565b611522565b60405161031d9190612c1d565b60405180910390f35b610340600480360381019061033b91906128f9565b61161c565b60405161034d9190612dda565b60405180910390f35b610370600480360381019061036b91906128d0565b611727565b005b60606103a07f484185e46e02d5d25ea29139d2dfc8d7e796399ca8dad1959367786c71f87bbe60001b6118d0565b6103cc7f5a449bf80f8bdef4d076735614d2500f07f298dccd535d3354605149d1d6665160001b6118d0565b6103f87f09570b59ac0d3bcacf825d25d68c953c906bde6a7c08d9d0f76f25175680e7a660001b6118d0565b6004805461040590612f3e565b80601f016020809104026020016040519081016040528092919081815260200182805461043190612f3e565b801561047e5780601f106104535761010080835404028352916020019161047e565b820191906000526020600020905b81548152906001019060200180831161046157829003601f168201915b5050505050905090565b60006104b67f14c4e6f92a23b323255e1ea96f7d135c7ee738fa6a95cbbf140042159d72b9eb60001b6118d0565b6104e27f3275c7f11dfe3795ec1ccce9e984b9c35d9ad860716814f2b0eaf110e77f6ab460001b6118d0565b61050e7f344da9908f6ecc26c54a5b1d4ea6ab0e51981b5a333f69cf1f163772491cc99760001b6118d0565b6105206105196118d3565b84846118db565b61054c7f7f8fa0566800d9147630c78d5dfb0f25580b06201f53b1ff9545eb2cd571f5c660001b6118d0565b6105787fa828e269cd8ee4aaa3e392780d8fd839a0edc42b060d143eb1139372db3db49560001b6118d0565b6001905092915050565b60006105b07f89577bc67186870780481f61fa8bb4e785985e2d0cdf8eb35732b5b1c99c35ff60001b6118d0565b6105dc7fa9b47ecfe5da68eec3d84d07064f6e3671c004784e579c83950296a57de9d45760001b6118d0565b6106087feb21b845994cafc22007702042e35e83fbf00ebd6bc119106653eea1c2c8b03160001b6118d0565b600354905090565b600061063e7f92d40a6fb9fd22476b8ffd32e8a4ed589798746c002eb2a0b484aac9b9c40e0660001b6118d0565b61066a7f671f0b70bfe0ae9055df43ccb227578502685d6e5324a86d5aac2bcd1a89772a60001b6118d0565b6106967f1c00d24def30936d42b77f089c2a9a23245b1430e6daff79fa319a8111012e0560001b6118d0565b6106a1848484611ce2565b6106cd7ffdf45a6640dfe526757d49dc7a42b1cb88a8fc8bd582fcdd41ef339b08352ffc60001b6118d0565b6106f97f9098274b85766f95860e6dcb1798199be5a1dc37bad8b3ec08831db9d6b8877d60001b6118d0565b6000600260008673ffffffffffffffffffffffffffffffffffffffff1673ffffffffffffffffffffffffffffffffffffffff16815260200190815260200160002060006107446118d3565b73ffffffffffffffffffffffffffffffffffffffff1673ffffffffffffffffffffffffffffffffffffffff1681526020019081526020016000205490506107ad7fe96a90fc2858e023520a266e2332e5510f720d4cac7ac3990a630895f0a5123260001b6118d0565b6107d97f44e0da3a779c46acc50df3361461828de9a009a65e70d18effe6647ba923bb6260001b6118d0565b6108057f3db9fd0d4dc1336f6449aba63bd7c0c0956f52fce988aeb30eff597ce60a9f1660001b6118d0565b82811015610848576040517f08c379a000000000000000000000000000000000000000000000000000000000815260040161083f90612cba565b60405180910390fd5b6108747f5ba9d5bcd10ee9f8802ae892ffc6240e1572f8c73580f4ae95dcbb81e3e5faf160001b6118d0565b6108a07f68f51e9d958533c872002fafa61d2642c7367e3404565e7800c45514d2e1201560001b6118d0565b6108cc7f786b817ccc14f8ee067dd191d44ba053052350fc86720e797f73446d0ae0afc560001b6118d0565b6108e9856108d86118d3565b85846108e49190612e82565b6118db565b6109157fcdcdffe503aa7ff0d4173e014095bb90eafa334dc3912e541ae6811e0938a35b60001b6118d0565b6109417f03a29102b1201e9811b3bad0e86d894005323f483995d0f43660cabe100e481a60001b6118d0565b60019150509392505050565b600061097b7fc8539dbf87b6957305d50f108ff23495af51b570a1af5914406af8bd45f51b7660001b6118d0565b6109a77f0d41bd2dddc3fb7065c78fb10d1cc535c31bf5313c1bae1a71676ebf87985f3260001b6118d0565b6109d37fd4400c10511f7e198c4d8aa94ab1cb130a9b2a49068bced0f0338fdc2a989d2260001b6118d0565b600660009054906101000a900460ff16905090565b6000610a167f75408c831e2b35e48366b41bde6d530e5c987d55590d7a7a63f3be00dab21d5960001b6118d0565b610a427f54434211770713e0a398f4e2a01fb3815fa8cdf49ee037ce76af679875e42c3a60001b6118d0565b610a6e7fa6e0f44c3da7a7d0ec9445af42cf4ba3904588fa22c85177b690fdb03501cd4e60001b6118d0565b610b0e610a796118d3565b848460026000610a876118d3565b73ffffffffffffffffffffffffffffffffffffffff1673ffffffffffffffffffffffffffffffffffffffff16815260200190815260200160002060008873ffffffffffffffffffffffffffffffffffffffff1673ffffffffffffffffffffffffffffffffffffffff16815260200190815260200160002054610b099190612e2c565b6118db565b610b3a7fd6dbf3c18aa633932368190d5f48580ca88a91e777f8241d1fd9e4c950509a4760001b6118d0565b610b667f7be88749fa7968ae878a06d5d62ac0cd29ba3a9ae6d941d830bb6ccd51c86d2e60001b6118d0565b6001905092915050565b610b9c7f512e5ead806b97f83420850a64059f1b444777ecc65dc629f4cc020301813d0960001b612358565b610bc87fdb4ae5c6353969d80609a954f54dbe87fa34edb6d0863a5194dc93d05ad1bb8d60001b612358565b610bf47f5971b66df7a3f8673233946292b611b88256cf5d6bf47fc6287f241bb4523f3560001b612358565b610c05610bff6118d3565b8261235b565b50565b6000610c367f79a1e8a8a1165beab1a98e2b4833f7e2291c0b3eddf3963cac7b80baf6fee7de60001b6118d0565b610c627fbfe926b7977b2c273da1ed029f65091db4f20c77c504b46a9816357a7107037f60001b6118d0565b610c8e7fcacdfbd527609ccbae7437ff7a4ba5a99813224a72080d1f2b7b401581331ad260001b6118d0565b600160008373ffffffffffffffffffffffffffffffffffffffff1673ffffffffffffffffffffffffffffffffffffffff168152602001908152602001600020549050919050565b610cdd6118d3565b73ffffffffffffffffffffffffffffffffffffffff16610cfb61110a565b73ffffffffffffffffffffffffffffffffffffffff1614610d51576040517f08c379a0000000000000000000000000000000000000000000000000000000008152600401610d4890612cda565b60405180910390fd5b600073ffffffffffffffffffffffffffffffffffffffff1660008054906101000a900473ffffffffffffffffffffffffffffffffffffffff1673ffffffffffffffffffffffffffffffffffffffff167f8be0079c531659141344cd1fd0a4f28419497f9722a3daafe3b4186f6b6457e060405160405180910390a360008060006101000a81548173ffffffffffffffffffffffffffffffffffffffff021916908373ffffffffffffffffffffffffffffffffffffffff160217905550565b610e3b7f83acb4fd6d3434d2da4e569e63edcbcd2f773a2a4f10420af46aec461b3b134b60001b612358565b610e677f8b46e33e150ce1b289f5730aa63ffb83e34f3bd9b35da201b77dedc3a444aedf60001b612358565b610e937f7c0f1ff5592d81d12317df9e21f0d4074488d036b68ef7a567095f3e9794656a60001b612358565b6000610ea683610ea16118d3565b61161c565b9050610ed47f8f2bba8085c2edb6c141735aad8173b75c3b8ca81e64abcc2c0eb305066590c760001b612358565b610f007f66029983f494469a718216285f2b526f4369a7ba021d515e98c78f03f749a96260001b612358565b610f2c7fa5524862f63741cf8a6a8a5f6f4c80f4c44aab89ec2c417bbe0674c05e3ee3c760001b612358565b81811015610f6f576040517f08c379a0000000000000000000000000000000000000000000000000000000008152600401610f6690612d9a565b60405180910390fd5b610f9b7f349c4f1511424b01566ec73f184433e77e6efff31e83ca85796dd8edb38f3f1860001b612358565b610fc77f3dfe9ba9640d4f74d3d8a7bf020ef42152a42647e4644e4c5c4319b653be132f60001b612358565b610ff37f49259888353b88180671afc21b802afe462a45bf22d8e601364ba8ec9ff5f17360001b612358565b61101083610fff6118d3565b848461100b9190612e82565b6118db565b61103c7f245801197f82787f57fb1f567d7035cf6fb3de4854a8cc1803e873e83492299160001b612358565b6110687fee80867a35a42585a78d77b3e357be1a013744b9900ba0cc412fff67c0b869c860001b612358565b611072838361235b565b505050565b60006110a57ffdafd5baa8d11a6a76674f55e8f4c5585dd88dba785518726a93f19fdefa561660001b6118d0565b6110d17fbdcec761d97bf410535c39579f7de93f0f85185c03ddef81ac14207125e8f82b60001b6118d0565b6110fd7fcf7f350d80ffe1d7c92ba4198058b66c5a1017f4eff08a75a4df237617f0bc5560001b6118d0565b61110561110a565b905090565b60008060009054906101000a900473ffffffffffffffffffffffffffffffffffffffff16905090565b60606111617f837da9945b1e37e9a489e53347c25ec02c003faa861d9eedeccf89c0fe7cd8c460001b6118d0565b61118d7f660713aecadba305585b19aa2b43cb56859cacbf019aa7362810301017bab8ce60001b6118d0565b6111b97f185dd7eb5dab1dd0c01af159e88f2643916bec358b808d99d4ecbd78b420a31e60001b6118d0565b600580546111c690612f3e565b80601f01602080910402602001604051908101604052809291908181526020018280546111f290612f3e565b801561123f5780601f106112145761010080835404028352916020019161123f565b820191906000526020600020905b81548152906001019060200180831161122257829003601f168201915b5050505050905090565b60006112777f3a9aa5fba9807d053d4432a82f92ddb80d9032675fc5402c367c7b2bc014e00260001b6118d0565b6112a37f298d4508d57f9823dc3b339659acd35ddc8aa533ed20d184b1b0fc1237ba954c60001b6118d0565b6112cf7f04c32e1b2acf7c637b2a6107a5b37a4d06c05916611975d0ad438968ecb9612560001b6118d0565b6000600260006112dd6118d3565b73ffffffffffffffffffffffffffffffffffffffff1673ffffffffffffffffffffffffffffffffffffffff16815260200190815260200160002060008573ffffffffffffffffffffffffffffffffffffffff1673ffffffffffffffffffffffffffffffffffffffff1681526020019081526020016000205490506113837f5c4c5b17c9dfeeb6c1278a7ba155c6d66364877bc5260e75bd500da88060124660001b6118d0565b6113af7f5f92d97918548249ffb9e70b72faa95a8bf9c181121f9e978a2ca2197785059f60001b6118d0565b6113db7f3f9cac0174c349ac883b503798f4f7402e5f75641b23754d27f992c5238e426160001b6118d0565b8281101561141e576040517f08c379a000000000000000000000000000000000000000000000000000000000815260040161141590612d3a565b60405180910390fd5b61144a7f5bf86eb6f3404f96fdf6cb5cc829db8f43161420bb7114dbccdf0f79669b2f2060001b6118d0565b6114767f32766e1fdf4607ae970c162e9f959ce9c63c77d7f4c809a4f6fcb5d489bb02a960001b6118d0565b6114a27fdbce515b635d34f96588fd5883df6e5f0b7dd571b95f813cbb8d4bd029be657460001b6118d0565b6114bf6114ad6118d3565b8585846114ba9190612e82565b6118db565b6114eb7f201fd7adb5036c1b9ae28c7aa50c38c55c74f55175aa1fa38ba8d37cc91da9e860001b6118d0565b6115177fd8175fbfb2bebc8fe8a63ba1dde5517cae72580ac0beeceb80bb132d8c71b21a60001b6118d0565b600191505092915050565b60006115507fb82335c066cc496c668a708cf677cde5bbdb0bcc766a8b6132d432e1bf892a9f60001b6118d0565b61157c7f12f3a206d23a69f12001b9650c4ffb2a18e7c8af9c94be582b7ef3d1db9ea09c60001b6118d0565b6115a87f57fb051521146211d6e7c7e7222273c443fc0c93a18eeb9edd90433fbe3f07cd60001b6118d0565b6115ba6115b36118d3565b8484611ce2565b6115e67ffedacbfaa184510510418b878e316be723490c1165a45cd4fa583057ef0fc0e360001b6118d0565b6116127f5e96f2ede87d6e8595875c8a93ec37c4265fd7fb81105a8fbca81591ca71b11f60001b6118d0565b6001905092915050565b600061164a7fb4f496f2c880799314b4c518bfd47b37bdd3f8ef6c3ccb3509951382b207bde460001b6118d0565b6116767ff91a03ea39e1e1c7a456cd72a978b5b9d770d3df63baaa87451d1bb699b5059f60001b6118d0565b6116a27f4e361880ede374fc1a18457bac990c6554f6b09762cc6b6e66eb8a59ad0896cf60001b6118d0565b600260008473ffffffffffffffffffffffffffffffffffffffff1673ffffffffffffffffffffffffffffffffffffffff16815260200190815260200160002060008373ffffffffffffffffffffffffffffffffffffffff1673ffffffffffffffffffffffffffffffffffffffff16815260200190815260200160002054905092915050565b61172f6118d3565b73ffffffffffffffffffffffffffffffffffffffff1661174d61110a565b73ffffffffffffffffffffffffffffffffffffffff16146117a3576040517f08c379a000000000000000000000000000000000000000000000000000000000815260040161179a90612cda565b60405180910390fd5b600073ffffffffffffffffffffffffffffffffffffffff168173ffffffffffffffffffffffffffffffffffffffff161415611813576040517f08c379a000000000000000000000000000000000000000000000000000000000815260040161180a90612c9a565b60405180910390fd5b8073ffffffffffffffffffffffffffffffffffffffff1660008054906101000a900473ffffffffffffffffffffffffffffffffffffffff1673ffffffffffffffffffffffffffffffffffffffff167f8be0079c531659141344cd1fd0a4f28419497f9722a3daafe3b4186f6b6457e060405160405180910390a3806000806101000a81548173ffffffffffffffffffffffffffffffffffffffff021916908373ffffffffffffffffffffffffffffffffffffffff16021790555050565b50565b600033905090565b6119077fca2ea0f5ccb6a03897e0ddcf9e6817d81f5bac8fbdc74ce2d8c88c4f706363a660001b6118d0565b6119337f4d0887d9809595a4ab8d16253ae204cb8a20d60c5c997c53557c6069f178e90a60001b6118d0565b61195f7f2a8399319c1362d3e76014eb4f6882599a5019e449c271b811cb7b48030878c960001b6118d0565b61198b7fd7ab2550228cfa94ceebeffe39065ac71e37aea20f7033a14878109817578cec60001b6118d0565b600073ffffffffffffffffffffffffffffffffffffffff168373ffffffffffffffffffffffffffffffffffffffff1614156119fb576040517f08c379a00000000000000000000000000000000000000000000000000000000081526004016119f290612c7a565b60405180910390fd5b611a277f7070a150143b0140fc32b418244e118fefb6c8996e067c62d54d4abb10d2941460001b6118d0565b611a537f410b9c9edeb1b35e55a7d669aba857126218c796734a94336cfa5dc1fee4526a60001b6118d0565b611a7f7f964fe0a844bb2aa60f7548321a62627883b643198ccb443f66820ba3c62e86af60001b6118d0565b611aab7f273cfa3e4ebc0715eabbf158f685681b37a623e385601fd78d50097bf943602c60001b6118d0565b600073ffffffffffffffffffffffffffffffffffffffff168273ffffffffffffffffffffffffffffffffffffffff161415611b1b576040517f08c379a0000000000000000000000000000000000000000000000000000000008152600401611b1290612dba565b60405180910390fd5b611b477f06cd03469ea1664ed1357de5955b443c86eebdd0850c642bd794c2688be1077e60001b6118d0565b611b737fada9e0f9221e1f11a21256963d8e99f47ef74a7cddea3d690f2051acb4232bbd60001b6118d0565b611b9f7f9b24aecec6468be367979a5724faa84a36abf5bf866a1f47f2c3aaf93a694fd260001b6118d0565b80600260008573ffffffffffffffffffffffffffffffffffffffff1673ffffffffffffffffffffffffffffffffffffffff16815260200190815260200160002060008473ffffffffffffffffffffffffffffffffffffffff1673ffffffffffffffffffffffffffffffffffffffff16815260200190815260200160002081905550611c4c7f4043f99b2c074f5fedf1250cc10ce7089b350a7c6b214ee900f248de34f7dda660001b6118d0565b611c787f81ff70cdade6cfc28cb7a442ae45668c3b683d866c46ecd6e2ce12b8cb01af7b60001b6118d0565b8173ffffffffffffffffffffffffffffffffffffffff168373ffffffffffffffffffffffffffffffffffffffff167f8c5be1e5ebec7d5bd14f71427d1e84f3dd0314c0f7b2291e5b200ac8c7c3b92583604051611cd59190612dda565b60405180910390a3505050565b611d0e7f84ddc6436b1ee76888579e73a4586bf4fb7475271a7a8fdc652f5a51c86e755560001b6118d0565b611d3a7f83602d37bf577810ce9922881c49fae9f38d7f1217cefd0687cfeea2d5ab785360001b6118d0565b611d667f7d710cec05260676d8dbbfc23eae148c8930f0363d305f773d4a08808998c36c60001b6118d0565b611d927f5663da5be93eba937077e26e5a42aca125822f118e693fee2f86efba49a285e060001b6118d0565b600073ffffffffffffffffffffffffffffffffffffffff168373ffffffffffffffffffffffffffffffffffffffff161415611e02576040517f08c379a0000000000000000000000000000000000000000000000000000000008152600401611df990612c5a565b60405180910390fd5b611e2e7f8d784fe104521bb72133df99bf84802087fc1d7bb5ec438547da5e3070f1781c60001b6118d0565b611e5a7f6a08bcfabdc775cd10b7fa042f65df10bba85cf399c86d4f12946f01e53823fa60001b6118d0565b611e867febaf60f087b590dddbe443599b1b8afed46cec909bb7a9c80f87959f7519fca260001b6118d0565b611eb27f62f6b451236ea30a871a4fd37c8907fc3cb06a756884e8bae4d4881ad9d0bfba60001b6118d0565b600073ffffffffffffffffffffffffffffffffffffffff168273ffffffffffffffffffffffffffffffffffffffff161415611f22576040517f08c379a0000000000000000000000000000000000000000000000000000000008152600401611f1990612d1a565b60405180910390fd5b611f4e7f7d1a6342d93b04b12bfde6083843caaa5b8d40a4070a11293111a3de9f07852460001b6118d0565b611f7a7f40235a2013651c6b831c5aaa546c07300b9cfd944b298a8caef92a57e41601ff60001b6118d0565b611fa67fbbc29bb0075b317058db70e44d3499f43bdbb214bc3cdf58a27ed0fe884ba7f260001b6118d0565b611fb1838383612875565b611fdd7f810e62a37aff74010be1e9b60c1d2a2180fe96c8e094da6e4c37c6b9e72261ef60001b6118d0565b6120097f4b1cb515dc8c9c3aa3e835bc73465174cb5a1904874508086b90807959bff28460001b6118d0565b6000600160008573ffffffffffffffffffffffffffffffffffffffff1673ffffffffffffffffffffffffffffffffffffffff1681526020019081526020016000205490506120797fa33dc2fa78299564e43ce5150fb5fcd26b8b27e91f74efd057d1d0ffdd56bd8260001b6118d0565b6120a57f22f11d5d3446cb8b63243dddea685b2a891b0e9ba934e38312d008d58a7d964f60001b6118d0565b6120d17f9d460f4a57098f7b78aa9422d848243220a1b79d595ea2c5244aff5526a449db60001b6118d0565b81811015612114576040517f08c379a000000000000000000000000000000000000000000000000000000000815260040161210b90612cfa565b60405180910390fd5b6121407fbe00ad36091d1162580b0006028849a5c823cc7559f33dd476ef5f478e8cd35b60001b6118d0565b61216c7f5091301fa51c01fe4a3b62d3c7450060161873df470be73c21bf188f0ede394260001b6118d0565b6121987fc92562b76bec0ef8474151a753f4b881bf2ab70e3055b5b62a632ff522a41ea660001b6118d0565b81816121a49190612e82565b600160008673ffffffffffffffffffffffffffffffffffffffff1673ffffffffffffffffffffffffffffffffffffffff168152602001908152602001600020819055506122137f8ed823fdceac080cc7d944cd5257453220935ef2b9987f58f478cb2731a3967f60001b6118d0565b61223f7f3084027f97a0800c8d1533ba09b9b5667da2fea1274309d89de57f59b95e09b060001b6118d0565b81600160008573ffffffffffffffffffffffffffffffffffffffff1673ffffffffffffffffffffffffffffffffffffffff168152602001908152602001600020600082825461228e9190612e2c565b925050819055506122c17f954130d903aabc26b9eaba0b17e956a2516d7aa7671f0a64d4e6f0ccdac6dbe260001b6118d0565b6122ed7f6b9d7acbfd57823c365d563d4e0aa85963a9b0fcf123e0aa3f3c8b5433570d3060001b6118d0565b8273ffffffffffffffffffffffffffffffffffffffff168473ffffffffffffffffffffffffffffffffffffffff167fddf252ad1be2c89b69c2b068fc378daa952ba7f163c4a11628f55a4df523b3ef8460405161234a9190612dda565b60405180910390a350505050565b50565b6123877f76f6181846aef407ec0693db3df0a3213202429a64f445d5012022d6de6c119e60001b6118d0565b6123b37fc6909def5a8b7abaa36614dce8e08d2c86cf55cddb02fe8e9a08e3fccada282660001b6118d0565b6123df7fa48a0bfe3b186d932215eecab34df508b7c7fbb701f51a2f95a8f3eac896f90d60001b6118d0565b61240b7f17832f98e0b84d0c05cccfb7368680bbe7a5491ebd66c66677a6d5538dc0006e60001b6118d0565b600073ffffffffffffffffffffffffffffffffffffffff168273ffffffffffffffffffffffffffffffffffffffff16141561247b576040517f08c379a000000000000000000000000000000000000000000000000000000000815260040161247290612d5a565b60405180910390fd5b6124a77fb4d214434c8ec3be425d9fc73d04ba8cbf5f4ed7dc5cc95ff6926e52501da84360001b6118d0565b6124d37fefeab52b7c9eaa381c923fd156365bce14def6ba930fba37e190be0229aca1fd60001b6118d0565b6124ff7f2e85ed7c54e500d012290227a5987c87785958b14d08a2678f2803b1b280dd8360001b6118d0565b61250b82600083612875565b6125377ffa96ccc7a98b58d8fd00b10ff90b455fde1a7d1566b790650f38670d4a49cafd60001b6118d0565b6125637f8ecff926acd1c50e8c38d1535a77eae7293a80d0fcf4e4058bf00232bbd950a060001b6118d0565b6000600160008473ffffffffffffffffffffffffffffffffffffffff1673ffffffffffffffffffffffffffffffffffffffff1681526020019081526020016000205490506125d37fa50bbf688a4d68bc833c3529b3e45d8c176a4dd0146e62dbbf15b03f7521aa2060001b6118d0565b6125ff7fc643aae517aaa3f80516a5e9a8621092001d9dd5bd47ea94cb7fea9a1742025560001b6118d0565b61262b7f59d3a8d3d780e29c6790b3fa0aac70e347bc051e4e57699b46601e169aba614560001b6118d0565b8181101561266e576040517f08c379a000000000000000000000000000000000000000000000000000000000815260040161266590612d7a565b60405180910390fd5b61269a7f8c52dedeaeb1383fc2875cf352c7d8127c204c319cc4007d22f7d6f1a9cbd9c660001b6118d0565b6126c67fedf7ba972b21b22c80ba50c8764900642eef0547e2815c3ee20d0be1f61bba3060001b6118d0565b6126f27ff605e4bd898dd40d1a206641eae7ba568cc6967cb01efce5fc6ececd79300db360001b6118d0565b81816126fe9190612e82565b600160008573ffffffffffffffffffffffffffffffffffffffff1673ffffffffffffffffffffffffffffffffffffffff1681526020019081526020016000208190555061276d7f7fb1a135c8c27ac53eb9850c411ce68d6d9415bed3fb7d37e6d043bb53b128c160001b6118d0565b6127997fb2c2b0e0ff595d16a22678b4865c7ff24e72e5b683abb15694f06194ba5c74d760001b6118d0565b81600360008282546127ab9190612e82565b925050819055506127de7fab6a4a3f9ec3f1697ba2d46f02bbaa370c77dbced276fd883b576dd0d364c61b60001b6118d0565b61280a7f2d0953634f14fd8a94b26705b21ec90458a0faac218e0478a56fe84e4656a3b660001b6118d0565b600073ffffffffffffffffffffffffffffffffffffffff168373ffffffffffffffffffffffffffffffffffffffff167fddf252ad1be2c89b69c2b068fc378daa952ba7f163c4a11628f55a4df523b3ef846040516128689190612dda565b60405180910390a3505050565b6128a17fdf1dfb0e3ec8664c0b9154c19ea4e17ab3772d3c93d8913baf6671d66a2dae1c60001b6118d0565b505050565b6000813590506128b58161336d565b92915050565b6000813590506128ca81613384565b92915050565b6000602082840312156128e257600080fd5b60006128f0848285016128a6565b91505092915050565b6000806040838503121561290c57600080fd5b600061291a858286016128a6565b925050602061292b858286016128a6565b9150509250929050565b60008060006060848603121561294a57600080fd5b6000612958868287016128a6565b9350506020612969868287016128a6565b925050604061297a868287016128bb565b9150509250925092565b6000806040838503121561299757600080fd5b60006129a5858286016128a6565b92505060206129b6858286016128bb565b9150509250929050565b6000602082840312156129d257600080fd5b60006129e0848285016128bb565b91505092915050565b6129f281612eb6565b82525050565b612a0181612ec8565b82525050565b6000612a1282612e10565b612a1c8185612e1b565b9350612a2c818560208601612f0b565b612a3581612fce565b840191505092915050565b6000612a4d602583612e1b565b9150612a5882612fdf565b604082019050919050565b6000612a70602483612e1b565b9150612a7b8261302e565b604082019050919050565b6000612a93602683612e1b565b9150612a9e8261307d565b604082019050919050565b6000612ab6602883612e1b565b9150612ac1826130cc565b604082019050919050565b6000612ad9602083612e1b565b9150612ae48261311b565b602082019050919050565b6000612afc602683612e1b565b9150612b0782613144565b604082019050919050565b6000612b1f602383612e1b565b9150612b2a82613193565b604082019050919050565b6000612b42602583612e1b565b9150612b4d826131e2565b604082019050919050565b6000612b65602183612e1b565b9150612b7082613231565b604082019050919050565b6000612b88602283612e1b565b9150612b9382613280565b604082019050919050565b6000612bab602483612e1b565b9150612bb6826132cf565b604082019050919050565b6000612bce602283612e1b565b9150612bd98261331e565b604082019050919050565b612bed81612ef4565b82525050565b612bfc81612efe565b82525050565b6000602082019050612c1760008301846129e9565b92915050565b6000602082019050612c3260008301846129f8565b92915050565b60006020820190508181036000830152612c528184612a07565b905092915050565b60006020820190508181036000830152612c7381612a40565b9050919050565b60006020820190508181036000830152612c9381612a63565b9050919050565b60006020820190508181036000830152612cb381612a86565b9050919050565b60006020820190508181036000830152612cd381612aa9565b9050919050565b60006020820190508181036000830152612cf381612acc565b9050919050565b60006020820190508181036000830152612d1381612aef565b9050919050565b60006020820190508181036000830152612d3381612b12565b9050919050565b60006020820190508181036000830152612d5381612b35565b9050919050565b60006020820190508181036000830152612d7381612b58565b9050919050565b60006020820190508181036000830152612d9381612b7b565b9050919050565b60006020820190508181036000830152612db381612b9e565b9050919050565b60006020820190508181036000830152612dd381612bc1565b9050919050565b6000602082019050612def6000830184612be4565b92915050565b6000602082019050612e0a6000830184612bf3565b92915050565b600081519050919050565b600082825260208201905092915050565b6000612e3782612ef4565b9150612e4283612ef4565b9250827fffffffffffffffffffffffffffffffffffffffffffffffffffffffffffffffff03821115612e7757612e76612f70565b5b828201905092915050565b6000612e8d82612ef4565b9150612e9883612ef4565b925082821015612eab57612eaa612f70565b5b828203905092915050565b6000612ec182612ed4565b9050919050565b60008115159050919050565b600073ffffffffffffffffffffffffffffffffffffffff82169050919050565b6000819050919050565b600060ff82169050919050565b60005b83811015612f29578082015181840152602081019050612f0e565b83811115612f38576000848401525b50505050565b60006002820490506001821680612f5657607f821691505b60208210811415612f6a57612f69612f9f565b5b50919050565b7f4e487b7100000000000000000000000000000000000000000000000000000000600052601160045260246000fd5b7f4e487b7100000000000000000000000000000000000000000000000000000000600052602260045260246000fd5b6000601f19601f8301169050919050565b7f42455032303a207472616e736665722066726f6d20746865207a65726f20616460008201527f6472657373000000000000000000000000000000000000000000000000000000602082015250565b7f42455032303a20617070726f76652066726f6d20746865207a65726f2061646460008201527f7265737300000000000000000000000000000000000000000000000000000000602082015250565b7f4f776e61626c653a206e6577206f776e657220697320746865207a65726f206160008201527f6464726573730000000000000000000000000000000000000000000000000000602082015250565b7f42455032303a207472616e7366657220616d6f756e742065786365656473206160008201527f6c6c6f77616e6365000000000000000000000000000000000000000000000000602082015250565b7f4f776e61626c653a2063616c6c6572206973206e6f7420746865206f776e6572600082015250565b7f42455032303a207472616e7366657220616d6f756e742065786365656473206260008201527f616c616e63650000000000000000000000000000000000000000000000000000602082015250565b7f42455032303a207472616e7366657220746f20746865207a65726f206164647260008201527f6573730000000000000000000000000000000000000000000000000000000000602082015250565b7f42455032303a2064656372656173656420616c6c6f77616e63652062656c6f7760008201527f207a65726f000000000000000000000000000000000000000000000000000000602082015250565b7f42455032303a206275726e2066726f6d20746865207a65726f2061646472657360008201527f7300000000000000000000000000000000000000000000000000000000000000602082015250565b7f42455032303a206275726e20616d6f756e7420657863656564732062616c616e60008201527f6365000000000000000000000000000000000000000000000000000000000000602082015250565b7f42455032303a206275726e20616d6f756e74206578636565647320616c6c6f7760008201527f616e636500000000000000000000000000000000000000000000000000000000602082015250565b7f42455032303a20617070726f766520746f20746865207a65726f20616464726560008201527f7373000000000000000000000000000000000000000000000000000000000000602082015250565b61337681612eb6565b811461338157600080fd5b50565b61338d81612ef4565b811461339857600080fd5b5056fea2646970667358221220fa3a0ac0140f55a60a68bafe0ebda2af81b60db5d58250a580244417c6394a7664736f6c63430008030033",
  "linkReferences": {},
  "deployedLinkReferences": {}
}