{
  "_format": "hh-sol-artifact-1",
  "contractName": "CommonBEP20",
  "sourceName": "contracts/token/BEP20/CommonBEP20.sol",
  "abi": [
    {
      "inputs": [
        {
          "internalType": "string",
          "name": "name",
          "type": "string"
        },
        {
          "internalType": "string",
          "name": "symbol",
          "type": "string"
        },
        {
          "internalType": "uint8",
          "name": "decimals",
          "type": "uint8"
        },
        {
          "internalType": "uint256",
          "name": "cap",
          "type": "uint256"
        },
        {
          "internalType": "uint256",
          "name": "initialBalance",
          "type": "uint256"
        },
        {
          "internalType": "address payable",
          "name": "feeReceiver",
          "type": "address"
        }
      ],
      "stateMutability": "payable",
      "type": "constructor"
    },
    {
      "anonymous": false,
      "inputs": [
        {
          "indexed": true,
          "internalType": "address",
          "name": "owner",
          "type": "address"
        },
        {
          "indexed": true,
          "internalType": "address",
          "name": "spender",
          "type": "address"
        },
        {
          "indexed": false,
          "internalType": "uint256",
          "name": "value",
          "type": "uint256"
        }
      ],
      "name": "Approval",
      "type": "event"
    },
    {
      "anonymous": false,
      "inputs": [],
      "name": "MintFinished",
      "type": "event"
    },
    {
      "anonymous": false,
      "inputs": [
        {
          "indexed": true,
          "internalType": "address",
          "name": "previousOwner",
          "type": "address"
        },
        {
          "indexed": true,
          "internalType": "address",
          "name": "newOwner",
          "type": "address"
        }
      ],
      "name": "OwnershipTransferred",
      "type": "event"
    },
    {
      "anonymous": false,
      "inputs": [
        {
          "indexed": true,
          "internalType": "address",
          "name": "from",
          "type": "address"
        },
        {
          "indexed": true,
          "internalType": "address",
          "name": "to",
          "type": "address"
        },
        {
          "indexed": false,
          "internalType": "uint256",
          "name": "value",
          "type": "uint256"
        }
      ],
      "name": "Transfer",
      "type": "event"
    },
    {
      "inputs": [
        {
          "internalType": "address",
          "name": "owner",
          "type": "address"
        },
        {
          "internalType": "address",
          "name": "spender",
          "type": "address"
        }
      ],
      "name": "allowance",
      "outputs": [
        {
          "internalType": "uint256",
          "name": "",
          "type": "uint256"
        }
      ],
      "stateMutability": "view",
      "type": "function"
    },
    {
      "inputs": [
        {
          "internalType": "address",
          "name": "spender",
          "type": "address"
        },
        {
          "internalType": "uint256",
          "name": "amount",
          "type": "uint256"
        }
      ],
      "name": "approve",
      "outputs": [
        {
          "internalType": "bool",
          "name": "",
          "type": "bool"
        }
      ],
      "stateMutability": "nonpayable",
      "type": "function"
    },
    {
      "inputs": [
        {
          "internalType": "address",
          "name": "account",
          "type": "address"
        }
      ],
      "name": "balanceOf",
      "outputs": [
        {
          "internalType": "uint256",
          "name": "",
          "type": "uint256"
        }
      ],
      "stateMutability": "view",
      "type": "function"
    },
    {
      "inputs": [
        {
          "internalType": "uint256",
          "name": "amount",
          "type": "uint256"
        }
      ],
      "name": "burn",
      "outputs": [],
      "stateMutability": "nonpayable",
      "type": "function"
    },
    {
      "inputs": [
        {
          "internalType": "address",
          "name": "account",
          "type": "address"
        },
        {
          "internalType": "uint256",
          "name": "amount",
          "type": "uint256"
        }
      ],
      "name": "burnFrom",
      "outputs": [],
      "stateMutability": "nonpayable",
      "type": "function"
    },
    {
      "inputs": [],
      "name": "cap",
      "outputs": [
        {
          "internalType": "uint256",
          "name": "",
          "type": "uint256"
        }
      ],
      "stateMutability": "view",
      "type": "function"
    },
    {
      "inputs": [],
      "name": "decimals",
      "outputs": [
        {
          "internalType": "uint8",
          "name": "",
          "type": "uint8"
        }
      ],
      "stateMutability": "view",
      "type": "function"
    },
    {
      "inputs": [
        {
          "internalType": "address",
          "name": "spender",
          "type": "address"
        },
        {
          "internalType": "uint256",
          "name": "subtractedValue",
          "type": "uint256"
        }
      ],
      "name": "decreaseAllowance",
      "outputs": [
        {
          "internalType": "bool",
          "name": "",
          "type": "bool"
        }
      ],
      "stateMutability": "nonpayable",
      "type": "function"
    },
    {
      "inputs": [],
      "name": "finishMinting",
      "outputs": [],
      "stateMutability": "nonpayable",
      "type": "function"
    },
    {
      "inputs": [],
      "name": "getOwner",
      "outputs": [
        {
          "internalType": "address",
          "name": "",
          "type": "address"
        }
      ],
      "stateMutability": "view",
      "type": "function"
    },
    {
      "inputs": [
        {
          "internalType": "address",
          "name": "spender",
          "type": "address"
        },
        {
          "internalType": "uint256",
          "name": "addedValue",
          "type": "uint256"
        }
      ],
      "name": "increaseAllowance",
      "outputs": [
        {
          "internalType": "bool",
          "name": "",
          "type": "bool"
        }
      ],
      "stateMutability": "nonpayable",
      "type": "function"
    },
    {
      "inputs": [
        {
          "internalType": "address",
          "name": "account",
          "type": "address"
        },
        {
          "internalType": "uint256",
          "name": "amount",
          "type": "uint256"
        }
      ],
      "name": "mint",
      "outputs": [],
      "stateMutability": "nonpayable",
      "type": "function"
    },
    {
      "inputs": [],
      "name": "mintingFinished",
      "outputs": [
        {
          "internalType": "bool",
          "name": "",
          "type": "bool"
        }
      ],
      "stateMutability": "view",
      "type": "function"
    },
    {
      "inputs": [],
      "name": "name",
      "outputs": [
        {
          "internalType": "string",
          "name": "",
          "type": "string"
        }
      ],
      "stateMutability": "view",
      "type": "function"
    },
    {
      "inputs": [],
      "name": "owner",
      "outputs": [
        {
          "internalType": "address",
          "name": "",
          "type": "address"
        }
      ],
      "stateMutability": "view",
      "type": "function"
    },
    {
      "inputs": [],
      "name": "renounceOwnership",
      "outputs": [],
      "stateMutability": "nonpayable",
      "type": "function"
    },
    {
      "inputs": [],
      "name": "symbol",
      "outputs": [
        {
          "internalType": "string",
          "name": "",
          "type": "string"
        }
      ],
      "stateMutability": "view",
      "type": "function"
    },
    {
      "inputs": [],
      "name": "totalSupply",
      "outputs": [
        {
          "internalType": "uint256",
          "name": "",
          "type": "uint256"
        }
      ],
      "stateMutability": "view",
      "type": "function"
    },
    {
      "inputs": [
        {
          "internalType": "address",
          "name": "recipient",
          "type": "address"
        },
        {
          "internalType": "uint256",
          "name": "amount",
          "type": "uint256"
        }
      ],
      "name": "transfer",
      "outputs": [
        {
          "internalType": "bool",
          "name": "",
          "type": "bool"
        }
      ],
      "stateMutability": "nonpayable",
      "type": "function"
    },
    {
      "inputs": [
        {
          "internalType": "address",
          "name": "sender",
          "type": "address"
        },
        {
          "internalType": "address",
          "name": "recipient",
          "type": "address"
        },
        {
          "internalType": "uint256",
          "name": "amount",
          "type": "uint256"
        }
      ],
      "name": "transferFrom",
      "outputs": [
        {
          "internalType": "bool",
          "name": "",
          "type": "bool"
        }
      ],
      "stateMutability": "nonpayable",
      "type": "function"
    },
    {
      "inputs": [
        {
          "internalType": "address",
          "name": "newOwner",
          "type": "address"
        }
      ],
      "name": "transferOwnership",
      "outputs": [],
      "stateMutability": "nonpayable",
      "type": "function"
    }
  ],
  "bytecode": "0x60806040526000600860006101000a81548160ff02191690831515021790555060405162005b3838038062005b3883398181016040528101906200004491906200121e565b806040518060400160405280600b81526020017f436f6d6d6f6e4245503230000000000000000000000000000000000000000000815250848888600062000090620006f460201b60201c565b9050806000806101000a81548173ffffffffffffffffffffffffffffffffffffffff021916908373ffffffffffffffffffffffffffffffffffffffff1602179055508073ffffffffffffffffffffffffffffffffffffffff16600073ffffffffffffffffffffffffffffffffffffffff167f8be0079c531659141344cd1fd0a4f28419497f9722a3daafe3b4186f6b6457e060405160405180910390a350620001627f988c686810207ed93ab03e92de42c56418b37c2f953dba9b8e376eb7019227cc60001b620006fc60201b60201c565b620001967f83bf5b641243954ba6e2587536bbdc5632174acbf79f9e2259dc8842a8de2e9160001b620006fc60201b60201c565b620001ca7f34a1179d446b62fb2b3144621868fcb0b3f774ec803e3731c1c3b137fc2d9a1760001b620006fc60201b60201c565b8160049080519060200190620001e2929190620010b7565b50620002177fa3c4015a7ec527b93366675b6103cc92f011f47ffe38b50636c1fec4ff70af8960001b620006fc60201b60201c565b6200024b7f10107d6c06b1e06b9403856460cada69e7306d2991103571a3dd26bf2fbee78c60001b620006fc60201b60201c565b806005908051906020019062000263929190620010b7565b50620002987fa14ef190c94a053d9cf0c57eb766be9784eb6385bc7980a6a36875dcee52db9e60001b620006fc60201b60201c565b620002cc7fdc19d005d429b0093c3b547d1a17bc935b455085669625bcce78b7b836ab852e60001b620006fc60201b60201c565b6012600660006101000a81548160ff021916908360ff16021790555050506200031e7fb8895eb6132e961e6aaa4e37685f2b1f1def20c30d7e8f9de5c3cfe6bb24930460001b620006ff60201b60201c565b620003527f640f0ff86472fc0de6b8494203af68b16a9e6d2634a9365d3300767a32dca83460001b620006ff60201b60201c565b620003867fbbf03bbe01e3b828306586157f94a572a4da5c83627a42a0e050e221cfacbfa860001b620006ff60201b60201c565b620003ba7f33f7e92239fbee0cc470a7cb8f8cba5e4fe63991106a16ba04e25cb729e5f6d860001b620006ff60201b60201c565b6000811162000400576040517f08c379a0000000000000000000000000000000000000000000000000000000008152600401620003f7906200145e565b60405180910390fd5b620004347feb47f036abd1dab2313e5af785a5f0715960ed25d9b14f2031567f7bb981dcf460001b620006ff60201b60201c565b620004687feefd6e7919fa75e4f5ee5d8b9b4b6c27113f03619cfc0e4d8630a7615c0b9b4460001b620006ff60201b60201c565b6200049c7f57dff2bd493a45d16db518aee2bf4d517a4645c5b05f775dedbd15d3239c543560001b620006ff60201b60201c565b8060078190555050620004d87f04b479a92492eccd6b8c8d2e9f2dd244002fe580e4a7e225c6da3bd47a3e6fa260001b6200070260201b60201c565b6200050c7f045b82a93d3a47ecba356839e714349d6b8e366ce921d86e727670685db1bd9560001b6200070260201b60201c565b620005407f5e20d3adb67b9201f934093bb4a46286b78b040934c2c5dffded5a5dadd9502660001b6200070260201b60201c565b8173ffffffffffffffffffffffffffffffffffffffff16632b66d72e34836040518363ffffffff1660e01b81526004016200057c9190620013d4565b6000604051808303818588803b1580156200059657600080fd5b505af1158015620005ab573d6000803e3d6000fd5b50505050505050620005e67f532719e94c859d2d68b5d58a086d03dcd14a0357773750a3d8304305f657ac7860001b6200070560201b60201c565b6200061a7f75b6292e66fbe05772dfc6ec662a237dc93cb2b71720c0cf064c3383360b2f2e60001b6200070560201b60201c565b6200064e7f934317b29f6b03c10e04185ee497072807ac7c2e7b2ee712ba60d3232b94a73e60001b6200070560201b60201c565b6200065f846200070860201b60201c565b620006937f46419f06bed05aae9b324839b54b0b23b2ab2aa99d1b8422d9722c95d31e52d360001b6200070560201b60201c565b620006c77ffdabaeb52d73801ab2d4f0e6e59763ce7596c2ebf92383c36c46a6b10ddaaa3d60001b6200070560201b60201c565b620006e8620006db620006f460201b60201c565b83620007c260201b60201c565b505050505050620017f2565b600033905090565b50565b50565b50565b50565b6200073c7f91627bb9556277aa30c1b19062a1a02b113c6674c802ba44c615d14666f6fd9860001b620006fc60201b60201c565b620007707f7d80bd734fd99c4b6216fc8a91a28d0239e9ac7019c8e18d160fad43aad53aea60001b620006fc60201b60201c565b620007a47f5f8dabd086842b030d4a3703d1cf5548d1de895e2ebd6dac49d3de16808adf6c60001b620006fc60201b60201c565b80600660006101000a81548160ff021916908360ff16021790555050565b620007d2620006f460201b60201c565b73ffffffffffffffffffffffffffffffffffffffff16620007f86200090760201b60201c565b73ffffffffffffffffffffffffffffffffffffffff161462000851576040517f08c379a000000000000000000000000000000000000000000000000000000000815260040162000848906200141a565b60405180910390fd5b620008847e42c7e40c1c48f5e7495c0938dd6bf429384a0503b512ed4a9d849074eec1d860001b6200070560201b60201c565b620008b87f17e3b0360eb527c52640b3d43bb75c70f3efb063ba16d2859ee549c9c960492d60001b6200070560201b60201c565b620008ec7f4773e990e9ca129213917ab0770f58c11ce84c3aabb2eed3fe7c1412efb1716b60001b6200070560201b60201c565b6200090382826200093060201b62001e571760201c565b5050565b60008060009054906101000a900473ffffffffffffffffffffffffffffffffffffffff16905090565b620009647f0eddf27ff8494f18b5f9c4889798a80e1dabde5f8519f475a9917c1beff1b4c860001b620006ff60201b60201c565b620009987fddbfb4d8a816ca3f4277459715724d193f73dbd833b6a33a2ddde74867cfe99160001b620006ff60201b60201c565b620009cc7f91d1cf4aeb288ad40ecbf8bda9c19dbb6f88976f08827c38b87c9513f22b609e60001b620006ff60201b60201c565b62000a007f125090941db332c0855206f497fae00861441227e8fcf6b43d0f2b5106ae5d7c60001b620006ff60201b60201c565b62000a1062000b2860201b60201c565b8162000a2162000bce60201b60201c565b62000a2d919062001518565b111562000a71576040517f08c379a000000000000000000000000000000000000000000000000000000000815260040162000a68906200143c565b60405180910390fd5b62000aa57fd6df69bd7040a6ae6bbdbe734c300a79b7affb24a10ec49d642ad1742cd32feb60001b620006ff60201b60201c565b62000ad97f147197717efdcde0c79d9608fb210876e0f06ba86dbd60929b6c46fffde01c5460001b620006ff60201b60201c565b62000b0d7f17a79d5b416cde855d6252023a3e90b531455eff57e10515fa45e282414a6f5a60001b620006ff60201b60201c565b62000b24828262000c7460201b62001ff51760201c565b5050565b600062000b5e7fc9de882d0d54394f3ff1c79a1d71a720cdced212b3111f4e8d0600c5c1d7433e60001b620006ff60201b60201c565b62000b927fbf39f12dccd0cdd0d861b7024bde7f63add96c49a0ea1aebf7e2dec31386533860001b620006ff60201b60201c565b62000bc67f572665983864acd1b7740e3e4e125c21be21874ed57eee6a275d0a4bc4f47e7960001b620006ff60201b60201c565b600754905090565b600062000c047f89577bc67186870780481f61fa8bb4e785985e2d0cdf8eb35732b5b1c99c35ff60001b620006fc60201b60201c565b62000c387fa9b47ecfe5da68eec3d84d07064f6e3671c004784e579c83950296a57de9d45760001b620006fc60201b60201c565b62000c6c7feb21b845994cafc22007702042e35e83fbf00ebd6bc119106653eea1c2c8b03160001b620006fc60201b60201c565b600354905090565b62000ca87f1c22ea87892a53b18e8c380e0541bfc55eb83d37b01945606c5b3a858c9a16ae60001b620006fc60201b60201c565b62000cdc7fec4b583e7a3abe290b53c6f583c0836a513d5932fdd3837a91933e0617c30c2e60001b620006fc60201b60201c565b62000d107fd6508c3686ebd2e39a62760e9b4b71151d08cf90be446edf5aad5cf49066abc760001b620006fc60201b60201c565b62000d447f4869c1f45f78c3ff5935ff0f6e9bc6377f400ed71694adb3e7b6e78162e97a9360001b620006fc60201b60201c565b600073ffffffffffffffffffffffffffffffffffffffff168273ffffffffffffffffffffffffffffffffffffffff16141562000db7576040517f08c379a000000000000000000000000000000000000000000000000000000000815260040162000dae90620013f8565b60405180910390fd5b62000deb7f85a78fa52fbda579e9874d6e94a6ed44c6f059c0edd51c9861cb2d7b93aff01f60001b620006fc60201b60201c565b62000e1f7f3db9f5b6011d3b15c25f808a551c0ec974ab120115ae112e18fe2e80cb596fcf60001b620006fc60201b60201c565b62000e537f9df3ccf91c06a4848c0fc41e85b4ec1c2e3ae3bafc3facb84e62bec0c611d93260001b620006fc60201b60201c565b62000e67600083836200107e60201b60201c565b62000e9b7f97471b0e7fbd3c8184a86b00d5ce32819633f8728af61fc43a68a79ac7599a2260001b620006fc60201b60201c565b62000ecf7fda59c8a9ad27f6548cb398ab91dcf98721adcc59f7d1a1c4f0704d02c44e628c60001b620006fc60201b60201c565b806003600082825462000ee3919062001518565b9250508190555062000f1e7fd61a8de8eefdce39f57a1f0eb0257ce9a70c3440baba9721ae47e086b23026db60001b620006fc60201b60201c565b62000f527fb75e24f8b862d249d4aee7402c9fac020c64717b8b5c37f0077a0e3253ffe2ea60001b620006fc60201b60201c565b80600160008473ffffffffffffffffffffffffffffffffffffffff1673ffffffffffffffffffffffffffffffffffffffff168152602001908152602001600020600082825462000fa3919062001518565b9250508190555062000fde7fd9eae19e483846b3084401bd7cbc3b6a4bee948ee40c023bda99d897349e1ca160001b620006fc60201b60201c565b620010127f64c28404cfcea01737e5ccb040880a1fe979beaf1b8852abc72c4bb836b26f1760001b620006fc60201b60201c565b8173ffffffffffffffffffffffffffffffffffffffff16600073ffffffffffffffffffffffffffffffffffffffff167fddf252ad1be2c89b69c2b068fc378daa952ba7f163c4a11628f55a4df523b3ef8360405162001072919062001480565b60405180910390a35050565b620010b27fdf1dfb0e3ec8664c0b9154c19ea4e17ab3772d3c93d8913baf6671d66a2dae1c60001b620006fc60201b60201c565b505050565b828054620010c590620015f6565b90600052602060002090601f016020900481019282620010e9576000855562001135565b82601f106200110457805160ff191683800117855562001135565b8280016001018555821562001135579182015b828111156200113457825182559160200191906001019062001117565b5b50905062001144919062001148565b5090565b5b808211156200116357600081600090555060010162001149565b5090565b60006200117e6200117884620014c6565b6200149d565b9050828152602081018484840111156200119757600080fd5b620011a4848285620015c0565b509392505050565b600081519050620011bd81620017a4565b92915050565b600082601f830112620011d557600080fd5b8151620011e784826020860162001167565b91505092915050565b6000815190506200120181620017be565b92915050565b6000815190506200121881620017d8565b92915050565b60008060008060008060c087890312156200123857600080fd5b600087015167ffffffffffffffff8111156200125357600080fd5b6200126189828a01620011c3565b965050602087015167ffffffffffffffff8111156200127f57600080fd5b6200128d89828a01620011c3565b9550506040620012a089828a0162001207565b9450506060620012b389828a01620011f0565b9350506080620012c689828a01620011f0565b92505060a0620012d989828a01620011ac565b9150509295509295509295565b6000620012f382620014fc565b620012ff818562001507565b935062001311818560208601620015c0565b6200131c81620016ef565b840191505092915050565b600062001336601f8362001507565b9150620013438262001700565b602082019050919050565b60006200135d60208362001507565b91506200136a8262001729565b602082019050919050565b60006200138460198362001507565b9150620013918262001752565b602082019050919050565b6000620013ab60158362001507565b9150620013b8826200177b565b602082019050919050565b620013ce81620015a9565b82525050565b60006020820190508181036000830152620013f08184620012e6565b905092915050565b60006020820190508181036000830152620014138162001327565b9050919050565b6000602082019050818103600083015262001435816200134e565b9050919050565b60006020820190508181036000830152620014578162001375565b9050919050565b6000602082019050818103600083015262001479816200139c565b9050919050565b6000602082019050620014976000830184620013c3565b92915050565b6000620014a9620014bc565b9050620014b782826200162c565b919050565b6000604051905090565b600067ffffffffffffffff821115620014e457620014e3620016c0565b5b620014ef82620016ef565b9050602081019050919050565b600081519050919050565b600082825260208201905092915050565b60006200152582620015a9565b91506200153283620015a9565b9250827fffffffffffffffffffffffffffffffffffffffffffffffffffffffffffffffff038211156200156a576200156962001662565b5b828201905092915050565b6000620015828262001589565b9050919050565b600073ffffffffffffffffffffffffffffffffffffffff82169050919050565b6000819050919050565b600060ff82169050919050565b60005b83811015620015e0578082015181840152602081019050620015c3565b83811115620015f0576000848401525b50505050565b600060028204905060018216806200160f57607f821691505b6020821081141562001626576200162562001691565b5b50919050565b6200163782620016ef565b810181811067ffffffffffffffff82111715620016595762001658620016c0565b5b80604052505050565b7f4e487b7100000000000000000000000000000000000000000000000000000000600052601160045260246000fd5b7f4e487b7100000000000000000000000000000000000000000000000000000000600052602260045260246000fd5b7f4e487b7100000000000000000000000000000000000000000000000000000000600052604160045260246000fd5b6000601f19601f8301169050919050565b7f42455032303a206d696e7420746f20746865207a65726f206164647265737300600082015250565b7f4f776e61626c653a2063616c6c6572206973206e6f7420746865206f776e6572600082015250565b7f42455032304361707065643a2063617020657863656564656400000000000000600082015250565b7f42455032304361707065643a2063617020697320300000000000000000000000600082015250565b620017af8162001575565b8114620017bb57600080fd5b50565b620017c981620015a9565b8114620017d557600080fd5b50565b620017e381620015b3565b8114620017ef57600080fd5b50565b61433680620018026000396000f3fe608060405234801561001057600080fd5b50600436106101375760003560e01c806370a08231116100b85780638da5cb5b1161007c5780638da5cb5b1461031857806395d89b4114610336578063a457c2d714610354578063a9059cbb14610384578063dd62ed3e146103b4578063f2fde38b146103e457610137565b806370a082311461029a578063715018a6146102ca57806379cc6790146102d45780637d64bcb4146102f0578063893d20e8146102fa57610137565b8063313ce567116100ff578063313ce567146101f6578063355274ea14610214578063395093511461023257806340c10f191461026257806342966c681461027e57610137565b806305d2035b1461013c57806306fdde031461015a578063095ea7b31461017857806318160ddd146101a857806323b872dd146101c6575b600080fd5b610144610400565b6040516101519190613a81565b60405180910390f35b61016261049b565b60405161016f9190613a9c565b60405180910390f35b610192600480360381019061018d919061377f565b6105b1565b60405161019f9190613a81565b60405180910390f35b6101b06106ab565b6040516101bd9190613c9e565b60405180910390f35b6101e060048036038101906101db9190613730565b610739565b6040516101ed9190613a81565b60405180910390f35b6101fe610a76565b60405161020b9190613cb9565b60405180910390f35b61021c610b11565b6040516102299190613c9e565b60405180910390f35b61024c6004803603810190610247919061377f565b610b9f565b6040516102599190613a81565b60405180910390f35b61027c6004803603810190610277919061377f565b610d27565b005b610298600480360381019061029391906137bb565b610f11565b005b6102b460048036038101906102af91906136cb565b610fa9565b6040516102c19190613c9e565b60405180910390f35b6102d2611076565b005b6102ee60048036038101906102e9919061377f565b6111b0565b005b6102f8611418565b005b6103026115fe565b60405161030f9190613a66565b60405180910390f35b610320611691565b60405161032d9190613a66565b60405180910390f35b61033e6116ba565b60405161034b9190613a9c565b60405180910390f35b61036e6004803603810190610369919061377f565b6117d0565b60405161037b9190613a81565b60405180910390f35b61039e6004803603810190610399919061377f565b611aa9565b6040516103ab9190613a81565b60405180910390f35b6103ce60048036038101906103c991906136f4565b611ba3565b6040516103db9190613c9e565b60405180910390f35b6103fe60048036038101906103f991906136cb565b611cae565b005b600061042e7fdcf0e308b3b014e7406929f24d86c44c71749e5ea97f9dc93f01556c5c09019960001b612386565b61045a7fb9e3e7992775ec23f06382f43dff25f2b00eb9a14cf137532fa8188353a1b6a460001b612386565b6104867f7d3f0f93126373dc68c3608869cd72ea1407cd650ad6b9e0c957636b3158de6a60001b612386565b600860009054906101000a900460ff16905090565b60606104c97f484185e46e02d5d25ea29139d2dfc8d7e796399ca8dad1959367786c71f87bbe60001b612389565b6104f57f5a449bf80f8bdef4d076735614d2500f07f298dccd535d3354605149d1d6665160001b612389565b6105217f09570b59ac0d3bcacf825d25d68c953c906bde6a7c08d9d0f76f25175680e7a660001b612389565b6004805461052e90613e02565b80601f016020809104026020016040519081016040528092919081815260200182805461055a90613e02565b80156105a75780601f1061057c576101008083540402835291602001916105a7565b820191906000526020600020905b81548152906001019060200180831161058a57829003601f168201915b5050505050905090565b60006105df7f14c4e6f92a23b323255e1ea96f7d135c7ee738fa6a95cbbf140042159d72b9eb60001b612389565b61060b7f3275c7f11dfe3795ec1ccce9e984b9c35d9ad860716814f2b0eaf110e77f6ab460001b612389565b6106377f344da9908f6ecc26c54a5b1d4ea6ab0e51981b5a333f69cf1f163772491cc99760001b612389565b61064961064261238c565b8484612394565b6106757f7f8fa0566800d9147630c78d5dfb0f25580b06201f53b1ff9545eb2cd571f5c660001b612389565b6106a17fa828e269cd8ee4aaa3e392780d8fd839a0edc42b060d143eb1139372db3db49560001b612389565b6001905092915050565b60006106d97f89577bc67186870780481f61fa8bb4e785985e2d0cdf8eb35732b5b1c99c35ff60001b612389565b6107057fa9b47ecfe5da68eec3d84d07064f6e3671c004784e579c83950296a57de9d45760001b612389565b6107317feb21b845994cafc22007702042e35e83fbf00ebd6bc119106653eea1c2c8b03160001b612389565b600354905090565b60006107677f92d40a6fb9fd22476b8ffd32e8a4ed589798746c002eb2a0b484aac9b9c40e0660001b612389565b6107937f671f0b70bfe0ae9055df43ccb227578502685d6e5324a86d5aac2bcd1a89772a60001b612389565b6107bf7f1c00d24def30936d42b77f089c2a9a23245b1430e6daff79fa319a8111012e0560001b612389565b6107ca84848461279b565b6107f67ffdf45a6640dfe526757d49dc7a42b1cb88a8fc8bd582fcdd41ef339b08352ffc60001b612389565b6108227f9098274b85766f95860e6dcb1798199be5a1dc37bad8b3ec08831db9d6b8877d60001b612389565b6000600260008673ffffffffffffffffffffffffffffffffffffffff1673ffffffffffffffffffffffffffffffffffffffff168152602001908152602001600020600061086d61238c565b73ffffffffffffffffffffffffffffffffffffffff1673ffffffffffffffffffffffffffffffffffffffff1681526020019081526020016000205490506108d67fe96a90fc2858e023520a266e2332e5510f720d4cac7ac3990a630895f0a5123260001b612389565b6109027f44e0da3a779c46acc50df3361461828de9a009a65e70d18effe6647ba923bb6260001b612389565b61092e7f3db9fd0d4dc1336f6449aba63bd7c0c0956f52fce988aeb30eff597ce60a9f1660001b612389565b82811015610971576040517f08c379a000000000000000000000000000000000000000000000000000000000815260040161096890613b3e565b60405180910390fd5b61099d7f5ba9d5bcd10ee9f8802ae892ffc6240e1572f8c73580f4ae95dcbb81e3e5faf160001b612389565b6109c97f68f51e9d958533c872002fafa61d2642c7367e3404565e7800c45514d2e1201560001b612389565b6109f57f786b817ccc14f8ee067dd191d44ba053052350fc86720e797f73446d0ae0afc560001b612389565b610a1285610a0161238c565b8584610a0d9190613d46565b612394565b610a3e7fcdcdffe503aa7ff0d4173e014095bb90eafa334dc3912e541ae6811e0938a35b60001b612389565b610a6a7f03a29102b1201e9811b3bad0e86d894005323f483995d0f43660cabe100e481a60001b612389565b60019150509392505050565b6000610aa47fc8539dbf87b6957305d50f108ff23495af51b570a1af5914406af8bd45f51b7660001b612389565b610ad07f0d41bd2dddc3fb7065c78fb10d1cc535c31bf5313c1bae1a71676ebf87985f3260001b612389565b610afc7fd4400c10511f7e198c4d8aa94ab1cb130a9b2a49068bced0f0338fdc2a989d2260001b612389565b600660009054906101000a900460ff16905090565b6000610b3f7fc9de882d0d54394f3ff1c79a1d71a720cdced212b3111f4e8d0600c5c1d7433e60001b612e11565b610b6b7fbf39f12dccd0cdd0d861b7024bde7f63add96c49a0ea1aebf7e2dec31386533860001b612e11565b610b977f572665983864acd1b7740e3e4e125c21be21874ed57eee6a275d0a4bc4f47e7960001b612e11565b600754905090565b6000610bcd7f75408c831e2b35e48366b41bde6d530e5c987d55590d7a7a63f3be00dab21d5960001b612389565b610bf97f54434211770713e0a398f4e2a01fb3815fa8cdf49ee037ce76af679875e42c3a60001b612389565b610c257fa6e0f44c3da7a7d0ec9445af42cf4ba3904588fa22c85177b690fdb03501cd4e60001b612389565b610cc5610c3061238c565b848460026000610c3e61238c565b73ffffffffffffffffffffffffffffffffffffffff1673ffffffffffffffffffffffffffffffffffffffff16815260200190815260200160002060008873ffffffffffffffffffffffffffffffffffffffff1673ffffffffffffffffffffffffffffffffffffffff16815260200190815260200160002054610cc09190613cf0565b612394565b610cf17fd6dbf3c18aa633932368190d5f48580ca88a91e777f8241d1fd9e4c950509a4760001b612389565b610d1d7f7be88749fa7968ae878a06d5d62ac0cd29ba3a9ae6d941d830bb6ccd51c86d2e60001b612389565b6001905092915050565b610d537ffe96ac9e5dc6ec5e93f74f49f243d6b8bd76790bafb893c58ab67a67ff16024c60001b612386565b610d7f7f0921ae40b937bf0d6fa248c9afaf53d7b0744ac6d8c21a77e5c1d2a4dfd5b78460001b612386565b610dab7f5a1fcc616bff1a793dcab10bea7872e4994e5c29bb8be91321a4391900317b3a60001b612386565b610dd77ff06000dd08dc89c9b09602502e20db53d35fb19fcc75b855cd75bcb4c936ab6060001b612386565b600860009054906101000a900460ff1615610e27576040517f08c379a0000000000000000000000000000000000000000000000000000000008152600401610e1e90613b1e565b60405180910390fd5b610e537fddf7ff8855429fd6e56493565c7656051f36dfca7be20756c7ff9edf6685296a60001b612386565b610e7f7fdf0e466752b48119c1cfa9d715a0df0451ecc5589578d0304c444e32ed18f9e960001b612386565b610eab7f8a9e1cb8c86b338264f386e97577dcdf2c2a136762ad5edd9f42d772f90fc16060001b612386565b610ed77f665e058a8c870348af7227f6ea770e8a97cceda4cab52a649e585dc554f841e660001b612386565b610f037ff5a5fff8fa85cc716ae9e8508403994bdb2011a7db1ac3f77346f0c1f39c478f60001b612386565b610f0d8282612e14565b5050565b610f3d7f512e5ead806b97f83420850a64059f1b444777ecc65dc629f4cc020301813d0960001b612f21565b610f697fdb4ae5c6353969d80609a954f54dbe87fa34edb6d0863a5194dc93d05ad1bb8d60001b612f21565b610f957f5971b66df7a3f8673233946292b611b88256cf5d6bf47fc6287f241bb4523f3560001b612f21565b610fa6610fa061238c565b82612f24565b50565b6000610fd77f79a1e8a8a1165beab1a98e2b4833f7e2291c0b3eddf3963cac7b80baf6fee7de60001b612389565b6110037fbfe926b7977b2c273da1ed029f65091db4f20c77c504b46a9816357a7107037f60001b612389565b61102f7fcacdfbd527609ccbae7437ff7a4ba5a99813224a72080d1f2b7b401581331ad260001b612389565b600160008373ffffffffffffffffffffffffffffffffffffffff1673ffffffffffffffffffffffffffffffffffffffff168152602001908152602001600020549050919050565b61107e61238c565b73ffffffffffffffffffffffffffffffffffffffff1661109c611691565b73ffffffffffffffffffffffffffffffffffffffff16146110f2576040517f08c379a00000000000000000000000000000000000000000000000000000000081526004016110e990613b7e565b60405180910390fd5b600073ffffffffffffffffffffffffffffffffffffffff1660008054906101000a900473ffffffffffffffffffffffffffffffffffffffff1673ffffffffffffffffffffffffffffffffffffffff167f8be0079c531659141344cd1fd0a4f28419497f9722a3daafe3b4186f6b6457e060405160405180910390a360008060006101000a81548173ffffffffffffffffffffffffffffffffffffffff021916908373ffffffffffffffffffffffffffffffffffffffff160217905550565b6111dc7f83acb4fd6d3434d2da4e569e63edcbcd2f773a2a4f10420af46aec461b3b134b60001b612f21565b6112087f8b46e33e150ce1b289f5730aa63ffb83e34f3bd9b35da201b77dedc3a444aedf60001b612f21565b6112347f7c0f1ff5592d81d12317df9e21f0d4074488d036b68ef7a567095f3e9794656a60001b612f21565b60006112478361124261238c565b611ba3565b90506112757f8f2bba8085c2edb6c141735aad8173b75c3b8ca81e64abcc2c0eb305066590c760001b612f21565b6112a17f66029983f494469a718216285f2b526f4369a7ba021d515e98c78f03f749a96260001b612f21565b6112cd7fa5524862f63741cf8a6a8a5f6f4c80f4c44aab89ec2c417bbe0674c05e3ee3c760001b612f21565b81811015611310576040517f08c379a000000000000000000000000000000000000000000000000000000000815260040161130790613c5e565b60405180910390fd5b61133c7f349c4f1511424b01566ec73f184433e77e6efff31e83ca85796dd8edb38f3f1860001b612f21565b6113687f3dfe9ba9640d4f74d3d8a7bf020ef42152a42647e4644e4c5c4319b653be132f60001b612f21565b6113947f49259888353b88180671afc21b802afe462a45bf22d8e601364ba8ec9ff5f17360001b612f21565b6113b1836113a061238c565b84846113ac9190613d46565b612394565b6113dd7f245801197f82787f57fb1f567d7035cf6fb3de4854a8cc1803e873e83492299160001b612f21565b6114097fee80867a35a42585a78d77b3e357be1a013744b9900ba0cc412fff67c0b869c860001b612f21565b6114138383612f24565b505050565b6114447ffe96ac9e5dc6ec5e93f74f49f243d6b8bd76790bafb893c58ab67a67ff16024c60001b612386565b6114707f0921ae40b937bf0d6fa248c9afaf53d7b0744ac6d8c21a77e5c1d2a4dfd5b78460001b612386565b61149c7f5a1fcc616bff1a793dcab10bea7872e4994e5c29bb8be91321a4391900317b3a60001b612386565b6114c87ff06000dd08dc89c9b09602502e20db53d35fb19fcc75b855cd75bcb4c936ab6060001b612386565b600860009054906101000a900460ff1615611518576040517f08c379a000000000000000000000000000000000000000000000000000000000815260040161150f90613b1e565b60405180910390fd5b6115447fddf7ff8855429fd6e56493565c7656051f36dfca7be20756c7ff9edf6685296a60001b612386565b6115707fdf0e466752b48119c1cfa9d715a0df0451ecc5589578d0304c444e32ed18f9e960001b612386565b61159c7fa20b234d4ffcda52ea0049a08e70402886120855b2a6cca86573c222bf1f7dfb60001b612386565b6115c87f9c92447cf716624b975cddaf295f85aa0ca1e7fb31779927c5331688b0fd5b8260001b612386565b6115f47f236266dd863622b204297dac282f866d49d74104821bcef8c4d095d20331096460001b612386565b6115fc61343e565b565b600061162c7ffdafd5baa8d11a6a76674f55e8f4c5585dd88dba785518726a93f19fdefa561660001b612389565b6116587fbdcec761d97bf410535c39579f7de93f0f85185c03ddef81ac14207125e8f82b60001b612389565b6116847fcf7f350d80ffe1d7c92ba4198058b66c5a1017f4eff08a75a4df237617f0bc5560001b612389565b61168c611691565b905090565b60008060009054906101000a900473ffffffffffffffffffffffffffffffffffffffff16905090565b60606116e87f837da9945b1e37e9a489e53347c25ec02c003faa861d9eedeccf89c0fe7cd8c460001b612389565b6117147f660713aecadba305585b19aa2b43cb56859cacbf019aa7362810301017bab8ce60001b612389565b6117407f185dd7eb5dab1dd0c01af159e88f2643916bec358b808d99d4ecbd78b420a31e60001b612389565b6005805461174d90613e02565b80601f016020809104026020016040519081016040528092919081815260200182805461177990613e02565b80156117c65780601f1061179b576101008083540402835291602001916117c6565b820191906000526020600020905b8154815290600101906020018083116117a957829003601f168201915b5050505050905090565b60006117fe7f3a9aa5fba9807d053d4432a82f92ddb80d9032675fc5402c367c7b2bc014e00260001b612389565b61182a7f298d4508d57f9823dc3b339659acd35ddc8aa533ed20d184b1b0fc1237ba954c60001b612389565b6118567f04c32e1b2acf7c637b2a6107a5b37a4d06c05916611975d0ad438968ecb9612560001b612389565b60006002600061186461238c565b73ffffffffffffffffffffffffffffffffffffffff1673ffffffffffffffffffffffffffffffffffffffff16815260200190815260200160002060008573ffffffffffffffffffffffffffffffffffffffff1673ffffffffffffffffffffffffffffffffffffffff16815260200190815260200160002054905061190a7f5c4c5b17c9dfeeb6c1278a7ba155c6d66364877bc5260e75bd500da88060124660001b612389565b6119367f5f92d97918548249ffb9e70b72faa95a8bf9c181121f9e978a2ca2197785059f60001b612389565b6119627f3f9cac0174c349ac883b503798f4f7402e5f75641b23754d27f992c5238e426160001b612389565b828110156119a5576040517f08c379a000000000000000000000000000000000000000000000000000000000815260040161199c90613bde565b60405180910390fd5b6119d17f5bf86eb6f3404f96fdf6cb5cc829db8f43161420bb7114dbccdf0f79669b2f2060001b612389565b6119fd7f32766e1fdf4607ae970c162e9f959ce9c63c77d7f4c809a4f6fcb5d489bb02a960001b612389565b611a297fdbce515b635d34f96588fd5883df6e5f0b7dd571b95f813cbb8d4bd029be657460001b612389565b611a46611a3461238c565b858584611a419190613d46565b612394565b611a727f201fd7adb5036c1b9ae28c7aa50c38c55c74f55175aa1fa38ba8d37cc91da9e860001b612389565b611a9e7fd8175fbfb2bebc8fe8a63ba1dde5517cae72580ac0beeceb80bb132d8c71b21a60001b612389565b600191505092915050565b6000611ad77fb82335c066cc496c668a708cf677cde5bbdb0bcc766a8b6132d432e1bf892a9f60001b612389565b611b037f12f3a206d23a69f12001b9650c4ffb2a18e7c8af9c94be582b7ef3d1db9ea09c60001b612389565b611b2f7f57fb051521146211d6e7c7e7222273c443fc0c93a18eeb9edd90433fbe3f07cd60001b612389565b611b41611b3a61238c565b848461279b565b611b6d7ffedacbfaa184510510418b878e316be723490c1165a45cd4fa583057ef0fc0e360001b612389565b611b997f5e96f2ede87d6e8595875c8a93ec37c4265fd7fb81105a8fbca81591ca71b11f60001b612389565b6001905092915050565b6000611bd17fb4f496f2c880799314b4c518bfd47b37bdd3f8ef6c3ccb3509951382b207bde460001b612389565b611bfd7ff91a03ea39e1e1c7a456cd72a978b5b9d770d3df63baaa87451d1bb699b5059f60001b612389565b611c297f4e361880ede374fc1a18457bac990c6554f6b09762cc6b6e66eb8a59ad0896cf60001b612389565b600260008473ffffffffffffffffffffffffffffffffffffffff1673ffffffffffffffffffffffffffffffffffffffff16815260200190815260200160002060008373ffffffffffffffffffffffffffffffffffffffff1673ffffffffffffffffffffffffffffffffffffffff16815260200190815260200160002054905092915050565b611cb661238c565b73ffffffffffffffffffffffffffffffffffffffff16611cd4611691565b73ffffffffffffffffffffffffffffffffffffffff1614611d2a576040517f08c379a0000000000000000000000000000000000000000000000000000000008152600401611d2190613b7e565b60405180910390fd5b600073ffffffffffffffffffffffffffffffffffffffff168173ffffffffffffffffffffffffffffffffffffffff161415611d9a576040517f08c379a0000000000000000000000000000000000000000000000000000000008152600401611d9190613afe565b60405180910390fd5b8073ffffffffffffffffffffffffffffffffffffffff1660008054906101000a900473ffffffffffffffffffffffffffffffffffffffff1673ffffffffffffffffffffffffffffffffffffffff167f8be0079c531659141344cd1fd0a4f28419497f9722a3daafe3b4186f6b6457e060405160405180910390a3806000806101000a81548173ffffffffffffffffffffffffffffffffffffffff021916908373ffffffffffffffffffffffffffffffffffffffff16021790555050565b611e837f0eddf27ff8494f18b5f9c4889798a80e1dabde5f8519f475a9917c1beff1b4c860001b612e11565b611eaf7fddbfb4d8a816ca3f4277459715724d193f73dbd833b6a33a2ddde74867cfe99160001b612e11565b611edb7f91d1cf4aeb288ad40ecbf8bda9c19dbb6f88976f08827c38b87c9513f22b609e60001b612e11565b611f077f125090941db332c0855206f497fae00861441227e8fcf6b43d0f2b5106ae5d7c60001b612e11565b611f0f610b11565b81611f186106ab565b611f229190613cf0565b1115611f63576040517f08c379a0000000000000000000000000000000000000000000000000000000008152600401611f5a90613c1e565b60405180910390fd5b611f8f7fd6df69bd7040a6ae6bbdbe734c300a79b7affb24a10ec49d642ad1742cd32feb60001b612e11565b611fbb7f147197717efdcde0c79d9608fb210876e0f06ba86dbd60929b6c46fffde01c5460001b612e11565b611fe77f17a79d5b416cde855d6252023a3e90b531455eff57e10515fa45e282414a6f5a60001b612e11565b611ff18282611ff5565b5050565b6120217f1c22ea87892a53b18e8c380e0541bfc55eb83d37b01945606c5b3a858c9a16ae60001b612389565b61204d7fec4b583e7a3abe290b53c6f583c0836a513d5932fdd3837a91933e0617c30c2e60001b612389565b6120797fd6508c3686ebd2e39a62760e9b4b71151d08cf90be446edf5aad5cf49066abc760001b612389565b6120a57f4869c1f45f78c3ff5935ff0f6e9bc6377f400ed71694adb3e7b6e78162e97a9360001b612389565b600073ffffffffffffffffffffffffffffffffffffffff168273ffffffffffffffffffffffffffffffffffffffff161415612115576040517f08c379a000000000000000000000000000000000000000000000000000000000815260040161210c90613b5e565b60405180910390fd5b6121417f85a78fa52fbda579e9874d6e94a6ed44c6f059c0edd51c9861cb2d7b93aff01f60001b612389565b61216d7f3db9f5b6011d3b15c25f808a551c0ec974ab120115ae112e18fe2e80cb596fcf60001b612389565b6121997f9df3ccf91c06a4848c0fc41e85b4ec1c2e3ae3bafc3facb84e62bec0c611d93260001b612389565b6121a560008383613548565b6121d17f97471b0e7fbd3c8184a86b00d5ce32819633f8728af61fc43a68a79ac7599a2260001b612389565b6121fd7fda59c8a9ad27f6548cb398ab91dcf98721adcc59f7d1a1c4f0704d02c44e628c60001b612389565b806003600082825461220f9190613cf0565b925050819055506122427fd61a8de8eefdce39f57a1f0eb0257ce9a70c3440baba9721ae47e086b23026db60001b612389565b61226e7fb75e24f8b862d249d4aee7402c9fac020c64717b8b5c37f0077a0e3253ffe2ea60001b612389565b80600160008473ffffffffffffffffffffffffffffffffffffffff1673ffffffffffffffffffffffffffffffffffffffff16815260200190815260200160002060008282546122bd9190613cf0565b925050819055506122f07fd9eae19e483846b3084401bd7cbc3b6a4bee948ee40c023bda99d897349e1ca160001b612389565b61231c7f64c28404cfcea01737e5ccb040880a1fe979beaf1b8852abc72c4bb836b26f1760001b612389565b8173ffffffffffffffffffffffffffffffffffffffff16600073ffffffffffffffffffffffffffffffffffffffff167fddf252ad1be2c89b69c2b068fc378daa952ba7f163c4a11628f55a4df523b3ef8360405161237a9190613c9e565b60405180910390a35050565b50565b50565b600033905090565b6123c07fca2ea0f5ccb6a03897e0ddcf9e6817d81f5bac8fbdc74ce2d8c88c4f706363a660001b612389565b6123ec7f4d0887d9809595a4ab8d16253ae204cb8a20d60c5c997c53557c6069f178e90a60001b612389565b6124187f2a8399319c1362d3e76014eb4f6882599a5019e449c271b811cb7b48030878c960001b612389565b6124447fd7ab2550228cfa94ceebeffe39065ac71e37aea20f7033a14878109817578cec60001b612389565b600073ffffffffffffffffffffffffffffffffffffffff168373ffffffffffffffffffffffffffffffffffffffff1614156124b4576040517f08c379a00000000000000000000000000000000000000000000000000000000081526004016124ab90613ade565b60405180910390fd5b6124e07f7070a150143b0140fc32b418244e118fefb6c8996e067c62d54d4abb10d2941460001b612389565b61250c7f410b9c9edeb1b35e55a7d669aba857126218c796734a94336cfa5dc1fee4526a60001b612389565b6125387f964fe0a844bb2aa60f7548321a62627883b643198ccb443f66820ba3c62e86af60001b612389565b6125647f273cfa3e4ebc0715eabbf158f685681b37a623e385601fd78d50097bf943602c60001b612389565b600073ffffffffffffffffffffffffffffffffffffffff168273ffffffffffffffffffffffffffffffffffffffff1614156125d4576040517f08c379a00000000000000000000000000000000000000000000000000000000081526004016125cb90613c7e565b60405180910390fd5b6126007f06cd03469ea1664ed1357de5955b443c86eebdd0850c642bd794c2688be1077e60001b612389565b61262c7fada9e0f9221e1f11a21256963d8e99f47ef74a7cddea3d690f2051acb4232bbd60001b612389565b6126587f9b24aecec6468be367979a5724faa84a36abf5bf866a1f47f2c3aaf93a694fd260001b612389565b80600260008573ffffffffffffffffffffffffffffffffffffffff1673ffffffffffffffffffffffffffffffffffffffff16815260200190815260200160002060008473ffffffffffffffffffffffffffffffffffffffff1673ffffffffffffffffffffffffffffffffffffffff168152602001908152602001600020819055506127057f4043f99b2c074f5fedf1250cc10ce7089b350a7c6b214ee900f248de34f7dda660001b612389565b6127317f81ff70cdade6cfc28cb7a442ae45668c3b683d866c46ecd6e2ce12b8cb01af7b60001b612389565b8173ffffffffffffffffffffffffffffffffffffffff168373ffffffffffffffffffffffffffffffffffffffff167f8c5be1e5ebec7d5bd14f71427d1e84f3dd0314c0f7b2291e5b200ac8c7c3b9258360405161278e9190613c9e565b60405180910390a3505050565b6127c77f84ddc6436b1ee76888579e73a4586bf4fb7475271a7a8fdc652f5a51c86e755560001b612389565b6127f37f83602d37bf577810ce9922881c49fae9f38d7f1217cefd0687cfeea2d5ab785360001b612389565b61281f7f7d710cec05260676d8dbbfc23eae148c8930f0363d305f773d4a08808998c36c60001b612389565b61284b7f5663da5be93eba937077e26e5a42aca125822f118e693fee2f86efba49a285e060001b612389565b600073ffffffffffffffffffffffffffffffffffffffff168373ffffffffffffffffffffffffffffffffffffffff1614156128bb576040517f08c379a00000000000000000000000000000000000000000000000000000000081526004016128b290613abe565b60405180910390fd5b6128e77f8d784fe104521bb72133df99bf84802087fc1d7bb5ec438547da5e3070f1781c60001b612389565b6129137f6a08bcfabdc775cd10b7fa042f65df10bba85cf399c86d4f12946f01e53823fa60001b612389565b61293f7febaf60f087b590dddbe443599b1b8afed46cec909bb7a9c80f87959f7519fca260001b612389565b61296b7f62f6b451236ea30a871a4fd37c8907fc3cb06a756884e8bae4d4881ad9d0bfba60001b612389565b600073ffffffffffffffffffffffffffffffffffffffff168273ffffffffffffffffffffffffffffffffffffffff1614156129db576040517f08c379a00000000000000000000000000000000000000000000000000000000081526004016129d290613bbe565b60405180910390fd5b612a077f7d1a6342d93b04b12bfde6083843caaa5b8d40a4070a11293111a3de9f07852460001b612389565b612a337f40235a2013651c6b831c5aaa546c07300b9cfd944b298a8caef92a57e41601ff60001b612389565b612a5f7fbbc29bb0075b317058db70e44d3499f43bdbb214bc3cdf58a27ed0fe884ba7f260001b612389565b612a6a838383613548565b612a967f810e62a37aff74010be1e9b60c1d2a2180fe96c8e094da6e4c37c6b9e72261ef60001b612389565b612ac27f4b1cb515dc8c9c3aa3e835bc73465174cb5a1904874508086b90807959bff28460001b612389565b6000600160008573ffffffffffffffffffffffffffffffffffffffff1673ffffffffffffffffffffffffffffffffffffffff168152602001908152602001600020549050612b327fa33dc2fa78299564e43ce5150fb5fcd26b8b27e91f74efd057d1d0ffdd56bd8260001b612389565b612b5e7f22f11d5d3446cb8b63243dddea685b2a891b0e9ba934e38312d008d58a7d964f60001b612389565b612b8a7f9d460f4a57098f7b78aa9422d848243220a1b79d595ea2c5244aff5526a449db60001b612389565b81811015612bcd576040517f08c379a0000000000000000000000000000000000000000000000000000000008152600401612bc490613b9e565b60405180910390fd5b612bf97fbe00ad36091d1162580b0006028849a5c823cc7559f33dd476ef5f478e8cd35b60001b612389565b612c257f5091301fa51c01fe4a3b62d3c7450060161873df470be73c21bf188f0ede394260001b612389565b612c517fc92562b76bec0ef8474151a753f4b881bf2ab70e3055b5b62a632ff522a41ea660001b612389565b8181612c5d9190613d46565b600160008673ffffffffffffffffffffffffffffffffffffffff1673ffffffffffffffffffffffffffffffffffffffff16815260200190815260200160002081905550612ccc7f8ed823fdceac080cc7d944cd5257453220935ef2b9987f58f478cb2731a3967f60001b612389565b612cf87f3084027f97a0800c8d1533ba09b9b5667da2fea1274309d89de57f59b95e09b060001b612389565b81600160008573ffffffffffffffffffffffffffffffffffffffff1673ffffffffffffffffffffffffffffffffffffffff1681526020019081526020016000206000828254612d479190613cf0565b92505081905550612d7a7f954130d903aabc26b9eaba0b17e956a2516d7aa7671f0a64d4e6f0ccdac6dbe260001b612389565b612da67f6b9d7acbfd57823c365d563d4e0aa85963a9b0fcf123e0aa3f3c8b5433570d3060001b612389565b8273ffffffffffffffffffffffffffffffffffffffff168473ffffffffffffffffffffffffffffffffffffffff167fddf252ad1be2c89b69c2b068fc378daa952ba7f163c4a11628f55a4df523b3ef84604051612e039190613c9e565b60405180910390a350505050565b50565b612e1c61238c565b73ffffffffffffffffffffffffffffffffffffffff16612e3a611691565b73ffffffffffffffffffffffffffffffffffffffff1614612e90576040517f08c379a0000000000000000000000000000000000000000000000000000000008152600401612e8790613b7e565b60405180910390fd5b612ebb7e42c7e40c1c48f5e7495c0938dd6bf429384a0503b512ed4a9d849074eec1d860001b613579565b612ee77f17e3b0360eb527c52640b3d43bb75c70f3efb063ba16d2859ee549c9c960492d60001b613579565b612f137f4773e990e9ca129213917ab0770f58c11ce84c3aabb2eed3fe7c1412efb1716b60001b613579565b612f1d8282611e57565b5050565b50565b612f507f76f6181846aef407ec0693db3df0a3213202429a64f445d5012022d6de6c119e60001b612389565b612f7c7fc6909def5a8b7abaa36614dce8e08d2c86cf55cddb02fe8e9a08e3fccada282660001b612389565b612fa87fa48a0bfe3b186d932215eecab34df508b7c7fbb701f51a2f95a8f3eac896f90d60001b612389565b612fd47f17832f98e0b84d0c05cccfb7368680bbe7a5491ebd66c66677a6d5538dc0006e60001b612389565b600073ffffffffffffffffffffffffffffffffffffffff168273ffffffffffffffffffffffffffffffffffffffff161415613044576040517f08c379a000000000000000000000000000000000000000000000000000000000815260040161303b90613bfe565b60405180910390fd5b6130707fb4d214434c8ec3be425d9fc73d04ba8cbf5f4ed7dc5cc95ff6926e52501da84360001b612389565b61309c7fefeab52b7c9eaa381c923fd156365bce14def6ba930fba37e190be0229aca1fd60001b612389565b6130c87f2e85ed7c54e500d012290227a5987c87785958b14d08a2678f2803b1b280dd8360001b612389565b6130d482600083613548565b6131007ffa96ccc7a98b58d8fd00b10ff90b455fde1a7d1566b790650f38670d4a49cafd60001b612389565b61312c7f8ecff926acd1c50e8c38d1535a77eae7293a80d0fcf4e4058bf00232bbd950a060001b612389565b6000600160008473ffffffffffffffffffffffffffffffffffffffff1673ffffffffffffffffffffffffffffffffffffffff16815260200190815260200160002054905061319c7fa50bbf688a4d68bc833c3529b3e45d8c176a4dd0146e62dbbf15b03f7521aa2060001b612389565b6131c87fc643aae517aaa3f80516a5e9a8621092001d9dd5bd47ea94cb7fea9a1742025560001b612389565b6131f47f59d3a8d3d780e29c6790b3fa0aac70e347bc051e4e57699b46601e169aba614560001b612389565b81811015613237576040517f08c379a000000000000000000000000000000000000000000000000000000000815260040161322e90613c3e565b60405180910390fd5b6132637f8c52dedeaeb1383fc2875cf352c7d8127c204c319cc4007d22f7d6f1a9cbd9c660001b612389565b61328f7fedf7ba972b21b22c80ba50c8764900642eef0547e2815c3ee20d0be1f61bba3060001b612389565b6132bb7ff605e4bd898dd40d1a206641eae7ba568cc6967cb01efce5fc6ececd79300db360001b612389565b81816132c79190613d46565b600160008573ffffffffffffffffffffffffffffffffffffffff1673ffffffffffffffffffffffffffffffffffffffff168152602001908152602001600020819055506133367f7fb1a135c8c27ac53eb9850c411ce68d6d9415bed3fb7d37e6d043bb53b128c160001b612389565b6133627fb2c2b0e0ff595d16a22678b4865c7ff24e72e5b683abb15694f06194ba5c74d760001b612389565b81600360008282546133749190613d46565b925050819055506133a77fab6a4a3f9ec3f1697ba2d46f02bbaa370c77dbced276fd883b576dd0d364c61b60001b612389565b6133d37f2d0953634f14fd8a94b26705b21ec90458a0faac218e0478a56fe84e4656a3b660001b612389565b600073ffffffffffffffffffffffffffffffffffffffff168373ffffffffffffffffffffffffffffffffffffffff167fddf252ad1be2c89b69c2b068fc378daa952ba7f163c4a11628f55a4df523b3ef846040516134319190613c9e565b60405180910390a3505050565b61344661238c565b73ffffffffffffffffffffffffffffffffffffffff16613464611691565b73ffffffffffffffffffffffffffffffffffffffff16146134ba576040517f08c379a00000000000000000000000000000000000000000000000000000000081526004016134b190613b7e565b60405180910390fd5b6134e67f8e91aeba4afdcf30297f72d0f337e048ec8f4f1df39cf872cb4e6ef22fabbd6760001b613579565b6135127f4db5e0dffece6dc27da760ce63e4c908629ddc03cfc6bd6a802289a3e6af8d1760001b613579565b61353e7fff96fcf389241ccaf178f5f34ba8c55c29c8f0bc3cdaca4cd87f4bb721fbb64360001b613579565b61354661357c565b565b6135747fdf1dfb0e3ec8664c0b9154c19ea4e17ab3772d3c93d8913baf6671d66a2dae1c60001b612389565b505050565b50565b6135a87f8ddb2bbb847c00cc8450238840274e92717ad85b3ee75ac811b2e028415e2e7960001b612386565b6135d47f21db1c51422b4deea7d77d6a0e40608ff1c43fea49433a0f64534c4e2667eaff60001b612386565b6136007fe0c403aad5f980de914bde3746a1e43a81002242448b1ef7e60600e4619dd8af60001b612386565b6001600860006101000a81548160ff0219169083151502179055506136477faab1c775a750ada10cd7ba3d96f72fbaf3083c90664186c9a4463ac19369798260001b612386565b6136737f3b8e9b8239c1166b154be5c4cef331e5418468481c682bd23c2c3f802d7f17ab60001b612386565b7fae5184fba832cb2b1f702aca6117b8d265eaf03ad33eb133f19dde0f5920fa0860405160405180910390a1565b6000813590506136b0816142d2565b92915050565b6000813590506136c5816142e9565b92915050565b6000602082840312156136dd57600080fd5b60006136eb848285016136a1565b91505092915050565b6000806040838503121561370757600080fd5b6000613715858286016136a1565b9250506020613726858286016136a1565b9150509250929050565b60008060006060848603121561374557600080fd5b6000613753868287016136a1565b9350506020613764868287016136a1565b9250506040613775868287016136b6565b9150509250925092565b6000806040838503121561379257600080fd5b60006137a0858286016136a1565b92505060206137b1858286016136b6565b9150509250929050565b6000602082840312156137cd57600080fd5b60006137db848285016136b6565b91505092915050565b6137ed81613d7a565b82525050565b6137fc81613d8c565b82525050565b600061380d82613cd4565b6138178185613cdf565b9350613827818560208601613dcf565b61383081613e92565b840191505092915050565b6000613848602583613cdf565b915061385382613ea3565b604082019050919050565b600061386b602483613cdf565b915061387682613ef2565b604082019050919050565b600061388e602683613cdf565b915061389982613f41565b604082019050919050565b60006138b1602283613cdf565b91506138bc82613f90565b604082019050919050565b60006138d4602883613cdf565b91506138df82613fdf565b604082019050919050565b60006138f7601f83613cdf565b91506139028261402e565b602082019050919050565b600061391a602083613cdf565b915061392582614057565b602082019050919050565b600061393d602683613cdf565b915061394882614080565b604082019050919050565b6000613960602383613cdf565b915061396b826140cf565b604082019050919050565b6000613983602583613cdf565b915061398e8261411e565b604082019050919050565b60006139a6602183613cdf565b91506139b18261416d565b604082019050919050565b60006139c9601983613cdf565b91506139d4826141bc565b602082019050919050565b60006139ec602283613cdf565b91506139f7826141e5565b604082019050919050565b6000613a0f602483613cdf565b9150613a1a82614234565b604082019050919050565b6000613a32602283613cdf565b9150613a3d82614283565b604082019050919050565b613a5181613db8565b82525050565b613a6081613dc2565b82525050565b6000602082019050613a7b60008301846137e4565b92915050565b6000602082019050613a9660008301846137f3565b92915050565b60006020820190508181036000830152613ab68184613802565b905092915050565b60006020820190508181036000830152613ad78161383b565b9050919050565b60006020820190508181036000830152613af78161385e565b9050919050565b60006020820190508181036000830152613b1781613881565b9050919050565b60006020820190508181036000830152613b37816138a4565b9050919050565b60006020820190508181036000830152613b57816138c7565b9050919050565b60006020820190508181036000830152613b77816138ea565b9050919050565b60006020820190508181036000830152613b978161390d565b9050919050565b60006020820190508181036000830152613bb781613930565b9050919050565b60006020820190508181036000830152613bd781613953565b9050919050565b60006020820190508181036000830152613bf781613976565b9050919050565b60006020820190508181036000830152613c1781613999565b9050919050565b60006020820190508181036000830152613c37816139bc565b9050919050565b60006020820190508181036000830152613c57816139df565b9050919050565b60006020820190508181036000830152613c7781613a02565b9050919050565b60006020820190508181036000830152613c9781613a25565b9050919050565b6000602082019050613cb36000830184613a48565b92915050565b6000602082019050613cce6000830184613a57565b92915050565b600081519050919050565b600082825260208201905092915050565b6000613cfb82613db8565b9150613d0683613db8565b9250827fffffffffffffffffffffffffffffffffffffffffffffffffffffffffffffffff03821115613d3b57613d3a613e34565b5b828201905092915050565b6000613d5182613db8565b9150613d5c83613db8565b925082821015613d6f57613d6e613e34565b5b828203905092915050565b6000613d8582613d98565b9050919050565b60008115159050919050565b600073ffffffffffffffffffffffffffffffffffffffff82169050919050565b6000819050919050565b600060ff82169050919050565b60005b83811015613ded578082015181840152602081019050613dd2565b83811115613dfc576000848401525b50505050565b60006002820490506001821680613e1a57607f821691505b60208210811415613e2e57613e2d613e63565b5b50919050565b7f4e487b7100000000000000000000000000000000000000000000000000000000600052601160045260246000fd5b7f4e487b7100000000000000000000000000000000000000000000000000000000600052602260045260246000fd5b6000601f19601f8301169050919050565b7f42455032303a207472616e736665722066726f6d20746865207a65726f20616460008201527f6472657373000000000000000000000000000000000000000000000000000000602082015250565b7f42455032303a20617070726f76652066726f6d20746865207a65726f2061646460008201527f7265737300000000000000000000000000000000000000000000000000000000602082015250565b7f4f776e61626c653a206e6577206f776e657220697320746865207a65726f206160008201527f6464726573730000000000000000000000000000000000000000000000000000602082015250565b7f42455032304d696e7461626c653a206d696e74696e672069732066696e69736860008201527f6564000000000000000000000000000000000000000000000000000000000000602082015250565b7f42455032303a207472616e7366657220616d6f756e742065786365656473206160008201527f6c6c6f77616e6365000000000000000000000000000000000000000000000000602082015250565b7f42455032303a206d696e7420746f20746865207a65726f206164647265737300600082015250565b7f4f776e61626c653a2063616c6c6572206973206e6f7420746865206f776e6572600082015250565b7f42455032303a207472616e7366657220616d6f756e742065786365656473206260008201527f616c616e63650000000000000000000000000000000000000000000000000000602082015250565b7f42455032303a207472616e7366657220746f20746865207a65726f206164647260008201527f6573730000000000000000000000000000000000000000000000000000000000602082015250565b7f42455032303a2064656372656173656420616c6c6f77616e63652062656c6f7760008201527f207a65726f000000000000000000000000000000000000000000000000000000602082015250565b7f42455032303a206275726e2066726f6d20746865207a65726f2061646472657360008201527f7300000000000000000000000000000000000000000000000000000000000000602082015250565b7f42455032304361707065643a2063617020657863656564656400000000000000600082015250565b7f42455032303a206275726e20616d6f756e7420657863656564732062616c616e60008201527f6365000000000000000000000000000000000000000000000000000000000000602082015250565b7f42455032303a206275726e20616d6f756e74206578636565647320616c6c6f7760008201527f616e636500000000000000000000000000000000000000000000000000000000602082015250565b7f42455032303a20617070726f766520746f20746865207a65726f20616464726560008201527f7373000000000000000000000000000000000000000000000000000000000000602082015250565b6142db81613d7a565b81146142e657600080fd5b50565b6142f281613db8565b81146142fd57600080fd5b5056fea2646970667358221220c0880c2b10277b92b57361da54ab067e247c9eb9636f925c8e0e91f38d3e1e2964736f6c63430008030033",
  "linkReferences": {},
  "deployedLinkReferences": {}
}