{
  "_format": "hh-sol-artifact-1",
  "contractName": "TokenRecover",
  "sourceName": "contracts/utils/TokenRecover.sol",
  "abi": [
    {
      "anonymous": false,
      "inputs": [
        {
          "indexed": true,
          "internalType": "address",
          "name": "previousOwner",
          "type": "address"
        },
        {
          "indexed": true,
          "internalType": "address",
          "name": "newOwner",
          "type": "address"
        }
      ],
      "name": "OwnershipTransferred",
      "type": "event"
    },
    {
      "inputs": [],
      "name": "owner",
      "outputs": [
        {
          "internalType": "address",
          "name": "",
          "type": "address"
        }
      ],
      "stateMutability": "view",
      "type": "function"
    },
    {
      "inputs": [
        {
          "internalType": "address",
          "name": "tokenAddress",
          "type": "address"
        },
        {
          "internalType": "uint256",
          "name": "tokenAmount",
          "type": "uint256"
        }
      ],
      "name": "recoverBEP20",
      "outputs": [],
      "stateMutability": "nonpayable",
      "type": "function"
    },
    {
      "inputs": [],
      "name": "renounceOwnership",
      "outputs": [],
      "stateMutability": "nonpayable",
      "type": "function"
    },
    {
      "inputs": [
        {
          "internalType": "address",
          "name": "newOwner",
          "type": "address"
        }
      ],
      "name": "transferOwnership",
      "outputs": [],
      "stateMutability": "nonpayable",
      "type": "function"
    }
  ],
  "bytecode": "0x608060405234801561001057600080fd5b5060006100216100c460201b60201c565b9050806000806101000a81548173ffffffffffffffffffffffffffffffffffffffff021916908373ffffffffffffffffffffffffffffffffffffffff1602179055508073ffffffffffffffffffffffffffffffffffffffff16600073ffffffffffffffffffffffffffffffffffffffff167f8be0079c531659141344cd1fd0a4f28419497f9722a3daafe3b4186f6b6457e060405160405180910390a3506100cc565b600033905090565b610862806100db6000396000f3fe608060405234801561001057600080fd5b506004361061004c5760003560e01c8063715018a6146100515780638da5cb5b1461005b578063efa0880614610079578063f2fde38b14610095575b600080fd5b6100596100b1565b005b6100636101eb565b6040516100709190610692565b60405180910390f35b610093600480360381019061008e91906105c9565b610214565b005b6100af60048036038101906100aa91906105a0565b6103ad565b005b6100b9610556565b73ffffffffffffffffffffffffffffffffffffffff166100d76101eb565b73ffffffffffffffffffffffffffffffffffffffff161461012d576040517f08c379a0000000000000000000000000000000000000000000000000000000008152600401610124906106f6565b60405180910390fd5b600073ffffffffffffffffffffffffffffffffffffffff1660008054906101000a900473ffffffffffffffffffffffffffffffffffffffff1673ffffffffffffffffffffffffffffffffffffffff167f8be0079c531659141344cd1fd0a4f28419497f9722a3daafe3b4186f6b6457e060405160405180910390a360008060006101000a81548173ffffffffffffffffffffffffffffffffffffffff021916908373ffffffffffffffffffffffffffffffffffffffff160217905550565b60008060009054906101000a900473ffffffffffffffffffffffffffffffffffffffff16905090565b61021c610556565b73ffffffffffffffffffffffffffffffffffffffff1661023a6101eb565b73ffffffffffffffffffffffffffffffffffffffff1614610290576040517f08c379a0000000000000000000000000000000000000000000000000000000008152600401610287906106f6565b60405180910390fd5b6102bc7fff0928b2ead43434a82dbdcf8562eefd43c023838fce214c66bb562650b4258860001b61055e565b6102e87fc50b27bdfe070784a433e12c531bb7f3214061c1f449c865ab68092dd47d593360001b61055e565b6103147f6aaadd2d0a749e436cced09d412667b408b4f4e60efafebefa4b1777c8e9019760001b61055e565b8173ffffffffffffffffffffffffffffffffffffffff1663a9059cbb6103386101eb565b836040518363ffffffff1660e01b81526004016103569291906106ad565b602060405180830381600087803b15801561037057600080fd5b505af1158015610384573d6000803e3d6000fd5b505050506040513d601f19601f820116820180604052508101906103a89190610605565b505050565b6103b5610556565b73ffffffffffffffffffffffffffffffffffffffff166103d36101eb565b73ffffffffffffffffffffffffffffffffffffffff1614610429576040517f08c379a0000000000000000000000000000000000000000000000000000000008152600401610420906106f6565b60405180910390fd5b600073ffffffffffffffffffffffffffffffffffffffff168173ffffffffffffffffffffffffffffffffffffffff161415610499576040517f08c379a0000000000000000000000000000000000000000000000000000000008152600401610490906106d6565b60405180910390fd5b8073ffffffffffffffffffffffffffffffffffffffff1660008054906101000a900473ffffffffffffffffffffffffffffffffffffffff1673ffffffffffffffffffffffffffffffffffffffff167f8be0079c531659141344cd1fd0a4f28419497f9722a3daafe3b4186f6b6457e060405160405180910390a3806000806101000a81548173ffffffffffffffffffffffffffffffffffffffff021916908373ffffffffffffffffffffffffffffffffffffffff16021790555050565b600033905090565b50565b600081359050610570816107e7565b92915050565b600081519050610585816107fe565b92915050565b60008135905061059a81610815565b92915050565b6000602082840312156105b257600080fd5b60006105c084828501610561565b91505092915050565b600080604083850312156105dc57600080fd5b60006105ea85828601610561565b92505060206105fb8582860161058b565b9150509250929050565b60006020828403121561061757600080fd5b600061062584828501610576565b91505092915050565b61063781610727565b82525050565b600061064a602683610716565b91506106558261076f565b604082019050919050565b600061066d602083610716565b9150610678826107be565b602082019050919050565b61068c81610765565b82525050565b60006020820190506106a7600083018461062e565b92915050565b60006040820190506106c2600083018561062e565b6106cf6020830184610683565b9392505050565b600060208201905081810360008301526106ef8161063d565b9050919050565b6000602082019050818103600083015261070f81610660565b9050919050565b600082825260208201905092915050565b600061073282610745565b9050919050565b60008115159050919050565b600073ffffffffffffffffffffffffffffffffffffffff82169050919050565b6000819050919050565b7f4f776e61626c653a206e6577206f776e657220697320746865207a65726f206160008201527f6464726573730000000000000000000000000000000000000000000000000000602082015250565b7f4f776e61626c653a2063616c6c6572206973206e6f7420746865206f776e6572600082015250565b6107f081610727565b81146107fb57600080fd5b50565b61080781610739565b811461081257600080fd5b50565b61081e81610765565b811461082957600080fd5b5056fea2646970667358221220fc55204d38e35322e72f93844d27e7c2cf191f64f74c283be035977bae0883a264736f6c63430008030033",
  "linkReferences": {},
  "deployedLinkReferences": {}
}