{
  "_format": "hh-sol-artifact-1",
  "contractName": "GeneratorCopyright",
  "sourceName": "contracts/utils/GeneratorCopyright.sol",
  "abi": [
    {
      "inputs": [
        {
          "internalType": "string",
          "name": "version_",
          "type": "string"
        }
      ],
      "stateMutability": "nonpayable",
      "type": "constructor"
    },
    {
      "inputs": [],
      "name": "generator",
      "outputs": [
        {
          "internalType": "string",
          "name": "",
          "type": "string"
        }
      ],
      "stateMutability": "pure",
      "type": "function"
    },
    {
      "inputs": [],
      "name": "version",
      "outputs": [
        {
          "internalType": "string",
          "name": "",
          "type": "string"
        }
      ],
      "stateMutability": "view",
      "type": "function"
    }
  ],
  "bytecode": "0x608060405234801561001057600080fd5b5060405161074c38038061074c833981810160405281019061003291906101f3565b6100647fb4ddddbd1184c8544d8c143fbd27696ab778b70d88f5b02856e8034cc5c92bbe60001b6100e560201b60201c565b6100967f3039df89ff4dcdd5266cd033e5564d0ed12ea2f49ac2686860a01a13ed453daf60001b6100e560201b60201c565b6100c87f39bb57fab1d36c9457826bdbc3c279a28896583c78ea6037c2e0c5cfca1970bf60001b6100e560201b60201c565b80600090805190602001906100de9291906100e8565b505061038f565b50565b8280546100f4906102bd565b90600052602060002090601f016020900481019282610116576000855561015d565b82601f1061012f57805160ff191683800117855561015d565b8280016001018555821561015d579182015b8281111561015c578251825591602001919060010190610141565b5b50905061016a919061016e565b5090565b5b8082111561018757600081600090555060010161016f565b5090565b600061019e61019984610259565b610234565b9050828152602081018484840111156101b657600080fd5b6101c184828561028a565b509392505050565b600082601f8301126101da57600080fd5b81516101ea84826020860161018b565b91505092915050565b60006020828403121561020557600080fd5b600082015167ffffffffffffffff81111561021f57600080fd5b61022b848285016101c9565b91505092915050565b600061023e61024f565b905061024a82826102ef565b919050565b6000604051905090565b600067ffffffffffffffff8211156102745761027361034f565b5b61027d8261037e565b9050602081019050919050565b60005b838110156102a857808201518184015260208101905061028d565b838111156102b7576000848401525b50505050565b600060028204905060018216806102d557607f821691505b602082108114156102e9576102e8610320565b5b50919050565b6102f88261037e565b810181811067ffffffffffffffff821117156103175761031661034f565b5b80604052505050565b7f4e487b7100000000000000000000000000000000000000000000000000000000600052602260045260246000fd5b7f4e487b7100000000000000000000000000000000000000000000000000000000600052604160045260246000fd5b6000601f19601f8301169050919050565b6103ae8061039e6000396000f3fe608060405234801561001057600080fd5b50600436106100365760003560e01c806354fd4d501461003b5780637afa1eed14610059575b600080fd5b610043610077565b604051610050919061026d565b60405180910390f35b61006161018d565b60405161006e919061026d565b60405180910390f35b60606100a57f8f9f60f3efbff0ccd6f06b4bf6d4fe1fa25798cb35e9ea17136a0b6714ff073260001b610231565b6100d17f55558ba58aa7188997104a06e91a4668df7c81c81a7f6fa3eb82062dd8f1078760001b610231565b6100fd7f19090e5873e356eed929fc6e8834ab6db3d1f49a8b5676f6efa8cb92318e0a5960001b610231565b6000805461010a906102de565b80601f0160208091040260200160405190810160405280929190818152602001828054610136906102de565b80156101835780601f1061015857610100808354040283529160200191610183565b820191906000526020600020905b81548152906001019060200180831161016657829003601f168201915b5050505050905090565b60606101bb7f4aaddbec5c6e8ef4678191a5885e6add8d311b9110c575d01776d8bfd61a8b2060001b610231565b6101e77f782b83fbe36139b85232b91611e8c8840fc2792ebba6848081e59f25adb70d6a60001b610231565b6102137fd042890618b4ae4d0b16c4c57b52416557e420110d04875539b551a0822a25a160001b610231565b60405180606001604052806028815260200161035160289139905090565b50565b600061023f8261028f565b610249818561029a565b93506102598185602086016102ab565b6102628161033f565b840191505092915050565b600060208201905081810360008301526102878184610234565b905092915050565b600081519050919050565b600082825260208201905092915050565b60005b838110156102c95780820151818401526020810190506102ae565b838111156102d8576000848401525b50505050565b600060028204905060018216806102f657607f821691505b6020821081141561030a57610309610310565b5b50919050565b7f4e487b7100000000000000000000000000000000000000000000000000000000600052602260045260246000fd5b6000601f19601f830116905091905056fe68747470733a2f2f6269742d627573696e6573732e6769746875622e696f2f636f696e6d616b6572a26469706673582212203c1277e5fcf32dd17e8c16ad9458db75f2e67e256e652de58112a1b1c6015a7964736f6c63430008030033",
  "linkReferences": {},
  "deployedLinkReferences": {}
}