{
  "_format": "hh-sol-artifact-1",
  "contractName": "BEP20OperableSpenderMock",
  "sourceName": "contracts/mocks/BEP20OperableSpenderMock.sol",
  "abi": [
    {
      "inputs": [
        {
          "internalType": "bytes4",
          "name": "retval",
          "type": "bytes4"
        },
        {
          "internalType": "bool",
          "name": "reverts",
          "type": "bool"
        }
      ],
      "stateMutability": "nonpayable",
      "type": "constructor"
    },
    {
      "anonymous": false,
      "inputs": [
        {
          "indexed": false,
          "internalType": "address",
          "name": "sender",
          "type": "address"
        },
        {
          "indexed": false,
          "internalType": "uint256",
          "name": "amount",
          "type": "uint256"
        },
        {
          "indexed": false,
          "internalType": "bytes",
          "name": "data",
          "type": "bytes"
        },
        {
          "indexed": false,
          "internalType": "uint256",
          "name": "gas",
          "type": "uint256"
        }
      ],
      "name": "Approved",
      "type": "event"
    },
    {
      "inputs": [
        {
          "internalType": "address",
          "name": "sender",
          "type": "address"
        },
        {
          "internalType": "uint256",
          "name": "amount",
          "type": "uint256"
        },
        {
          "internalType": "bytes",
          "name": "data",
          "type": "bytes"
        }
      ],
      "name": "onApprovalReceived",
      "outputs": [
        {
          "internalType": "bytes4",
          "name": "",
          "type": "bytes4"
        }
      ],
      "stateMutability": "nonpayable",
      "type": "function"
    }
  ],
  "bytecode": "0x608060405234801561001057600080fd5b506040516106aa3803806106aa8339818101604052810190610032919061009a565b816000806101000a81548163ffffffff021916908360e01c021790555080600060046101000a81548160ff021916908315150217905550505061013c565b60008151905061007f8161010e565b92915050565b60008151905061009481610125565b92915050565b600080604083850312156100ad57600080fd5b60006100bb85828601610085565b92505060206100cc85828601610070565b9150509250929050565b60008115159050919050565b60007fffffffff0000000000000000000000000000000000000000000000000000000082169050919050565b610117816100d6565b811461012257600080fd5b50565b61012e816100e2565b811461013957600080fd5b50565b61055f8061014b6000396000f3fe608060405234801561001057600080fd5b506004361061002b5760003560e01c80637b04a2d014610030575b600080fd5b61004a60048036038101906100459190610197565b610060565b60405161005791906102d3565b60405180910390f35b60008060049054906101000a900460ff16156100b1576040517f08c379a00000000000000000000000000000000000000000000000000000000081526004016100a8906102ee565b60405180910390fd5b7fe7c2bad6c6b2105a7cfcf604a9b58fc7f698a6bd195c88ea6242427303eaa51b8484845a6040516100e69493929190610287565b60405180910390a160008054906101000a900460e01b90509392505050565b600061011861011384610333565b61030e565b90508281526020810184848401111561013057600080fd5b61013b8482856103f9565b509392505050565b600081359050610152816104fb565b92915050565b600082601f83011261016957600080fd5b8135610179848260208601610105565b91505092915050565b60008135905061019181610512565b92915050565b6000806000606084860312156101ac57600080fd5b60006101ba86828701610143565b93505060206101cb86828701610182565b925050604084013567ffffffffffffffff8111156101e857600080fd5b6101f486828701610158565b9150509250925092565b61020781610391565b82525050565b610216816103a3565b82525050565b600061022782610364565b610231818561036f565b9350610241818560208601610408565b61024a8161049b565b840191505092915050565b6000610262602283610380565b915061026d826104ac565b604082019050919050565b610281816103ef565b82525050565b600060808201905061029c60008301876101fe565b6102a96020830186610278565b81810360408301526102bb818561021c565b90506102ca6060830184610278565b95945050505050565b60006020820190506102e8600083018461020d565b92915050565b6000602082019050818103600083015261030781610255565b9050919050565b6000610318610329565b9050610324828261043b565b919050565b6000604051905090565b600067ffffffffffffffff82111561034e5761034d61046c565b5b6103578261049b565b9050602081019050919050565b600081519050919050565b600082825260208201905092915050565b600082825260208201905092915050565b600061039c826103cf565b9050919050565b60007fffffffff0000000000000000000000000000000000000000000000000000000082169050919050565b600073ffffffffffffffffffffffffffffffffffffffff82169050919050565b6000819050919050565b82818337600083830152505050565b60005b8381101561042657808201518184015260208101905061040b565b83811115610435576000848401525b50505050565b6104448261049b565b810181811067ffffffffffffffff821117156104635761046261046c565b5b80604052505050565b7f4e487b7100000000000000000000000000000000000000000000000000000000600052604160045260246000fd5b6000601f19601f8301169050919050565b7f42455032304f70657261626c655370656e6465724d6f636b3a207468726f776960008201527f6e67000000000000000000000000000000000000000000000000000000000000602082015250565b61050481610391565b811461050f57600080fd5b50565b61051b816103ef565b811461052657600080fd5b5056fea26469706673582212202f2ffbc71088013afe7ad8350021d047d33ecd5fb160279a978aa24e21994d4064736f6c63430008030033",
  "linkReferences": {},
  "deployedLinkReferences": {}
}