{
  "_format": "hh-sol-artifact-1",
  "contractName": "StandardBEP20",
  "sourceName": "contracts/token/BEP20/StandardBEP20.sol",
  "abi": [
    {
      "inputs": [
        {
          "internalType": "string",
          "name": "name",
          "type": "string"
        },
        {
          "internalType": "string",
          "name": "symbol",
          "type": "string"
        },
        {
          "internalType": "uint8",
          "name": "decimals",
          "type": "uint8"
        },
        {
          "internalType": "uint256",
          "name": "initialBalance",
          "type": "uint256"
        },
        {
          "internalType": "address payable",
          "name": "feeReceiver",
          "type": "address"
        }
      ],
      "stateMutability": "payable",
      "type": "constructor"
    },
    {
      "anonymous": false,
      "inputs": [
        {
          "indexed": true,
          "internalType": "address",
          "name": "owner",
          "type": "address"
        },
        {
          "indexed": true,
          "internalType": "address",
          "name": "spender",
          "type": "address"
        },
        {
          "indexed": false,
          "internalType": "uint256",
          "name": "value",
          "type": "uint256"
        }
      ],
      "name": "Approval",
      "type": "event"
    },
    {
      "anonymous": false,
      "inputs": [
        {
          "indexed": true,
          "internalType": "address",
          "name": "previousOwner",
          "type": "address"
        },
        {
          "indexed": true,
          "internalType": "address",
          "name": "newOwner",
          "type": "address"
        }
      ],
      "name": "OwnershipTransferred",
      "type": "event"
    },
    {
      "anonymous": false,
      "inputs": [
        {
          "indexed": true,
          "internalType": "address",
          "name": "from",
          "type": "address"
        },
        {
          "indexed": true,
          "internalType": "address",
          "name": "to",
          "type": "address"
        },
        {
          "indexed": false,
          "internalType": "uint256",
          "name": "value",
          "type": "uint256"
        }
      ],
      "name": "Transfer",
      "type": "event"
    },
    {
      "inputs": [
        {
          "internalType": "address",
          "name": "owner",
          "type": "address"
        },
        {
          "internalType": "address",
          "name": "spender",
          "type": "address"
        }
      ],
      "name": "allowance",
      "outputs": [
        {
          "internalType": "uint256",
          "name": "",
          "type": "uint256"
        }
      ],
      "stateMutability": "view",
      "type": "function"
    },
    {
      "inputs": [
        {
          "internalType": "address",
          "name": "spender",
          "type": "address"
        },
        {
          "internalType": "uint256",
          "name": "amount",
          "type": "uint256"
        }
      ],
      "name": "approve",
      "outputs": [
        {
          "internalType": "bool",
          "name": "",
          "type": "bool"
        }
      ],
      "stateMutability": "nonpayable",
      "type": "function"
    },
    {
      "inputs": [
        {
          "internalType": "address",
          "name": "account",
          "type": "address"
        }
      ],
      "name": "balanceOf",
      "outputs": [
        {
          "internalType": "uint256",
          "name": "",
          "type": "uint256"
        }
      ],
      "stateMutability": "view",
      "type": "function"
    },
    {
      "inputs": [],
      "name": "decimals",
      "outputs": [
        {
          "internalType": "uint8",
          "name": "",
          "type": "uint8"
        }
      ],
      "stateMutability": "view",
      "type": "function"
    },
    {
      "inputs": [
        {
          "internalType": "address",
          "name": "spender",
          "type": "address"
        },
        {
          "internalType": "uint256",
          "name": "subtractedValue",
          "type": "uint256"
        }
      ],
      "name": "decreaseAllowance",
      "outputs": [
        {
          "internalType": "bool",
          "name": "",
          "type": "bool"
        }
      ],
      "stateMutability": "nonpayable",
      "type": "function"
    },
    {
      "inputs": [],
      "name": "getOwner",
      "outputs": [
        {
          "internalType": "address",
          "name": "",
          "type": "address"
        }
      ],
      "stateMutability": "view",
      "type": "function"
    },
    {
      "inputs": [
        {
          "internalType": "address",
          "name": "spender",
          "type": "address"
        },
        {
          "internalType": "uint256",
          "name": "addedValue",
          "type": "uint256"
        }
      ],
      "name": "increaseAllowance",
      "outputs": [
        {
          "internalType": "bool",
          "name": "",
          "type": "bool"
        }
      ],
      "stateMutability": "nonpayable",
      "type": "function"
    },
    {
      "inputs": [],
      "name": "name",
      "outputs": [
        {
          "internalType": "string",
          "name": "",
          "type": "string"
        }
      ],
      "stateMutability": "view",
      "type": "function"
    },
    {
      "inputs": [],
      "name": "owner",
      "outputs": [
        {
          "internalType": "address",
          "name": "",
          "type": "address"
        }
      ],
      "stateMutability": "view",
      "type": "function"
    },
    {
      "inputs": [],
      "name": "renounceOwnership",
      "outputs": [],
      "stateMutability": "nonpayable",
      "type": "function"
    },
    {
      "inputs": [],
      "name": "symbol",
      "outputs": [
        {
          "internalType": "string",
          "name": "",
          "type": "string"
        }
      ],
      "stateMutability": "view",
      "type": "function"
    },
    {
      "inputs": [],
      "name": "totalSupply",
      "outputs": [
        {
          "internalType": "uint256",
          "name": "",
          "type": "uint256"
        }
      ],
      "stateMutability": "view",
      "type": "function"
    },
    {
      "inputs": [
        {
          "internalType": "address",
          "name": "recipient",
          "type": "address"
        },
        {
          "internalType": "uint256",
          "name": "amount",
          "type": "uint256"
        }
      ],
      "name": "transfer",
      "outputs": [
        {
          "internalType": "bool",
          "name": "",
          "type": "bool"
        }
      ],
      "stateMutability": "nonpayable",
      "type": "function"
    },
    {
      "inputs": [
        {
          "internalType": "address",
          "name": "sender",
          "type": "address"
        },
        {
          "internalType": "address",
          "name": "recipient",
          "type": "address"
        },
        {
          "internalType": "uint256",
          "name": "amount",
          "type": "uint256"
        }
      ],
      "name": "transferFrom",
      "outputs": [
        {
          "internalType": "bool",
          "name": "",
          "type": "bool"
        }
      ],
      "stateMutability": "nonpayable",
      "type": "function"
    },
    {
      "inputs": [
        {
          "internalType": "address",
          "name": "newOwner",
          "type": "address"
        }
      ],
      "name": "transferOwnership",
      "outputs": [],
      "stateMutability": "nonpayable",
      "type": "function"
    }
  ],
  "bytecode": "0x608060405260405162003b4138038062003b41833981810160405281019062000029919062000ca8565b806040518060400160405280600d81526020017f5374616e6461726442455032300000000000000000000000000000000000000081525086866000620000746200063360201b60201c565b9050806000806101000a81548173ffffffffffffffffffffffffffffffffffffffff021916908373ffffffffffffffffffffffffffffffffffffffff1602179055508073ffffffffffffffffffffffffffffffffffffffff16600073ffffffffffffffffffffffffffffffffffffffff167f8be0079c531659141344cd1fd0a4f28419497f9722a3daafe3b4186f6b6457e060405160405180910390a350620001467f988c686810207ed93ab03e92de42c56418b37c2f953dba9b8e376eb7019227cc60001b6200063b60201b60201c565b6200017a7f83bf5b641243954ba6e2587536bbdc5632174acbf79f9e2259dc8842a8de2e9160001b6200063b60201b60201c565b620001ae7f34a1179d446b62fb2b3144621868fcb0b3f774ec803e3731c1c3b137fc2d9a1760001b6200063b60201b60201c565b8160049080519060200190620001c692919062000b41565b50620001fb7fa3c4015a7ec527b93366675b6103cc92f011f47ffe38b50636c1fec4ff70af8960001b6200063b60201b60201c565b6200022f7f10107d6c06b1e06b9403856460cada69e7306d2991103571a3dd26bf2fbee78c60001b6200063b60201b60201c565b80600590805190602001906200024792919062000b41565b506200027c7fa14ef190c94a053d9cf0c57eb766be9784eb6385bc7980a6a36875dcee52db9e60001b6200063b60201b60201c565b620002b07fdc19d005d429b0093c3b547d1a17bc935b455085669625bcce78b7b836ab852e60001b6200063b60201b60201c565b6012600660006101000a81548160ff021916908360ff1602179055505050620003027f04b479a92492eccd6b8c8d2e9f2dd244002fe580e4a7e225c6da3bd47a3e6fa260001b6200063e60201b60201c565b620003367f045b82a93d3a47ecba356839e714349d6b8e366ce921d86e727670685db1bd9560001b6200063e60201b60201c565b6200036a7f5e20d3adb67b9201f934093bb4a46286b78b040934c2c5dffded5a5dadd9502660001b6200063e60201b60201c565b8173ffffffffffffffffffffffffffffffffffffffff16632b66d72e34836040518363ffffffff1660e01b8152600401620003a6919062000dfc565b6000604051808303818588803b158015620003c057600080fd5b505af1158015620003d5573d6000803e3d6000fd5b50505050505050620004107faccf9365c0a33341c89a8f8223e0615b4235881dae4db9acbffd3d00209037d560001b6200064160201b60201c565b620004447fad008d4b054efa2dd5946d4268f5706eb2b4805310146a5e16ec5bb732b6b33360001b6200064160201b60201c565b620004787f6b10e55a8dde0bb89ea11d0ecfe3b80e97475b8bac7d30815bdd371edcde2bd860001b6200064160201b60201c565b620004ac7fcf9cefa577159b46cbb8e60c074e50cc8e05b8704cd37fd29215a9616e3fbc9f60001b6200064160201b60201c565b60008211620004f2576040517f08c379a0000000000000000000000000000000000000000000000000000000008152600401620004e99062000e20565b60405180910390fd5b620005267fab10a444e29bc37b19e9d00a4ef5ab7df74785270ec973703c2ffb3cd0c8ac9160001b6200064160201b60201c565b6200055a7f8377b2427571230f36574223630b286e595b62572782534d30b19d8b9c27de1c60001b6200064160201b60201c565b6200058e7f08b7ff748e3b454b8347a07952763149c4dfe04f746d509f6d2ee154b5d5967560001b6200064160201b60201c565b6200059f836200064460201b60201c565b620005d37fa32651613d8bb287f16fdaa98c2163976703266759302c934d2bea2118d716cf60001b6200064160201b60201c565b620006077f750a4f895ed14ca30780a1180023c61ef702dc77a8aeb599806cdd9368ea96b260001b6200064160201b60201c565b620006286200061b6200063360201b60201c565b83620006fe60201b60201c565b5050505050620011aa565b600033905090565b50565b50565b50565b620006787f91627bb9556277aa30c1b19062a1a02b113c6674c802ba44c615d14666f6fd9860001b6200063b60201b60201c565b620006ac7f7d80bd734fd99c4b6216fc8a91a28d0239e9ac7019c8e18d160fad43aad53aea60001b6200063b60201b60201c565b620006e07f5f8dabd086842b030d4a3703d1cf5548d1de895e2ebd6dac49d3de16808adf6c60001b6200063b60201b60201c565b80600660006101000a81548160ff021916908360ff16021790555050565b620007327f1c22ea87892a53b18e8c380e0541bfc55eb83d37b01945606c5b3a858c9a16ae60001b6200063b60201b60201c565b620007667fec4b583e7a3abe290b53c6f583c0836a513d5932fdd3837a91933e0617c30c2e60001b6200063b60201b60201c565b6200079a7fd6508c3686ebd2e39a62760e9b4b71151d08cf90be446edf5aad5cf49066abc760001b6200063b60201b60201c565b620007ce7f4869c1f45f78c3ff5935ff0f6e9bc6377f400ed71694adb3e7b6e78162e97a9360001b6200063b60201b60201c565b600073ffffffffffffffffffffffffffffffffffffffff168273ffffffffffffffffffffffffffffffffffffffff16141562000841576040517f08c379a0000000000000000000000000000000000000000000000000000000008152600401620008389062000e42565b60405180910390fd5b620008757f85a78fa52fbda579e9874d6e94a6ed44c6f059c0edd51c9861cb2d7b93aff01f60001b6200063b60201b60201c565b620008a97f3db9f5b6011d3b15c25f808a551c0ec974ab120115ae112e18fe2e80cb596fcf60001b6200063b60201b60201c565b620008dd7f9df3ccf91c06a4848c0fc41e85b4ec1c2e3ae3bafc3facb84e62bec0c611d93260001b6200063b60201b60201c565b620008f16000838362000b0860201b60201c565b620009257f97471b0e7fbd3c8184a86b00d5ce32819633f8728af61fc43a68a79ac7599a2260001b6200063b60201b60201c565b620009597fda59c8a9ad27f6548cb398ab91dcf98721adcc59f7d1a1c4f0704d02c44e628c60001b6200063b60201b60201c565b80600360008282546200096d919062000efc565b92505081905550620009a87fd61a8de8eefdce39f57a1f0eb0257ce9a70c3440baba9721ae47e086b23026db60001b6200063b60201b60201c565b620009dc7fb75e24f8b862d249d4aee7402c9fac020c64717b8b5c37f0077a0e3253ffe2ea60001b6200063b60201b60201c565b80600160008473ffffffffffffffffffffffffffffffffffffffff1673ffffffffffffffffffffffffffffffffffffffff168152602001908152602001600020600082825462000a2d919062000efc565b9250508190555062000a687fd9eae19e483846b3084401bd7cbc3b6a4bee948ee40c023bda99d897349e1ca160001b6200063b60201b60201c565b62000a9c7f64c28404cfcea01737e5ccb040880a1fe979beaf1b8852abc72c4bb836b26f1760001b6200063b60201b60201c565b8173ffffffffffffffffffffffffffffffffffffffff16600073ffffffffffffffffffffffffffffffffffffffff167fddf252ad1be2c89b69c2b068fc378daa952ba7f163c4a11628f55a4df523b3ef8360405162000afc919062000e64565b60405180910390a35050565b62000b3c7fdf1dfb0e3ec8664c0b9154c19ea4e17ab3772d3c93d8913baf6671d66a2dae1c60001b6200063b60201b60201c565b505050565b82805462000b4f9062000fda565b90600052602060002090601f01602090048101928262000b73576000855562000bbf565b82601f1062000b8e57805160ff191683800117855562000bbf565b8280016001018555821562000bbf579182015b8281111562000bbe57825182559160200191906001019062000ba1565b5b50905062000bce919062000bd2565b5090565b5b8082111562000bed57600081600090555060010162000bd3565b5090565b600062000c0862000c028462000eaa565b62000e81565b90508281526020810184848401111562000c2157600080fd5b62000c2e84828562000fa4565b509392505050565b60008151905062000c47816200115c565b92915050565b600082601f83011262000c5f57600080fd5b815162000c7184826020860162000bf1565b91505092915050565b60008151905062000c8b8162001176565b92915050565b60008151905062000ca28162001190565b92915050565b600080600080600060a0868803121562000cc157600080fd5b600086015167ffffffffffffffff81111562000cdc57600080fd5b62000cea8882890162000c4d565b955050602086015167ffffffffffffffff81111562000d0857600080fd5b62000d168882890162000c4d565b945050604062000d298882890162000c91565b935050606062000d3c8882890162000c7a565b925050608062000d4f8882890162000c36565b9150509295509295909350565b600062000d698262000ee0565b62000d75818562000eeb565b935062000d8781856020860162000fa4565b62000d9281620010d3565b840191505092915050565b600062000dac60248362000eeb565b915062000db982620010e4565b604082019050919050565b600062000dd3601f8362000eeb565b915062000de08262001133565b602082019050919050565b62000df68162000f8d565b82525050565b6000602082019050818103600083015262000e18818462000d5c565b905092915050565b6000602082019050818103600083015262000e3b8162000d9d565b9050919050565b6000602082019050818103600083015262000e5d8162000dc4565b9050919050565b600060208201905062000e7b600083018462000deb565b92915050565b600062000e8d62000ea0565b905062000e9b828262001010565b919050565b6000604051905090565b600067ffffffffffffffff82111562000ec85762000ec7620010a4565b5b62000ed382620010d3565b9050602081019050919050565b600081519050919050565b600082825260208201905092915050565b600062000f098262000f8d565b915062000f168362000f8d565b9250827fffffffffffffffffffffffffffffffffffffffffffffffffffffffffffffffff0382111562000f4e5762000f4d62001046565b5b828201905092915050565b600062000f668262000f6d565b9050919050565b600073ffffffffffffffffffffffffffffffffffffffff82169050919050565b6000819050919050565b600060ff82169050919050565b60005b8381101562000fc457808201518184015260208101905062000fa7565b8381111562000fd4576000848401525b50505050565b6000600282049050600182168062000ff357607f821691505b602082108114156200100a576200100962001075565b5b50919050565b6200101b82620010d3565b810181811067ffffffffffffffff821117156200103d576200103c620010a4565b5b80604052505050565b7f4e487b7100000000000000000000000000000000000000000000000000000000600052601160045260246000fd5b7f4e487b7100000000000000000000000000000000000000000000000000000000600052602260045260246000fd5b7f4e487b7100000000000000000000000000000000000000000000000000000000600052604160045260246000fd5b6000601f19601f8301169050919050565b7f5374616e6461726442455032303a20737570706c792063616e6e6f742062652060008201527f7a65726f00000000000000000000000000000000000000000000000000000000602082015250565b7f42455032303a206d696e7420746f20746865207a65726f206164647265737300600082015250565b620011678162000f59565b81146200117357600080fd5b50565b620011818162000f8d565b81146200118d57600080fd5b50565b6200119b8162000f97565b8114620011a757600080fd5b50565b61298780620011ba6000396000f3fe608060405234801561001057600080fd5b50600436106100f55760003560e01c8063715018a611610097578063a457c2d711610066578063a457c2d714610278578063a9059cbb146102a8578063dd62ed3e146102d8578063f2fde38b14610308576100f5565b8063715018a614610214578063893d20e81461021e5780638da5cb5b1461023c57806395d89b411461025a576100f5565b806323b872dd116100d357806323b872dd14610166578063313ce5671461019657806339509351146101b457806370a08231146101e4576100f5565b806306fdde03146100fa578063095ea7b31461011857806318160ddd14610148575b600080fd5b610102610324565b60405161010f919061233b565b60405180910390f35b610132600480360381019061012d9190612119565b61043a565b60405161013f9190612320565b60405180910390f35b610150610534565b60405161015d919061247d565b60405180910390f35b610180600480360381019061017b91906120ca565b6105c2565b60405161018d9190612320565b60405180910390f35b61019e6108ff565b6040516101ab9190612498565b60405180910390f35b6101ce60048036038101906101c99190612119565b61099a565b6040516101db9190612320565b60405180910390f35b6101fe60048036038101906101f99190612065565b610b22565b60405161020b919061247d565b60405180910390f35b61021c610bef565b005b610226610d29565b6040516102339190612305565b60405180910390f35b610244610dbc565b6040516102519190612305565b60405180910390f35b610262610de5565b60405161026f919061233b565b60405180910390f35b610292600480360381019061028d9190612119565b610efb565b60405161029f9190612320565b60405180910390f35b6102c260048036038101906102bd9190612119565b6111d4565b6040516102cf9190612320565b60405180910390f35b6102f260048036038101906102ed919061208e565b6112ce565b6040516102ff919061247d565b60405180910390f35b610322600480360381019061031d9190612065565b6113d9565b005b60606103527f484185e46e02d5d25ea29139d2dfc8d7e796399ca8dad1959367786c71f87bbe60001b611582565b61037e7f5a449bf80f8bdef4d076735614d2500f07f298dccd535d3354605149d1d6665160001b611582565b6103aa7f09570b59ac0d3bcacf825d25d68c953c906bde6a7c08d9d0f76f25175680e7a660001b611582565b600480546103b7906125e1565b80601f01602080910402602001604051908101604052809291908181526020018280546103e3906125e1565b80156104305780601f1061040557610100808354040283529160200191610430565b820191906000526020600020905b81548152906001019060200180831161041357829003601f168201915b5050505050905090565b60006104687f14c4e6f92a23b323255e1ea96f7d135c7ee738fa6a95cbbf140042159d72b9eb60001b611582565b6104947f3275c7f11dfe3795ec1ccce9e984b9c35d9ad860716814f2b0eaf110e77f6ab460001b611582565b6104c07f344da9908f6ecc26c54a5b1d4ea6ab0e51981b5a333f69cf1f163772491cc99760001b611582565b6104d26104cb611585565b848461158d565b6104fe7f7f8fa0566800d9147630c78d5dfb0f25580b06201f53b1ff9545eb2cd571f5c660001b611582565b61052a7fa828e269cd8ee4aaa3e392780d8fd839a0edc42b060d143eb1139372db3db49560001b611582565b6001905092915050565b60006105627f89577bc67186870780481f61fa8bb4e785985e2d0cdf8eb35732b5b1c99c35ff60001b611582565b61058e7fa9b47ecfe5da68eec3d84d07064f6e3671c004784e579c83950296a57de9d45760001b611582565b6105ba7feb21b845994cafc22007702042e35e83fbf00ebd6bc119106653eea1c2c8b03160001b611582565b600354905090565b60006105f07f92d40a6fb9fd22476b8ffd32e8a4ed589798746c002eb2a0b484aac9b9c40e0660001b611582565b61061c7f671f0b70bfe0ae9055df43ccb227578502685d6e5324a86d5aac2bcd1a89772a60001b611582565b6106487f1c00d24def30936d42b77f089c2a9a23245b1430e6daff79fa319a8111012e0560001b611582565b610653848484611994565b61067f7ffdf45a6640dfe526757d49dc7a42b1cb88a8fc8bd582fcdd41ef339b08352ffc60001b611582565b6106ab7f9098274b85766f95860e6dcb1798199be5a1dc37bad8b3ec08831db9d6b8877d60001b611582565b6000600260008673ffffffffffffffffffffffffffffffffffffffff1673ffffffffffffffffffffffffffffffffffffffff16815260200190815260200160002060006106f6611585565b73ffffffffffffffffffffffffffffffffffffffff1673ffffffffffffffffffffffffffffffffffffffff16815260200190815260200160002054905061075f7fe96a90fc2858e023520a266e2332e5510f720d4cac7ac3990a630895f0a5123260001b611582565b61078b7f44e0da3a779c46acc50df3361461828de9a009a65e70d18effe6647ba923bb6260001b611582565b6107b77f3db9fd0d4dc1336f6449aba63bd7c0c0956f52fce988aeb30eff597ce60a9f1660001b611582565b828110156107fa576040517f08c379a00000000000000000000000000000000000000000000000000000000081526004016107f1906123bd565b60405180910390fd5b6108267f5ba9d5bcd10ee9f8802ae892ffc6240e1572f8c73580f4ae95dcbb81e3e5faf160001b611582565b6108527f68f51e9d958533c872002fafa61d2642c7367e3404565e7800c45514d2e1201560001b611582565b61087e7f786b817ccc14f8ee067dd191d44ba053052350fc86720e797f73446d0ae0afc560001b611582565b61089b8561088a611585565b85846108969190612525565b61158d565b6108c77fcdcdffe503aa7ff0d4173e014095bb90eafa334dc3912e541ae6811e0938a35b60001b611582565b6108f37f03a29102b1201e9811b3bad0e86d894005323f483995d0f43660cabe100e481a60001b611582565b60019150509392505050565b600061092d7fc8539dbf87b6957305d50f108ff23495af51b570a1af5914406af8bd45f51b7660001b611582565b6109597f0d41bd2dddc3fb7065c78fb10d1cc535c31bf5313c1bae1a71676ebf87985f3260001b611582565b6109857fd4400c10511f7e198c4d8aa94ab1cb130a9b2a49068bced0f0338fdc2a989d2260001b611582565b600660009054906101000a900460ff16905090565b60006109c87f75408c831e2b35e48366b41bde6d530e5c987d55590d7a7a63f3be00dab21d5960001b611582565b6109f47f54434211770713e0a398f4e2a01fb3815fa8cdf49ee037ce76af679875e42c3a60001b611582565b610a207fa6e0f44c3da7a7d0ec9445af42cf4ba3904588fa22c85177b690fdb03501cd4e60001b611582565b610ac0610a2b611585565b848460026000610a39611585565b73ffffffffffffffffffffffffffffffffffffffff1673ffffffffffffffffffffffffffffffffffffffff16815260200190815260200160002060008873ffffffffffffffffffffffffffffffffffffffff1673ffffffffffffffffffffffffffffffffffffffff16815260200190815260200160002054610abb91906124cf565b61158d565b610aec7fd6dbf3c18aa633932368190d5f48580ca88a91e777f8241d1fd9e4c950509a4760001b611582565b610b187f7be88749fa7968ae878a06d5d62ac0cd29ba3a9ae6d941d830bb6ccd51c86d2e60001b611582565b6001905092915050565b6000610b507f79a1e8a8a1165beab1a98e2b4833f7e2291c0b3eddf3963cac7b80baf6fee7de60001b611582565b610b7c7fbfe926b7977b2c273da1ed029f65091db4f20c77c504b46a9816357a7107037f60001b611582565b610ba87fcacdfbd527609ccbae7437ff7a4ba5a99813224a72080d1f2b7b401581331ad260001b611582565b600160008373ffffffffffffffffffffffffffffffffffffffff1673ffffffffffffffffffffffffffffffffffffffff168152602001908152602001600020549050919050565b610bf7611585565b73ffffffffffffffffffffffffffffffffffffffff16610c15610dbc565b73ffffffffffffffffffffffffffffffffffffffff1614610c6b576040517f08c379a0000000000000000000000000000000000000000000000000000000008152600401610c62906123dd565b60405180910390fd5b600073ffffffffffffffffffffffffffffffffffffffff1660008054906101000a900473ffffffffffffffffffffffffffffffffffffffff1673ffffffffffffffffffffffffffffffffffffffff167f8be0079c531659141344cd1fd0a4f28419497f9722a3daafe3b4186f6b6457e060405160405180910390a360008060006101000a81548173ffffffffffffffffffffffffffffffffffffffff021916908373ffffffffffffffffffffffffffffffffffffffff160217905550565b6000610d577ffdafd5baa8d11a6a76674f55e8f4c5585dd88dba785518726a93f19fdefa561660001b611582565b610d837fbdcec761d97bf410535c39579f7de93f0f85185c03ddef81ac14207125e8f82b60001b611582565b610daf7fcf7f350d80ffe1d7c92ba4198058b66c5a1017f4eff08a75a4df237617f0bc5560001b611582565b610db7610dbc565b905090565b60008060009054906101000a900473ffffffffffffffffffffffffffffffffffffffff16905090565b6060610e137f837da9945b1e37e9a489e53347c25ec02c003faa861d9eedeccf89c0fe7cd8c460001b611582565b610e3f7f660713aecadba305585b19aa2b43cb56859cacbf019aa7362810301017bab8ce60001b611582565b610e6b7f185dd7eb5dab1dd0c01af159e88f2643916bec358b808d99d4ecbd78b420a31e60001b611582565b60058054610e78906125e1565b80601f0160208091040260200160405190810160405280929190818152602001828054610ea4906125e1565b8015610ef15780601f10610ec657610100808354040283529160200191610ef1565b820191906000526020600020905b815481529060010190602001808311610ed457829003601f168201915b5050505050905090565b6000610f297f3a9aa5fba9807d053d4432a82f92ddb80d9032675fc5402c367c7b2bc014e00260001b611582565b610f557f298d4508d57f9823dc3b339659acd35ddc8aa533ed20d184b1b0fc1237ba954c60001b611582565b610f817f04c32e1b2acf7c637b2a6107a5b37a4d06c05916611975d0ad438968ecb9612560001b611582565b600060026000610f8f611585565b73ffffffffffffffffffffffffffffffffffffffff1673ffffffffffffffffffffffffffffffffffffffff16815260200190815260200160002060008573ffffffffffffffffffffffffffffffffffffffff1673ffffffffffffffffffffffffffffffffffffffff1681526020019081526020016000205490506110357f5c4c5b17c9dfeeb6c1278a7ba155c6d66364877bc5260e75bd500da88060124660001b611582565b6110617f5f92d97918548249ffb9e70b72faa95a8bf9c181121f9e978a2ca2197785059f60001b611582565b61108d7f3f9cac0174c349ac883b503798f4f7402e5f75641b23754d27f992c5238e426160001b611582565b828110156110d0576040517f08c379a00000000000000000000000000000000000000000000000000000000081526004016110c79061243d565b60405180910390fd5b6110fc7f5bf86eb6f3404f96fdf6cb5cc829db8f43161420bb7114dbccdf0f79669b2f2060001b611582565b6111287f32766e1fdf4607ae970c162e9f959ce9c63c77d7f4c809a4f6fcb5d489bb02a960001b611582565b6111547fdbce515b635d34f96588fd5883df6e5f0b7dd571b95f813cbb8d4bd029be657460001b611582565b61117161115f611585565b85858461116c9190612525565b61158d565b61119d7f201fd7adb5036c1b9ae28c7aa50c38c55c74f55175aa1fa38ba8d37cc91da9e860001b611582565b6111c97fd8175fbfb2bebc8fe8a63ba1dde5517cae72580ac0beeceb80bb132d8c71b21a60001b611582565b600191505092915050565b60006112027fb82335c066cc496c668a708cf677cde5bbdb0bcc766a8b6132d432e1bf892a9f60001b611582565b61122e7f12f3a206d23a69f12001b9650c4ffb2a18e7c8af9c94be582b7ef3d1db9ea09c60001b611582565b61125a7f57fb051521146211d6e7c7e7222273c443fc0c93a18eeb9edd90433fbe3f07cd60001b611582565b61126c611265611585565b8484611994565b6112987ffedacbfaa184510510418b878e316be723490c1165a45cd4fa583057ef0fc0e360001b611582565b6112c47f5e96f2ede87d6e8595875c8a93ec37c4265fd7fb81105a8fbca81591ca71b11f60001b611582565b6001905092915050565b60006112fc7fb4f496f2c880799314b4c518bfd47b37bdd3f8ef6c3ccb3509951382b207bde460001b611582565b6113287ff91a03ea39e1e1c7a456cd72a978b5b9d770d3df63baaa87451d1bb699b5059f60001b611582565b6113547f4e361880ede374fc1a18457bac990c6554f6b09762cc6b6e66eb8a59ad0896cf60001b611582565b600260008473ffffffffffffffffffffffffffffffffffffffff1673ffffffffffffffffffffffffffffffffffffffff16815260200190815260200160002060008373ffffffffffffffffffffffffffffffffffffffff1673ffffffffffffffffffffffffffffffffffffffff16815260200190815260200160002054905092915050565b6113e1611585565b73ffffffffffffffffffffffffffffffffffffffff166113ff610dbc565b73ffffffffffffffffffffffffffffffffffffffff1614611455576040517f08c379a000000000000000000000000000000000000000000000000000000000815260040161144c906123dd565b60405180910390fd5b600073ffffffffffffffffffffffffffffffffffffffff168173ffffffffffffffffffffffffffffffffffffffff1614156114c5576040517f08c379a00000000000000000000000000000000000000000000000000000000081526004016114bc9061239d565b60405180910390fd5b8073ffffffffffffffffffffffffffffffffffffffff1660008054906101000a900473ffffffffffffffffffffffffffffffffffffffff1673ffffffffffffffffffffffffffffffffffffffff167f8be0079c531659141344cd1fd0a4f28419497f9722a3daafe3b4186f6b6457e060405160405180910390a3806000806101000a81548173ffffffffffffffffffffffffffffffffffffffff021916908373ffffffffffffffffffffffffffffffffffffffff16021790555050565b50565b600033905090565b6115b97fca2ea0f5ccb6a03897e0ddcf9e6817d81f5bac8fbdc74ce2d8c88c4f706363a660001b611582565b6115e57f4d0887d9809595a4ab8d16253ae204cb8a20d60c5c997c53557c6069f178e90a60001b611582565b6116117f2a8399319c1362d3e76014eb4f6882599a5019e449c271b811cb7b48030878c960001b611582565b61163d7fd7ab2550228cfa94ceebeffe39065ac71e37aea20f7033a14878109817578cec60001b611582565b600073ffffffffffffffffffffffffffffffffffffffff168373ffffffffffffffffffffffffffffffffffffffff1614156116ad576040517f08c379a00000000000000000000000000000000000000000000000000000000081526004016116a49061237d565b60405180910390fd5b6116d97f7070a150143b0140fc32b418244e118fefb6c8996e067c62d54d4abb10d2941460001b611582565b6117057f410b9c9edeb1b35e55a7d669aba857126218c796734a94336cfa5dc1fee4526a60001b611582565b6117317f964fe0a844bb2aa60f7548321a62627883b643198ccb443f66820ba3c62e86af60001b611582565b61175d7f273cfa3e4ebc0715eabbf158f685681b37a623e385601fd78d50097bf943602c60001b611582565b600073ffffffffffffffffffffffffffffffffffffffff168273ffffffffffffffffffffffffffffffffffffffff1614156117cd576040517f08c379a00000000000000000000000000000000000000000000000000000000081526004016117c49061245d565b60405180910390fd5b6117f97f06cd03469ea1664ed1357de5955b443c86eebdd0850c642bd794c2688be1077e60001b611582565b6118257fada9e0f9221e1f11a21256963d8e99f47ef74a7cddea3d690f2051acb4232bbd60001b611582565b6118517f9b24aecec6468be367979a5724faa84a36abf5bf866a1f47f2c3aaf93a694fd260001b611582565b80600260008573ffffffffffffffffffffffffffffffffffffffff1673ffffffffffffffffffffffffffffffffffffffff16815260200190815260200160002060008473ffffffffffffffffffffffffffffffffffffffff1673ffffffffffffffffffffffffffffffffffffffff168152602001908152602001600020819055506118fe7f4043f99b2c074f5fedf1250cc10ce7089b350a7c6b214ee900f248de34f7dda660001b611582565b61192a7f81ff70cdade6cfc28cb7a442ae45668c3b683d866c46ecd6e2ce12b8cb01af7b60001b611582565b8173ffffffffffffffffffffffffffffffffffffffff168373ffffffffffffffffffffffffffffffffffffffff167f8c5be1e5ebec7d5bd14f71427d1e84f3dd0314c0f7b2291e5b200ac8c7c3b92583604051611987919061247d565b60405180910390a3505050565b6119c07f84ddc6436b1ee76888579e73a4586bf4fb7475271a7a8fdc652f5a51c86e755560001b611582565b6119ec7f83602d37bf577810ce9922881c49fae9f38d7f1217cefd0687cfeea2d5ab785360001b611582565b611a187f7d710cec05260676d8dbbfc23eae148c8930f0363d305f773d4a08808998c36c60001b611582565b611a447f5663da5be93eba937077e26e5a42aca125822f118e693fee2f86efba49a285e060001b611582565b600073ffffffffffffffffffffffffffffffffffffffff168373ffffffffffffffffffffffffffffffffffffffff161415611ab4576040517f08c379a0000000000000000000000000000000000000000000000000000000008152600401611aab9061235d565b60405180910390fd5b611ae07f8d784fe104521bb72133df99bf84802087fc1d7bb5ec438547da5e3070f1781c60001b611582565b611b0c7f6a08bcfabdc775cd10b7fa042f65df10bba85cf399c86d4f12946f01e53823fa60001b611582565b611b387febaf60f087b590dddbe443599b1b8afed46cec909bb7a9c80f87959f7519fca260001b611582565b611b647f62f6b451236ea30a871a4fd37c8907fc3cb06a756884e8bae4d4881ad9d0bfba60001b611582565b600073ffffffffffffffffffffffffffffffffffffffff168273ffffffffffffffffffffffffffffffffffffffff161415611bd4576040517f08c379a0000000000000000000000000000000000000000000000000000000008152600401611bcb9061241d565b60405180910390fd5b611c007f7d1a6342d93b04b12bfde6083843caaa5b8d40a4070a11293111a3de9f07852460001b611582565b611c2c7f40235a2013651c6b831c5aaa546c07300b9cfd944b298a8caef92a57e41601ff60001b611582565b611c587fbbc29bb0075b317058db70e44d3499f43bdbb214bc3cdf58a27ed0fe884ba7f260001b611582565b611c6383838361200a565b611c8f7f810e62a37aff74010be1e9b60c1d2a2180fe96c8e094da6e4c37c6b9e72261ef60001b611582565b611cbb7f4b1cb515dc8c9c3aa3e835bc73465174cb5a1904874508086b90807959bff28460001b611582565b6000600160008573ffffffffffffffffffffffffffffffffffffffff1673ffffffffffffffffffffffffffffffffffffffff168152602001908152602001600020549050611d2b7fa33dc2fa78299564e43ce5150fb5fcd26b8b27e91f74efd057d1d0ffdd56bd8260001b611582565b611d577f22f11d5d3446cb8b63243dddea685b2a891b0e9ba934e38312d008d58a7d964f60001b611582565b611d837f9d460f4a57098f7b78aa9422d848243220a1b79d595ea2c5244aff5526a449db60001b611582565b81811015611dc6576040517f08c379a0000000000000000000000000000000000000000000000000000000008152600401611dbd906123fd565b60405180910390fd5b611df27fbe00ad36091d1162580b0006028849a5c823cc7559f33dd476ef5f478e8cd35b60001b611582565b611e1e7f5091301fa51c01fe4a3b62d3c7450060161873df470be73c21bf188f0ede394260001b611582565b611e4a7fc92562b76bec0ef8474151a753f4b881bf2ab70e3055b5b62a632ff522a41ea660001b611582565b8181611e569190612525565b600160008673ffffffffffffffffffffffffffffffffffffffff1673ffffffffffffffffffffffffffffffffffffffff16815260200190815260200160002081905550611ec57f8ed823fdceac080cc7d944cd5257453220935ef2b9987f58f478cb2731a3967f60001b611582565b611ef17f3084027f97a0800c8d1533ba09b9b5667da2fea1274309d89de57f59b95e09b060001b611582565b81600160008573ffffffffffffffffffffffffffffffffffffffff1673ffffffffffffffffffffffffffffffffffffffff1681526020019081526020016000206000828254611f4091906124cf565b92505081905550611f737f954130d903aabc26b9eaba0b17e956a2516d7aa7671f0a64d4e6f0ccdac6dbe260001b611582565b611f9f7f6b9d7acbfd57823c365d563d4e0aa85963a9b0fcf123e0aa3f3c8b5433570d3060001b611582565b8273ffffffffffffffffffffffffffffffffffffffff168473ffffffffffffffffffffffffffffffffffffffff167fddf252ad1be2c89b69c2b068fc378daa952ba7f163c4a11628f55a4df523b3ef84604051611ffc919061247d565b60405180910390a350505050565b6120367fdf1dfb0e3ec8664c0b9154c19ea4e17ab3772d3c93d8913baf6671d66a2dae1c60001b611582565b505050565b60008135905061204a81612923565b92915050565b60008135905061205f8161293a565b92915050565b60006020828403121561207757600080fd5b60006120858482850161203b565b91505092915050565b600080604083850312156120a157600080fd5b60006120af8582860161203b565b92505060206120c08582860161203b565b9150509250929050565b6000806000606084860312156120df57600080fd5b60006120ed8682870161203b565b93505060206120fe8682870161203b565b925050604061210f86828701612050565b9150509250925092565b6000806040838503121561212c57600080fd5b600061213a8582860161203b565b925050602061214b85828601612050565b9150509250929050565b61215e81612559565b82525050565b61216d8161256b565b82525050565b600061217e826124b3565b61218881856124be565b93506121988185602086016125ae565b6121a181612671565b840191505092915050565b60006121b96025836124be565b91506121c482612682565b604082019050919050565b60006121dc6024836124be565b91506121e7826126d1565b604082019050919050565b60006121ff6026836124be565b915061220a82612720565b604082019050919050565b60006122226028836124be565b915061222d8261276f565b604082019050919050565b60006122456020836124be565b9150612250826127be565b602082019050919050565b60006122686026836124be565b9150612273826127e7565b604082019050919050565b600061228b6023836124be565b915061229682612836565b604082019050919050565b60006122ae6025836124be565b91506122b982612885565b604082019050919050565b60006122d16022836124be565b91506122dc826128d4565b604082019050919050565b6122f081612597565b82525050565b6122ff816125a1565b82525050565b600060208201905061231a6000830184612155565b92915050565b60006020820190506123356000830184612164565b92915050565b600060208201905081810360008301526123558184612173565b905092915050565b60006020820190508181036000830152612376816121ac565b9050919050565b60006020820190508181036000830152612396816121cf565b9050919050565b600060208201905081810360008301526123b6816121f2565b9050919050565b600060208201905081810360008301526123d681612215565b9050919050565b600060208201905081810360008301526123f681612238565b9050919050565b600060208201905081810360008301526124168161225b565b9050919050565b600060208201905081810360008301526124368161227e565b9050919050565b60006020820190508181036000830152612456816122a1565b9050919050565b60006020820190508181036000830152612476816122c4565b9050919050565b600060208201905061249260008301846122e7565b92915050565b60006020820190506124ad60008301846122f6565b92915050565b600081519050919050565b600082825260208201905092915050565b60006124da82612597565b91506124e583612597565b9250827fffffffffffffffffffffffffffffffffffffffffffffffffffffffffffffffff0382111561251a57612519612613565b5b828201905092915050565b600061253082612597565b915061253b83612597565b92508282101561254e5761254d612613565b5b828203905092915050565b600061256482612577565b9050919050565b60008115159050919050565b600073ffffffffffffffffffffffffffffffffffffffff82169050919050565b6000819050919050565b600060ff82169050919050565b60005b838110156125cc5780820151818401526020810190506125b1565b838111156125db576000848401525b50505050565b600060028204905060018216806125f957607f821691505b6020821081141561260d5761260c612642565b5b50919050565b7f4e487b7100000000000000000000000000000000000000000000000000000000600052601160045260246000fd5b7f4e487b7100000000000000000000000000000000000000000000000000000000600052602260045260246000fd5b6000601f19601f8301169050919050565b7f42455032303a207472616e736665722066726f6d20746865207a65726f20616460008201527f6472657373000000000000000000000000000000000000000000000000000000602082015250565b7f42455032303a20617070726f76652066726f6d20746865207a65726f2061646460008201527f7265737300000000000000000000000000000000000000000000000000000000602082015250565b7f4f776e61626c653a206e6577206f776e657220697320746865207a65726f206160008201527f6464726573730000000000000000000000000000000000000000000000000000602082015250565b7f42455032303a207472616e7366657220616d6f756e742065786365656473206160008201527f6c6c6f77616e6365000000000000000000000000000000000000000000000000602082015250565b7f4f776e61626c653a2063616c6c6572206973206e6f7420746865206f776e6572600082015250565b7f42455032303a207472616e7366657220616d6f756e742065786365656473206260008201527f616c616e63650000000000000000000000000000000000000000000000000000602082015250565b7f42455032303a207472616e7366657220746f20746865207a65726f206164647260008201527f6573730000000000000000000000000000000000000000000000000000000000602082015250565b7f42455032303a2064656372656173656420616c6c6f77616e63652062656c6f7760008201527f207a65726f000000000000000000000000000000000000000000000000000000602082015250565b7f42455032303a20617070726f766520746f20746865207a65726f20616464726560008201527f7373000000000000000000000000000000000000000000000000000000000000602082015250565b61292c81612559565b811461293757600080fd5b50565b61294381612597565b811461294e57600080fd5b5056fea2646970667358221220c2426a9f2f13bc263a1baaa0acc897539596525b3de23f3ae474dae9392d8bbc64736f6c63430008030033",
  "linkReferences": {},
  "deployedLinkReferences": {}
}