{
  "_format": "hh-sol-artifact-1",
  "contractName": "BEP20OperableReceiverMock",
  "sourceName": "contracts/mocks/BEP20OperableReceiverMock.sol",
  "abi": [
    {
      "inputs": [
        {
          "internalType": "bytes4",
          "name": "retval",
          "type": "bytes4"
        },
        {
          "internalType": "bool",
          "name": "reverts",
          "type": "bool"
        }
      ],
      "stateMutability": "nonpayable",
      "type": "constructor"
    },
    {
      "anonymous": false,
      "inputs": [
        {
          "indexed": false,
          "internalType": "address",
          "name": "operator",
          "type": "address"
        },
        {
          "indexed": false,
          "internalType": "address",
          "name": "sender",
          "type": "address"
        },
        {
          "indexed": false,
          "internalType": "uint256",
          "name": "amount",
          "type": "uint256"
        },
        {
          "indexed": false,
          "internalType": "bytes",
          "name": "data",
          "type": "bytes"
        },
        {
          "indexed": false,
          "internalType": "uint256",
          "name": "gas",
          "type": "uint256"
        }
      ],
      "name": "Received",
      "type": "event"
    },
    {
      "inputs": [
        {
          "internalType": "address",
          "name": "operator",
          "type": "address"
        },
        {
          "internalType": "address",
          "name": "sender",
          "type": "address"
        },
        {
          "internalType": "uint256",
          "name": "amount",
          "type": "uint256"
        },
        {
          "internalType": "bytes",
          "name": "data",
          "type": "bytes"
        }
      ],
      "name": "onTransferReceived",
      "outputs": [
        {
          "internalType": "bytes4",
          "name": "",
          "type": "bytes4"
        }
      ],
      "stateMutability": "nonpayable",
      "type": "function"
    }
  ],
  "bytecode": "0x608060405234801561001057600080fd5b506040516106cf3803806106cf8339818101604052810190610032919061009a565b816000806101000a81548163ffffffff021916908360e01c021790555080600060046101000a81548160ff021916908315150217905550505061013c565b60008151905061007f8161010e565b92915050565b60008151905061009481610125565b92915050565b600080604083850312156100ad57600080fd5b60006100bb85828601610085565b92505060206100cc85828601610070565b9150509250929050565b60008115159050919050565b60007fffffffff0000000000000000000000000000000000000000000000000000000082169050919050565b610117816100d6565b811461012257600080fd5b50565b61012e816100e2565b811461013957600080fd5b50565b6105848061014b6000396000f3fe608060405234801561001057600080fd5b506004361061002b5760003560e01c806388a7ca5c14610030575b600080fd5b61004a6004803603810190610045919061019a565b610060565b60405161005791906102f8565b60405180910390f35b60008060049054906101000a900460ff16156100b1576040517f08c379a00000000000000000000000000000000000000000000000000000000081526004016100a890610313565b60405180910390fd5b7f28fa6e16458f9c24aa59ddd4085264573006dbe30304837873c7deafc702b038858585855a6040516100e895949392919061029e565b60405180910390a160008054906101000a900460e01b9050949350505050565b600061011b61011684610358565b610333565b90508281526020810184848401111561013357600080fd5b61013e84828561041e565b509392505050565b60008135905061015581610520565b92915050565b600082601f83011261016c57600080fd5b813561017c848260208601610108565b91505092915050565b60008135905061019481610537565b92915050565b600080600080608085870312156101b057600080fd5b60006101be87828801610146565b94505060206101cf87828801610146565b93505060406101e087828801610185565b925050606085013567ffffffffffffffff8111156101fd57600080fd5b6102098782880161015b565b91505092959194509250565b61021e816103b6565b82525050565b61022d816103c8565b82525050565b600061023e82610389565b6102488185610394565b935061025881856020860161042d565b610261816104c0565b840191505092915050565b60006102796023836103a5565b9150610284826104d1565b604082019050919050565b61029881610414565b82525050565b600060a0820190506102b36000830188610215565b6102c06020830187610215565b6102cd604083018661028f565b81810360608301526102df8185610233565b90506102ee608083018461028f565b9695505050505050565b600060208201905061030d6000830184610224565b92915050565b6000602082019050818103600083015261032c8161026c565b9050919050565b600061033d61034e565b90506103498282610460565b919050565b6000604051905090565b600067ffffffffffffffff82111561037357610372610491565b5b61037c826104c0565b9050602081019050919050565b600081519050919050565b600082825260208201905092915050565b600082825260208201905092915050565b60006103c1826103f4565b9050919050565b60007fffffffff0000000000000000000000000000000000000000000000000000000082169050919050565b600073ffffffffffffffffffffffffffffffffffffffff82169050919050565b6000819050919050565b82818337600083830152505050565b60005b8381101561044b578082015181840152602081019050610430565b8381111561045a576000848401525b50505050565b610469826104c0565b810181811067ffffffffffffffff8211171561048857610487610491565b5b80604052505050565b7f4e487b7100000000000000000000000000000000000000000000000000000000600052604160045260246000fd5b6000601f19601f8301169050919050565b7f42455032304f70657261626c6552656365697665724d6f636b3a207468726f7760008201527f696e670000000000000000000000000000000000000000000000000000000000602082015250565b610529816103b6565b811461053457600080fd5b50565b61054081610414565b811461054b57600080fd5b5056fea264697066735822122021de5e7dde3c90b2c6a04d04d718453fda8a99b623326ac37d0483e1a69b199164736f6c63430008030033",
  "linkReferences": {},
  "deployedLinkReferences": {}
}