{
  "_format": "hh-sol-artifact-1",
  "contractName": "UnlimitedBEP20",
  "sourceName": "contracts/token/BEP20/UnlimitedBEP20.sol",
  "abi": [
    {
      "inputs": [
        {
          "internalType": "string",
          "name": "name",
          "type": "string"
        },
        {
          "internalType": "string",
          "name": "symbol",
          "type": "string"
        },
        {
          "internalType": "uint8",
          "name": "decimals",
          "type": "uint8"
        },
        {
          "internalType": "uint256",
          "name": "initialBalance",
          "type": "uint256"
        },
        {
          "internalType": "address payable",
          "name": "feeReceiver",
          "type": "address"
        }
      ],
      "stateMutability": "payable",
      "type": "constructor"
    },
    {
      "anonymous": false,
      "inputs": [
        {
          "indexed": true,
          "internalType": "address",
          "name": "owner",
          "type": "address"
        },
        {
          "indexed": true,
          "internalType": "address",
          "name": "spender",
          "type": "address"
        },
        {
          "indexed": false,
          "internalType": "uint256",
          "name": "value",
          "type": "uint256"
        }
      ],
      "name": "Approval",
      "type": "event"
    },
    {
      "anonymous": false,
      "inputs": [],
      "name": "MintFinished",
      "type": "event"
    },
    {
      "anonymous": false,
      "inputs": [
        {
          "indexed": true,
          "internalType": "address",
          "name": "previousOwner",
          "type": "address"
        },
        {
          "indexed": true,
          "internalType": "address",
          "name": "newOwner",
          "type": "address"
        }
      ],
      "name": "OwnershipTransferred",
      "type": "event"
    },
    {
      "anonymous": false,
      "inputs": [
        {
          "indexed": true,
          "internalType": "address",
          "name": "from",
          "type": "address"
        },
        {
          "indexed": true,
          "internalType": "address",
          "name": "to",
          "type": "address"
        },
        {
          "indexed": false,
          "internalType": "uint256",
          "name": "value",
          "type": "uint256"
        }
      ],
      "name": "Transfer",
      "type": "event"
    },
    {
      "inputs": [
        {
          "internalType": "address",
          "name": "owner",
          "type": "address"
        },
        {
          "internalType": "address",
          "name": "spender",
          "type": "address"
        }
      ],
      "name": "allowance",
      "outputs": [
        {
          "internalType": "uint256",
          "name": "",
          "type": "uint256"
        }
      ],
      "stateMutability": "view",
      "type": "function"
    },
    {
      "inputs": [
        {
          "internalType": "address",
          "name": "spender",
          "type": "address"
        },
        {
          "internalType": "uint256",
          "name": "amount",
          "type": "uint256"
        }
      ],
      "name": "approve",
      "outputs": [
        {
          "internalType": "bool",
          "name": "",
          "type": "bool"
        }
      ],
      "stateMutability": "nonpayable",
      "type": "function"
    },
    {
      "inputs": [
        {
          "internalType": "address",
          "name": "account",
          "type": "address"
        }
      ],
      "name": "balanceOf",
      "outputs": [
        {
          "internalType": "uint256",
          "name": "",
          "type": "uint256"
        }
      ],
      "stateMutability": "view",
      "type": "function"
    },
    {
      "inputs": [
        {
          "internalType": "uint256",
          "name": "amount",
          "type": "uint256"
        }
      ],
      "name": "burn",
      "outputs": [],
      "stateMutability": "nonpayable",
      "type": "function"
    },
    {
      "inputs": [
        {
          "internalType": "address",
          "name": "account",
          "type": "address"
        },
        {
          "internalType": "uint256",
          "name": "amount",
          "type": "uint256"
        }
      ],
      "name": "burnFrom",
      "outputs": [],
      "stateMutability": "nonpayable",
      "type": "function"
    },
    {
      "inputs": [],
      "name": "decimals",
      "outputs": [
        {
          "internalType": "uint8",
          "name": "",
          "type": "uint8"
        }
      ],
      "stateMutability": "view",
      "type": "function"
    },
    {
      "inputs": [
        {
          "internalType": "address",
          "name": "spender",
          "type": "address"
        },
        {
          "internalType": "uint256",
          "name": "subtractedValue",
          "type": "uint256"
        }
      ],
      "name": "decreaseAllowance",
      "outputs": [
        {
          "internalType": "bool",
          "name": "",
          "type": "bool"
        }
      ],
      "stateMutability": "nonpayable",
      "type": "function"
    },
    {
      "inputs": [],
      "name": "finishMinting",
      "outputs": [],
      "stateMutability": "nonpayable",
      "type": "function"
    },
    {
      "inputs": [],
      "name": "getOwner",
      "outputs": [
        {
          "internalType": "address",
          "name": "",
          "type": "address"
        }
      ],
      "stateMutability": "view",
      "type": "function"
    },
    {
      "inputs": [
        {
          "internalType": "address",
          "name": "spender",
          "type": "address"
        },
        {
          "internalType": "uint256",
          "name": "addedValue",
          "type": "uint256"
        }
      ],
      "name": "increaseAllowance",
      "outputs": [
        {
          "internalType": "bool",
          "name": "",
          "type": "bool"
        }
      ],
      "stateMutability": "nonpayable",
      "type": "function"
    },
    {
      "inputs": [
        {
          "internalType": "address",
          "name": "account",
          "type": "address"
        },
        {
          "internalType": "uint256",
          "name": "amount",
          "type": "uint256"
        }
      ],
      "name": "mint",
      "outputs": [],
      "stateMutability": "nonpayable",
      "type": "function"
    },
    {
      "inputs": [],
      "name": "mintingFinished",
      "outputs": [
        {
          "internalType": "bool",
          "name": "",
          "type": "bool"
        }
      ],
      "stateMutability": "view",
      "type": "function"
    },
    {
      "inputs": [],
      "name": "name",
      "outputs": [
        {
          "internalType": "string",
          "name": "",
          "type": "string"
        }
      ],
      "stateMutability": "view",
      "type": "function"
    },
    {
      "inputs": [],
      "name": "owner",
      "outputs": [
        {
          "internalType": "address",
          "name": "",
          "type": "address"
        }
      ],
      "stateMutability": "view",
      "type": "function"
    },
    {
      "inputs": [],
      "name": "renounceOwnership",
      "outputs": [],
      "stateMutability": "nonpayable",
      "type": "function"
    },
    {
      "inputs": [],
      "name": "symbol",
      "outputs": [
        {
          "internalType": "string",
          "name": "",
          "type": "string"
        }
      ],
      "stateMutability": "view",
      "type": "function"
    },
    {
      "inputs": [],
      "name": "totalSupply",
      "outputs": [
        {
          "internalType": "uint256",
          "name": "",
          "type": "uint256"
        }
      ],
      "stateMutability": "view",
      "type": "function"
    },
    {
      "inputs": [
        {
          "internalType": "address",
          "name": "recipient",
          "type": "address"
        },
        {
          "internalType": "uint256",
          "name": "amount",
          "type": "uint256"
        }
      ],
      "name": "transfer",
      "outputs": [
        {
          "internalType": "bool",
          "name": "",
          "type": "bool"
        }
      ],
      "stateMutability": "nonpayable",
      "type": "function"
    },
    {
      "inputs": [
        {
          "internalType": "address",
          "name": "sender",
          "type": "address"
        },
        {
          "internalType": "address",
          "name": "recipient",
          "type": "address"
        },
        {
          "internalType": "uint256",
          "name": "amount",
          "type": "uint256"
        }
      ],
      "name": "transferFrom",
      "outputs": [
        {
          "internalType": "bool",
          "name": "",
          "type": "bool"
        }
      ],
      "stateMutability": "nonpayable",
      "type": "function"
    },
    {
      "inputs": [
        {
          "internalType": "address",
          "name": "newOwner",
          "type": "address"
        }
      ],
      "name": "transferOwnership",
      "outputs": [],
      "stateMutability": "nonpayable",
      "type": "function"
    }
  ],
  "bytecode": "0x60806040526000600660016101000a81548160ff0219169083151502179055506040516200527b3803806200527b833981810160405281019062000044919062000d1c565b806040518060400160405280600e81526020017f556e6c696d697465644245503230000000000000000000000000000000000000815250868660006200008f6200053860201b60201c565b9050806000806101000a81548173ffffffffffffffffffffffffffffffffffffffff021916908373ffffffffffffffffffffffffffffffffffffffff1602179055508073ffffffffffffffffffffffffffffffffffffffff16600073ffffffffffffffffffffffffffffffffffffffff167f8be0079c531659141344cd1fd0a4f28419497f9722a3daafe3b4186f6b6457e060405160405180910390a350620001617f988c686810207ed93ab03e92de42c56418b37c2f953dba9b8e376eb7019227cc60001b6200054060201b60201c565b620001957f83bf5b641243954ba6e2587536bbdc5632174acbf79f9e2259dc8842a8de2e9160001b6200054060201b60201c565b620001c97f34a1179d446b62fb2b3144621868fcb0b3f774ec803e3731c1c3b137fc2d9a1760001b6200054060201b60201c565b8160049080519060200190620001e192919062000bb5565b50620002167fa3c4015a7ec527b93366675b6103cc92f011f47ffe38b50636c1fec4ff70af8960001b6200054060201b60201c565b6200024a7f10107d6c06b1e06b9403856460cada69e7306d2991103571a3dd26bf2fbee78c60001b6200054060201b60201c565b80600590805190602001906200026292919062000bb5565b50620002977fa14ef190c94a053d9cf0c57eb766be9784eb6385bc7980a6a36875dcee52db9e60001b6200054060201b60201c565b620002cb7fdc19d005d429b0093c3b547d1a17bc935b455085669625bcce78b7b836ab852e60001b6200054060201b60201c565b6012600660006101000a81548160ff021916908360ff16021790555050506200031d7f04b479a92492eccd6b8c8d2e9f2dd244002fe580e4a7e225c6da3bd47a3e6fa260001b6200054360201b60201c565b620003517f045b82a93d3a47ecba356839e714349d6b8e366ce921d86e727670685db1bd9560001b6200054360201b60201c565b620003857f5e20d3adb67b9201f934093bb4a46286b78b040934c2c5dffded5a5dadd9502660001b6200054360201b60201c565b8173ffffffffffffffffffffffffffffffffffffffff16632b66d72e34836040518363ffffffff1660e01b8152600401620003c1919062000e70565b6000604051808303818588803b158015620003db57600080fd5b505af1158015620003f0573d6000803e3d6000fd5b505050505050506200042b7f60553e001b77734695ad1ba7f15e0c3df25bc5efaf09bc8e8de1dfe470c332e660001b6200054660201b60201c565b6200045f7ff41c1eebadf3f18ae6b68b9878f494ae8012c5d2a526c6c9a51e5ba09fcc4a4860001b6200054660201b60201c565b620004937f989aa0ef9722f9af18932ea6c17f3e0431d5ab3ac8c6adeaa9e0ecd500a9a30e60001b6200054660201b60201c565b620004a4836200054960201b60201c565b620004d87f4f74b35956f1fabb3f025c8623a90943c36bdc49b0981b0c58fa70b042dfc3dd60001b6200054660201b60201c565b6200050c7f9dd668acdbf96e014da9aab0979feb3cc9b48a1ef364b7e0cb319bb8dec5d04d60001b6200054660201b60201c565b6200052d620005206200053860201b60201c565b836200060360201b60201c565b5050505050620011f8565b600033905090565b50565b50565b50565b6200057d7f91627bb9556277aa30c1b19062a1a02b113c6674c802ba44c615d14666f6fd9860001b6200054060201b60201c565b620005b17f7d80bd734fd99c4b6216fc8a91a28d0239e9ac7019c8e18d160fad43aad53aea60001b6200054060201b60201c565b620005e57f5f8dabd086842b030d4a3703d1cf5548d1de895e2ebd6dac49d3de16808adf6c60001b6200054060201b60201c565b80600660006101000a81548160ff021916908360ff16021790555050565b620006136200053860201b60201c565b73ffffffffffffffffffffffffffffffffffffffff16620006396200074960201b60201c565b73ffffffffffffffffffffffffffffffffffffffff161462000692576040517f08c379a0000000000000000000000000000000000000000000000000000000008152600401620006899062000eb6565b60405180910390fd5b620006c67f759b4f7ff1c80f73f4072d4b3cf43839725f81d26583f8a329756d8889b9100260001b6200054660201b60201c565b620006fa7f72185935d73b0c2ae72932ee476537b169b81dd08fa9ee8bab731c076fdfbe9360001b6200054660201b60201c565b6200072e7fe09e44b0166d2cd49c9e6b15601b1ac58c05887525d87f0d9f13ecc31992097460001b6200054660201b60201c565b6200074582826200077260201b62001da01760201c565b5050565b60008060009054906101000a900473ffffffffffffffffffffffffffffffffffffffff16905090565b620007a67f1c22ea87892a53b18e8c380e0541bfc55eb83d37b01945606c5b3a858c9a16ae60001b6200054060201b60201c565b620007da7fec4b583e7a3abe290b53c6f583c0836a513d5932fdd3837a91933e0617c30c2e60001b6200054060201b60201c565b6200080e7fd6508c3686ebd2e39a62760e9b4b71151d08cf90be446edf5aad5cf49066abc760001b6200054060201b60201c565b620008427f4869c1f45f78c3ff5935ff0f6e9bc6377f400ed71694adb3e7b6e78162e97a9360001b6200054060201b60201c565b600073ffffffffffffffffffffffffffffffffffffffff168273ffffffffffffffffffffffffffffffffffffffff161415620008b5576040517f08c379a0000000000000000000000000000000000000000000000000000000008152600401620008ac9062000e94565b60405180910390fd5b620008e97f85a78fa52fbda579e9874d6e94a6ed44c6f059c0edd51c9861cb2d7b93aff01f60001b6200054060201b60201c565b6200091d7f3db9f5b6011d3b15c25f808a551c0ec974ab120115ae112e18fe2e80cb596fcf60001b6200054060201b60201c565b620009517f9df3ccf91c06a4848c0fc41e85b4ec1c2e3ae3bafc3facb84e62bec0c611d93260001b6200054060201b60201c565b620009656000838362000b7c60201b60201c565b620009997f97471b0e7fbd3c8184a86b00d5ce32819633f8728af61fc43a68a79ac7599a2260001b6200054060201b60201c565b620009cd7fda59c8a9ad27f6548cb398ab91dcf98721adcc59f7d1a1c4f0704d02c44e628c60001b6200054060201b60201c565b8060036000828254620009e1919062000f70565b9250508190555062000a1c7fd61a8de8eefdce39f57a1f0eb0257ce9a70c3440baba9721ae47e086b23026db60001b6200054060201b60201c565b62000a507fb75e24f8b862d249d4aee7402c9fac020c64717b8b5c37f0077a0e3253ffe2ea60001b6200054060201b60201c565b80600160008473ffffffffffffffffffffffffffffffffffffffff1673ffffffffffffffffffffffffffffffffffffffff168152602001908152602001600020600082825462000aa1919062000f70565b9250508190555062000adc7fd9eae19e483846b3084401bd7cbc3b6a4bee948ee40c023bda99d897349e1ca160001b6200054060201b60201c565b62000b107f64c28404cfcea01737e5ccb040880a1fe979beaf1b8852abc72c4bb836b26f1760001b6200054060201b60201c565b8173ffffffffffffffffffffffffffffffffffffffff16600073ffffffffffffffffffffffffffffffffffffffff167fddf252ad1be2c89b69c2b068fc378daa952ba7f163c4a11628f55a4df523b3ef8360405162000b70919062000ed8565b60405180910390a35050565b62000bb07fdf1dfb0e3ec8664c0b9154c19ea4e17ab3772d3c93d8913baf6671d66a2dae1c60001b6200054060201b60201c565b505050565b82805462000bc3906200104e565b90600052602060002090601f01602090048101928262000be7576000855562000c33565b82601f1062000c0257805160ff191683800117855562000c33565b8280016001018555821562000c33579182015b8281111562000c3257825182559160200191906001019062000c15565b5b50905062000c42919062000c46565b5090565b5b8082111562000c6157600081600090555060010162000c47565b5090565b600062000c7c62000c768462000f1e565b62000ef5565b90508281526020810184848401111562000c9557600080fd5b62000ca284828562001018565b509392505050565b60008151905062000cbb81620011aa565b92915050565b600082601f83011262000cd357600080fd5b815162000ce584826020860162000c65565b91505092915050565b60008151905062000cff81620011c4565b92915050565b60008151905062000d1681620011de565b92915050565b600080600080600060a0868803121562000d3557600080fd5b600086015167ffffffffffffffff81111562000d5057600080fd5b62000d5e8882890162000cc1565b955050602086015167ffffffffffffffff81111562000d7c57600080fd5b62000d8a8882890162000cc1565b945050604062000d9d8882890162000d05565b935050606062000db08882890162000cee565b925050608062000dc38882890162000caa565b9150509295509295909350565b600062000ddd8262000f54565b62000de9818562000f5f565b935062000dfb81856020860162001018565b62000e068162001147565b840191505092915050565b600062000e20601f8362000f5f565b915062000e2d8262001158565b602082019050919050565b600062000e4760208362000f5f565b915062000e548262001181565b602082019050919050565b62000e6a8162001001565b82525050565b6000602082019050818103600083015262000e8c818462000dd0565b905092915050565b6000602082019050818103600083015262000eaf8162000e11565b9050919050565b6000602082019050818103600083015262000ed18162000e38565b9050919050565b600060208201905062000eef600083018462000e5f565b92915050565b600062000f0162000f14565b905062000f0f828262001084565b919050565b6000604051905090565b600067ffffffffffffffff82111562000f3c5762000f3b62001118565b5b62000f478262001147565b9050602081019050919050565b600081519050919050565b600082825260208201905092915050565b600062000f7d8262001001565b915062000f8a8362001001565b9250827fffffffffffffffffffffffffffffffffffffffffffffffffffffffffffffffff0382111562000fc25762000fc1620010ba565b5b828201905092915050565b600062000fda8262000fe1565b9050919050565b600073ffffffffffffffffffffffffffffffffffffffff82169050919050565b6000819050919050565b600060ff82169050919050565b60005b83811015620010385780820151818401526020810190506200101b565b8381111562001048576000848401525b50505050565b600060028204905060018216806200106757607f821691505b602082108114156200107e576200107d620010e9565b5b50919050565b6200108f8262001147565b810181811067ffffffffffffffff82111715620010b157620010b062001118565b5b80604052505050565b7f4e487b7100000000000000000000000000000000000000000000000000000000600052601160045260246000fd5b7f4e487b7100000000000000000000000000000000000000000000000000000000600052602260045260246000fd5b7f4e487b7100000000000000000000000000000000000000000000000000000000600052604160045260246000fd5b6000601f19601f8301169050919050565b7f42455032303a206d696e7420746f20746865207a65726f206164647265737300600082015250565b7f4f776e61626c653a2063616c6c6572206973206e6f7420746865206f776e6572600082015250565b620011b58162000fcd565b8114620011c157600080fd5b50565b620011cf8162001001565b8114620011db57600080fd5b50565b620011e9816200100b565b8114620011f557600080fd5b50565b61407380620012086000396000f3fe608060405234801561001057600080fd5b506004361061012c5760003560e01c8063715018a6116100ad57806395d89b411161007157806395d89b411461030d578063a457c2d71461032b578063a9059cbb1461035b578063dd62ed3e1461038b578063f2fde38b146103bb5761012c565b8063715018a6146102a157806379cc6790146102ab5780637d64bcb4146102c7578063893d20e8146102d15780638da5cb5b146102ef5761012c565b8063313ce567116100f4578063313ce567146101eb578063395093511461020957806340c10f191461023957806342966c681461025557806370a08231146102715761012c565b806305d2035b1461013157806306fdde031461014f578063095ea7b31461016d57806318160ddd1461019d57806323b872dd146101bb575b600080fd5b6101396103d7565b6040516101469190613807565b60405180910390f35b610157610472565b6040516101649190613822565b60405180910390f35b61018760048036038101906101829190613528565b610588565b6040516101949190613807565b60405180910390f35b6101a5610682565b6040516101b29190613a04565b60405180910390f35b6101d560048036038101906101d091906134d9565b610710565b6040516101e29190613807565b60405180910390f35b6101f3610a4d565b6040516102009190613a1f565b60405180910390f35b610223600480360381019061021e9190613528565b610ae8565b6040516102309190613807565b60405180910390f35b610253600480360381019061024e9190613528565b610c70565b005b61026f600480360381019061026a9190613564565b610e5a565b005b61028b60048036038101906102869190613474565b610ef2565b6040516102989190613a04565b60405180910390f35b6102a9610fbf565b005b6102c560048036038101906102c09190613528565b6110f9565b005b6102cf611361565b005b6102d9611547565b6040516102e691906137ec565b60405180910390f35b6102f76115da565b60405161030491906137ec565b60405180910390f35b610315611603565b6040516103229190613822565b60405180910390f35b61034560048036038101906103409190613528565b611719565b6040516103529190613807565b60405180910390f35b61037560048036038101906103709190613528565b6119f2565b6040516103829190613807565b60405180910390f35b6103a560048036038101906103a0919061349d565b611aec565b6040516103b29190613a04565b60405180910390f35b6103d560048036038101906103d09190613474565b611bf7565b005b60006104057fdcf0e308b3b014e7406929f24d86c44c71749e5ea97f9dc93f01556c5c09019960001b612131565b6104317fb9e3e7992775ec23f06382f43dff25f2b00eb9a14cf137532fa8188353a1b6a460001b612131565b61045d7f7d3f0f93126373dc68c3608869cd72ea1407cd650ad6b9e0c957636b3158de6a60001b612131565b600660019054906101000a900460ff16905090565b60606104a07f484185e46e02d5d25ea29139d2dfc8d7e796399ca8dad1959367786c71f87bbe60001b612134565b6104cc7f5a449bf80f8bdef4d076735614d2500f07f298dccd535d3354605149d1d6665160001b612134565b6104f87f09570b59ac0d3bcacf825d25d68c953c906bde6a7c08d9d0f76f25175680e7a660001b612134565b6004805461050590613b68565b80601f016020809104026020016040519081016040528092919081815260200182805461053190613b68565b801561057e5780601f106105535761010080835404028352916020019161057e565b820191906000526020600020905b81548152906001019060200180831161056157829003601f168201915b5050505050905090565b60006105b67f14c4e6f92a23b323255e1ea96f7d135c7ee738fa6a95cbbf140042159d72b9eb60001b612134565b6105e27f3275c7f11dfe3795ec1ccce9e984b9c35d9ad860716814f2b0eaf110e77f6ab460001b612134565b61060e7f344da9908f6ecc26c54a5b1d4ea6ab0e51981b5a333f69cf1f163772491cc99760001b612134565b610620610619612137565b848461213f565b61064c7f7f8fa0566800d9147630c78d5dfb0f25580b06201f53b1ff9545eb2cd571f5c660001b612134565b6106787fa828e269cd8ee4aaa3e392780d8fd839a0edc42b060d143eb1139372db3db49560001b612134565b6001905092915050565b60006106b07f89577bc67186870780481f61fa8bb4e785985e2d0cdf8eb35732b5b1c99c35ff60001b612134565b6106dc7fa9b47ecfe5da68eec3d84d07064f6e3671c004784e579c83950296a57de9d45760001b612134565b6107087feb21b845994cafc22007702042e35e83fbf00ebd6bc119106653eea1c2c8b03160001b612134565b600354905090565b600061073e7f92d40a6fb9fd22476b8ffd32e8a4ed589798746c002eb2a0b484aac9b9c40e0660001b612134565b61076a7f671f0b70bfe0ae9055df43ccb227578502685d6e5324a86d5aac2bcd1a89772a60001b612134565b6107967f1c00d24def30936d42b77f089c2a9a23245b1430e6daff79fa319a8111012e0560001b612134565b6107a1848484612546565b6107cd7ffdf45a6640dfe526757d49dc7a42b1cb88a8fc8bd582fcdd41ef339b08352ffc60001b612134565b6107f97f9098274b85766f95860e6dcb1798199be5a1dc37bad8b3ec08831db9d6b8877d60001b612134565b6000600260008673ffffffffffffffffffffffffffffffffffffffff1673ffffffffffffffffffffffffffffffffffffffff1681526020019081526020016000206000610844612137565b73ffffffffffffffffffffffffffffffffffffffff1673ffffffffffffffffffffffffffffffffffffffff1681526020019081526020016000205490506108ad7fe96a90fc2858e023520a266e2332e5510f720d4cac7ac3990a630895f0a5123260001b612134565b6108d97f44e0da3a779c46acc50df3361461828de9a009a65e70d18effe6647ba923bb6260001b612134565b6109057f3db9fd0d4dc1336f6449aba63bd7c0c0956f52fce988aeb30eff597ce60a9f1660001b612134565b82811015610948576040517f08c379a000000000000000000000000000000000000000000000000000000000815260040161093f906138c4565b60405180910390fd5b6109747f5ba9d5bcd10ee9f8802ae892ffc6240e1572f8c73580f4ae95dcbb81e3e5faf160001b612134565b6109a07f68f51e9d958533c872002fafa61d2642c7367e3404565e7800c45514d2e1201560001b612134565b6109cc7f786b817ccc14f8ee067dd191d44ba053052350fc86720e797f73446d0ae0afc560001b612134565b6109e9856109d8612137565b85846109e49190613aac565b61213f565b610a157fcdcdffe503aa7ff0d4173e014095bb90eafa334dc3912e541ae6811e0938a35b60001b612134565b610a417f03a29102b1201e9811b3bad0e86d894005323f483995d0f43660cabe100e481a60001b612134565b60019150509392505050565b6000610a7b7fc8539dbf87b6957305d50f108ff23495af51b570a1af5914406af8bd45f51b7660001b612134565b610aa77f0d41bd2dddc3fb7065c78fb10d1cc535c31bf5313c1bae1a71676ebf87985f3260001b612134565b610ad37fd4400c10511f7e198c4d8aa94ab1cb130a9b2a49068bced0f0338fdc2a989d2260001b612134565b600660009054906101000a900460ff16905090565b6000610b167f75408c831e2b35e48366b41bde6d530e5c987d55590d7a7a63f3be00dab21d5960001b612134565b610b427f54434211770713e0a398f4e2a01fb3815fa8cdf49ee037ce76af679875e42c3a60001b612134565b610b6e7fa6e0f44c3da7a7d0ec9445af42cf4ba3904588fa22c85177b690fdb03501cd4e60001b612134565b610c0e610b79612137565b848460026000610b87612137565b73ffffffffffffffffffffffffffffffffffffffff1673ffffffffffffffffffffffffffffffffffffffff16815260200190815260200160002060008873ffffffffffffffffffffffffffffffffffffffff1673ffffffffffffffffffffffffffffffffffffffff16815260200190815260200160002054610c099190613a56565b61213f565b610c3a7fd6dbf3c18aa633932368190d5f48580ca88a91e777f8241d1fd9e4c950509a4760001b612134565b610c667f7be88749fa7968ae878a06d5d62ac0cd29ba3a9ae6d941d830bb6ccd51c86d2e60001b612134565b6001905092915050565b610c9c7ffe96ac9e5dc6ec5e93f74f49f243d6b8bd76790bafb893c58ab67a67ff16024c60001b612131565b610cc87f0921ae40b937bf0d6fa248c9afaf53d7b0744ac6d8c21a77e5c1d2a4dfd5b78460001b612131565b610cf47f5a1fcc616bff1a793dcab10bea7872e4994e5c29bb8be91321a4391900317b3a60001b612131565b610d207ff06000dd08dc89c9b09602502e20db53d35fb19fcc75b855cd75bcb4c936ab6060001b612131565b600660019054906101000a900460ff1615610d70576040517f08c379a0000000000000000000000000000000000000000000000000000000008152600401610d67906138a4565b60405180910390fd5b610d9c7fddf7ff8855429fd6e56493565c7656051f36dfca7be20756c7ff9edf6685296a60001b612131565b610dc87fdf0e466752b48119c1cfa9d715a0df0451ecc5589578d0304c444e32ed18f9e960001b612131565b610df47f8a9e1cb8c86b338264f386e97577dcdf2c2a136762ad5edd9f42d772f90fc16060001b612131565b610e207f665e058a8c870348af7227f6ea770e8a97cceda4cab52a649e585dc554f841e660001b612131565b610e4c7ff5a5fff8fa85cc716ae9e8508403994bdb2011a7db1ac3f77346f0c1f39c478f60001b612131565b610e568282612bbc565b5050565b610e867f512e5ead806b97f83420850a64059f1b444777ecc65dc629f4cc020301813d0960001b612cca565b610eb27fdb4ae5c6353969d80609a954f54dbe87fa34edb6d0863a5194dc93d05ad1bb8d60001b612cca565b610ede7f5971b66df7a3f8673233946292b611b88256cf5d6bf47fc6287f241bb4523f3560001b612cca565b610eef610ee9612137565b82612ccd565b50565b6000610f207f79a1e8a8a1165beab1a98e2b4833f7e2291c0b3eddf3963cac7b80baf6fee7de60001b612134565b610f4c7fbfe926b7977b2c273da1ed029f65091db4f20c77c504b46a9816357a7107037f60001b612134565b610f787fcacdfbd527609ccbae7437ff7a4ba5a99813224a72080d1f2b7b401581331ad260001b612134565b600160008373ffffffffffffffffffffffffffffffffffffffff1673ffffffffffffffffffffffffffffffffffffffff168152602001908152602001600020549050919050565b610fc7612137565b73ffffffffffffffffffffffffffffffffffffffff16610fe56115da565b73ffffffffffffffffffffffffffffffffffffffff161461103b576040517f08c379a000000000000000000000000000000000000000000000000000000000815260040161103290613904565b60405180910390fd5b600073ffffffffffffffffffffffffffffffffffffffff1660008054906101000a900473ffffffffffffffffffffffffffffffffffffffff1673ffffffffffffffffffffffffffffffffffffffff167f8be0079c531659141344cd1fd0a4f28419497f9722a3daafe3b4186f6b6457e060405160405180910390a360008060006101000a81548173ffffffffffffffffffffffffffffffffffffffff021916908373ffffffffffffffffffffffffffffffffffffffff160217905550565b6111257f83acb4fd6d3434d2da4e569e63edcbcd2f773a2a4f10420af46aec461b3b134b60001b612cca565b6111517f8b46e33e150ce1b289f5730aa63ffb83e34f3bd9b35da201b77dedc3a444aedf60001b612cca565b61117d7f7c0f1ff5592d81d12317df9e21f0d4074488d036b68ef7a567095f3e9794656a60001b612cca565b60006111908361118b612137565b611aec565b90506111be7f8f2bba8085c2edb6c141735aad8173b75c3b8ca81e64abcc2c0eb305066590c760001b612cca565b6111ea7f66029983f494469a718216285f2b526f4369a7ba021d515e98c78f03f749a96260001b612cca565b6112167fa5524862f63741cf8a6a8a5f6f4c80f4c44aab89ec2c417bbe0674c05e3ee3c760001b612cca565b81811015611259576040517f08c379a0000000000000000000000000000000000000000000000000000000008152600401611250906139c4565b60405180910390fd5b6112857f349c4f1511424b01566ec73f184433e77e6efff31e83ca85796dd8edb38f3f1860001b612cca565b6112b17f3dfe9ba9640d4f74d3d8a7bf020ef42152a42647e4644e4c5c4319b653be132f60001b612cca565b6112dd7f49259888353b88180671afc21b802afe462a45bf22d8e601364ba8ec9ff5f17360001b612cca565b6112fa836112e9612137565b84846112f59190613aac565b61213f565b6113267f245801197f82787f57fb1f567d7035cf6fb3de4854a8cc1803e873e83492299160001b612cca565b6113527fee80867a35a42585a78d77b3e357be1a013744b9900ba0cc412fff67c0b869c860001b612cca565b61135c8383612ccd565b505050565b61138d7ffe96ac9e5dc6ec5e93f74f49f243d6b8bd76790bafb893c58ab67a67ff16024c60001b612131565b6113b97f0921ae40b937bf0d6fa248c9afaf53d7b0744ac6d8c21a77e5c1d2a4dfd5b78460001b612131565b6113e57f5a1fcc616bff1a793dcab10bea7872e4994e5c29bb8be91321a4391900317b3a60001b612131565b6114117ff06000dd08dc89c9b09602502e20db53d35fb19fcc75b855cd75bcb4c936ab6060001b612131565b600660019054906101000a900460ff1615611461576040517f08c379a0000000000000000000000000000000000000000000000000000000008152600401611458906138a4565b60405180910390fd5b61148d7fddf7ff8855429fd6e56493565c7656051f36dfca7be20756c7ff9edf6685296a60001b612131565b6114b97fdf0e466752b48119c1cfa9d715a0df0451ecc5589578d0304c444e32ed18f9e960001b612131565b6114e57fa20b234d4ffcda52ea0049a08e70402886120855b2a6cca86573c222bf1f7dfb60001b612131565b6115117f9c92447cf716624b975cddaf295f85aa0ca1e7fb31779927c5331688b0fd5b8260001b612131565b61153d7f236266dd863622b204297dac282f866d49d74104821bcef8c4d095d20331096460001b612131565b6115456131e7565b565b60006115757ffdafd5baa8d11a6a76674f55e8f4c5585dd88dba785518726a93f19fdefa561660001b612134565b6115a17fbdcec761d97bf410535c39579f7de93f0f85185c03ddef81ac14207125e8f82b60001b612134565b6115cd7fcf7f350d80ffe1d7c92ba4198058b66c5a1017f4eff08a75a4df237617f0bc5560001b612134565b6115d56115da565b905090565b60008060009054906101000a900473ffffffffffffffffffffffffffffffffffffffff16905090565b60606116317f837da9945b1e37e9a489e53347c25ec02c003faa861d9eedeccf89c0fe7cd8c460001b612134565b61165d7f660713aecadba305585b19aa2b43cb56859cacbf019aa7362810301017bab8ce60001b612134565b6116897f185dd7eb5dab1dd0c01af159e88f2643916bec358b808d99d4ecbd78b420a31e60001b612134565b6005805461169690613b68565b80601f01602080910402602001604051908101604052809291908181526020018280546116c290613b68565b801561170f5780601f106116e45761010080835404028352916020019161170f565b820191906000526020600020905b8154815290600101906020018083116116f257829003601f168201915b5050505050905090565b60006117477f3a9aa5fba9807d053d4432a82f92ddb80d9032675fc5402c367c7b2bc014e00260001b612134565b6117737f298d4508d57f9823dc3b339659acd35ddc8aa533ed20d184b1b0fc1237ba954c60001b612134565b61179f7f04c32e1b2acf7c637b2a6107a5b37a4d06c05916611975d0ad438968ecb9612560001b612134565b6000600260006117ad612137565b73ffffffffffffffffffffffffffffffffffffffff1673ffffffffffffffffffffffffffffffffffffffff16815260200190815260200160002060008573ffffffffffffffffffffffffffffffffffffffff1673ffffffffffffffffffffffffffffffffffffffff1681526020019081526020016000205490506118537f5c4c5b17c9dfeeb6c1278a7ba155c6d66364877bc5260e75bd500da88060124660001b612134565b61187f7f5f92d97918548249ffb9e70b72faa95a8bf9c181121f9e978a2ca2197785059f60001b612134565b6118ab7f3f9cac0174c349ac883b503798f4f7402e5f75641b23754d27f992c5238e426160001b612134565b828110156118ee576040517f08c379a00000000000000000000000000000000000000000000000000000000081526004016118e590613964565b60405180910390fd5b61191a7f5bf86eb6f3404f96fdf6cb5cc829db8f43161420bb7114dbccdf0f79669b2f2060001b612134565b6119467f32766e1fdf4607ae970c162e9f959ce9c63c77d7f4c809a4f6fcb5d489bb02a960001b612134565b6119727fdbce515b635d34f96588fd5883df6e5f0b7dd571b95f813cbb8d4bd029be657460001b612134565b61198f61197d612137565b85858461198a9190613aac565b61213f565b6119bb7f201fd7adb5036c1b9ae28c7aa50c38c55c74f55175aa1fa38ba8d37cc91da9e860001b612134565b6119e77fd8175fbfb2bebc8fe8a63ba1dde5517cae72580ac0beeceb80bb132d8c71b21a60001b612134565b600191505092915050565b6000611a207fb82335c066cc496c668a708cf677cde5bbdb0bcc766a8b6132d432e1bf892a9f60001b612134565b611a4c7f12f3a206d23a69f12001b9650c4ffb2a18e7c8af9c94be582b7ef3d1db9ea09c60001b612134565b611a787f57fb051521146211d6e7c7e7222273c443fc0c93a18eeb9edd90433fbe3f07cd60001b612134565b611a8a611a83612137565b8484612546565b611ab67ffedacbfaa184510510418b878e316be723490c1165a45cd4fa583057ef0fc0e360001b612134565b611ae27f5e96f2ede87d6e8595875c8a93ec37c4265fd7fb81105a8fbca81591ca71b11f60001b612134565b6001905092915050565b6000611b1a7fb4f496f2c880799314b4c518bfd47b37bdd3f8ef6c3ccb3509951382b207bde460001b612134565b611b467ff91a03ea39e1e1c7a456cd72a978b5b9d770d3df63baaa87451d1bb699b5059f60001b612134565b611b727f4e361880ede374fc1a18457bac990c6554f6b09762cc6b6e66eb8a59ad0896cf60001b612134565b600260008473ffffffffffffffffffffffffffffffffffffffff1673ffffffffffffffffffffffffffffffffffffffff16815260200190815260200160002060008373ffffffffffffffffffffffffffffffffffffffff1673ffffffffffffffffffffffffffffffffffffffff16815260200190815260200160002054905092915050565b611bff612137565b73ffffffffffffffffffffffffffffffffffffffff16611c1d6115da565b73ffffffffffffffffffffffffffffffffffffffff1614611c73576040517f08c379a0000000000000000000000000000000000000000000000000000000008152600401611c6a90613904565b60405180910390fd5b600073ffffffffffffffffffffffffffffffffffffffff168173ffffffffffffffffffffffffffffffffffffffff161415611ce3576040517f08c379a0000000000000000000000000000000000000000000000000000000008152600401611cda90613884565b60405180910390fd5b8073ffffffffffffffffffffffffffffffffffffffff1660008054906101000a900473ffffffffffffffffffffffffffffffffffffffff1673ffffffffffffffffffffffffffffffffffffffff167f8be0079c531659141344cd1fd0a4f28419497f9722a3daafe3b4186f6b6457e060405160405180910390a3806000806101000a81548173ffffffffffffffffffffffffffffffffffffffff021916908373ffffffffffffffffffffffffffffffffffffffff16021790555050565b611dcc7f1c22ea87892a53b18e8c380e0541bfc55eb83d37b01945606c5b3a858c9a16ae60001b612134565b611df87fec4b583e7a3abe290b53c6f583c0836a513d5932fdd3837a91933e0617c30c2e60001b612134565b611e247fd6508c3686ebd2e39a62760e9b4b71151d08cf90be446edf5aad5cf49066abc760001b612134565b611e507f4869c1f45f78c3ff5935ff0f6e9bc6377f400ed71694adb3e7b6e78162e97a9360001b612134565b600073ffffffffffffffffffffffffffffffffffffffff168273ffffffffffffffffffffffffffffffffffffffff161415611ec0576040517f08c379a0000000000000000000000000000000000000000000000000000000008152600401611eb7906138e4565b60405180910390fd5b611eec7f85a78fa52fbda579e9874d6e94a6ed44c6f059c0edd51c9861cb2d7b93aff01f60001b612134565b611f187f3db9f5b6011d3b15c25f808a551c0ec974ab120115ae112e18fe2e80cb596fcf60001b612134565b611f447f9df3ccf91c06a4848c0fc41e85b4ec1c2e3ae3bafc3facb84e62bec0c611d93260001b612134565b611f50600083836132f1565b611f7c7f97471b0e7fbd3c8184a86b00d5ce32819633f8728af61fc43a68a79ac7599a2260001b612134565b611fa87fda59c8a9ad27f6548cb398ab91dcf98721adcc59f7d1a1c4f0704d02c44e628c60001b612134565b8060036000828254611fba9190613a56565b92505081905550611fed7fd61a8de8eefdce39f57a1f0eb0257ce9a70c3440baba9721ae47e086b23026db60001b612134565b6120197fb75e24f8b862d249d4aee7402c9fac020c64717b8b5c37f0077a0e3253ffe2ea60001b612134565b80600160008473ffffffffffffffffffffffffffffffffffffffff1673ffffffffffffffffffffffffffffffffffffffff16815260200190815260200160002060008282546120689190613a56565b9250508190555061209b7fd9eae19e483846b3084401bd7cbc3b6a4bee948ee40c023bda99d897349e1ca160001b612134565b6120c77f64c28404cfcea01737e5ccb040880a1fe979beaf1b8852abc72c4bb836b26f1760001b612134565b8173ffffffffffffffffffffffffffffffffffffffff16600073ffffffffffffffffffffffffffffffffffffffff167fddf252ad1be2c89b69c2b068fc378daa952ba7f163c4a11628f55a4df523b3ef836040516121259190613a04565b60405180910390a35050565b50565b50565b600033905090565b61216b7fca2ea0f5ccb6a03897e0ddcf9e6817d81f5bac8fbdc74ce2d8c88c4f706363a660001b612134565b6121977f4d0887d9809595a4ab8d16253ae204cb8a20d60c5c997c53557c6069f178e90a60001b612134565b6121c37f2a8399319c1362d3e76014eb4f6882599a5019e449c271b811cb7b48030878c960001b612134565b6121ef7fd7ab2550228cfa94ceebeffe39065ac71e37aea20f7033a14878109817578cec60001b612134565b600073ffffffffffffffffffffffffffffffffffffffff168373ffffffffffffffffffffffffffffffffffffffff16141561225f576040517f08c379a000000000000000000000000000000000000000000000000000000000815260040161225690613864565b60405180910390fd5b61228b7f7070a150143b0140fc32b418244e118fefb6c8996e067c62d54d4abb10d2941460001b612134565b6122b77f410b9c9edeb1b35e55a7d669aba857126218c796734a94336cfa5dc1fee4526a60001b612134565b6122e37f964fe0a844bb2aa60f7548321a62627883b643198ccb443f66820ba3c62e86af60001b612134565b61230f7f273cfa3e4ebc0715eabbf158f685681b37a623e385601fd78d50097bf943602c60001b612134565b600073ffffffffffffffffffffffffffffffffffffffff168273ffffffffffffffffffffffffffffffffffffffff16141561237f576040517f08c379a0000000000000000000000000000000000000000000000000000000008152600401612376906139e4565b60405180910390fd5b6123ab7f06cd03469ea1664ed1357de5955b443c86eebdd0850c642bd794c2688be1077e60001b612134565b6123d77fada9e0f9221e1f11a21256963d8e99f47ef74a7cddea3d690f2051acb4232bbd60001b612134565b6124037f9b24aecec6468be367979a5724faa84a36abf5bf866a1f47f2c3aaf93a694fd260001b612134565b80600260008573ffffffffffffffffffffffffffffffffffffffff1673ffffffffffffffffffffffffffffffffffffffff16815260200190815260200160002060008473ffffffffffffffffffffffffffffffffffffffff1673ffffffffffffffffffffffffffffffffffffffff168152602001908152602001600020819055506124b07f4043f99b2c074f5fedf1250cc10ce7089b350a7c6b214ee900f248de34f7dda660001b612134565b6124dc7f81ff70cdade6cfc28cb7a442ae45668c3b683d866c46ecd6e2ce12b8cb01af7b60001b612134565b8173ffffffffffffffffffffffffffffffffffffffff168373ffffffffffffffffffffffffffffffffffffffff167f8c5be1e5ebec7d5bd14f71427d1e84f3dd0314c0f7b2291e5b200ac8c7c3b925836040516125399190613a04565b60405180910390a3505050565b6125727f84ddc6436b1ee76888579e73a4586bf4fb7475271a7a8fdc652f5a51c86e755560001b612134565b61259e7f83602d37bf577810ce9922881c49fae9f38d7f1217cefd0687cfeea2d5ab785360001b612134565b6125ca7f7d710cec05260676d8dbbfc23eae148c8930f0363d305f773d4a08808998c36c60001b612134565b6125f67f5663da5be93eba937077e26e5a42aca125822f118e693fee2f86efba49a285e060001b612134565b600073ffffffffffffffffffffffffffffffffffffffff168373ffffffffffffffffffffffffffffffffffffffff161415612666576040517f08c379a000000000000000000000000000000000000000000000000000000000815260040161265d90613844565b60405180910390fd5b6126927f8d784fe104521bb72133df99bf84802087fc1d7bb5ec438547da5e3070f1781c60001b612134565b6126be7f6a08bcfabdc775cd10b7fa042f65df10bba85cf399c86d4f12946f01e53823fa60001b612134565b6126ea7febaf60f087b590dddbe443599b1b8afed46cec909bb7a9c80f87959f7519fca260001b612134565b6127167f62f6b451236ea30a871a4fd37c8907fc3cb06a756884e8bae4d4881ad9d0bfba60001b612134565b600073ffffffffffffffffffffffffffffffffffffffff168273ffffffffffffffffffffffffffffffffffffffff161415612786576040517f08c379a000000000000000000000000000000000000000000000000000000000815260040161277d90613944565b60405180910390fd5b6127b27f7d1a6342d93b04b12bfde6083843caaa5b8d40a4070a11293111a3de9f07852460001b612134565b6127de7f40235a2013651c6b831c5aaa546c07300b9cfd944b298a8caef92a57e41601ff60001b612134565b61280a7fbbc29bb0075b317058db70e44d3499f43bdbb214bc3cdf58a27ed0fe884ba7f260001b612134565b6128158383836132f1565b6128417f810e62a37aff74010be1e9b60c1d2a2180fe96c8e094da6e4c37c6b9e72261ef60001b612134565b61286d7f4b1cb515dc8c9c3aa3e835bc73465174cb5a1904874508086b90807959bff28460001b612134565b6000600160008573ffffffffffffffffffffffffffffffffffffffff1673ffffffffffffffffffffffffffffffffffffffff1681526020019081526020016000205490506128dd7fa33dc2fa78299564e43ce5150fb5fcd26b8b27e91f74efd057d1d0ffdd56bd8260001b612134565b6129097f22f11d5d3446cb8b63243dddea685b2a891b0e9ba934e38312d008d58a7d964f60001b612134565b6129357f9d460f4a57098f7b78aa9422d848243220a1b79d595ea2c5244aff5526a449db60001b612134565b81811015612978576040517f08c379a000000000000000000000000000000000000000000000000000000000815260040161296f90613924565b60405180910390fd5b6129a47fbe00ad36091d1162580b0006028849a5c823cc7559f33dd476ef5f478e8cd35b60001b612134565b6129d07f5091301fa51c01fe4a3b62d3c7450060161873df470be73c21bf188f0ede394260001b612134565b6129fc7fc92562b76bec0ef8474151a753f4b881bf2ab70e3055b5b62a632ff522a41ea660001b612134565b8181612a089190613aac565b600160008673ffffffffffffffffffffffffffffffffffffffff1673ffffffffffffffffffffffffffffffffffffffff16815260200190815260200160002081905550612a777f8ed823fdceac080cc7d944cd5257453220935ef2b9987f58f478cb2731a3967f60001b612134565b612aa37f3084027f97a0800c8d1533ba09b9b5667da2fea1274309d89de57f59b95e09b060001b612134565b81600160008573ffffffffffffffffffffffffffffffffffffffff1673ffffffffffffffffffffffffffffffffffffffff1681526020019081526020016000206000828254612af29190613a56565b92505081905550612b257f954130d903aabc26b9eaba0b17e956a2516d7aa7671f0a64d4e6f0ccdac6dbe260001b612134565b612b517f6b9d7acbfd57823c365d563d4e0aa85963a9b0fcf123e0aa3f3c8b5433570d3060001b612134565b8273ffffffffffffffffffffffffffffffffffffffff168473ffffffffffffffffffffffffffffffffffffffff167fddf252ad1be2c89b69c2b068fc378daa952ba7f163c4a11628f55a4df523b3ef84604051612bae9190613a04565b60405180910390a350505050565b612bc4612137565b73ffffffffffffffffffffffffffffffffffffffff16612be26115da565b73ffffffffffffffffffffffffffffffffffffffff1614612c38576040517f08c379a0000000000000000000000000000000000000000000000000000000008152600401612c2f90613904565b60405180910390fd5b612c647f759b4f7ff1c80f73f4072d4b3cf43839725f81d26583f8a329756d8889b9100260001b613322565b612c907f72185935d73b0c2ae72932ee476537b169b81dd08fa9ee8bab731c076fdfbe9360001b613322565b612cbc7fe09e44b0166d2cd49c9e6b15601b1ac58c05887525d87f0d9f13ecc31992097460001b613322565b612cc68282611da0565b5050565b50565b612cf97f76f6181846aef407ec0693db3df0a3213202429a64f445d5012022d6de6c119e60001b612134565b612d257fc6909def5a8b7abaa36614dce8e08d2c86cf55cddb02fe8e9a08e3fccada282660001b612134565b612d517fa48a0bfe3b186d932215eecab34df508b7c7fbb701f51a2f95a8f3eac896f90d60001b612134565b612d7d7f17832f98e0b84d0c05cccfb7368680bbe7a5491ebd66c66677a6d5538dc0006e60001b612134565b600073ffffffffffffffffffffffffffffffffffffffff168273ffffffffffffffffffffffffffffffffffffffff161415612ded576040517f08c379a0000000000000000000000000000000000000000000000000000000008152600401612de490613984565b60405180910390fd5b612e197fb4d214434c8ec3be425d9fc73d04ba8cbf5f4ed7dc5cc95ff6926e52501da84360001b612134565b612e457fefeab52b7c9eaa381c923fd156365bce14def6ba930fba37e190be0229aca1fd60001b612134565b612e717f2e85ed7c54e500d012290227a5987c87785958b14d08a2678f2803b1b280dd8360001b612134565b612e7d826000836132f1565b612ea97ffa96ccc7a98b58d8fd00b10ff90b455fde1a7d1566b790650f38670d4a49cafd60001b612134565b612ed57f8ecff926acd1c50e8c38d1535a77eae7293a80d0fcf4e4058bf00232bbd950a060001b612134565b6000600160008473ffffffffffffffffffffffffffffffffffffffff1673ffffffffffffffffffffffffffffffffffffffff168152602001908152602001600020549050612f457fa50bbf688a4d68bc833c3529b3e45d8c176a4dd0146e62dbbf15b03f7521aa2060001b612134565b612f717fc643aae517aaa3f80516a5e9a8621092001d9dd5bd47ea94cb7fea9a1742025560001b612134565b612f9d7f59d3a8d3d780e29c6790b3fa0aac70e347bc051e4e57699b46601e169aba614560001b612134565b81811015612fe0576040517f08c379a0000000000000000000000000000000000000000000000000000000008152600401612fd7906139a4565b60405180910390fd5b61300c7f8c52dedeaeb1383fc2875cf352c7d8127c204c319cc4007d22f7d6f1a9cbd9c660001b612134565b6130387fedf7ba972b21b22c80ba50c8764900642eef0547e2815c3ee20d0be1f61bba3060001b612134565b6130647ff605e4bd898dd40d1a206641eae7ba568cc6967cb01efce5fc6ececd79300db360001b612134565b81816130709190613aac565b600160008573ffffffffffffffffffffffffffffffffffffffff1673ffffffffffffffffffffffffffffffffffffffff168152602001908152602001600020819055506130df7f7fb1a135c8c27ac53eb9850c411ce68d6d9415bed3fb7d37e6d043bb53b128c160001b612134565b61310b7fb2c2b0e0ff595d16a22678b4865c7ff24e72e5b683abb15694f06194ba5c74d760001b612134565b816003600082825461311d9190613aac565b925050819055506131507fab6a4a3f9ec3f1697ba2d46f02bbaa370c77dbced276fd883b576dd0d364c61b60001b612134565b61317c7f2d0953634f14fd8a94b26705b21ec90458a0faac218e0478a56fe84e4656a3b660001b612134565b600073ffffffffffffffffffffffffffffffffffffffff168373ffffffffffffffffffffffffffffffffffffffff167fddf252ad1be2c89b69c2b068fc378daa952ba7f163c4a11628f55a4df523b3ef846040516131da9190613a04565b60405180910390a3505050565b6131ef612137565b73ffffffffffffffffffffffffffffffffffffffff1661320d6115da565b73ffffffffffffffffffffffffffffffffffffffff1614613263576040517f08c379a000000000000000000000000000000000000000000000000000000000815260040161325a90613904565b60405180910390fd5b61328f7fa659d7a3b0d34cd5e42b10495a32507934605c5a5640f10affc7b1ed0e3d479760001b613322565b6132bb7f7f30b737998c84436fb964f1a69e1924f458b3a19402f23079eddb972f1fe73360001b613322565b6132e77fee1dfaf694a3227409c996f5eca71303b5af38f7db566d29d14d2a595fcaeb5d60001b613322565b6132ef613325565b565b61331d7fdf1dfb0e3ec8664c0b9154c19ea4e17ab3772d3c93d8913baf6671d66a2dae1c60001b612134565b505050565b50565b6133517f8ddb2bbb847c00cc8450238840274e92717ad85b3ee75ac811b2e028415e2e7960001b612131565b61337d7f21db1c51422b4deea7d77d6a0e40608ff1c43fea49433a0f64534c4e2667eaff60001b612131565b6133a97fe0c403aad5f980de914bde3746a1e43a81002242448b1ef7e60600e4619dd8af60001b612131565b6001600660016101000a81548160ff0219169083151502179055506133f07faab1c775a750ada10cd7ba3d96f72fbaf3083c90664186c9a4463ac19369798260001b612131565b61341c7f3b8e9b8239c1166b154be5c4cef331e5418468481c682bd23c2c3f802d7f17ab60001b612131565b7fae5184fba832cb2b1f702aca6117b8d265eaf03ad33eb133f19dde0f5920fa0860405160405180910390a1565b6000813590506134598161400f565b92915050565b60008135905061346e81614026565b92915050565b60006020828403121561348657600080fd5b60006134948482850161344a565b91505092915050565b600080604083850312156134b057600080fd5b60006134be8582860161344a565b92505060206134cf8582860161344a565b9150509250929050565b6000806000606084860312156134ee57600080fd5b60006134fc8682870161344a565b935050602061350d8682870161344a565b925050604061351e8682870161345f565b9150509250925092565b6000806040838503121561353b57600080fd5b60006135498582860161344a565b925050602061355a8582860161345f565b9150509250929050565b60006020828403121561357657600080fd5b60006135848482850161345f565b91505092915050565b61359681613ae0565b82525050565b6135a581613af2565b82525050565b60006135b682613a3a565b6135c08185613a45565b93506135d0818560208601613b35565b6135d981613bf8565b840191505092915050565b60006135f1602583613a45565b91506135fc82613c09565b604082019050919050565b6000613614602483613a45565b915061361f82613c58565b604082019050919050565b6000613637602683613a45565b915061364282613ca7565b604082019050919050565b600061365a602283613a45565b915061366582613cf6565b604082019050919050565b600061367d602883613a45565b915061368882613d45565b604082019050919050565b60006136a0601f83613a45565b91506136ab82613d94565b602082019050919050565b60006136c3602083613a45565b91506136ce82613dbd565b602082019050919050565b60006136e6602683613a45565b91506136f182613de6565b604082019050919050565b6000613709602383613a45565b915061371482613e35565b604082019050919050565b600061372c602583613a45565b915061373782613e84565b604082019050919050565b600061374f602183613a45565b915061375a82613ed3565b604082019050919050565b6000613772602283613a45565b915061377d82613f22565b604082019050919050565b6000613795602483613a45565b91506137a082613f71565b604082019050919050565b60006137b8602283613a45565b91506137c382613fc0565b604082019050919050565b6137d781613b1e565b82525050565b6137e681613b28565b82525050565b6000602082019050613801600083018461358d565b92915050565b600060208201905061381c600083018461359c565b92915050565b6000602082019050818103600083015261383c81846135ab565b905092915050565b6000602082019050818103600083015261385d816135e4565b9050919050565b6000602082019050818103600083015261387d81613607565b9050919050565b6000602082019050818103600083015261389d8161362a565b9050919050565b600060208201905081810360008301526138bd8161364d565b9050919050565b600060208201905081810360008301526138dd81613670565b9050919050565b600060208201905081810360008301526138fd81613693565b9050919050565b6000602082019050818103600083015261391d816136b6565b9050919050565b6000602082019050818103600083015261393d816136d9565b9050919050565b6000602082019050818103600083015261395d816136fc565b9050919050565b6000602082019050818103600083015261397d8161371f565b9050919050565b6000602082019050818103600083015261399d81613742565b9050919050565b600060208201905081810360008301526139bd81613765565b9050919050565b600060208201905081810360008301526139dd81613788565b9050919050565b600060208201905081810360008301526139fd816137ab565b9050919050565b6000602082019050613a1960008301846137ce565b92915050565b6000602082019050613a3460008301846137dd565b92915050565b600081519050919050565b600082825260208201905092915050565b6000613a6182613b1e565b9150613a6c83613b1e565b9250827fffffffffffffffffffffffffffffffffffffffffffffffffffffffffffffffff03821115613aa157613aa0613b9a565b5b828201905092915050565b6000613ab782613b1e565b9150613ac283613b1e565b925082821015613ad557613ad4613b9a565b5b828203905092915050565b6000613aeb82613afe565b9050919050565b60008115159050919050565b600073ffffffffffffffffffffffffffffffffffffffff82169050919050565b6000819050919050565b600060ff82169050919050565b60005b83811015613b53578082015181840152602081019050613b38565b83811115613b62576000848401525b50505050565b60006002820490506001821680613b8057607f821691505b60208210811415613b9457613b93613bc9565b5b50919050565b7f4e487b7100000000000000000000000000000000000000000000000000000000600052601160045260246000fd5b7f4e487b7100000000000000000000000000000000000000000000000000000000600052602260045260246000fd5b6000601f19601f8301169050919050565b7f42455032303a207472616e736665722066726f6d20746865207a65726f20616460008201527f6472657373000000000000000000000000000000000000000000000000000000602082015250565b7f42455032303a20617070726f76652066726f6d20746865207a65726f2061646460008201527f7265737300000000000000000000000000000000000000000000000000000000602082015250565b7f4f776e61626c653a206e6577206f776e657220697320746865207a65726f206160008201527f6464726573730000000000000000000000000000000000000000000000000000602082015250565b7f42455032304d696e7461626c653a206d696e74696e672069732066696e69736860008201527f6564000000000000000000000000000000000000000000000000000000000000602082015250565b7f42455032303a207472616e7366657220616d6f756e742065786365656473206160008201527f6c6c6f77616e6365000000000000000000000000000000000000000000000000602082015250565b7f42455032303a206d696e7420746f20746865207a65726f206164647265737300600082015250565b7f4f776e61626c653a2063616c6c6572206973206e6f7420746865206f776e6572600082015250565b7f42455032303a207472616e7366657220616d6f756e742065786365656473206260008201527f616c616e63650000000000000000000000000000000000000000000000000000602082015250565b7f42455032303a207472616e7366657220746f20746865207a65726f206164647260008201527f6573730000000000000000000000000000000000000000000000000000000000602082015250565b7f42455032303a2064656372656173656420616c6c6f77616e63652062656c6f7760008201527f207a65726f000000000000000000000000000000000000000000000000000000602082015250565b7f42455032303a206275726e2066726f6d20746865207a65726f2061646472657360008201527f7300000000000000000000000000000000000000000000000000000000000000602082015250565b7f42455032303a206275726e20616d6f756e7420657863656564732062616c616e60008201527f6365000000000000000000000000000000000000000000000000000000000000602082015250565b7f42455032303a206275726e20616d6f756e74206578636565647320616c6c6f7760008201527f616e636500000000000000000000000000000000000000000000000000000000602082015250565b7f42455032303a20617070726f766520746f20746865207a65726f20616464726560008201527f7373000000000000000000000000000000000000000000000000000000000000602082015250565b61401881613ae0565b811461402357600080fd5b50565b61402f81613b1e565b811461403a57600080fd5b5056fea2646970667358221220024545cc03f329c59a18ca7236b7a78aa49dd0a5260abe8cd5d2494f85e61ca064736f6c63430008030033",
  "linkReferences": {},
  "deployedLinkReferences": {}
}