{
  "_format": "hh-sol-artifact-1",
  "contractName": "SimpleBEP20",
  "sourceName": "contracts/token/BEP20/SimpleBEP20.sol",
  "abi": [
    {
      "inputs": [
        {
          "internalType": "string",
          "name": "name",
          "type": "string"
        },
        {
          "internalType": "string",
          "name": "symbol",
          "type": "string"
        },
        {
          "internalType": "uint256",
          "name": "initialBalance",
          "type": "uint256"
        },
        {
          "internalType": "address payable",
          "name": "feeReceiver",
          "type": "address"
        }
      ],
      "stateMutability": "payable",
      "type": "constructor"
    },
    {
      "anonymous": false,
      "inputs": [
        {
          "indexed": true,
          "internalType": "address",
          "name": "owner",
          "type": "address"
        },
        {
          "indexed": true,
          "internalType": "address",
          "name": "spender",
          "type": "address"
        },
        {
          "indexed": false,
          "internalType": "uint256",
          "name": "value",
          "type": "uint256"
        }
      ],
      "name": "Approval",
      "type": "event"
    },
    {
      "anonymous": false,
      "inputs": [
        {
          "indexed": true,
          "internalType": "address",
          "name": "previousOwner",
          "type": "address"
        },
        {
          "indexed": true,
          "internalType": "address",
          "name": "newOwner",
          "type": "address"
        }
      ],
      "name": "OwnershipTransferred",
      "type": "event"
    },
    {
      "anonymous": false,
      "inputs": [
        {
          "indexed": true,
          "internalType": "address",
          "name": "from",
          "type": "address"
        },
        {
          "indexed": true,
          "internalType": "address",
          "name": "to",
          "type": "address"
        },
        {
          "indexed": false,
          "internalType": "uint256",
          "name": "value",
          "type": "uint256"
        }
      ],
      "name": "Transfer",
      "type": "event"
    },
    {
      "inputs": [
        {
          "internalType": "address",
          "name": "owner",
          "type": "address"
        },
        {
          "internalType": "address",
          "name": "spender",
          "type": "address"
        }
      ],
      "name": "allowance",
      "outputs": [
        {
          "internalType": "uint256",
          "name": "",
          "type": "uint256"
        }
      ],
      "stateMutability": "view",
      "type": "function"
    },
    {
      "inputs": [
        {
          "internalType": "address",
          "name": "spender",
          "type": "address"
        },
        {
          "internalType": "uint256",
          "name": "amount",
          "type": "uint256"
        }
      ],
      "name": "approve",
      "outputs": [
        {
          "internalType": "bool",
          "name": "",
          "type": "bool"
        }
      ],
      "stateMutability": "nonpayable",
      "type": "function"
    },
    {
      "inputs": [
        {
          "internalType": "address",
          "name": "account",
          "type": "address"
        }
      ],
      "name": "balanceOf",
      "outputs": [
        {
          "internalType": "uint256",
          "name": "",
          "type": "uint256"
        }
      ],
      "stateMutability": "view",
      "type": "function"
    },
    {
      "inputs": [],
      "name": "decimals",
      "outputs": [
        {
          "internalType": "uint8",
          "name": "",
          "type": "uint8"
        }
      ],
      "stateMutability": "view",
      "type": "function"
    },
    {
      "inputs": [
        {
          "internalType": "address",
          "name": "spender",
          "type": "address"
        },
        {
          "internalType": "uint256",
          "name": "subtractedValue",
          "type": "uint256"
        }
      ],
      "name": "decreaseAllowance",
      "outputs": [
        {
          "internalType": "bool",
          "name": "",
          "type": "bool"
        }
      ],
      "stateMutability": "nonpayable",
      "type": "function"
    },
    {
      "inputs": [],
      "name": "generator",
      "outputs": [
        {
          "internalType": "string",
          "name": "",
          "type": "string"
        }
      ],
      "stateMutability": "pure",
      "type": "function"
    },
    {
      "inputs": [],
      "name": "getOwner",
      "outputs": [
        {
          "internalType": "address",
          "name": "",
          "type": "address"
        }
      ],
      "stateMutability": "view",
      "type": "function"
    },
    {
      "inputs": [
        {
          "internalType": "address",
          "name": "spender",
          "type": "address"
        },
        {
          "internalType": "uint256",
          "name": "addedValue",
          "type": "uint256"
        }
      ],
      "name": "increaseAllowance",
      "outputs": [
        {
          "internalType": "bool",
          "name": "",
          "type": "bool"
        }
      ],
      "stateMutability": "nonpayable",
      "type": "function"
    },
    {
      "inputs": [],
      "name": "name",
      "outputs": [
        {
          "internalType": "string",
          "name": "",
          "type": "string"
        }
      ],
      "stateMutability": "view",
      "type": "function"
    },
    {
      "inputs": [],
      "name": "owner",
      "outputs": [
        {
          "internalType": "address",
          "name": "",
          "type": "address"
        }
      ],
      "stateMutability": "view",
      "type": "function"
    },
    {
      "inputs": [],
      "name": "renounceOwnership",
      "outputs": [],
      "stateMutability": "nonpayable",
      "type": "function"
    },
    {
      "inputs": [],
      "name": "symbol",
      "outputs": [
        {
          "internalType": "string",
          "name": "",
          "type": "string"
        }
      ],
      "stateMutability": "view",
      "type": "function"
    },
    {
      "inputs": [],
      "name": "totalSupply",
      "outputs": [
        {
          "internalType": "uint256",
          "name": "",
          "type": "uint256"
        }
      ],
      "stateMutability": "view",
      "type": "function"
    },
    {
      "inputs": [
        {
          "internalType": "address",
          "name": "recipient",
          "type": "address"
        },
        {
          "internalType": "uint256",
          "name": "amount",
          "type": "uint256"
        }
      ],
      "name": "transfer",
      "outputs": [
        {
          "internalType": "bool",
          "name": "",
          "type": "bool"
        }
      ],
      "stateMutability": "nonpayable",
      "type": "function"
    },
    {
      "inputs": [
        {
          "internalType": "address",
          "name": "sender",
          "type": "address"
        },
        {
          "internalType": "address",
          "name": "recipient",
          "type": "address"
        },
        {
          "internalType": "uint256",
          "name": "amount",
          "type": "uint256"
        }
      ],
      "name": "transferFrom",
      "outputs": [
        {
          "internalType": "bool",
          "name": "",
          "type": "bool"
        }
      ],
      "stateMutability": "nonpayable",
      "type": "function"
    },
    {
      "inputs": [
        {
          "internalType": "address",
          "name": "newOwner",
          "type": "address"
        }
      ],
      "name": "transferOwnership",
      "outputs": [],
      "stateMutability": "nonpayable",
      "type": "function"
    },
    {
      "inputs": [],
      "name": "version",
      "outputs": [
        {
          "internalType": "string",
          "name": "",
          "type": "string"
        }
      ],
      "stateMutability": "view",
      "type": "function"
    }
  ],
  "bytecode": "0x608060405260405162003cde38038062003cde833981810160405281019062000029919062000c4b565b6040518060400160405280600681526020017f76322e302e300000000000000000000000000000000000000000000000000000815250816040518060400160405280600b81526020017f53696d706c65424550323000000000000000000000000000000000000000000081525086866000620000aa620006a460201b60201c565b9050806000806101000a81548173ffffffffffffffffffffffffffffffffffffffff021916908373ffffffffffffffffffffffffffffffffffffffff1602179055508073ffffffffffffffffffffffffffffffffffffffff16600073ffffffffffffffffffffffffffffffffffffffff167f8be0079c531659141344cd1fd0a4f28419497f9722a3daafe3b4186f6b6457e060405160405180910390a3506200017c7f988c686810207ed93ab03e92de42c56418b37c2f953dba9b8e376eb7019227cc60001b620006ac60201b60201c565b620001b07f83bf5b641243954ba6e2587536bbdc5632174acbf79f9e2259dc8842a8de2e9160001b620006ac60201b60201c565b620001e47f34a1179d446b62fb2b3144621868fcb0b3f774ec803e3731c1c3b137fc2d9a1760001b620006ac60201b60201c565b8160049080519060200190620001fc92919062000afb565b50620002317fa3c4015a7ec527b93366675b6103cc92f011f47ffe38b50636c1fec4ff70af8960001b620006ac60201b60201c565b620002657f10107d6c06b1e06b9403856460cada69e7306d2991103571a3dd26bf2fbee78c60001b620006ac60201b60201c565b80600590805190602001906200027d92919062000afb565b50620002b27fa14ef190c94a053d9cf0c57eb766be9784eb6385bc7980a6a36875dcee52db9e60001b620006ac60201b60201c565b620002e67fdc19d005d429b0093c3b547d1a17bc935b455085669625bcce78b7b836ab852e60001b620006ac60201b60201c565b6012600660006101000a81548160ff021916908360ff1602179055505050620003387f04b479a92492eccd6b8c8d2e9f2dd244002fe580e4a7e225c6da3bd47a3e6fa260001b620006af60201b60201c565b6200036c7f045b82a93d3a47ecba356839e714349d6b8e366ce921d86e727670685db1bd9560001b620006af60201b60201c565b620003a07f5e20d3adb67b9201f934093bb4a46286b78b040934c2c5dffded5a5dadd9502660001b620006af60201b60201c565b8173ffffffffffffffffffffffffffffffffffffffff16632b66d72e34836040518363ffffffff1660e01b8152600401620003dc919062000d89565b6000604051808303818588803b158015620003f657600080fd5b505af11580156200040b573d6000803e3d6000fd5b50505050505050620004467fb4ddddbd1184c8544d8c143fbd27696ab778b70d88f5b02856e8034cc5c92bbe60001b620006b260201b60201c565b6200047a7f3039df89ff4dcdd5266cd033e5564d0ed12ea2f49ac2686860a01a13ed453daf60001b620006b260201b60201c565b620004ae7f39bb57fab1d36c9457826bdbc3c279a28896583c78ea6037c2e0c5cfca1970bf60001b620006b260201b60201c565b8060079080519060200190620004c692919062000afb565b5050620004fc7f13250ba2b4aac2f2d8d906a29d3ccf5e9c791c637424be18a70ff8869254f7ef60001b620006b560201b60201c565b620005307fd998f958358bed2415f8fdcfac3917def474536104c64ea7075bef9a3b9a9cfc60001b620006b560201b60201c565b620005637ef1539190bbccfaa72065cf33b1ec505016140ed3e61890e04eaed054c645f360001b620006b560201b60201c565b620005977fbfd144678afa309a51a774f1656b6a85fc862f68b3f3e675947fb315c795f78a60001b620006b560201b60201c565b60008211620005dd576040517f08c379a0000000000000000000000000000000000000000000000000000000008152600401620005d49062000dcf565b60405180910390fd5b620006117f68829361529d24693a0571b83374e91447bc1c871a20813ce4688608fe35ece260001b620006b560201b60201c565b620006457f1c5163ad7a943783733a3bbea334a0e66b7fa041a3f6e87e93b21a8dbfd7bc0060001b620006b560201b60201c565b620006797fb770477fa4c307ddcb1ba26251cb89fcc867540dee84f4a2011915145194c29560001b620006b560201b60201c565b6200069a6200068d620006a460201b60201c565b83620006b860201b60201c565b5050505062001110565b600033905090565b50565b50565b50565b50565b620006ec7f1c22ea87892a53b18e8c380e0541bfc55eb83d37b01945606c5b3a858c9a16ae60001b620006ac60201b60201c565b620007207fec4b583e7a3abe290b53c6f583c0836a513d5932fdd3837a91933e0617c30c2e60001b620006ac60201b60201c565b620007547fd6508c3686ebd2e39a62760e9b4b71151d08cf90be446edf5aad5cf49066abc760001b620006ac60201b60201c565b620007887f4869c1f45f78c3ff5935ff0f6e9bc6377f400ed71694adb3e7b6e78162e97a9360001b620006ac60201b60201c565b600073ffffffffffffffffffffffffffffffffffffffff168273ffffffffffffffffffffffffffffffffffffffff161415620007fb576040517f08c379a0000000000000000000000000000000000000000000000000000000008152600401620007f29062000dad565b60405180910390fd5b6200082f7f85a78fa52fbda579e9874d6e94a6ed44c6f059c0edd51c9861cb2d7b93aff01f60001b620006ac60201b60201c565b620008637f3db9f5b6011d3b15c25f808a551c0ec974ab120115ae112e18fe2e80cb596fcf60001b620006ac60201b60201c565b620008977f9df3ccf91c06a4848c0fc41e85b4ec1c2e3ae3bafc3facb84e62bec0c611d93260001b620006ac60201b60201c565b620008ab6000838362000ac260201b60201c565b620008df7f97471b0e7fbd3c8184a86b00d5ce32819633f8728af61fc43a68a79ac7599a2260001b620006ac60201b60201c565b620009137fda59c8a9ad27f6548cb398ab91dcf98721adcc59f7d1a1c4f0704d02c44e628c60001b620006ac60201b60201c565b806003600082825462000927919062000e89565b92505081905550620009627fd61a8de8eefdce39f57a1f0eb0257ce9a70c3440baba9721ae47e086b23026db60001b620006ac60201b60201c565b620009967fb75e24f8b862d249d4aee7402c9fac020c64717b8b5c37f0077a0e3253ffe2ea60001b620006ac60201b60201c565b80600160008473ffffffffffffffffffffffffffffffffffffffff1673ffffffffffffffffffffffffffffffffffffffff1681526020019081526020016000206000828254620009e7919062000e89565b9250508190555062000a227fd9eae19e483846b3084401bd7cbc3b6a4bee948ee40c023bda99d897349e1ca160001b620006ac60201b60201c565b62000a567f64c28404cfcea01737e5ccb040880a1fe979beaf1b8852abc72c4bb836b26f1760001b620006ac60201b60201c565b8173ffffffffffffffffffffffffffffffffffffffff16600073ffffffffffffffffffffffffffffffffffffffff167fddf252ad1be2c89b69c2b068fc378daa952ba7f163c4a11628f55a4df523b3ef8360405162000ab6919062000df1565b60405180910390a35050565b62000af67fdf1dfb0e3ec8664c0b9154c19ea4e17ab3772d3c93d8913baf6671d66a2dae1c60001b620006ac60201b60201c565b505050565b82805462000b099062000f5a565b90600052602060002090601f01602090048101928262000b2d576000855562000b79565b82601f1062000b4857805160ff191683800117855562000b79565b8280016001018555821562000b79579182015b8281111562000b7857825182559160200191906001019062000b5b565b5b50905062000b88919062000b8c565b5090565b5b8082111562000ba757600081600090555060010162000b8d565b5090565b600062000bc262000bbc8462000e37565b62000e0e565b90508281526020810184848401111562000bdb57600080fd5b62000be884828562000f24565b509392505050565b60008151905062000c0181620010dc565b92915050565b600082601f83011262000c1957600080fd5b815162000c2b84826020860162000bab565b91505092915050565b60008151905062000c4581620010f6565b92915050565b6000806000806080858703121562000c6257600080fd5b600085015167ffffffffffffffff81111562000c7d57600080fd5b62000c8b8782880162000c07565b945050602085015167ffffffffffffffff81111562000ca957600080fd5b62000cb78782880162000c07565b935050604062000cca8782880162000c34565b925050606062000cdd8782880162000bf0565b91505092959194509250565b600062000cf68262000e6d565b62000d02818562000e78565b935062000d1481856020860162000f24565b62000d1f8162001053565b840191505092915050565b600062000d39601f8362000e78565b915062000d468262001064565b602082019050919050565b600062000d6060228362000e78565b915062000d6d826200108d565b604082019050919050565b62000d838162000f1a565b82525050565b6000602082019050818103600083015262000da5818462000ce9565b905092915050565b6000602082019050818103600083015262000dc88162000d2a565b9050919050565b6000602082019050818103600083015262000dea8162000d51565b9050919050565b600060208201905062000e08600083018462000d78565b92915050565b600062000e1a62000e2d565b905062000e28828262000f90565b919050565b6000604051905090565b600067ffffffffffffffff82111562000e555762000e5462001024565b5b62000e608262001053565b9050602081019050919050565b600081519050919050565b600082825260208201905092915050565b600062000e968262000f1a565b915062000ea38362000f1a565b9250827fffffffffffffffffffffffffffffffffffffffffffffffffffffffffffffffff0382111562000edb5762000eda62000fc6565b5b828201905092915050565b600062000ef38262000efa565b9050919050565b600073ffffffffffffffffffffffffffffffffffffffff82169050919050565b6000819050919050565b60005b8381101562000f4457808201518184015260208101905062000f27565b8381111562000f54576000848401525b50505050565b6000600282049050600182168062000f7357607f821691505b6020821081141562000f8a5762000f8962000ff5565b5b50919050565b62000f9b8262001053565b810181811067ffffffffffffffff8211171562000fbd5762000fbc62001024565b5b80604052505050565b7f4e487b7100000000000000000000000000000000000000000000000000000000600052601160045260246000fd5b7f4e487b7100000000000000000000000000000000000000000000000000000000600052602260045260246000fd5b7f4e487b7100000000000000000000000000000000000000000000000000000000600052604160045260246000fd5b6000601f19601f8301169050919050565b7f42455032303a206d696e7420746f20746865207a65726f206164647265737300600082015250565b7f53696d706c6542455032303a20737570706c792063616e6e6f74206265207a6560008201527f726f000000000000000000000000000000000000000000000000000000000000602082015250565b620010e78162000ee6565b8114620010f357600080fd5b50565b620011018162000f1a565b81146200110d57600080fd5b50565b612bbe80620011206000396000f3fe608060405234801561001057600080fd5b506004361061010b5760003560e01c8063715018a6116100a257806395d89b411161007157806395d89b41146102ac578063a457c2d7146102ca578063a9059cbb146102fa578063dd62ed3e1461032a578063f2fde38b1461035a5761010b565b8063715018a6146102485780637afa1eed14610252578063893d20e8146102705780638da5cb5b1461028e5761010b565b8063313ce567116100de578063313ce567146101ac57806339509351146101ca57806354fd4d50146101fa57806370a08231146102185761010b565b806306fdde0314610110578063095ea7b31461012e57806318160ddd1461015e57806323b872dd1461017c575b600080fd5b610118610376565b604051610125919061254a565b60405180910390f35b61014860048036038101906101439190612328565b61048c565b604051610155919061252f565b60405180910390f35b610166610586565b604051610173919061268c565b60405180910390f35b610196600480360381019061019191906122d9565b610614565b6040516101a3919061252f565b60405180910390f35b6101b4610951565b6040516101c191906126a7565b60405180910390f35b6101e460048036038101906101df9190612328565b6109ec565b6040516101f1919061252f565b60405180910390f35b610202610b74565b60405161020f919061254a565b60405180910390f35b610232600480360381019061022d9190612274565b610c8a565b60405161023f919061268c565b60405180910390f35b610250610d57565b005b61025a610e91565b604051610267919061254a565b60405180910390f35b610278610f35565b6040516102859190612514565b60405180910390f35b610296610fc8565b6040516102a39190612514565b60405180910390f35b6102b4610ff1565b6040516102c1919061254a565b60405180910390f35b6102e460048036038101906102df9190612328565b611107565b6040516102f1919061252f565b60405180910390f35b610314600480360381019061030f9190612328565b6113e0565b604051610321919061252f565b60405180910390f35b610344600480360381019061033f919061229d565b6114da565b604051610351919061268c565b60405180910390f35b610374600480360381019061036f9190612274565b6115e5565b005b60606103a47f484185e46e02d5d25ea29139d2dfc8d7e796399ca8dad1959367786c71f87bbe60001b61178e565b6103d07f5a449bf80f8bdef4d076735614d2500f07f298dccd535d3354605149d1d6665160001b61178e565b6103fc7f09570b59ac0d3bcacf825d25d68c953c906bde6a7c08d9d0f76f25175680e7a660001b61178e565b60048054610409906127f0565b80601f0160208091040260200160405190810160405280929190818152602001828054610435906127f0565b80156104825780601f1061045757610100808354040283529160200191610482565b820191906000526020600020905b81548152906001019060200180831161046557829003601f168201915b5050505050905090565b60006104ba7f14c4e6f92a23b323255e1ea96f7d135c7ee738fa6a95cbbf140042159d72b9eb60001b61178e565b6104e67f3275c7f11dfe3795ec1ccce9e984b9c35d9ad860716814f2b0eaf110e77f6ab460001b61178e565b6105127f344da9908f6ecc26c54a5b1d4ea6ab0e51981b5a333f69cf1f163772491cc99760001b61178e565b61052461051d611791565b8484611799565b6105507f7f8fa0566800d9147630c78d5dfb0f25580b06201f53b1ff9545eb2cd571f5c660001b61178e565b61057c7fa828e269cd8ee4aaa3e392780d8fd839a0edc42b060d143eb1139372db3db49560001b61178e565b6001905092915050565b60006105b47f89577bc67186870780481f61fa8bb4e785985e2d0cdf8eb35732b5b1c99c35ff60001b61178e565b6105e07fa9b47ecfe5da68eec3d84d07064f6e3671c004784e579c83950296a57de9d45760001b61178e565b61060c7feb21b845994cafc22007702042e35e83fbf00ebd6bc119106653eea1c2c8b03160001b61178e565b600354905090565b60006106427f92d40a6fb9fd22476b8ffd32e8a4ed589798746c002eb2a0b484aac9b9c40e0660001b61178e565b61066e7f671f0b70bfe0ae9055df43ccb227578502685d6e5324a86d5aac2bcd1a89772a60001b61178e565b61069a7f1c00d24def30936d42b77f089c2a9a23245b1430e6daff79fa319a8111012e0560001b61178e565b6106a5848484611ba0565b6106d17ffdf45a6640dfe526757d49dc7a42b1cb88a8fc8bd582fcdd41ef339b08352ffc60001b61178e565b6106fd7f9098274b85766f95860e6dcb1798199be5a1dc37bad8b3ec08831db9d6b8877d60001b61178e565b6000600260008673ffffffffffffffffffffffffffffffffffffffff1673ffffffffffffffffffffffffffffffffffffffff1681526020019081526020016000206000610748611791565b73ffffffffffffffffffffffffffffffffffffffff1673ffffffffffffffffffffffffffffffffffffffff1681526020019081526020016000205490506107b17fe96a90fc2858e023520a266e2332e5510f720d4cac7ac3990a630895f0a5123260001b61178e565b6107dd7f44e0da3a779c46acc50df3361461828de9a009a65e70d18effe6647ba923bb6260001b61178e565b6108097f3db9fd0d4dc1336f6449aba63bd7c0c0956f52fce988aeb30eff597ce60a9f1660001b61178e565b8281101561084c576040517f08c379a0000000000000000000000000000000000000000000000000000000008152600401610843906125cc565b60405180910390fd5b6108787f5ba9d5bcd10ee9f8802ae892ffc6240e1572f8c73580f4ae95dcbb81e3e5faf160001b61178e565b6108a47f68f51e9d958533c872002fafa61d2642c7367e3404565e7800c45514d2e1201560001b61178e565b6108d07f786b817ccc14f8ee067dd191d44ba053052350fc86720e797f73446d0ae0afc560001b61178e565b6108ed856108dc611791565b85846108e89190612734565b611799565b6109197fcdcdffe503aa7ff0d4173e014095bb90eafa334dc3912e541ae6811e0938a35b60001b61178e565b6109457f03a29102b1201e9811b3bad0e86d894005323f483995d0f43660cabe100e481a60001b61178e565b60019150509392505050565b600061097f7fc8539dbf87b6957305d50f108ff23495af51b570a1af5914406af8bd45f51b7660001b61178e565b6109ab7f0d41bd2dddc3fb7065c78fb10d1cc535c31bf5313c1bae1a71676ebf87985f3260001b61178e565b6109d77fd4400c10511f7e198c4d8aa94ab1cb130a9b2a49068bced0f0338fdc2a989d2260001b61178e565b600660009054906101000a900460ff16905090565b6000610a1a7f75408c831e2b35e48366b41bde6d530e5c987d55590d7a7a63f3be00dab21d5960001b61178e565b610a467f54434211770713e0a398f4e2a01fb3815fa8cdf49ee037ce76af679875e42c3a60001b61178e565b610a727fa6e0f44c3da7a7d0ec9445af42cf4ba3904588fa22c85177b690fdb03501cd4e60001b61178e565b610b12610a7d611791565b848460026000610a8b611791565b73ffffffffffffffffffffffffffffffffffffffff1673ffffffffffffffffffffffffffffffffffffffff16815260200190815260200160002060008873ffffffffffffffffffffffffffffffffffffffff1673ffffffffffffffffffffffffffffffffffffffff16815260200190815260200160002054610b0d91906126de565b611799565b610b3e7fd6dbf3c18aa633932368190d5f48580ca88a91e777f8241d1fd9e4c950509a4760001b61178e565b610b6a7f7be88749fa7968ae878a06d5d62ac0cd29ba3a9ae6d941d830bb6ccd51c86d2e60001b61178e565b6001905092915050565b6060610ba27f8f9f60f3efbff0ccd6f06b4bf6d4fe1fa25798cb35e9ea17136a0b6714ff073260001b612216565b610bce7f55558ba58aa7188997104a06e91a4668df7c81c81a7f6fa3eb82062dd8f1078760001b612216565b610bfa7f19090e5873e356eed929fc6e8834ab6db3d1f49a8b5676f6efa8cb92318e0a5960001b612216565b60078054610c07906127f0565b80601f0160208091040260200160405190810160405280929190818152602001828054610c33906127f0565b8015610c805780601f10610c5557610100808354040283529160200191610c80565b820191906000526020600020905b815481529060010190602001808311610c6357829003601f168201915b5050505050905090565b6000610cb87f79a1e8a8a1165beab1a98e2b4833f7e2291c0b3eddf3963cac7b80baf6fee7de60001b61178e565b610ce47fbfe926b7977b2c273da1ed029f65091db4f20c77c504b46a9816357a7107037f60001b61178e565b610d107fcacdfbd527609ccbae7437ff7a4ba5a99813224a72080d1f2b7b401581331ad260001b61178e565b600160008373ffffffffffffffffffffffffffffffffffffffff1673ffffffffffffffffffffffffffffffffffffffff168152602001908152602001600020549050919050565b610d5f611791565b73ffffffffffffffffffffffffffffffffffffffff16610d7d610fc8565b73ffffffffffffffffffffffffffffffffffffffff1614610dd3576040517f08c379a0000000000000000000000000000000000000000000000000000000008152600401610dca906125ec565b60405180910390fd5b600073ffffffffffffffffffffffffffffffffffffffff1660008054906101000a900473ffffffffffffffffffffffffffffffffffffffff1673ffffffffffffffffffffffffffffffffffffffff167f8be0079c531659141344cd1fd0a4f28419497f9722a3daafe3b4186f6b6457e060405160405180910390a360008060006101000a81548173ffffffffffffffffffffffffffffffffffffffff021916908373ffffffffffffffffffffffffffffffffffffffff160217905550565b6060610ebf7f4aaddbec5c6e8ef4678191a5885e6add8d311b9110c575d01776d8bfd61a8b2060001b612216565b610eeb7f782b83fbe36139b85232b91611e8c8840fc2792ebba6848081e59f25adb70d6a60001b612216565b610f177fd042890618b4ae4d0b16c4c57b52416557e420110d04875539b551a0822a25a160001b612216565b604051806060016040528060288152602001612b6160289139905090565b6000610f637ffdafd5baa8d11a6a76674f55e8f4c5585dd88dba785518726a93f19fdefa561660001b61178e565b610f8f7fbdcec761d97bf410535c39579f7de93f0f85185c03ddef81ac14207125e8f82b60001b61178e565b610fbb7fcf7f350d80ffe1d7c92ba4198058b66c5a1017f4eff08a75a4df237617f0bc5560001b61178e565b610fc3610fc8565b905090565b60008060009054906101000a900473ffffffffffffffffffffffffffffffffffffffff16905090565b606061101f7f837da9945b1e37e9a489e53347c25ec02c003faa861d9eedeccf89c0fe7cd8c460001b61178e565b61104b7f660713aecadba305585b19aa2b43cb56859cacbf019aa7362810301017bab8ce60001b61178e565b6110777f185dd7eb5dab1dd0c01af159e88f2643916bec358b808d99d4ecbd78b420a31e60001b61178e565b60058054611084906127f0565b80601f01602080910402602001604051908101604052809291908181526020018280546110b0906127f0565b80156110fd5780601f106110d2576101008083540402835291602001916110fd565b820191906000526020600020905b8154815290600101906020018083116110e057829003601f168201915b5050505050905090565b60006111357f3a9aa5fba9807d053d4432a82f92ddb80d9032675fc5402c367c7b2bc014e00260001b61178e565b6111617f298d4508d57f9823dc3b339659acd35ddc8aa533ed20d184b1b0fc1237ba954c60001b61178e565b61118d7f04c32e1b2acf7c637b2a6107a5b37a4d06c05916611975d0ad438968ecb9612560001b61178e565b60006002600061119b611791565b73ffffffffffffffffffffffffffffffffffffffff1673ffffffffffffffffffffffffffffffffffffffff16815260200190815260200160002060008573ffffffffffffffffffffffffffffffffffffffff1673ffffffffffffffffffffffffffffffffffffffff1681526020019081526020016000205490506112417f5c4c5b17c9dfeeb6c1278a7ba155c6d66364877bc5260e75bd500da88060124660001b61178e565b61126d7f5f92d97918548249ffb9e70b72faa95a8bf9c181121f9e978a2ca2197785059f60001b61178e565b6112997f3f9cac0174c349ac883b503798f4f7402e5f75641b23754d27f992c5238e426160001b61178e565b828110156112dc576040517f08c379a00000000000000000000000000000000000000000000000000000000081526004016112d39061264c565b60405180910390fd5b6113087f5bf86eb6f3404f96fdf6cb5cc829db8f43161420bb7114dbccdf0f79669b2f2060001b61178e565b6113347f32766e1fdf4607ae970c162e9f959ce9c63c77d7f4c809a4f6fcb5d489bb02a960001b61178e565b6113607fdbce515b635d34f96588fd5883df6e5f0b7dd571b95f813cbb8d4bd029be657460001b61178e565b61137d61136b611791565b8585846113789190612734565b611799565b6113a97f201fd7adb5036c1b9ae28c7aa50c38c55c74f55175aa1fa38ba8d37cc91da9e860001b61178e565b6113d57fd8175fbfb2bebc8fe8a63ba1dde5517cae72580ac0beeceb80bb132d8c71b21a60001b61178e565b600191505092915050565b600061140e7fb82335c066cc496c668a708cf677cde5bbdb0bcc766a8b6132d432e1bf892a9f60001b61178e565b61143a7f12f3a206d23a69f12001b9650c4ffb2a18e7c8af9c94be582b7ef3d1db9ea09c60001b61178e565b6114667f57fb051521146211d6e7c7e7222273c443fc0c93a18eeb9edd90433fbe3f07cd60001b61178e565b611478611471611791565b8484611ba0565b6114a47ffedacbfaa184510510418b878e316be723490c1165a45cd4fa583057ef0fc0e360001b61178e565b6114d07f5e96f2ede87d6e8595875c8a93ec37c4265fd7fb81105a8fbca81591ca71b11f60001b61178e565b6001905092915050565b60006115087fb4f496f2c880799314b4c518bfd47b37bdd3f8ef6c3ccb3509951382b207bde460001b61178e565b6115347ff91a03ea39e1e1c7a456cd72a978b5b9d770d3df63baaa87451d1bb699b5059f60001b61178e565b6115607f4e361880ede374fc1a18457bac990c6554f6b09762cc6b6e66eb8a59ad0896cf60001b61178e565b600260008473ffffffffffffffffffffffffffffffffffffffff1673ffffffffffffffffffffffffffffffffffffffff16815260200190815260200160002060008373ffffffffffffffffffffffffffffffffffffffff1673ffffffffffffffffffffffffffffffffffffffff16815260200190815260200160002054905092915050565b6115ed611791565b73ffffffffffffffffffffffffffffffffffffffff1661160b610fc8565b73ffffffffffffffffffffffffffffffffffffffff1614611661576040517f08c379a0000000000000000000000000000000000000000000000000000000008152600401611658906125ec565b60405180910390fd5b600073ffffffffffffffffffffffffffffffffffffffff168173ffffffffffffffffffffffffffffffffffffffff1614156116d1576040517f08c379a00000000000000000000000000000000000000000000000000000000081526004016116c8906125ac565b60405180910390fd5b8073ffffffffffffffffffffffffffffffffffffffff1660008054906101000a900473ffffffffffffffffffffffffffffffffffffffff1673ffffffffffffffffffffffffffffffffffffffff167f8be0079c531659141344cd1fd0a4f28419497f9722a3daafe3b4186f6b6457e060405160405180910390a3806000806101000a81548173ffffffffffffffffffffffffffffffffffffffff021916908373ffffffffffffffffffffffffffffffffffffffff16021790555050565b50565b600033905090565b6117c57fca2ea0f5ccb6a03897e0ddcf9e6817d81f5bac8fbdc74ce2d8c88c4f706363a660001b61178e565b6117f17f4d0887d9809595a4ab8d16253ae204cb8a20d60c5c997c53557c6069f178e90a60001b61178e565b61181d7f2a8399319c1362d3e76014eb4f6882599a5019e449c271b811cb7b48030878c960001b61178e565b6118497fd7ab2550228cfa94ceebeffe39065ac71e37aea20f7033a14878109817578cec60001b61178e565b600073ffffffffffffffffffffffffffffffffffffffff168373ffffffffffffffffffffffffffffffffffffffff1614156118b9576040517f08c379a00000000000000000000000000000000000000000000000000000000081526004016118b09061258c565b60405180910390fd5b6118e57f7070a150143b0140fc32b418244e118fefb6c8996e067c62d54d4abb10d2941460001b61178e565b6119117f410b9c9edeb1b35e55a7d669aba857126218c796734a94336cfa5dc1fee4526a60001b61178e565b61193d7f964fe0a844bb2aa60f7548321a62627883b643198ccb443f66820ba3c62e86af60001b61178e565b6119697f273cfa3e4ebc0715eabbf158f685681b37a623e385601fd78d50097bf943602c60001b61178e565b600073ffffffffffffffffffffffffffffffffffffffff168273ffffffffffffffffffffffffffffffffffffffff1614156119d9576040517f08c379a00000000000000000000000000000000000000000000000000000000081526004016119d09061266c565b60405180910390fd5b611a057f06cd03469ea1664ed1357de5955b443c86eebdd0850c642bd794c2688be1077e60001b61178e565b611a317fada9e0f9221e1f11a21256963d8e99f47ef74a7cddea3d690f2051acb4232bbd60001b61178e565b611a5d7f9b24aecec6468be367979a5724faa84a36abf5bf866a1f47f2c3aaf93a694fd260001b61178e565b80600260008573ffffffffffffffffffffffffffffffffffffffff1673ffffffffffffffffffffffffffffffffffffffff16815260200190815260200160002060008473ffffffffffffffffffffffffffffffffffffffff1673ffffffffffffffffffffffffffffffffffffffff16815260200190815260200160002081905550611b0a7f4043f99b2c074f5fedf1250cc10ce7089b350a7c6b214ee900f248de34f7dda660001b61178e565b611b367f81ff70cdade6cfc28cb7a442ae45668c3b683d866c46ecd6e2ce12b8cb01af7b60001b61178e565b8173ffffffffffffffffffffffffffffffffffffffff168373ffffffffffffffffffffffffffffffffffffffff167f8c5be1e5ebec7d5bd14f71427d1e84f3dd0314c0f7b2291e5b200ac8c7c3b92583604051611b93919061268c565b60405180910390a3505050565b611bcc7f84ddc6436b1ee76888579e73a4586bf4fb7475271a7a8fdc652f5a51c86e755560001b61178e565b611bf87f83602d37bf577810ce9922881c49fae9f38d7f1217cefd0687cfeea2d5ab785360001b61178e565b611c247f7d710cec05260676d8dbbfc23eae148c8930f0363d305f773d4a08808998c36c60001b61178e565b611c507f5663da5be93eba937077e26e5a42aca125822f118e693fee2f86efba49a285e060001b61178e565b600073ffffffffffffffffffffffffffffffffffffffff168373ffffffffffffffffffffffffffffffffffffffff161415611cc0576040517f08c379a0000000000000000000000000000000000000000000000000000000008152600401611cb79061256c565b60405180910390fd5b611cec7f8d784fe104521bb72133df99bf84802087fc1d7bb5ec438547da5e3070f1781c60001b61178e565b611d187f6a08bcfabdc775cd10b7fa042f65df10bba85cf399c86d4f12946f01e53823fa60001b61178e565b611d447febaf60f087b590dddbe443599b1b8afed46cec909bb7a9c80f87959f7519fca260001b61178e565b611d707f62f6b451236ea30a871a4fd37c8907fc3cb06a756884e8bae4d4881ad9d0bfba60001b61178e565b600073ffffffffffffffffffffffffffffffffffffffff168273ffffffffffffffffffffffffffffffffffffffff161415611de0576040517f08c379a0000000000000000000000000000000000000000000000000000000008152600401611dd79061262c565b60405180910390fd5b611e0c7f7d1a6342d93b04b12bfde6083843caaa5b8d40a4070a11293111a3de9f07852460001b61178e565b611e387f40235a2013651c6b831c5aaa546c07300b9cfd944b298a8caef92a57e41601ff60001b61178e565b611e647fbbc29bb0075b317058db70e44d3499f43bdbb214bc3cdf58a27ed0fe884ba7f260001b61178e565b611e6f838383612219565b611e9b7f810e62a37aff74010be1e9b60c1d2a2180fe96c8e094da6e4c37c6b9e72261ef60001b61178e565b611ec77f4b1cb515dc8c9c3aa3e835bc73465174cb5a1904874508086b90807959bff28460001b61178e565b6000600160008573ffffffffffffffffffffffffffffffffffffffff1673ffffffffffffffffffffffffffffffffffffffff168152602001908152602001600020549050611f377fa33dc2fa78299564e43ce5150fb5fcd26b8b27e91f74efd057d1d0ffdd56bd8260001b61178e565b611f637f22f11d5d3446cb8b63243dddea685b2a891b0e9ba934e38312d008d58a7d964f60001b61178e565b611f8f7f9d460f4a57098f7b78aa9422d848243220a1b79d595ea2c5244aff5526a449db60001b61178e565b81811015611fd2576040517f08c379a0000000000000000000000000000000000000000000000000000000008152600401611fc99061260c565b60405180910390fd5b611ffe7fbe00ad36091d1162580b0006028849a5c823cc7559f33dd476ef5f478e8cd35b60001b61178e565b61202a7f5091301fa51c01fe4a3b62d3c7450060161873df470be73c21bf188f0ede394260001b61178e565b6120567fc92562b76bec0ef8474151a753f4b881bf2ab70e3055b5b62a632ff522a41ea660001b61178e565b81816120629190612734565b600160008673ffffffffffffffffffffffffffffffffffffffff1673ffffffffffffffffffffffffffffffffffffffff168152602001908152602001600020819055506120d17f8ed823fdceac080cc7d944cd5257453220935ef2b9987f58f478cb2731a3967f60001b61178e565b6120fd7f3084027f97a0800c8d1533ba09b9b5667da2fea1274309d89de57f59b95e09b060001b61178e565b81600160008573ffffffffffffffffffffffffffffffffffffffff1673ffffffffffffffffffffffffffffffffffffffff168152602001908152602001600020600082825461214c91906126de565b9250508190555061217f7f954130d903aabc26b9eaba0b17e956a2516d7aa7671f0a64d4e6f0ccdac6dbe260001b61178e565b6121ab7f6b9d7acbfd57823c365d563d4e0aa85963a9b0fcf123e0aa3f3c8b5433570d3060001b61178e565b8273ffffffffffffffffffffffffffffffffffffffff168473ffffffffffffffffffffffffffffffffffffffff167fddf252ad1be2c89b69c2b068fc378daa952ba7f163c4a11628f55a4df523b3ef84604051612208919061268c565b60405180910390a350505050565b50565b6122457fdf1dfb0e3ec8664c0b9154c19ea4e17ab3772d3c93d8913baf6671d66a2dae1c60001b61178e565b505050565b60008135905061225981612b32565b92915050565b60008135905061226e81612b49565b92915050565b60006020828403121561228657600080fd5b60006122948482850161224a565b91505092915050565b600080604083850312156122b057600080fd5b60006122be8582860161224a565b92505060206122cf8582860161224a565b9150509250929050565b6000806000606084860312156122ee57600080fd5b60006122fc8682870161224a565b935050602061230d8682870161224a565b925050604061231e8682870161225f565b9150509250925092565b6000806040838503121561233b57600080fd5b60006123498582860161224a565b925050602061235a8582860161225f565b9150509250929050565b61236d81612768565b82525050565b61237c8161277a565b82525050565b600061238d826126c2565b61239781856126cd565b93506123a78185602086016127bd565b6123b081612880565b840191505092915050565b60006123c86025836126cd565b91506123d382612891565b604082019050919050565b60006123eb6024836126cd565b91506123f6826128e0565b604082019050919050565b600061240e6026836126cd565b91506124198261292f565b604082019050919050565b60006124316028836126cd565b915061243c8261297e565b604082019050919050565b60006124546020836126cd565b915061245f826129cd565b602082019050919050565b60006124776026836126cd565b9150612482826129f6565b604082019050919050565b600061249a6023836126cd565b91506124a582612a45565b604082019050919050565b60006124bd6025836126cd565b91506124c882612a94565b604082019050919050565b60006124e06022836126cd565b91506124eb82612ae3565b604082019050919050565b6124ff816127a6565b82525050565b61250e816127b0565b82525050565b60006020820190506125296000830184612364565b92915050565b60006020820190506125446000830184612373565b92915050565b600060208201905081810360008301526125648184612382565b905092915050565b60006020820190508181036000830152612585816123bb565b9050919050565b600060208201905081810360008301526125a5816123de565b9050919050565b600060208201905081810360008301526125c581612401565b9050919050565b600060208201905081810360008301526125e581612424565b9050919050565b6000602082019050818103600083015261260581612447565b9050919050565b600060208201905081810360008301526126258161246a565b9050919050565b600060208201905081810360008301526126458161248d565b9050919050565b60006020820190508181036000830152612665816124b0565b9050919050565b60006020820190508181036000830152612685816124d3565b9050919050565b60006020820190506126a160008301846124f6565b92915050565b60006020820190506126bc6000830184612505565b92915050565b600081519050919050565b600082825260208201905092915050565b60006126e9826127a6565b91506126f4836127a6565b9250827fffffffffffffffffffffffffffffffffffffffffffffffffffffffffffffffff0382111561272957612728612822565b5b828201905092915050565b600061273f826127a6565b915061274a836127a6565b92508282101561275d5761275c612822565b5b828203905092915050565b600061277382612786565b9050919050565b60008115159050919050565b600073ffffffffffffffffffffffffffffffffffffffff82169050919050565b6000819050919050565b600060ff82169050919050565b60005b838110156127db5780820151818401526020810190506127c0565b838111156127ea576000848401525b50505050565b6000600282049050600182168061280857607f821691505b6020821081141561281c5761281b612851565b5b50919050565b7f4e487b7100000000000000000000000000000000000000000000000000000000600052601160045260246000fd5b7f4e487b7100000000000000000000000000000000000000000000000000000000600052602260045260246000fd5b6000601f19601f8301169050919050565b7f42455032303a207472616e736665722066726f6d20746865207a65726f20616460008201527f6472657373000000000000000000000000000000000000000000000000000000602082015250565b7f42455032303a20617070726f76652066726f6d20746865207a65726f2061646460008201527f7265737300000000000000000000000000000000000000000000000000000000602082015250565b7f4f776e61626c653a206e6577206f776e657220697320746865207a65726f206160008201527f6464726573730000000000000000000000000000000000000000000000000000602082015250565b7f42455032303a207472616e7366657220616d6f756e742065786365656473206160008201527f6c6c6f77616e6365000000000000000000000000000000000000000000000000602082015250565b7f4f776e61626c653a2063616c6c6572206973206e6f7420746865206f776e6572600082015250565b7f42455032303a207472616e7366657220616d6f756e742065786365656473206260008201527f616c616e63650000000000000000000000000000000000000000000000000000602082015250565b7f42455032303a207472616e7366657220746f20746865207a65726f206164647260008201527f6573730000000000000000000000000000000000000000000000000000000000602082015250565b7f42455032303a2064656372656173656420616c6c6f77616e63652062656c6f7760008201527f207a65726f000000000000000000000000000000000000000000000000000000602082015250565b7f42455032303a20617070726f766520746f20746865207a65726f20616464726560008201527f7373000000000000000000000000000000000000000000000000000000000000602082015250565b612b3b81612768565b8114612b4657600080fd5b50565b612b52816127a6565b8114612b5d57600080fd5b5056fe68747470733a2f2f6269742d627573696e6573732e6769746875622e696f2f636f696e6d616b6572a264697066735822122071a3853c34f3da128d0eb8cffbd482a5e0e7c37f20606ee7b420adaaa2dbaa0164736f6c63430008030033",
  "linkReferences": {},
  "deployedLinkReferences": {}
}