{
  "_format": "hh-sol-artifact-1",
  "contractName": "ServiceReceiver",
  "sourceName": "contracts/service/ServiceReceiver.sol",
  "abi": [
    {
      "anonymous": false,
      "inputs": [
        {
          "indexed": false,
          "internalType": "string",
          "name": "serviceName",
          "type": "string"
        },
        {
          "indexed": true,
          "internalType": "address",
          "name": "serviceAddress",
          "type": "address"
        }
      ],
      "name": "Created",
      "type": "event"
    },
    {
      "anonymous": false,
      "inputs": [
        {
          "indexed": true,
          "internalType": "address",
          "name": "previousOwner",
          "type": "address"
        },
        {
          "indexed": true,
          "internalType": "address",
          "name": "newOwner",
          "type": "address"
        }
      ],
      "name": "OwnershipTransferred",
      "type": "event"
    },
    {
      "inputs": [
        {
          "internalType": "string",
          "name": "serviceName",
          "type": "string"
        }
      ],
      "name": "getPrice",
      "outputs": [
        {
          "internalType": "uint256",
          "name": "",
          "type": "uint256"
        }
      ],
      "stateMutability": "view",
      "type": "function"
    },
    {
      "inputs": [],
      "name": "owner",
      "outputs": [
        {
          "internalType": "address",
          "name": "",
          "type": "address"
        }
      ],
      "stateMutability": "view",
      "type": "function"
    },
    {
      "inputs": [
        {
          "internalType": "string",
          "name": "serviceName",
          "type": "string"
        }
      ],
      "name": "pay",
      "outputs": [],
      "stateMutability": "payable",
      "type": "function"
    },
    {
      "inputs": [],
      "name": "renounceOwnership",
      "outputs": [],
      "stateMutability": "nonpayable",
      "type": "function"
    },
    {
      "inputs": [
        {
          "internalType": "string",
          "name": "serviceName",
          "type": "string"
        },
        {
          "internalType": "uint256",
          "name": "amount",
          "type": "uint256"
        }
      ],
      "name": "setPrice",
      "outputs": [],
      "stateMutability": "nonpayable",
      "type": "function"
    },
    {
      "inputs": [
        {
          "internalType": "address",
          "name": "newOwner",
          "type": "address"
        }
      ],
      "name": "transferOwnership",
      "outputs": [],
      "stateMutability": "nonpayable",
      "type": "function"
    },
    {
      "inputs": [
        {
          "internalType": "uint256",
          "name": "amount",
          "type": "uint256"
        }
      ],
      "name": "withdraw",
      "outputs": [],
      "stateMutability": "nonpayable",
      "type": "function"
    }
  ],
  "bytecode": "0x608060405234801561001057600080fd5b5060006100216100c460201b60201c565b9050806000806101000a81548173ffffffffffffffffffffffffffffffffffffffff021916908373ffffffffffffffffffffffffffffffffffffffff1602179055508073ffffffffffffffffffffffffffffffffffffffff16600073ffffffffffffffffffffffffffffffffffffffff167f8be0079c531659141344cd1fd0a4f28419497f9722a3daafe3b4186f6b6457e060405160405180910390a3506100cc565b600033905090565b610fb4806100db6000396000f3fe6080604052600436106100705760003560e01c8063524f38891161004e578063524f3889146100e3578063715018a6146101205780638da5cb5b14610137578063f2fde38b1461016257610070565b806322e01192146100755780632b66d72e1461009e5780632e1a7d4d146100ba575b600080fd5b34801561008157600080fd5b5061009c60048036038101906100979190610b59565b61018b565b005b6100b860048036038101906100b39190610b18565b6102af565b005b3480156100c657600080fd5b506100e160048036038101906100dc9190610bad565b610498565b005b3480156100ef57600080fd5b5061010a60048036038101906101059190610b18565b6105e9565b6040516101179190610d33565b60405180910390f35b34801561012c57600080fd5b50610135610692565b005b34801561014357600080fd5b5061014c6107cc565b6040516101599190610c96565b60405180910390f35b34801561016e57600080fd5b5061018960048036038101906101849190610aef565b6107f5565b005b61019361099e565b73ffffffffffffffffffffffffffffffffffffffff166101b16107cc565b73ffffffffffffffffffffffffffffffffffffffff1614610207576040517f08c379a00000000000000000000000000000000000000000000000000000000081526004016101fe90610cf3565b60405180910390fd5b6102337f0278d49b4f1aca1034f71ee05068af5a5bc76a072a3f684b6d409c8586beedfe60001b6109a6565b61025f7fdd12765cbc57dce57ba2333084c5d2f72897e79384c325b5476d9ec10747772a60001b6109a6565b61028b7fe237aed5dd36a54484964ba63a1c691ec1d504ffd3f2021af3453f1fc9b27eca60001b6109a6565b8060016000610299856109a9565b8152602001908152602001600020819055505050565b6102db7f9b4672f5b79a8a1fa058d7391e532fd1385dde6bbdc56514c8b78a994250043860001b6109a6565b6103077f23fa38d957fc37c2963eb0868ac5312c884c2e28ade8792780d57d54799351df60001b6109a6565b6103337f5f00f7f8943ddc58b77ad12042ac2ade7cfcaaa7a78b151fb592900cede5179160001b6109a6565b61035f7fbf426d5f16970407d524e9eb9b7830fa86581e031372982c0f12d543d10021fb60001b6109a6565b6001600061036c836109a9565b81526020019081526020016000205434146103bc576040517f08c379a00000000000000000000000000000000000000000000000000000000081526004016103b390610d13565b60405180910390fd5b6103e87f70eefcd314f149f0f41246af619dab3f19d2abc9019ce252fb7a1b84c0fb98c160001b6109a6565b6104147f222b6e2a5132a7a93e12408b455c366154863ee294de318e2993aad658298b5560001b6109a6565b6104407f0fe46872e6768ebefd87d318ddc8cc6849b6739b7daff1ddd6a5ad1ebffe1adf60001b6109a6565b61044861099e565b73ffffffffffffffffffffffffffffffffffffffff167fdb4e8a6f69daa6b4b9977ed734b510ed9b7ce86536c87435bfd7ef57968d05ee8260405161048d9190610cb1565b60405180910390a250565b6104a061099e565b73ffffffffffffffffffffffffffffffffffffffff166104be6107cc565b73ffffffffffffffffffffffffffffffffffffffff1614610514576040517f08c379a000000000000000000000000000000000000000000000000000000000815260040161050b90610cf3565b60405180910390fd5b6105407ff57d64e22a624612170d2e80170f1382df04b663f0dd423b3673a91aafd25ed360001b6109a6565b61056c7f2d27efad03ce44954c18addbbea287dbed8f30573563a770f3dc0dc3f7b23f3c60001b6109a6565b6105987f97de84fc9bc2ba3095c57f964de5208f7c199884dffafb68f2f86dcdfe1248a160001b6109a6565b6105a06107cc565b73ffffffffffffffffffffffffffffffffffffffff166108fc829081150290604051600060405180830381858888f193505050501580156105e5573d6000803e3d6000fd5b5050565b60006106177f05bb4683bf1dfc2ce86ffc9b03ebf84a9f627f4eaa3cfa530ca2b6e05e4bed7e60001b6109a6565b6106437f8c9864c6945c39392fba51a401369f78f2c58048a98978bcd65d587604e1960060001b6109a6565b61066f7fd03e0c483c0a24da689a3731f42cfef9f7e532e5f1c7adefb145443ff9dab83e60001b6109a6565b6001600061067c846109a9565b8152602001908152602001600020549050919050565b61069a61099e565b73ffffffffffffffffffffffffffffffffffffffff166106b86107cc565b73ffffffffffffffffffffffffffffffffffffffff161461070e576040517f08c379a000000000000000000000000000000000000000000000000000000000815260040161070590610cf3565b60405180910390fd5b600073ffffffffffffffffffffffffffffffffffffffff1660008054906101000a900473ffffffffffffffffffffffffffffffffffffffff1673ffffffffffffffffffffffffffffffffffffffff167f8be0079c531659141344cd1fd0a4f28419497f9722a3daafe3b4186f6b6457e060405160405180910390a360008060006101000a81548173ffffffffffffffffffffffffffffffffffffffff021916908373ffffffffffffffffffffffffffffffffffffffff160217905550565b60008060009054906101000a900473ffffffffffffffffffffffffffffffffffffffff16905090565b6107fd61099e565b73ffffffffffffffffffffffffffffffffffffffff1661081b6107cc565b73ffffffffffffffffffffffffffffffffffffffff1614610871576040517f08c379a000000000000000000000000000000000000000000000000000000000815260040161086890610cf3565b60405180910390fd5b600073ffffffffffffffffffffffffffffffffffffffff168173ffffffffffffffffffffffffffffffffffffffff1614156108e1576040517f08c379a00000000000000000000000000000000000000000000000000000000081526004016108d890610cd3565b60405180910390fd5b8073ffffffffffffffffffffffffffffffffffffffff1660008054906101000a900473ffffffffffffffffffffffffffffffffffffffff1673ffffffffffffffffffffffffffffffffffffffff167f8be0079c531659141344cd1fd0a4f28419497f9722a3daafe3b4186f6b6457e060405160405180910390a3806000806101000a81548173ffffffffffffffffffffffffffffffffffffffff021916908373ffffffffffffffffffffffffffffffffffffffff16021790555050565b600033905090565b50565b60006109d77fe33112e1bca6d8172bc9afa848f341d27ecf9ec8e09f83b5f481ece49f8ab7e860001b6109a6565b610a037fe023fa10882ea772ba430eb6a17afc8776d4f3f6f5ac40403aa71e223577739b60001b6109a6565b610a2f7fe01c68e10828f1258425fe7c35296cbe65a50f838cb53d3ce296e070e764d1db60001b6109a6565b81604051602001610a409190610cb1565b604051602081830303815290604052805190602001209050919050565b6000610a70610a6b84610d73565b610d4e565b905082815260208101848484011115610a8857600080fd5b610a93848285610dfc565b509392505050565b600081359050610aaa81610f50565b92915050565b600082601f830112610ac157600080fd5b8135610ad1848260208601610a5d565b91505092915050565b600081359050610ae981610f67565b92915050565b600060208284031215610b0157600080fd5b6000610b0f84828501610a9b565b91505092915050565b600060208284031215610b2a57600080fd5b600082013567ffffffffffffffff811115610b4457600080fd5b610b5084828501610ab0565b91505092915050565b60008060408385031215610b6c57600080fd5b600083013567ffffffffffffffff811115610b8657600080fd5b610b9285828601610ab0565b9250506020610ba385828601610ada565b9150509250929050565b600060208284031215610bbf57600080fd5b6000610bcd84828501610ada565b91505092915050565b610bdf81610dc0565b82525050565b6000610bf082610da4565b610bfa8185610daf565b9350610c0a818560208601610e0b565b610c1381610e9e565b840191505092915050565b6000610c2b602683610daf565b9150610c3682610eaf565b604082019050919050565b6000610c4e602083610daf565b9150610c5982610efe565b602082019050919050565b6000610c71602083610daf565b9150610c7c82610f27565b602082019050919050565b610c9081610df2565b82525050565b6000602082019050610cab6000830184610bd6565b92915050565b60006020820190508181036000830152610ccb8184610be5565b905092915050565b60006020820190508181036000830152610cec81610c1e565b9050919050565b60006020820190508181036000830152610d0c81610c41565b9050919050565b60006020820190508181036000830152610d2c81610c64565b9050919050565b6000602082019050610d486000830184610c87565b92915050565b6000610d58610d69565b9050610d648282610e3e565b919050565b6000604051905090565b600067ffffffffffffffff821115610d8e57610d8d610e6f565b5b610d9782610e9e565b9050602081019050919050565b600081519050919050565b600082825260208201905092915050565b6000610dcb82610dd2565b9050919050565b600073ffffffffffffffffffffffffffffffffffffffff82169050919050565b6000819050919050565b82818337600083830152505050565b60005b83811015610e29578082015181840152602081019050610e0e565b83811115610e38576000848401525b50505050565b610e4782610e9e565b810181811067ffffffffffffffff82111715610e6657610e65610e6f565b5b80604052505050565b7f4e487b7100000000000000000000000000000000000000000000000000000000600052604160045260246000fd5b6000601f19601f8301169050919050565b7f4f776e61626c653a206e6577206f776e657220697320746865207a65726f206160008201527f6464726573730000000000000000000000000000000000000000000000000000602082015250565b7f4f776e61626c653a2063616c6c6572206973206e6f7420746865206f776e6572600082015250565b7f5365727669636552656365697665723a20696e636f7272656374207072696365600082015250565b610f5981610dc0565b8114610f6457600080fd5b50565b610f7081610df2565b8114610f7b57600080fd5b5056fea26469706673582212200f6bcc05217315c9056c3916894f5a04e53350052b388be80f9be92163d9bd4e64736f6c63430008030033",
  "linkReferences": {},
  "deployedLinkReferences": {}
}