{
  "_format": "hh-sol-artifact-1",
  "contractName": "AmazingBEP20",
  "sourceName": "contracts/token/BEP20/AmazingBEP20.sol",
  "abi": [
    {
      "inputs": [
        {
          "internalType": "string",
          "name": "name",
          "type": "string"
        },
        {
          "internalType": "string",
          "name": "symbol",
          "type": "string"
        },
        {
          "internalType": "uint8",
          "name": "decimals",
          "type": "uint8"
        },
        {
          "internalType": "uint256",
          "name": "initialBalance",
          "type": "uint256"
        },
        {
          "internalType": "address payable",
          "name": "feeReceiver",
          "type": "address"
        }
      ],
      "stateMutability": "payable",
      "type": "constructor"
    },
    {
      "anonymous": false,
      "inputs": [
        {
          "indexed": true,
          "internalType": "address",
          "name": "owner",
          "type": "address"
        },
        {
          "indexed": true,
          "internalType": "address",
          "name": "spender",
          "type": "address"
        },
        {
          "indexed": false,
          "internalType": "uint256",
          "name": "value",
          "type": "uint256"
        }
      ],
      "name": "Approval",
      "type": "event"
    },
    {
      "anonymous": false,
      "inputs": [],
      "name": "MintFinished",
      "type": "event"
    },
    {
      "anonymous": false,
      "inputs": [
        {
          "indexed": true,
          "internalType": "address",
          "name": "previousOwner",
          "type": "address"
        },
        {
          "indexed": true,
          "internalType": "address",
          "name": "newOwner",
          "type": "address"
        }
      ],
      "name": "OwnershipTransferred",
      "type": "event"
    },
    {
      "anonymous": false,
      "inputs": [
        {
          "indexed": true,
          "internalType": "address",
          "name": "from",
          "type": "address"
        },
        {
          "indexed": true,
          "internalType": "address",
          "name": "to",
          "type": "address"
        },
        {
          "indexed": false,
          "internalType": "uint256",
          "name": "value",
          "type": "uint256"
        }
      ],
      "name": "Transfer",
      "type": "event"
    },
    {
      "inputs": [
        {
          "internalType": "address",
          "name": "owner",
          "type": "address"
        },
        {
          "internalType": "address",
          "name": "spender",
          "type": "address"
        }
      ],
      "name": "allowance",
      "outputs": [
        {
          "internalType": "uint256",
          "name": "",
          "type": "uint256"
        }
      ],
      "stateMutability": "view",
      "type": "function"
    },
    {
      "inputs": [
        {
          "internalType": "address",
          "name": "spender",
          "type": "address"
        },
        {
          "internalType": "uint256",
          "name": "amount",
          "type": "uint256"
        }
      ],
      "name": "approve",
      "outputs": [
        {
          "internalType": "bool",
          "name": "",
          "type": "bool"
        }
      ],
      "stateMutability": "nonpayable",
      "type": "function"
    },
    {
      "inputs": [
        {
          "internalType": "address",
          "name": "spender",
          "type": "address"
        },
        {
          "internalType": "uint256",
          "name": "amount",
          "type": "uint256"
        }
      ],
      "name": "approveAndCall",
      "outputs": [
        {
          "internalType": "bool",
          "name": "",
          "type": "bool"
        }
      ],
      "stateMutability": "nonpayable",
      "type": "function"
    },
    {
      "inputs": [
        {
          "internalType": "address",
          "name": "spender",
          "type": "address"
        },
        {
          "internalType": "uint256",
          "name": "amount",
          "type": "uint256"
        },
        {
          "internalType": "bytes",
          "name": "data",
          "type": "bytes"
        }
      ],
      "name": "approveAndCall",
      "outputs": [
        {
          "internalType": "bool",
          "name": "",
          "type": "bool"
        }
      ],
      "stateMutability": "nonpayable",
      "type": "function"
    },
    {
      "inputs": [
        {
          "internalType": "address",
          "name": "account",
          "type": "address"
        }
      ],
      "name": "balanceOf",
      "outputs": [
        {
          "internalType": "uint256",
          "name": "",
          "type": "uint256"
        }
      ],
      "stateMutability": "view",
      "type": "function"
    },
    {
      "inputs": [
        {
          "internalType": "uint256",
          "name": "amount",
          "type": "uint256"
        }
      ],
      "name": "burn",
      "outputs": [],
      "stateMutability": "nonpayable",
      "type": "function"
    },
    {
      "inputs": [
        {
          "internalType": "address",
          "name": "account",
          "type": "address"
        },
        {
          "internalType": "uint256",
          "name": "amount",
          "type": "uint256"
        }
      ],
      "name": "burnFrom",
      "outputs": [],
      "stateMutability": "nonpayable",
      "type": "function"
    },
    {
      "inputs": [],
      "name": "decimals",
      "outputs": [
        {
          "internalType": "uint8",
          "name": "",
          "type": "uint8"
        }
      ],
      "stateMutability": "view",
      "type": "function"
    },
    {
      "inputs": [
        {
          "internalType": "address",
          "name": "spender",
          "type": "address"
        },
        {
          "internalType": "uint256",
          "name": "subtractedValue",
          "type": "uint256"
        }
      ],
      "name": "decreaseAllowance",
      "outputs": [
        {
          "internalType": "bool",
          "name": "",
          "type": "bool"
        }
      ],
      "stateMutability": "nonpayable",
      "type": "function"
    },
    {
      "inputs": [],
      "name": "finishMinting",
      "outputs": [],
      "stateMutability": "nonpayable",
      "type": "function"
    },
    {
      "inputs": [],
      "name": "getOwner",
      "outputs": [
        {
          "internalType": "address",
          "name": "",
          "type": "address"
        }
      ],
      "stateMutability": "view",
      "type": "function"
    },
    {
      "inputs": [
        {
          "internalType": "address",
          "name": "spender",
          "type": "address"
        },
        {
          "internalType": "uint256",
          "name": "addedValue",
          "type": "uint256"
        }
      ],
      "name": "increaseAllowance",
      "outputs": [
        {
          "internalType": "bool",
          "name": "",
          "type": "bool"
        }
      ],
      "stateMutability": "nonpayable",
      "type": "function"
    },
    {
      "inputs": [
        {
          "internalType": "address",
          "name": "account",
          "type": "address"
        },
        {
          "internalType": "uint256",
          "name": "amount",
          "type": "uint256"
        }
      ],
      "name": "mint",
      "outputs": [],
      "stateMutability": "nonpayable",
      "type": "function"
    },
    {
      "inputs": [],
      "name": "mintingFinished",
      "outputs": [
        {
          "internalType": "bool",
          "name": "",
          "type": "bool"
        }
      ],
      "stateMutability": "view",
      "type": "function"
    },
    {
      "inputs": [],
      "name": "name",
      "outputs": [
        {
          "internalType": "string",
          "name": "",
          "type": "string"
        }
      ],
      "stateMutability": "view",
      "type": "function"
    },
    {
      "inputs": [],
      "name": "owner",
      "outputs": [
        {
          "internalType": "address",
          "name": "",
          "type": "address"
        }
      ],
      "stateMutability": "view",
      "type": "function"
    },
    {
      "inputs": [
        {
          "internalType": "address",
          "name": "tokenAddress",
          "type": "address"
        },
        {
          "internalType": "uint256",
          "name": "tokenAmount",
          "type": "uint256"
        }
      ],
      "name": "recoverBEP20",
      "outputs": [],
      "stateMutability": "nonpayable",
      "type": "function"
    },
    {
      "inputs": [],
      "name": "renounceOwnership",
      "outputs": [],
      "stateMutability": "nonpayable",
      "type": "function"
    },
    {
      "inputs": [
        {
          "internalType": "bytes4",
          "name": "interfaceId",
          "type": "bytes4"
        }
      ],
      "name": "supportsInterface",
      "outputs": [
        {
          "internalType": "bool",
          "name": "",
          "type": "bool"
        }
      ],
      "stateMutability": "view",
      "type": "function"
    },
    {
      "inputs": [],
      "name": "symbol",
      "outputs": [
        {
          "internalType": "string",
          "name": "",
          "type": "string"
        }
      ],
      "stateMutability": "view",
      "type": "function"
    },
    {
      "inputs": [],
      "name": "totalSupply",
      "outputs": [
        {
          "internalType": "uint256",
          "name": "",
          "type": "uint256"
        }
      ],
      "stateMutability": "view",
      "type": "function"
    },
    {
      "inputs": [
        {
          "internalType": "address",
          "name": "recipient",
          "type": "address"
        },
        {
          "internalType": "uint256",
          "name": "amount",
          "type": "uint256"
        }
      ],
      "name": "transfer",
      "outputs": [
        {
          "internalType": "bool",
          "name": "",
          "type": "bool"
        }
      ],
      "stateMutability": "nonpayable",
      "type": "function"
    },
    {
      "inputs": [
        {
          "internalType": "address",
          "name": "recipient",
          "type": "address"
        },
        {
          "internalType": "uint256",
          "name": "amount",
          "type": "uint256"
        }
      ],
      "name": "transferAndCall",
      "outputs": [
        {
          "internalType": "bool",
          "name": "",
          "type": "bool"
        }
      ],
      "stateMutability": "nonpayable",
      "type": "function"
    },
    {
      "inputs": [
        {
          "internalType": "address",
          "name": "recipient",
          "type": "address"
        },
        {
          "internalType": "uint256",
          "name": "amount",
          "type": "uint256"
        },
        {
          "internalType": "bytes",
          "name": "data",
          "type": "bytes"
        }
      ],
      "name": "transferAndCall",
      "outputs": [
        {
          "internalType": "bool",
          "name": "",
          "type": "bool"
        }
      ],
      "stateMutability": "nonpayable",
      "type": "function"
    },
    {
      "inputs": [
        {
          "internalType": "address",
          "name": "sender",
          "type": "address"
        },
        {
          "internalType": "address",
          "name": "recipient",
          "type": "address"
        },
        {
          "internalType": "uint256",
          "name": "amount",
          "type": "uint256"
        }
      ],
      "name": "transferFrom",
      "outputs": [
        {
          "internalType": "bool",
          "name": "",
          "type": "bool"
        }
      ],
      "stateMutability": "nonpayable",
      "type": "function"
    },
    {
      "inputs": [
        {
          "internalType": "address",
          "name": "sender",
          "type": "address"
        },
        {
          "internalType": "address",
          "name": "recipient",
          "type": "address"
        },
        {
          "internalType": "uint256",
          "name": "amount",
          "type": "uint256"
        },
        {
          "internalType": "bytes",
          "name": "data",
          "type": "bytes"
        }
      ],
      "name": "transferFromAndCall",
      "outputs": [
        {
          "internalType": "bool",
          "name": "",
          "type": "bool"
        }
      ],
      "stateMutability": "nonpayable",
      "type": "function"
    },
    {
      "inputs": [
        {
          "internalType": "address",
          "name": "sender",
          "type": "address"
        },
        {
          "internalType": "address",
          "name": "recipient",
          "type": "address"
        },
        {
          "internalType": "uint256",
          "name": "amount",
          "type": "uint256"
        }
      ],
      "name": "transferFromAndCall",
      "outputs": [
        {
          "internalType": "bool",
          "name": "",
          "type": "bool"
        }
      ],
      "stateMutability": "nonpayable",
      "type": "function"
    },
    {
      "inputs": [
        {
          "internalType": "address",
          "name": "newOwner",
          "type": "address"
        }
      ],
      "name": "transferOwnership",
      "outputs": [],
      "stateMutability": "nonpayable",
      "type": "function"
    }
  ],
  "bytecode": "0x60806040526000600660016101000a81548160ff02191690831515021790555060405162006ab738038062006ab7833981810160405281019062000044919062000d1c565b806040518060400160405280600c81526020017f416d617a696e6742455032300000000000000000000000000000000000000000815250868660006200008f6200053860201b60201c565b9050806000806101000a81548173ffffffffffffffffffffffffffffffffffffffff021916908373ffffffffffffffffffffffffffffffffffffffff1602179055508073ffffffffffffffffffffffffffffffffffffffff16600073ffffffffffffffffffffffffffffffffffffffff167f8be0079c531659141344cd1fd0a4f28419497f9722a3daafe3b4186f6b6457e060405160405180910390a350620001617f988c686810207ed93ab03e92de42c56418b37c2f953dba9b8e376eb7019227cc60001b6200054060201b60201c565b620001957f83bf5b641243954ba6e2587536bbdc5632174acbf79f9e2259dc8842a8de2e9160001b6200054060201b60201c565b620001c97f34a1179d446b62fb2b3144621868fcb0b3f774ec803e3731c1c3b137fc2d9a1760001b6200054060201b60201c565b8160049080519060200190620001e192919062000bb5565b50620002167fa3c4015a7ec527b93366675b6103cc92f011f47ffe38b50636c1fec4ff70af8960001b6200054060201b60201c565b6200024a7f10107d6c06b1e06b9403856460cada69e7306d2991103571a3dd26bf2fbee78c60001b6200054060201b60201c565b80600590805190602001906200026292919062000bb5565b50620002977fa14ef190c94a053d9cf0c57eb766be9784eb6385bc7980a6a36875dcee52db9e60001b6200054060201b60201c565b620002cb7fdc19d005d429b0093c3b547d1a17bc935b455085669625bcce78b7b836ab852e60001b6200054060201b60201c565b6012600660006101000a81548160ff021916908360ff16021790555050506200031d7f04b479a92492eccd6b8c8d2e9f2dd244002fe580e4a7e225c6da3bd47a3e6fa260001b6200054360201b60201c565b620003517f045b82a93d3a47ecba356839e714349d6b8e366ce921d86e727670685db1bd9560001b6200054360201b60201c565b620003857f5e20d3adb67b9201f934093bb4a46286b78b040934c2c5dffded5a5dadd9502660001b6200054360201b60201c565b8173ffffffffffffffffffffffffffffffffffffffff16632b66d72e34836040518363ffffffff1660e01b8152600401620003c1919062000e70565b6000604051808303818588803b158015620003db57600080fd5b505af1158015620003f0573d6000803e3d6000fd5b505050505050506200042b7f5a2347d40892961335316496ecb0cb05864616a4f2205ca44fa63aafb8166ca960001b6200054660201b60201c565b6200045f7f6c974dbce271a936660eb7aea99431fb40df4086fe156451c713df505071ceb360001b6200054660201b60201c565b620004937ff279e2e8be1f24ba6941d0d222649f135c6f62662e1243fa44435f9a8f02976660001b6200054660201b60201c565b620004a4836200054960201b60201c565b620004d87fc2bc316c3f89cd937df251caafc178f8e66e5a66b167c434c01c73714b2e929860001b6200054660201b60201c565b6200050c7fc45025a262c8c1d15aa6e15701ed201d9889e5c8f9ee207c2a8af29b18e87b0660001b6200054660201b60201c565b6200052d620005206200053860201b60201c565b836200060360201b60201c565b5050505050620011f8565b600033905090565b50565b50565b50565b6200057d7f91627bb9556277aa30c1b19062a1a02b113c6674c802ba44c615d14666f6fd9860001b6200054060201b60201c565b620005b17f7d80bd734fd99c4b6216fc8a91a28d0239e9ac7019c8e18d160fad43aad53aea60001b6200054060201b60201c565b620005e57f5f8dabd086842b030d4a3703d1cf5548d1de895e2ebd6dac49d3de16808adf6c60001b6200054060201b60201c565b80600660006101000a81548160ff021916908360ff16021790555050565b620006136200053860201b60201c565b73ffffffffffffffffffffffffffffffffffffffff16620006396200074960201b60201c565b73ffffffffffffffffffffffffffffffffffffffff161462000692576040517f08c379a0000000000000000000000000000000000000000000000000000000008152600401620006899062000eb6565b60405180910390fd5b620006c67f5afb048ada12abe93c1a539a90d93169926c55c0fc421a682ed73a5b8bd5d54f60001b6200054660201b60201c565b620006fa7fdf57fd49f08228bc6e7500744c017b8ad86768df227f0a88123dcd3aa5626c6c60001b6200054660201b60201c565b6200072e7f3eb0e6c60a972182e2ca59d0626429a431bcb81022e31ccd28a11380b4c5096760001b6200054660201b60201c565b6200074582826200077260201b62002a0a1760201c565b5050565b60008060009054906101000a900473ffffffffffffffffffffffffffffffffffffffff16905090565b620007a67f1c22ea87892a53b18e8c380e0541bfc55eb83d37b01945606c5b3a858c9a16ae60001b6200054060201b60201c565b620007da7fec4b583e7a3abe290b53c6f583c0836a513d5932fdd3837a91933e0617c30c2e60001b6200054060201b60201c565b6200080e7fd6508c3686ebd2e39a62760e9b4b71151d08cf90be446edf5aad5cf49066abc760001b6200054060201b60201c565b620008427f4869c1f45f78c3ff5935ff0f6e9bc6377f400ed71694adb3e7b6e78162e97a9360001b6200054060201b60201c565b600073ffffffffffffffffffffffffffffffffffffffff168273ffffffffffffffffffffffffffffffffffffffff161415620008b5576040517f08c379a0000000000000000000000000000000000000000000000000000000008152600401620008ac9062000e94565b60405180910390fd5b620008e97f85a78fa52fbda579e9874d6e94a6ed44c6f059c0edd51c9861cb2d7b93aff01f60001b6200054060201b60201c565b6200091d7f3db9f5b6011d3b15c25f808a551c0ec974ab120115ae112e18fe2e80cb596fcf60001b6200054060201b60201c565b620009517f9df3ccf91c06a4848c0fc41e85b4ec1c2e3ae3bafc3facb84e62bec0c611d93260001b6200054060201b60201c565b620009656000838362000b7c60201b60201c565b620009997f97471b0e7fbd3c8184a86b00d5ce32819633f8728af61fc43a68a79ac7599a2260001b6200054060201b60201c565b620009cd7fda59c8a9ad27f6548cb398ab91dcf98721adcc59f7d1a1c4f0704d02c44e628c60001b6200054060201b60201c565b8060036000828254620009e1919062000f70565b9250508190555062000a1c7fd61a8de8eefdce39f57a1f0eb0257ce9a70c3440baba9721ae47e086b23026db60001b6200054060201b60201c565b62000a507fb75e24f8b862d249d4aee7402c9fac020c64717b8b5c37f0077a0e3253ffe2ea60001b6200054060201b60201c565b80600160008473ffffffffffffffffffffffffffffffffffffffff1673ffffffffffffffffffffffffffffffffffffffff168152602001908152602001600020600082825462000aa1919062000f70565b9250508190555062000adc7fd9eae19e483846b3084401bd7cbc3b6a4bee948ee40c023bda99d897349e1ca160001b6200054060201b60201c565b62000b107f64c28404cfcea01737e5ccb040880a1fe979beaf1b8852abc72c4bb836b26f1760001b6200054060201b60201c565b8173ffffffffffffffffffffffffffffffffffffffff16600073ffffffffffffffffffffffffffffffffffffffff167fddf252ad1be2c89b69c2b068fc378daa952ba7f163c4a11628f55a4df523b3ef8360405162000b70919062000ed8565b60405180910390a35050565b62000bb07fdf1dfb0e3ec8664c0b9154c19ea4e17ab3772d3c93d8913baf6671d66a2dae1c60001b6200054060201b60201c565b505050565b82805462000bc3906200104e565b90600052602060002090601f01602090048101928262000be7576000855562000c33565b82601f1062000c0257805160ff191683800117855562000c33565b8280016001018555821562000c33579182015b8281111562000c3257825182559160200191906001019062000c15565b5b50905062000c42919062000c46565b5090565b5b8082111562000c6157600081600090555060010162000c47565b5090565b600062000c7c62000c768462000f1e565b62000ef5565b90508281526020810184848401111562000c9557600080fd5b62000ca284828562001018565b509392505050565b60008151905062000cbb81620011aa565b92915050565b600082601f83011262000cd357600080fd5b815162000ce584826020860162000c65565b91505092915050565b60008151905062000cff81620011c4565b92915050565b60008151905062000d1681620011de565b92915050565b600080600080600060a0868803121562000d3557600080fd5b600086015167ffffffffffffffff81111562000d5057600080fd5b62000d5e8882890162000cc1565b955050602086015167ffffffffffffffff81111562000d7c57600080fd5b62000d8a8882890162000cc1565b945050604062000d9d8882890162000d05565b935050606062000db08882890162000cee565b925050608062000dc38882890162000caa565b9150509295509295909350565b600062000ddd8262000f54565b62000de9818562000f5f565b935062000dfb81856020860162001018565b62000e068162001147565b840191505092915050565b600062000e20601f8362000f5f565b915062000e2d8262001158565b602082019050919050565b600062000e4760208362000f5f565b915062000e548262001181565b602082019050919050565b62000e6a8162001001565b82525050565b6000602082019050818103600083015262000e8c818462000dd0565b905092915050565b6000602082019050818103600083015262000eaf8162000e11565b9050919050565b6000602082019050818103600083015262000ed18162000e38565b9050919050565b600060208201905062000eef600083018462000e5f565b92915050565b600062000f0162000f14565b905062000f0f828262001084565b919050565b6000604051905090565b600067ffffffffffffffff82111562000f3c5762000f3b62001118565b5b62000f478262001147565b9050602081019050919050565b600081519050919050565b600082825260208201905092915050565b600062000f7d8262001001565b915062000f8a8362001001565b9250827fffffffffffffffffffffffffffffffffffffffffffffffffffffffffffffffff0382111562000fc25762000fc1620010ba565b5b828201905092915050565b600062000fda8262000fe1565b9050919050565b600073ffffffffffffffffffffffffffffffffffffffff82169050919050565b6000819050919050565b600060ff82169050919050565b60005b83811015620010385780820151818401526020810190506200101b565b8381111562001048576000848401525b50505050565b600060028204905060018216806200106757607f821691505b602082108114156200107e576200107d620010e9565b5b50919050565b6200108f8262001147565b810181811067ffffffffffffffff82111715620010b157620010b062001118565b5b80604052505050565b7f4e487b7100000000000000000000000000000000000000000000000000000000600052601160045260246000fd5b7f4e487b7100000000000000000000000000000000000000000000000000000000600052602260045260246000fd5b7f4e487b7100000000000000000000000000000000000000000000000000000000600052604160045260246000fd5b6000601f19601f8301169050919050565b7f42455032303a206d696e7420746f20746865207a65726f206164647265737300600082015250565b7f4f776e61626c653a2063616c6c6572206973206e6f7420746865206f776e6572600082015250565b620011b58162000fcd565b8114620011c157600080fd5b50565b620011cf8162001001565b8114620011db57600080fd5b50565b620011e9816200100b565b8114620011f557600080fd5b50565b6158af80620012086000396000f3fe608060405234801561001057600080fd5b50600436106101c45760003560e01c8063715018a6116100f9578063a9059cbb11610097578063d8fbe99411610071578063d8fbe99414610543578063dd62ed3e14610573578063efa08806146105a3578063f2fde38b146105bf576101c4565b8063a9059cbb146104b3578063c1d34b89146104e3578063cae9ca5114610513576101c4565b8063893d20e8116100d3578063893d20e8146104295780638da5cb5b1461044757806395d89b4114610465578063a457c2d714610483576101c4565b8063715018a6146103f957806379cc6790146104035780637d64bcb41461041f576101c4565b8063313ce567116101665780634000aea0116101405780634000aea01461036157806340c10f191461039157806342966c68146103ad57806370a08231146103c9576101c4565b8063313ce567146102e35780633177029f146103015780633950935114610331576101c4565b8063095ea7b3116101a2578063095ea7b3146102355780631296ee621461026557806318160ddd1461029557806323b872dd146102b3576101c4565b806301ffc9a7146101c957806305d2035b146101f957806306fdde0314610217575b600080fd5b6101e360048036038101906101de9190614a03565b6105db565b6040516101f09190614e2a565b60405180910390f35b6102016106d9565b60405161020e9190614e2a565b60405180910390f35b61021f610774565b60405161022c9190614e45565b60405180910390f35b61024f600480360381019061024a9190614937565b61088a565b60405161025c9190614e2a565b60405180910390f35b61027f600480360381019061027a9190614937565b610984565b60405161028c9190614e2a565b60405180910390f35b61029d610a2c565b6040516102aa9190615067565b60405180910390f35b6102cd60048036038101906102c8919061486d565b610aba565b6040516102da9190614e2a565b60405180910390f35b6102eb610df7565b6040516102f89190615082565b60405180910390f35b61031b60048036038101906103169190614937565b610e92565b6040516103289190614e2a565b60405180910390f35b61034b60048036038101906103469190614937565b610f3a565b6040516103589190614e2a565b60405180910390f35b61037b60048036038101906103769190614973565b6110c2565b6040516103889190614e2a565b60405180910390f35b6103ab60048036038101906103a69190614937565b6112b8565b005b6103c760048036038101906103c29190614a55565b6114a2565b005b6103e360048036038101906103de9190614808565b61153a565b6040516103f09190615067565b60405180910390f35b610401611607565b005b61041d60048036038101906104189190614937565b611741565b005b6104276119a9565b005b610431611b8f565b60405161043e9190614d5c565b60405180910390f35b61044f611c22565b60405161045c9190614d5c565b60405180910390f35b61046d611c4b565b60405161047a9190614e45565b60405180910390f35b61049d60048036038101906104989190614937565b611d61565b6040516104aa9190614e2a565b60405180910390f35b6104cd60048036038101906104c89190614937565b61203a565b6040516104da9190614e2a565b60405180910390f35b6104fd60048036038101906104f891906148bc565b612134565b60405161050a9190614e2a565b60405180910390f35b61052d60048036038101906105289190614973565b612325565b60405161053a9190614e2a565b60405180910390f35b61055d6004803603810190610558919061486d565b612513565b60405161056a9190614e2a565b60405180910390f35b61058d60048036038101906105889190614831565b6125bd565b60405161059a9190615067565b60405180910390f35b6105bd60048036038101906105b89190614937565b6126c8565b005b6105d960048036038101906105d49190614808565b612861565b005b60006106097f6d4225cfff5de0edf415435e1e58ae35707930216dfe66b2d39e67eb9e33a3f960001b612d9b565b6106357fea7d08488f908ca3a66f5d861c480c990b4bc0f3162547ed1e3b45c081e8727160001b612d9b565b6106617f92721a6e5e26cec11f43e188e1abf40a878584454288b69057d4fd258c43365b60001b612d9b565b7fb0202a11000000000000000000000000000000000000000000000000000000007bffffffffffffffffffffffffffffffffffffffffffffffffffffffff1916827bffffffffffffffffffffffffffffffffffffffffffffffffffffffff191614806106d257506106d182612d9e565b5b9050919050565b60006107077fdcf0e308b3b014e7406929f24d86c44c71749e5ea97f9dc93f01556c5c09019960001b612e08565b6107337fb9e3e7992775ec23f06382f43dff25f2b00eb9a14cf137532fa8188353a1b6a460001b612e08565b61075f7f7d3f0f93126373dc68c3608869cd72ea1407cd650ad6b9e0c957636b3158de6a60001b612e08565b600660019054906101000a900460ff16905090565b60606107a27f484185e46e02d5d25ea29139d2dfc8d7e796399ca8dad1959367786c71f87bbe60001b612e0b565b6107ce7f5a449bf80f8bdef4d076735614d2500f07f298dccd535d3354605149d1d6665160001b612e0b565b6107fa7f09570b59ac0d3bcacf825d25d68c953c906bde6a7c08d9d0f76f25175680e7a660001b612e0b565b6004805461080790615278565b80601f016020809104026020016040519081016040528092919081815260200182805461083390615278565b80156108805780601f1061085557610100808354040283529160200191610880565b820191906000526020600020905b81548152906001019060200180831161086357829003601f168201915b5050505050905090565b60006108b87f14c4e6f92a23b323255e1ea96f7d135c7ee738fa6a95cbbf140042159d72b9eb60001b612e0b565b6108e47f3275c7f11dfe3795ec1ccce9e984b9c35d9ad860716814f2b0eaf110e77f6ab460001b612e0b565b6109107f344da9908f6ecc26c54a5b1d4ea6ab0e51981b5a333f69cf1f163772491cc99760001b612e0b565b61092261091b612e0e565b8484612e16565b61094e7f7f8fa0566800d9147630c78d5dfb0f25580b06201f53b1ff9545eb2cd571f5c660001b612e0b565b61097a7fa828e269cd8ee4aaa3e392780d8fd839a0edc42b060d143eb1139372db3db49560001b612e0b565b6001905092915050565b60006109b27f0facd75135e9df26153f04bff1aa49328a37d1481f81e353b13a7598828a80ed60001b612d9b565b6109de7f7f933d67f4903f6faa295b5073b6e0d58449e0db615ec25959179029eaeaf0dd60001b612d9b565b610a0a7fae99a707d56723451844c7b353d9bc730d566c7264e2ef6f52f231dbf7465c2b60001b612d9b565b610a248383604051806020016040528060008152506110c2565b905092915050565b6000610a5a7f89577bc67186870780481f61fa8bb4e785985e2d0cdf8eb35732b5b1c99c35ff60001b612e0b565b610a867fa9b47ecfe5da68eec3d84d07064f6e3671c004784e579c83950296a57de9d45760001b612e0b565b610ab27feb21b845994cafc22007702042e35e83fbf00ebd6bc119106653eea1c2c8b03160001b612e0b565b600354905090565b6000610ae87f92d40a6fb9fd22476b8ffd32e8a4ed589798746c002eb2a0b484aac9b9c40e0660001b612e0b565b610b147f671f0b70bfe0ae9055df43ccb227578502685d6e5324a86d5aac2bcd1a89772a60001b612e0b565b610b407f1c00d24def30936d42b77f089c2a9a23245b1430e6daff79fa319a8111012e0560001b612e0b565b610b4b84848461321d565b610b777ffdf45a6640dfe526757d49dc7a42b1cb88a8fc8bd582fcdd41ef339b08352ffc60001b612e0b565b610ba37f9098274b85766f95860e6dcb1798199be5a1dc37bad8b3ec08831db9d6b8877d60001b612e0b565b6000600260008673ffffffffffffffffffffffffffffffffffffffff1673ffffffffffffffffffffffffffffffffffffffff1681526020019081526020016000206000610bee612e0e565b73ffffffffffffffffffffffffffffffffffffffff1673ffffffffffffffffffffffffffffffffffffffff168152602001908152602001600020549050610c577fe96a90fc2858e023520a266e2332e5510f720d4cac7ac3990a630895f0a5123260001b612e0b565b610c837f44e0da3a779c46acc50df3361461828de9a009a65e70d18effe6647ba923bb6260001b612e0b565b610caf7f3db9fd0d4dc1336f6449aba63bd7c0c0956f52fce988aeb30eff597ce60a9f1660001b612e0b565b82811015610cf2576040517f08c379a0000000000000000000000000000000000000000000000000000000008152600401610ce990614f27565b60405180910390fd5b610d1e7f5ba9d5bcd10ee9f8802ae892ffc6240e1572f8c73580f4ae95dcbb81e3e5faf160001b612e0b565b610d4a7f68f51e9d958533c872002fafa61d2642c7367e3404565e7800c45514d2e1201560001b612e0b565b610d767f786b817ccc14f8ee067dd191d44ba053052350fc86720e797f73446d0ae0afc560001b612e0b565b610d9385610d82612e0e565b8584610d8e9190615181565b612e16565b610dbf7fcdcdffe503aa7ff0d4173e014095bb90eafa334dc3912e541ae6811e0938a35b60001b612e0b565b610deb7f03a29102b1201e9811b3bad0e86d894005323f483995d0f43660cabe100e481a60001b612e0b565b60019150509392505050565b6000610e257fc8539dbf87b6957305d50f108ff23495af51b570a1af5914406af8bd45f51b7660001b612e0b565b610e517f0d41bd2dddc3fb7065c78fb10d1cc535c31bf5313c1bae1a71676ebf87985f3260001b612e0b565b610e7d7fd4400c10511f7e198c4d8aa94ab1cb130a9b2a49068bced0f0338fdc2a989d2260001b612e0b565b600660009054906101000a900460ff16905090565b6000610ec07fed84c1808b7d4769513edc402f6f63d1d22cb5e7356e8f5d4f7c4933fc00a5c360001b612d9b565b610eec7f6545fd9ef2b5d5f76f7e08161105023735028a9f62bdd729f5c3d317051870d060001b612d9b565b610f187f1efc263adc00add86f30c5574e59cb167420b647efc7a443261b7c6bf1e5b05f60001b612d9b565b610f32838360405180602001604052806000815250612325565b905092915050565b6000610f687f75408c831e2b35e48366b41bde6d530e5c987d55590d7a7a63f3be00dab21d5960001b612e0b565b610f947f54434211770713e0a398f4e2a01fb3815fa8cdf49ee037ce76af679875e42c3a60001b612e0b565b610fc07fa6e0f44c3da7a7d0ec9445af42cf4ba3904588fa22c85177b690fdb03501cd4e60001b612e0b565b611060610fcb612e0e565b848460026000610fd9612e0e565b73ffffffffffffffffffffffffffffffffffffffff1673ffffffffffffffffffffffffffffffffffffffff16815260200190815260200160002060008873ffffffffffffffffffffffffffffffffffffffff1673ffffffffffffffffffffffffffffffffffffffff1681526020019081526020016000205461105b919061512b565b612e16565b61108c7fd6dbf3c18aa633932368190d5f48580ca88a91e777f8241d1fd9e4c950509a4760001b612e0b565b6110b87f7be88749fa7968ae878a06d5d62ac0cd29ba3a9ae6d941d830bb6ccd51c86d2e60001b612e0b565b6001905092915050565b60006110f07f97be899994dc29a17e5d3d37d32077c90837476d62b7e75a04501cd269aea6af60001b612d9b565b61111c7fcd72a4c0b66398c85a1afe232902ec4b2c81005181243a3f3e39dd3a39f3fc6860001b612d9b565b6111487fcaf621406f1b2e2cc66c7f81745b3741d98094bcd0326923bdd1508d5e8b186960001b612d9b565b611152848461203a565b5061117f7f855c9df2ba84068e6e6051b6629d4185c4d1b1331ac4edf5cc96fc0c9a6b6b8660001b612d9b565b6111ab7f7d443b1ff85d198faeb9fd3d8587d79df2c305f9e316dac863a8aa0e4b95672260001b612d9b565b6111d77f6480ed56baf4a576d8d0ad6a7f42a78f5cefebaa1c4e5348f75b210f5a84cefa60001b612d9b565b6111ea6111e2612e0e565b858585613893565b611229576040517f08c379a000000000000000000000000000000000000000000000000000000000815260040161122090614f07565b60405180910390fd5b6112557f48336003a1282616e256fe7298b41a2b66859392522fb85cd33188bf40159a4060001b612d9b565b6112817f1c4ed862efa11d1caf80748caab030df4cc5d62b5547564901c5370859683ff160001b612d9b565b6112ad7f04129f58c0f65e69d28c5af938d0b0da4ad3f35779efa28e2be94227006a71e360001b612d9b565b600190509392505050565b6112e47ffe96ac9e5dc6ec5e93f74f49f243d6b8bd76790bafb893c58ab67a67ff16024c60001b612e08565b6113107f0921ae40b937bf0d6fa248c9afaf53d7b0744ac6d8c21a77e5c1d2a4dfd5b78460001b612e08565b61133c7f5a1fcc616bff1a793dcab10bea7872e4994e5c29bb8be91321a4391900317b3a60001b612e08565b6113687ff06000dd08dc89c9b09602502e20db53d35fb19fcc75b855cd75bcb4c936ab6060001b612e08565b600660019054906101000a900460ff16156113b8576040517f08c379a00000000000000000000000000000000000000000000000000000000081526004016113af90614ee7565b60405180910390fd5b6113e47fddf7ff8855429fd6e56493565c7656051f36dfca7be20756c7ff9edf6685296a60001b612e08565b6114107fdf0e466752b48119c1cfa9d715a0df0451ecc5589578d0304c444e32ed18f9e960001b612e08565b61143c7f8a9e1cb8c86b338264f386e97577dcdf2c2a136762ad5edd9f42d772f90fc16060001b612e08565b6114687f665e058a8c870348af7227f6ea770e8a97cceda4cab52a649e585dc554f841e660001b612e08565b6114947ff5a5fff8fa85cc716ae9e8508403994bdb2011a7db1ac3f77346f0c1f39c478f60001b612e08565b61149e8282613b95565b5050565b6114ce7f512e5ead806b97f83420850a64059f1b444777ecc65dc629f4cc020301813d0960001b613ca3565b6114fa7fdb4ae5c6353969d80609a954f54dbe87fa34edb6d0863a5194dc93d05ad1bb8d60001b613ca3565b6115267f5971b66df7a3f8673233946292b611b88256cf5d6bf47fc6287f241bb4523f3560001b613ca3565b611537611531612e0e565b82613ca6565b50565b60006115687f79a1e8a8a1165beab1a98e2b4833f7e2291c0b3eddf3963cac7b80baf6fee7de60001b612e0b565b6115947fbfe926b7977b2c273da1ed029f65091db4f20c77c504b46a9816357a7107037f60001b612e0b565b6115c07fcacdfbd527609ccbae7437ff7a4ba5a99813224a72080d1f2b7b401581331ad260001b612e0b565b600160008373ffffffffffffffffffffffffffffffffffffffff1673ffffffffffffffffffffffffffffffffffffffff168152602001908152602001600020549050919050565b61160f612e0e565b73ffffffffffffffffffffffffffffffffffffffff1661162d611c22565b73ffffffffffffffffffffffffffffffffffffffff1614611683576040517f08c379a000000000000000000000000000000000000000000000000000000000815260040161167a90614f67565b60405180910390fd5b600073ffffffffffffffffffffffffffffffffffffffff1660008054906101000a900473ffffffffffffffffffffffffffffffffffffffff1673ffffffffffffffffffffffffffffffffffffffff167f8be0079c531659141344cd1fd0a4f28419497f9722a3daafe3b4186f6b6457e060405160405180910390a360008060006101000a81548173ffffffffffffffffffffffffffffffffffffffff021916908373ffffffffffffffffffffffffffffffffffffffff160217905550565b61176d7f83acb4fd6d3434d2da4e569e63edcbcd2f773a2a4f10420af46aec461b3b134b60001b613ca3565b6117997f8b46e33e150ce1b289f5730aa63ffb83e34f3bd9b35da201b77dedc3a444aedf60001b613ca3565b6117c57f7c0f1ff5592d81d12317df9e21f0d4074488d036b68ef7a567095f3e9794656a60001b613ca3565b60006117d8836117d3612e0e565b6125bd565b90506118067f8f2bba8085c2edb6c141735aad8173b75c3b8ca81e64abcc2c0eb305066590c760001b613ca3565b6118327f66029983f494469a718216285f2b526f4369a7ba021d515e98c78f03f749a96260001b613ca3565b61185e7fa5524862f63741cf8a6a8a5f6f4c80f4c44aab89ec2c417bbe0674c05e3ee3c760001b613ca3565b818110156118a1576040517f08c379a000000000000000000000000000000000000000000000000000000000815260040161189890615027565b60405180910390fd5b6118cd7f349c4f1511424b01566ec73f184433e77e6efff31e83ca85796dd8edb38f3f1860001b613ca3565b6118f97f3dfe9ba9640d4f74d3d8a7bf020ef42152a42647e4644e4c5c4319b653be132f60001b613ca3565b6119257f49259888353b88180671afc21b802afe462a45bf22d8e601364ba8ec9ff5f17360001b613ca3565b61194283611931612e0e565b848461193d9190615181565b612e16565b61196e7f245801197f82787f57fb1f567d7035cf6fb3de4854a8cc1803e873e83492299160001b613ca3565b61199a7fee80867a35a42585a78d77b3e357be1a013744b9900ba0cc412fff67c0b869c860001b613ca3565b6119a48383613ca6565b505050565b6119d57ffe96ac9e5dc6ec5e93f74f49f243d6b8bd76790bafb893c58ab67a67ff16024c60001b612e08565b611a017f0921ae40b937bf0d6fa248c9afaf53d7b0744ac6d8c21a77e5c1d2a4dfd5b78460001b612e08565b611a2d7f5a1fcc616bff1a793dcab10bea7872e4994e5c29bb8be91321a4391900317b3a60001b612e08565b611a597ff06000dd08dc89c9b09602502e20db53d35fb19fcc75b855cd75bcb4c936ab6060001b612e08565b600660019054906101000a900460ff1615611aa9576040517f08c379a0000000000000000000000000000000000000000000000000000000008152600401611aa090614ee7565b60405180910390fd5b611ad57fddf7ff8855429fd6e56493565c7656051f36dfca7be20756c7ff9edf6685296a60001b612e08565b611b017fdf0e466752b48119c1cfa9d715a0df0451ecc5589578d0304c444e32ed18f9e960001b612e08565b611b2d7fa20b234d4ffcda52ea0049a08e70402886120855b2a6cca86573c222bf1f7dfb60001b612e08565b611b597f9c92447cf716624b975cddaf295f85aa0ca1e7fb31779927c5331688b0fd5b8260001b612e08565b611b857f236266dd863622b204297dac282f866d49d74104821bcef8c4d095d20331096460001b612e08565b611b8d6141c0565b565b6000611bbd7ffdafd5baa8d11a6a76674f55e8f4c5585dd88dba785518726a93f19fdefa561660001b612e0b565b611be97fbdcec761d97bf410535c39579f7de93f0f85185c03ddef81ac14207125e8f82b60001b612e0b565b611c157fcf7f350d80ffe1d7c92ba4198058b66c5a1017f4eff08a75a4df237617f0bc5560001b612e0b565b611c1d611c22565b905090565b60008060009054906101000a900473ffffffffffffffffffffffffffffffffffffffff16905090565b6060611c797f837da9945b1e37e9a489e53347c25ec02c003faa861d9eedeccf89c0fe7cd8c460001b612e0b565b611ca57f660713aecadba305585b19aa2b43cb56859cacbf019aa7362810301017bab8ce60001b612e0b565b611cd17f185dd7eb5dab1dd0c01af159e88f2643916bec358b808d99d4ecbd78b420a31e60001b612e0b565b60058054611cde90615278565b80601f0160208091040260200160405190810160405280929190818152602001828054611d0a90615278565b8015611d575780601f10611d2c57610100808354040283529160200191611d57565b820191906000526020600020905b815481529060010190602001808311611d3a57829003601f168201915b5050505050905090565b6000611d8f7f3a9aa5fba9807d053d4432a82f92ddb80d9032675fc5402c367c7b2bc014e00260001b612e0b565b611dbb7f298d4508d57f9823dc3b339659acd35ddc8aa533ed20d184b1b0fc1237ba954c60001b612e0b565b611de77f04c32e1b2acf7c637b2a6107a5b37a4d06c05916611975d0ad438968ecb9612560001b612e0b565b600060026000611df5612e0e565b73ffffffffffffffffffffffffffffffffffffffff1673ffffffffffffffffffffffffffffffffffffffff16815260200190815260200160002060008573ffffffffffffffffffffffffffffffffffffffff1673ffffffffffffffffffffffffffffffffffffffff168152602001908152602001600020549050611e9b7f5c4c5b17c9dfeeb6c1278a7ba155c6d66364877bc5260e75bd500da88060124660001b612e0b565b611ec77f5f92d97918548249ffb9e70b72faa95a8bf9c181121f9e978a2ca2197785059f60001b612e0b565b611ef37f3f9cac0174c349ac883b503798f4f7402e5f75641b23754d27f992c5238e426160001b612e0b565b82811015611f36576040517f08c379a0000000000000000000000000000000000000000000000000000000008152600401611f2d90614fc7565b60405180910390fd5b611f627f5bf86eb6f3404f96fdf6cb5cc829db8f43161420bb7114dbccdf0f79669b2f2060001b612e0b565b611f8e7f32766e1fdf4607ae970c162e9f959ce9c63c77d7f4c809a4f6fcb5d489bb02a960001b612e0b565b611fba7fdbce515b635d34f96588fd5883df6e5f0b7dd571b95f813cbb8d4bd029be657460001b612e0b565b611fd7611fc5612e0e565b858584611fd29190615181565b612e16565b6120037f201fd7adb5036c1b9ae28c7aa50c38c55c74f55175aa1fa38ba8d37cc91da9e860001b612e0b565b61202f7fd8175fbfb2bebc8fe8a63ba1dde5517cae72580ac0beeceb80bb132d8c71b21a60001b612e0b565b600191505092915050565b60006120687fb82335c066cc496c668a708cf677cde5bbdb0bcc766a8b6132d432e1bf892a9f60001b612e0b565b6120947f12f3a206d23a69f12001b9650c4ffb2a18e7c8af9c94be582b7ef3d1db9ea09c60001b612e0b565b6120c07f57fb051521146211d6e7c7e7222273c443fc0c93a18eeb9edd90433fbe3f07cd60001b612e0b565b6120d26120cb612e0e565b848461321d565b6120fe7ffedacbfaa184510510418b878e316be723490c1165a45cd4fa583057ef0fc0e360001b612e0b565b61212a7f5e96f2ede87d6e8595875c8a93ec37c4265fd7fb81105a8fbca81591ca71b11f60001b612e0b565b6001905092915050565b60006121627f08da29975624589d7f96000cb9802fa8996ee0b625f3834ed140f177bb9b1dc160001b612d9b565b61218e7f185d9941ef1312f4f71bb9934574a09a5906d0ce4d15a0db80ed282adefb7a8560001b612d9b565b6121ba7f979520430bc38f5b736717748c5bee58dd69589896a89ff363f4e9bfbc2e98e460001b612d9b565b6121c5858585610aba565b506121f27f7f06bab0a0aff700207d024a46b5440f5fe454fa038adb807bec2da61b1dcc2160001b612d9b565b61221e7f41c7cdfac549d9fa2c35c67f24c6cd521c91ac22790ccfb92a92ac953477db1160001b612d9b565b61224a7f2a04c34f2262358daa41455563acb2a40e570a03c1cb1d2c2cd9860381578ab860001b612d9b565b61225685858585613893565b612295576040517f08c379a000000000000000000000000000000000000000000000000000000000815260040161228c90614f07565b60405180910390fd5b6122c17f77a6712553f25cbe04cfc614589b99980f73e60500df76635b29451f76fa718b60001b612d9b565b6122ed7fdf8ceaae3fb603fe9714f8a8b55e34fbb2f27c6631f0b8f72667ed5cad73739060001b612d9b565b6123197f240155654d2de838b6db32c8bec2c644311f8ba8256f05bf680860c7749e46e160001b612d9b565b60019050949350505050565b60006123537f0952ec8bd18ee35c4a257e16ed60baa23b04112ae4578736ae89e275edccf5d660001b612d9b565b61237f7f9ada62269f248401eb26656a0f47af988f9d3b51d187c9f27137f1abe524206260001b612d9b565b6123ab7fdfdcc2aeabbc0e11a6a55423777b978d4c8425eba4315500313fa082767d2b3e60001b612d9b565b6123b5848461088a565b506123e27f6f3563e79acc0f1d97bc5007edd71daeed0e8b31df648774af0c4570d97dc51260001b612d9b565b61240e7fa932395e7720b1623186f20060db59f5ded3837b64964d75675624779f8894d960001b612d9b565b61243a7fa064646a187e28f610bab25ebbbbbdf9d13c83557811527c64c552894196f8c760001b612d9b565b6124458484846142c9565b612484576040517f08c379a000000000000000000000000000000000000000000000000000000000815260040161247b90614e87565b60405180910390fd5b6124b07f112fe4dd8356a478e5737e6412d204fee99886cb04c361dcff61208d49357f9c60001b612d9b565b6124dc7fd467aa46cfcd414de5a93af833cd6087881f4252456cf6060eb920140197092c60001b612d9b565b6125087fbe8f5b8e2e9f79b998865e8230f092e17bcd2443146a13f5bb0ca092fc235c3d60001b612d9b565b600190509392505050565b60006125417ffe4ecabcb10303860cf8ea2131e5d87ad3b9a797176b39a46b81933cb54ef57760001b612d9b565b61256d7fa17c93ca2dc1de425119336026409a4e0f1fce256e544e80f962f296ce96030260001b612d9b565b6125997fd6834872f5f4ef023f546401263f5608f47fa391df4a3da3dc2e359b3be9cd8260001b612d9b565b6125b484848460405180602001604052806000815250612134565b90509392505050565b60006125eb7fb4f496f2c880799314b4c518bfd47b37bdd3f8ef6c3ccb3509951382b207bde460001b612e0b565b6126177ff91a03ea39e1e1c7a456cd72a978b5b9d770d3df63baaa87451d1bb699b5059f60001b612e0b565b6126437f4e361880ede374fc1a18457bac990c6554f6b09762cc6b6e66eb8a59ad0896cf60001b612e0b565b600260008473ffffffffffffffffffffffffffffffffffffffff1673ffffffffffffffffffffffffffffffffffffffff16815260200190815260200160002060008373ffffffffffffffffffffffffffffffffffffffff1673ffffffffffffffffffffffffffffffffffffffff16815260200190815260200160002054905092915050565b6126d0612e0e565b73ffffffffffffffffffffffffffffffffffffffff166126ee611c22565b73ffffffffffffffffffffffffffffffffffffffff1614612744576040517f08c379a000000000000000000000000000000000000000000000000000000000815260040161273b90614f67565b60405180910390fd5b6127707fff0928b2ead43434a82dbdcf8562eefd43c023838fce214c66bb562650b4258860001b6145c8565b61279c7fc50b27bdfe070784a433e12c531bb7f3214061c1f449c865ab68092dd47d593360001b6145c8565b6127c87f6aaadd2d0a749e436cced09d412667b408b4f4e60efafebefa4b1777c8e9019760001b6145c8565b8173ffffffffffffffffffffffffffffffffffffffff1663a9059cbb6127ec611c22565b836040518363ffffffff1660e01b815260040161280a929190614dc3565b602060405180830381600087803b15801561282457600080fd5b505af1158015612838573d6000803e3d6000fd5b505050506040513d601f19601f8201168201806040525081019061285c91906149da565b505050565b612869612e0e565b73ffffffffffffffffffffffffffffffffffffffff16612887611c22565b73ffffffffffffffffffffffffffffffffffffffff16146128dd576040517f08c379a00000000000000000000000000000000000000000000000000000000081526004016128d490614f67565b60405180910390fd5b600073ffffffffffffffffffffffffffffffffffffffff168173ffffffffffffffffffffffffffffffffffffffff16141561294d576040517f08c379a000000000000000000000000000000000000000000000000000000000815260040161294490614ec7565b60405180910390fd5b8073ffffffffffffffffffffffffffffffffffffffff1660008054906101000a900473ffffffffffffffffffffffffffffffffffffffff1673ffffffffffffffffffffffffffffffffffffffff167f8be0079c531659141344cd1fd0a4f28419497f9722a3daafe3b4186f6b6457e060405160405180910390a3806000806101000a81548173ffffffffffffffffffffffffffffffffffffffff021916908373ffffffffffffffffffffffffffffffffffffffff16021790555050565b612a367f1c22ea87892a53b18e8c380e0541bfc55eb83d37b01945606c5b3a858c9a16ae60001b612e0b565b612a627fec4b583e7a3abe290b53c6f583c0836a513d5932fdd3837a91933e0617c30c2e60001b612e0b565b612a8e7fd6508c3686ebd2e39a62760e9b4b71151d08cf90be446edf5aad5cf49066abc760001b612e0b565b612aba7f4869c1f45f78c3ff5935ff0f6e9bc6377f400ed71694adb3e7b6e78162e97a9360001b612e0b565b600073ffffffffffffffffffffffffffffffffffffffff168273ffffffffffffffffffffffffffffffffffffffff161415612b2a576040517f08c379a0000000000000000000000000000000000000000000000000000000008152600401612b2190614f47565b60405180910390fd5b612b567f85a78fa52fbda579e9874d6e94a6ed44c6f059c0edd51c9861cb2d7b93aff01f60001b612e0b565b612b827f3db9f5b6011d3b15c25f808a551c0ec974ab120115ae112e18fe2e80cb596fcf60001b612e0b565b612bae7f9df3ccf91c06a4848c0fc41e85b4ec1c2e3ae3bafc3facb84e62bec0c611d93260001b612e0b565b612bba600083836145cb565b612be67f97471b0e7fbd3c8184a86b00d5ce32819633f8728af61fc43a68a79ac7599a2260001b612e0b565b612c127fda59c8a9ad27f6548cb398ab91dcf98721adcc59f7d1a1c4f0704d02c44e628c60001b612e0b565b8060036000828254612c24919061512b565b92505081905550612c577fd61a8de8eefdce39f57a1f0eb0257ce9a70c3440baba9721ae47e086b23026db60001b612e0b565b612c837fb75e24f8b862d249d4aee7402c9fac020c64717b8b5c37f0077a0e3253ffe2ea60001b612e0b565b80600160008473ffffffffffffffffffffffffffffffffffffffff1673ffffffffffffffffffffffffffffffffffffffff1681526020019081526020016000206000828254612cd2919061512b565b92505081905550612d057fd9eae19e483846b3084401bd7cbc3b6a4bee948ee40c023bda99d897349e1ca160001b612e0b565b612d317f64c28404cfcea01737e5ccb040880a1fe979beaf1b8852abc72c4bb836b26f1760001b612e0b565b8173ffffffffffffffffffffffffffffffffffffffff16600073ffffffffffffffffffffffffffffffffffffffff167fddf252ad1be2c89b69c2b068fc378daa952ba7f163c4a11628f55a4df523b3ef83604051612d8f9190615067565b60405180910390a35050565b50565b60007f01ffc9a7000000000000000000000000000000000000000000000000000000007bffffffffffffffffffffffffffffffffffffffffffffffffffffffff1916827bffffffffffffffffffffffffffffffffffffffffffffffffffffffff1916149050919050565b50565b50565b600033905090565b612e427fca2ea0f5ccb6a03897e0ddcf9e6817d81f5bac8fbdc74ce2d8c88c4f706363a660001b612e0b565b612e6e7f4d0887d9809595a4ab8d16253ae204cb8a20d60c5c997c53557c6069f178e90a60001b612e0b565b612e9a7f2a8399319c1362d3e76014eb4f6882599a5019e449c271b811cb7b48030878c960001b612e0b565b612ec67fd7ab2550228cfa94ceebeffe39065ac71e37aea20f7033a14878109817578cec60001b612e0b565b600073ffffffffffffffffffffffffffffffffffffffff168373ffffffffffffffffffffffffffffffffffffffff161415612f36576040517f08c379a0000000000000000000000000000000000000000000000000000000008152600401612f2d90614ea7565b60405180910390fd5b612f627f7070a150143b0140fc32b418244e118fefb6c8996e067c62d54d4abb10d2941460001b612e0b565b612f8e7f410b9c9edeb1b35e55a7d669aba857126218c796734a94336cfa5dc1fee4526a60001b612e0b565b612fba7f964fe0a844bb2aa60f7548321a62627883b643198ccb443f66820ba3c62e86af60001b612e0b565b612fe67f273cfa3e4ebc0715eabbf158f685681b37a623e385601fd78d50097bf943602c60001b612e0b565b600073ffffffffffffffffffffffffffffffffffffffff168273ffffffffffffffffffffffffffffffffffffffff161415613056576040517f08c379a000000000000000000000000000000000000000000000000000000000815260040161304d90615047565b60405180910390fd5b6130827f06cd03469ea1664ed1357de5955b443c86eebdd0850c642bd794c2688be1077e60001b612e0b565b6130ae7fada9e0f9221e1f11a21256963d8e99f47ef74a7cddea3d690f2051acb4232bbd60001b612e0b565b6130da7f9b24aecec6468be367979a5724faa84a36abf5bf866a1f47f2c3aaf93a694fd260001b612e0b565b80600260008573ffffffffffffffffffffffffffffffffffffffff1673ffffffffffffffffffffffffffffffffffffffff16815260200190815260200160002060008473ffffffffffffffffffffffffffffffffffffffff1673ffffffffffffffffffffffffffffffffffffffff168152602001908152602001600020819055506131877f4043f99b2c074f5fedf1250cc10ce7089b350a7c6b214ee900f248de34f7dda660001b612e0b565b6131b37f81ff70cdade6cfc28cb7a442ae45668c3b683d866c46ecd6e2ce12b8cb01af7b60001b612e0b565b8173ffffffffffffffffffffffffffffffffffffffff168373ffffffffffffffffffffffffffffffffffffffff167f8c5be1e5ebec7d5bd14f71427d1e84f3dd0314c0f7b2291e5b200ac8c7c3b925836040516132109190615067565b60405180910390a3505050565b6132497f84ddc6436b1ee76888579e73a4586bf4fb7475271a7a8fdc652f5a51c86e755560001b612e0b565b6132757f83602d37bf577810ce9922881c49fae9f38d7f1217cefd0687cfeea2d5ab785360001b612e0b565b6132a17f7d710cec05260676d8dbbfc23eae148c8930f0363d305f773d4a08808998c36c60001b612e0b565b6132cd7f5663da5be93eba937077e26e5a42aca125822f118e693fee2f86efba49a285e060001b612e0b565b600073ffffffffffffffffffffffffffffffffffffffff168373ffffffffffffffffffffffffffffffffffffffff16141561333d576040517f08c379a000000000000000000000000000000000000000000000000000000000815260040161333490614e67565b60405180910390fd5b6133697f8d784fe104521bb72133df99bf84802087fc1d7bb5ec438547da5e3070f1781c60001b612e0b565b6133957f6a08bcfabdc775cd10b7fa042f65df10bba85cf399c86d4f12946f01e53823fa60001b612e0b565b6133c17febaf60f087b590dddbe443599b1b8afed46cec909bb7a9c80f87959f7519fca260001b612e0b565b6133ed7f62f6b451236ea30a871a4fd37c8907fc3cb06a756884e8bae4d4881ad9d0bfba60001b612e0b565b600073ffffffffffffffffffffffffffffffffffffffff168273ffffffffffffffffffffffffffffffffffffffff16141561345d576040517f08c379a000000000000000000000000000000000000000000000000000000000815260040161345490614fa7565b60405180910390fd5b6134897f7d1a6342d93b04b12bfde6083843caaa5b8d40a4070a11293111a3de9f07852460001b612e0b565b6134b57f40235a2013651c6b831c5aaa546c07300b9cfd944b298a8caef92a57e41601ff60001b612e0b565b6134e17fbbc29bb0075b317058db70e44d3499f43bdbb214bc3cdf58a27ed0fe884ba7f260001b612e0b565b6134ec8383836145cb565b6135187f810e62a37aff74010be1e9b60c1d2a2180fe96c8e094da6e4c37c6b9e72261ef60001b612e0b565b6135447f4b1cb515dc8c9c3aa3e835bc73465174cb5a1904874508086b90807959bff28460001b612e0b565b6000600160008573ffffffffffffffffffffffffffffffffffffffff1673ffffffffffffffffffffffffffffffffffffffff1681526020019081526020016000205490506135b47fa33dc2fa78299564e43ce5150fb5fcd26b8b27e91f74efd057d1d0ffdd56bd8260001b612e0b565b6135e07f22f11d5d3446cb8b63243dddea685b2a891b0e9ba934e38312d008d58a7d964f60001b612e0b565b61360c7f9d460f4a57098f7b78aa9422d848243220a1b79d595ea2c5244aff5526a449db60001b612e0b565b8181101561364f576040517f08c379a000000000000000000000000000000000000000000000000000000000815260040161364690614f87565b60405180910390fd5b61367b7fbe00ad36091d1162580b0006028849a5c823cc7559f33dd476ef5f478e8cd35b60001b612e0b565b6136a77f5091301fa51c01fe4a3b62d3c7450060161873df470be73c21bf188f0ede394260001b612e0b565b6136d37fc92562b76bec0ef8474151a753f4b881bf2ab70e3055b5b62a632ff522a41ea660001b612e0b565b81816136df9190615181565b600160008673ffffffffffffffffffffffffffffffffffffffff1673ffffffffffffffffffffffffffffffffffffffff1681526020019081526020016000208190555061374e7f8ed823fdceac080cc7d944cd5257453220935ef2b9987f58f478cb2731a3967f60001b612e0b565b61377a7f3084027f97a0800c8d1533ba09b9b5667da2fea1274309d89de57f59b95e09b060001b612e0b565b81600160008573ffffffffffffffffffffffffffffffffffffffff1673ffffffffffffffffffffffffffffffffffffffff16815260200190815260200160002060008282546137c9919061512b565b925050819055506137fc7f954130d903aabc26b9eaba0b17e956a2516d7aa7671f0a64d4e6f0ccdac6dbe260001b612e0b565b6138287f6b9d7acbfd57823c365d563d4e0aa85963a9b0fcf123e0aa3f3c8b5433570d3060001b612e0b565b8273ffffffffffffffffffffffffffffffffffffffff168473ffffffffffffffffffffffffffffffffffffffff167fddf252ad1be2c89b69c2b068fc378daa952ba7f163c4a11628f55a4df523b3ef846040516138859190615067565b60405180910390a350505050565b60006138c17f4d71945b197389ceb8f870476f5b1e7c08a45c4592c94bf58ac3f1da8593357760001b612d9b565b6138ed7f41ee386c4eb9ccbf05f828c1e212bb44ede2febbab87f03fd5207b90598bf4a860001b612d9b565b6139197fe5ec04c017d39f44c1f1f0271523c53086d7c93112001042d572cf89e4fa048760001b612d9b565b6139388473ffffffffffffffffffffffffffffffffffffffff166145fc565b6139c9576139687f088971889e4830010df016b091a44f7809d4e7a9c92ceb572e9d50e824c3d80a60001b612d9b565b6139947ffaf3c1206ddd272c4b73d425ec9b9a25feaec55adaef52507b13940d383fe3de60001b612d9b565b6139c07f9c6967e05608e1f3076a3b970c96f1b6b679dadb81993ccabd544fae6399c56c60001b612d9b565b60009050613b8d565b6139f57fb77e1204dc26bee955c8fccc733945f3b1ec94625937b6b50eca5ca9949e326660001b612d9b565b613a217f5e902ccabf13b6170ca7d64d062f65166e68164b55a0323530570e599e4433ab60001b612d9b565b613a4d7fed2b8a0144ccfd4e12f38e14eddd9cb2fbc7e7ab5c414786a43d927a6980b7bb60001b612d9b565b60008473ffffffffffffffffffffffffffffffffffffffff166388a7ca5c613a73612e0e565b8887876040518563ffffffff1660e01b8152600401613a959493929190614d77565b602060405180830381600087803b158015613aaf57600080fd5b505af1158015613ac3573d6000803e3d6000fd5b505050506040513d601f19601f82011682018060405250810190613ae79190614a2c565b9050613b157f1f8df71a22402bf22c373a0d11f6e1b8f5e6fac50bccb388f0f3a3cff8956fc760001b612d9b565b613b417f5a4320ac8afb1f8435bcc307814f666ec42c3507ef5c78020ec67807a413550e60001b612d9b565b6388a7ca5c60e01b7bffffffffffffffffffffffffffffffffffffffffffffffffffffffff1916817bffffffffffffffffffffffffffffffffffffffffffffffffffffffff1916149150505b949350505050565b613b9d612e0e565b73ffffffffffffffffffffffffffffffffffffffff16613bbb611c22565b73ffffffffffffffffffffffffffffffffffffffff1614613c11576040517f08c379a0000000000000000000000000000000000000000000000000000000008152600401613c0890614f67565b60405180910390fd5b613c3d7f5afb048ada12abe93c1a539a90d93169926c55c0fc421a682ed73a5b8bd5d54f60001b61460f565b613c697fdf57fd49f08228bc6e7500744c017b8ad86768df227f0a88123dcd3aa5626c6c60001b61460f565b613c957f3eb0e6c60a972182e2ca59d0626429a431bcb81022e31ccd28a11380b4c5096760001b61460f565b613c9f8282612a0a565b5050565b50565b613cd27f76f6181846aef407ec0693db3df0a3213202429a64f445d5012022d6de6c119e60001b612e0b565b613cfe7fc6909def5a8b7abaa36614dce8e08d2c86cf55cddb02fe8e9a08e3fccada282660001b612e0b565b613d2a7fa48a0bfe3b186d932215eecab34df508b7c7fbb701f51a2f95a8f3eac896f90d60001b612e0b565b613d567f17832f98e0b84d0c05cccfb7368680bbe7a5491ebd66c66677a6d5538dc0006e60001b612e0b565b600073ffffffffffffffffffffffffffffffffffffffff168273ffffffffffffffffffffffffffffffffffffffff161415613dc6576040517f08c379a0000000000000000000000000000000000000000000000000000000008152600401613dbd90614fe7565b60405180910390fd5b613df27fb4d214434c8ec3be425d9fc73d04ba8cbf5f4ed7dc5cc95ff6926e52501da84360001b612e0b565b613e1e7fefeab52b7c9eaa381c923fd156365bce14def6ba930fba37e190be0229aca1fd60001b612e0b565b613e4a7f2e85ed7c54e500d012290227a5987c87785958b14d08a2678f2803b1b280dd8360001b612e0b565b613e56826000836145cb565b613e827ffa96ccc7a98b58d8fd00b10ff90b455fde1a7d1566b790650f38670d4a49cafd60001b612e0b565b613eae7f8ecff926acd1c50e8c38d1535a77eae7293a80d0fcf4e4058bf00232bbd950a060001b612e0b565b6000600160008473ffffffffffffffffffffffffffffffffffffffff1673ffffffffffffffffffffffffffffffffffffffff168152602001908152602001600020549050613f1e7fa50bbf688a4d68bc833c3529b3e45d8c176a4dd0146e62dbbf15b03f7521aa2060001b612e0b565b613f4a7fc643aae517aaa3f80516a5e9a8621092001d9dd5bd47ea94cb7fea9a1742025560001b612e0b565b613f767f59d3a8d3d780e29c6790b3fa0aac70e347bc051e4e57699b46601e169aba614560001b612e0b565b81811015613fb9576040517f08c379a0000000000000000000000000000000000000000000000000000000008152600401613fb090615007565b60405180910390fd5b613fe57f8c52dedeaeb1383fc2875cf352c7d8127c204c319cc4007d22f7d6f1a9cbd9c660001b612e0b565b6140117fedf7ba972b21b22c80ba50c8764900642eef0547e2815c3ee20d0be1f61bba3060001b612e0b565b61403d7ff605e4bd898dd40d1a206641eae7ba568cc6967cb01efce5fc6ececd79300db360001b612e0b565b81816140499190615181565b600160008573ffffffffffffffffffffffffffffffffffffffff1673ffffffffffffffffffffffffffffffffffffffff168152602001908152602001600020819055506140b87f7fb1a135c8c27ac53eb9850c411ce68d6d9415bed3fb7d37e6d043bb53b128c160001b612e0b565b6140e47fb2c2b0e0ff595d16a22678b4865c7ff24e72e5b683abb15694f06194ba5c74d760001b612e0b565b81600360008282546140f69190615181565b925050819055506141297fab6a4a3f9ec3f1697ba2d46f02bbaa370c77dbced276fd883b576dd0d364c61b60001b612e0b565b6141557f2d0953634f14fd8a94b26705b21ec90458a0faac218e0478a56fe84e4656a3b660001b612e0b565b600073ffffffffffffffffffffffffffffffffffffffff168373ffffffffffffffffffffffffffffffffffffffff167fddf252ad1be2c89b69c2b068fc378daa952ba7f163c4a11628f55a4df523b3ef846040516141b39190615067565b60405180910390a3505050565b6141c8612e0e565b73ffffffffffffffffffffffffffffffffffffffff166141e6611c22565b73ffffffffffffffffffffffffffffffffffffffff161461423c576040517f08c379a000000000000000000000000000000000000000000000000000000000815260040161423390614f67565b60405180910390fd5b6142677e39473521eae9d63d614129a2428c443468b264a8e5f391f146edeee945c79960001b61460f565b6142937f32fb301e37bc412e886cba765191e1172560b5c0d5f7a05f3f21e17f280a334660001b61460f565b6142bf7f278de617ab6aa9a61498f9204a0ceb9fade85bef963e47278dbf9a200db27aaf60001b61460f565b6142c7614612565b565b60006142f77f2d819a6414021a5901fa72f010dadab07c9b2aeaba203ece15cc535d19e5554460001b612d9b565b6143237f48f15685ba367909c224a34a48ccc6b5a088cf269a90f0dcb8922f264f93f6e760001b612d9b565b61434f7f124e12affe417f1cfd6f878bc8c6cae9f42b4c5c547449a124944fd2bd50bd8660001b612d9b565b61436e8473ffffffffffffffffffffffffffffffffffffffff166145fc565b6143ff5761439e7f73303e6e8a703137ca6c00b706e1155c38612d47384613c74f4a15613c048dbd60001b612d9b565b6143ca7f0fb302d94fc171a6ad3d4d3257f1e06d25abe13ac1b09688293222b76673262f60001b612d9b565b6143f67fef6641292a62931a0bc6f8123999ebf496fbd28ef9ec321e802ab594053a605e60001b612d9b565b600090506145c1565b61442b7f20e17ce5e9e7dcd3e31f7d30991e0f28ef7e3a8372ca8d5f0750d20cda26e6cc60001b612d9b565b6144577f28f5e40af8797db8656fb7e4e7e3ff9aead96bb3d33b1da23f68504766ce81cf60001b612d9b565b6144837fd01d2bad3d74e5384ef75f6bf80afc7adc8807fb96d2cf30f14ff4cc105f7f7c60001b612d9b565b60008473ffffffffffffffffffffffffffffffffffffffff16637b04a2d06144a9612e0e565b86866040518463ffffffff1660e01b81526004016144c993929190614dec565b602060405180830381600087803b1580156144e357600080fd5b505af11580156144f7573d6000803e3d6000fd5b505050506040513d601f19601f8201168201806040525081019061451b9190614a2c565b90506145497f3e9791987ed61b507cdc56849324651c5cdc4189f63746805a774c364c71d96c60001b612d9b565b6145757fc8a694713efda248dea4cb1cb1f75dc592276dc72164db5452b587b709b29aad60001b612d9b565b637b04a2d060e01b7bffffffffffffffffffffffffffffffffffffffffffffffffffffffff1916817bffffffffffffffffffffffffffffffffffffffffffffffffffffffff1916149150505b9392505050565b50565b6145f77fdf1dfb0e3ec8664c0b9154c19ea4e17ab3772d3c93d8913baf6671d66a2dae1c60001b612e0b565b505050565b600080823b905060008111915050919050565b50565b61463e7f8ddb2bbb847c00cc8450238840274e92717ad85b3ee75ac811b2e028415e2e7960001b612e08565b61466a7f21db1c51422b4deea7d77d6a0e40608ff1c43fea49433a0f64534c4e2667eaff60001b612e08565b6146967fe0c403aad5f980de914bde3746a1e43a81002242448b1ef7e60600e4619dd8af60001b612e08565b6001600660016101000a81548160ff0219169083151502179055506146dd7faab1c775a750ada10cd7ba3d96f72fbaf3083c90664186c9a4463ac19369798260001b612e08565b6147097f3b8e9b8239c1166b154be5c4cef331e5418468481c682bd23c2c3f802d7f17ab60001b612e08565b7fae5184fba832cb2b1f702aca6117b8d265eaf03ad33eb133f19dde0f5920fa0860405160405180910390a1565b600061474a614745846150c2565b61509d565b90508281526020810184848401111561476257600080fd5b61476d848285615236565b509392505050565b6000813590506147848161581d565b92915050565b60008151905061479981615834565b92915050565b6000813590506147ae8161584b565b92915050565b6000815190506147c38161584b565b92915050565b600082601f8301126147da57600080fd5b81356147ea848260208601614737565b91505092915050565b60008135905061480281615862565b92915050565b60006020828403121561481a57600080fd5b600061482884828501614775565b91505092915050565b6000806040838503121561484457600080fd5b600061485285828601614775565b925050602061486385828601614775565b9150509250929050565b60008060006060848603121561488257600080fd5b600061489086828701614775565b93505060206148a186828701614775565b92505060406148b2868287016147f3565b9150509250925092565b600080600080608085870312156148d257600080fd5b60006148e087828801614775565b94505060206148f187828801614775565b9350506040614902878288016147f3565b925050606085013567ffffffffffffffff81111561491f57600080fd5b61492b878288016147c9565b91505092959194509250565b6000806040838503121561494a57600080fd5b600061495885828601614775565b9250506020614969858286016147f3565b9150509250929050565b60008060006060848603121561498857600080fd5b600061499686828701614775565b93505060206149a7868287016147f3565b925050604084013567ffffffffffffffff8111156149c457600080fd5b6149d0868287016147c9565b9150509250925092565b6000602082840312156149ec57600080fd5b60006149fa8482850161478a565b91505092915050565b600060208284031215614a1557600080fd5b6000614a238482850161479f565b91505092915050565b600060208284031215614a3e57600080fd5b6000614a4c848285016147b4565b91505092915050565b600060208284031215614a6757600080fd5b6000614a75848285016147f3565b91505092915050565b614a87816151b5565b82525050565b614a96816151c7565b82525050565b6000614aa7826150f3565b614ab18185615109565b9350614ac1818560208601615245565b614aca81615368565b840191505092915050565b6000614ae0826150fe565b614aea818561511a565b9350614afa818560208601615245565b614b0381615368565b840191505092915050565b6000614b1b60258361511a565b9150614b2682615379565b604082019050919050565b6000614b3e602b8361511a565b9150614b49826153c8565b604082019050919050565b6000614b6160248361511a565b9150614b6c82615417565b604082019050919050565b6000614b8460268361511a565b9150614b8f82615466565b604082019050919050565b6000614ba760228361511a565b9150614bb2826154b5565b604082019050919050565b6000614bca602c8361511a565b9150614bd582615504565b604082019050919050565b6000614bed60288361511a565b9150614bf882615553565b604082019050919050565b6000614c10601f8361511a565b9150614c1b826155a2565b602082019050919050565b6000614c3360208361511a565b9150614c3e826155cb565b602082019050919050565b6000614c5660268361511a565b9150614c61826155f4565b604082019050919050565b6000614c7960238361511a565b9150614c8482615643565b604082019050919050565b6000614c9c60258361511a565b9150614ca782615692565b604082019050919050565b6000614cbf60218361511a565b9150614cca826156e1565b604082019050919050565b6000614ce260228361511a565b9150614ced82615730565b604082019050919050565b6000614d0560248361511a565b9150614d108261577f565b604082019050919050565b6000614d2860228361511a565b9150614d33826157ce565b604082019050919050565b614d478161521f565b82525050565b614d5681615229565b82525050565b6000602082019050614d716000830184614a7e565b92915050565b6000608082019050614d8c6000830187614a7e565b614d996020830186614a7e565b614da66040830185614d3e565b8181036060830152614db88184614a9c565b905095945050505050565b6000604082019050614dd86000830185614a7e565b614de56020830184614d3e565b9392505050565b6000606082019050614e016000830186614a7e565b614e0e6020830185614d3e565b8181036040830152614e208184614a9c565b9050949350505050565b6000602082019050614e3f6000830184614a8d565b92915050565b60006020820190508181036000830152614e5f8184614ad5565b905092915050565b60006020820190508181036000830152614e8081614b0e565b9050919050565b60006020820190508181036000830152614ea081614b31565b9050919050565b60006020820190508181036000830152614ec081614b54565b9050919050565b60006020820190508181036000830152614ee081614b77565b9050919050565b60006020820190508181036000830152614f0081614b9a565b9050919050565b60006020820190508181036000830152614f2081614bbd565b9050919050565b60006020820190508181036000830152614f4081614be0565b9050919050565b60006020820190508181036000830152614f6081614c03565b9050919050565b60006020820190508181036000830152614f8081614c26565b9050919050565b60006020820190508181036000830152614fa081614c49565b9050919050565b60006020820190508181036000830152614fc081614c6c565b9050919050565b60006020820190508181036000830152614fe081614c8f565b9050919050565b6000602082019050818103600083015261500081614cb2565b9050919050565b6000602082019050818103600083015261502081614cd5565b9050919050565b6000602082019050818103600083015261504081614cf8565b9050919050565b6000602082019050818103600083015261506081614d1b565b9050919050565b600060208201905061507c6000830184614d3e565b92915050565b60006020820190506150976000830184614d4d565b92915050565b60006150a76150b8565b90506150b382826152aa565b919050565b6000604051905090565b600067ffffffffffffffff8211156150dd576150dc615339565b5b6150e682615368565b9050602081019050919050565b600081519050919050565b600081519050919050565b600082825260208201905092915050565b600082825260208201905092915050565b60006151368261521f565b91506151418361521f565b9250827fffffffffffffffffffffffffffffffffffffffffffffffffffffffffffffffff03821115615176576151756152db565b5b828201905092915050565b600061518c8261521f565b91506151978361521f565b9250828210156151aa576151a96152db565b5b828203905092915050565b60006151c0826151ff565b9050919050565b60008115159050919050565b60007fffffffff0000000000000000000000000000000000000000000000000000000082169050919050565b600073ffffffffffffffffffffffffffffffffffffffff82169050919050565b6000819050919050565b600060ff82169050919050565b82818337600083830152505050565b60005b83811015615263578082015181840152602081019050615248565b83811115615272576000848401525b50505050565b6000600282049050600182168061529057607f821691505b602082108114156152a4576152a361530a565b5b50919050565b6152b382615368565b810181811067ffffffffffffffff821117156152d2576152d1615339565b5b80604052505050565b7f4e487b7100000000000000000000000000000000000000000000000000000000600052601160045260246000fd5b7f4e487b7100000000000000000000000000000000000000000000000000000000600052602260045260246000fd5b7f4e487b7100000000000000000000000000000000000000000000000000000000600052604160045260246000fd5b6000601f19601f8301169050919050565b7f42455032303a207472616e736665722066726f6d20746865207a65726f20616460008201527f6472657373000000000000000000000000000000000000000000000000000000602082015250565b7f42455032304f70657261626c653a205f636865636b416e6443616c6c4170707260008201527f6f76652072657665727473000000000000000000000000000000000000000000602082015250565b7f42455032303a20617070726f76652066726f6d20746865207a65726f2061646460008201527f7265737300000000000000000000000000000000000000000000000000000000602082015250565b7f4f776e61626c653a206e6577206f776e657220697320746865207a65726f206160008201527f6464726573730000000000000000000000000000000000000000000000000000602082015250565b7f42455032304d696e7461626c653a206d696e74696e672069732066696e69736860008201527f6564000000000000000000000000000000000000000000000000000000000000602082015250565b7f42455032304f70657261626c653a205f636865636b416e6443616c6c5472616e60008201527f7366657220726576657274730000000000000000000000000000000000000000602082015250565b7f42455032303a207472616e7366657220616d6f756e742065786365656473206160008201527f6c6c6f77616e6365000000000000000000000000000000000000000000000000602082015250565b7f42455032303a206d696e7420746f20746865207a65726f206164647265737300600082015250565b7f4f776e61626c653a2063616c6c6572206973206e6f7420746865206f776e6572600082015250565b7f42455032303a207472616e7366657220616d6f756e742065786365656473206260008201527f616c616e63650000000000000000000000000000000000000000000000000000602082015250565b7f42455032303a207472616e7366657220746f20746865207a65726f206164647260008201527f6573730000000000000000000000000000000000000000000000000000000000602082015250565b7f42455032303a2064656372656173656420616c6c6f77616e63652062656c6f7760008201527f207a65726f000000000000000000000000000000000000000000000000000000602082015250565b7f42455032303a206275726e2066726f6d20746865207a65726f2061646472657360008201527f7300000000000000000000000000000000000000000000000000000000000000602082015250565b7f42455032303a206275726e20616d6f756e7420657863656564732062616c616e60008201527f6365000000000000000000000000000000000000000000000000000000000000602082015250565b7f42455032303a206275726e20616d6f756e74206578636565647320616c6c6f7760008201527f616e636500000000000000000000000000000000000000000000000000000000602082015250565b7f42455032303a20617070726f766520746f20746865207a65726f20616464726560008201527f7373000000000000000000000000000000000000000000000000000000000000602082015250565b615826816151b5565b811461583157600080fd5b50565b61583d816151c7565b811461584857600080fd5b50565b615854816151d3565b811461585f57600080fd5b50565b61586b8161521f565b811461587657600080fd5b5056fea26469706673582212204a59f3d340d5880b871618a0a77d54d75c3aee6e674b6035855c8d9c361832f864736f6c63430008030033",
  "linkReferences": {},
  "deployedLinkReferences": {}
}