{
  "_format": "hh-sol-artifact-1",
  "contractName": "MintableBEP20",
  "sourceName": "contracts/token/BEP20/MintableBEP20.sol",
  "abi": [
    {
      "inputs": [
        {
          "internalType": "string",
          "name": "name",
          "type": "string"
        },
        {
          "internalType": "string",
          "name": "symbol",
          "type": "string"
        },
        {
          "internalType": "uint8",
          "name": "decimals",
          "type": "uint8"
        },
        {
          "internalType": "uint256",
          "name": "cap",
          "type": "uint256"
        },
        {
          "internalType": "uint256",
          "name": "initialBalance",
          "type": "uint256"
        },
        {
          "internalType": "address payable",
          "name": "feeReceiver",
          "type": "address"
        }
      ],
      "stateMutability": "payable",
      "type": "constructor"
    },
    {
      "anonymous": false,
      "inputs": [
        {
          "indexed": true,
          "internalType": "address",
          "name": "owner",
          "type": "address"
        },
        {
          "indexed": true,
          "internalType": "address",
          "name": "spender",
          "type": "address"
        },
        {
          "indexed": false,
          "internalType": "uint256",
          "name": "value",
          "type": "uint256"
        }
      ],
      "name": "Approval",
      "type": "event"
    },
    {
      "anonymous": false,
      "inputs": [],
      "name": "MintFinished",
      "type": "event"
    },
    {
      "anonymous": false,
      "inputs": [
        {
          "indexed": true,
          "internalType": "address",
          "name": "previousOwner",
          "type": "address"
        },
        {
          "indexed": true,
          "internalType": "address",
          "name": "newOwner",
          "type": "address"
        }
      ],
      "name": "OwnershipTransferred",
      "type": "event"
    },
    {
      "anonymous": false,
      "inputs": [
        {
          "indexed": true,
          "internalType": "address",
          "name": "from",
          "type": "address"
        },
        {
          "indexed": true,
          "internalType": "address",
          "name": "to",
          "type": "address"
        },
        {
          "indexed": false,
          "internalType": "uint256",
          "name": "value",
          "type": "uint256"
        }
      ],
      "name": "Transfer",
      "type": "event"
    },
    {
      "inputs": [
        {
          "internalType": "address",
          "name": "owner",
          "type": "address"
        },
        {
          "internalType": "address",
          "name": "spender",
          "type": "address"
        }
      ],
      "name": "allowance",
      "outputs": [
        {
          "internalType": "uint256",
          "name": "",
          "type": "uint256"
        }
      ],
      "stateMutability": "view",
      "type": "function"
    },
    {
      "inputs": [
        {
          "internalType": "address",
          "name": "spender",
          "type": "address"
        },
        {
          "internalType": "uint256",
          "name": "amount",
          "type": "uint256"
        }
      ],
      "name": "approve",
      "outputs": [
        {
          "internalType": "bool",
          "name": "",
          "type": "bool"
        }
      ],
      "stateMutability": "nonpayable",
      "type": "function"
    },
    {
      "inputs": [
        {
          "internalType": "address",
          "name": "account",
          "type": "address"
        }
      ],
      "name": "balanceOf",
      "outputs": [
        {
          "internalType": "uint256",
          "name": "",
          "type": "uint256"
        }
      ],
      "stateMutability": "view",
      "type": "function"
    },
    {
      "inputs": [],
      "name": "cap",
      "outputs": [
        {
          "internalType": "uint256",
          "name": "",
          "type": "uint256"
        }
      ],
      "stateMutability": "view",
      "type": "function"
    },
    {
      "inputs": [],
      "name": "decimals",
      "outputs": [
        {
          "internalType": "uint8",
          "name": "",
          "type": "uint8"
        }
      ],
      "stateMutability": "view",
      "type": "function"
    },
    {
      "inputs": [
        {
          "internalType": "address",
          "name": "spender",
          "type": "address"
        },
        {
          "internalType": "uint256",
          "name": "subtractedValue",
          "type": "uint256"
        }
      ],
      "name": "decreaseAllowance",
      "outputs": [
        {
          "internalType": "bool",
          "name": "",
          "type": "bool"
        }
      ],
      "stateMutability": "nonpayable",
      "type": "function"
    },
    {
      "inputs": [],
      "name": "finishMinting",
      "outputs": [],
      "stateMutability": "nonpayable",
      "type": "function"
    },
    {
      "inputs": [],
      "name": "getOwner",
      "outputs": [
        {
          "internalType": "address",
          "name": "",
          "type": "address"
        }
      ],
      "stateMutability": "view",
      "type": "function"
    },
    {
      "inputs": [
        {
          "internalType": "address",
          "name": "spender",
          "type": "address"
        },
        {
          "internalType": "uint256",
          "name": "addedValue",
          "type": "uint256"
        }
      ],
      "name": "increaseAllowance",
      "outputs": [
        {
          "internalType": "bool",
          "name": "",
          "type": "bool"
        }
      ],
      "stateMutability": "nonpayable",
      "type": "function"
    },
    {
      "inputs": [
        {
          "internalType": "address",
          "name": "account",
          "type": "address"
        },
        {
          "internalType": "uint256",
          "name": "amount",
          "type": "uint256"
        }
      ],
      "name": "mint",
      "outputs": [],
      "stateMutability": "nonpayable",
      "type": "function"
    },
    {
      "inputs": [],
      "name": "mintingFinished",
      "outputs": [
        {
          "internalType": "bool",
          "name": "",
          "type": "bool"
        }
      ],
      "stateMutability": "view",
      "type": "function"
    },
    {
      "inputs": [],
      "name": "name",
      "outputs": [
        {
          "internalType": "string",
          "name": "",
          "type": "string"
        }
      ],
      "stateMutability": "view",
      "type": "function"
    },
    {
      "inputs": [],
      "name": "owner",
      "outputs": [
        {
          "internalType": "address",
          "name": "",
          "type": "address"
        }
      ],
      "stateMutability": "view",
      "type": "function"
    },
    {
      "inputs": [],
      "name": "renounceOwnership",
      "outputs": [],
      "stateMutability": "nonpayable",
      "type": "function"
    },
    {
      "inputs": [],
      "name": "symbol",
      "outputs": [
        {
          "internalType": "string",
          "name": "",
          "type": "string"
        }
      ],
      "stateMutability": "view",
      "type": "function"
    },
    {
      "inputs": [],
      "name": "totalSupply",
      "outputs": [
        {
          "internalType": "uint256",
          "name": "",
          "type": "uint256"
        }
      ],
      "stateMutability": "view",
      "type": "function"
    },
    {
      "inputs": [
        {
          "internalType": "address",
          "name": "recipient",
          "type": "address"
        },
        {
          "internalType": "uint256",
          "name": "amount",
          "type": "uint256"
        }
      ],
      "name": "transfer",
      "outputs": [
        {
          "internalType": "bool",
          "name": "",
          "type": "bool"
        }
      ],
      "stateMutability": "nonpayable",
      "type": "function"
    },
    {
      "inputs": [
        {
          "internalType": "address",
          "name": "sender",
          "type": "address"
        },
        {
          "internalType": "address",
          "name": "recipient",
          "type": "address"
        },
        {
          "internalType": "uint256",
          "name": "amount",
          "type": "uint256"
        }
      ],
      "name": "transferFrom",
      "outputs": [
        {
          "internalType": "bool",
          "name": "",
          "type": "bool"
        }
      ],
      "stateMutability": "nonpayable",
      "type": "function"
    },
    {
      "inputs": [
        {
          "internalType": "address",
          "name": "newOwner",
          "type": "address"
        }
      ],
      "name": "transferOwnership",
      "outputs": [],
      "stateMutability": "nonpayable",
      "type": "function"
    }
  ],
  "bytecode": "0x60806040526000600860006101000a81548160ff021916908315150217905550604051620050f0380380620050f083398181016040528101906200004491906200121f565b806040518060400160405280600d81526020017f4d696e7461626c65424550323000000000000000000000000000000000000000815250848888600062000090620006f460201b60201c565b9050806000806101000a81548173ffffffffffffffffffffffffffffffffffffffff021916908373ffffffffffffffffffffffffffffffffffffffff1602179055508073ffffffffffffffffffffffffffffffffffffffff16600073ffffffffffffffffffffffffffffffffffffffff167f8be0079c531659141344cd1fd0a4f28419497f9722a3daafe3b4186f6b6457e060405160405180910390a350620001627f988c686810207ed93ab03e92de42c56418b37c2f953dba9b8e376eb7019227cc60001b620006fc60201b60201c565b620001967f83bf5b641243954ba6e2587536bbdc5632174acbf79f9e2259dc8842a8de2e9160001b620006fc60201b60201c565b620001ca7f34a1179d446b62fb2b3144621868fcb0b3f774ec803e3731c1c3b137fc2d9a1760001b620006fc60201b60201c565b8160049080519060200190620001e2929190620010b8565b50620002177fa3c4015a7ec527b93366675b6103cc92f011f47ffe38b50636c1fec4ff70af8960001b620006fc60201b60201c565b6200024b7f10107d6c06b1e06b9403856460cada69e7306d2991103571a3dd26bf2fbee78c60001b620006fc60201b60201c565b806005908051906020019062000263929190620010b8565b50620002987fa14ef190c94a053d9cf0c57eb766be9784eb6385bc7980a6a36875dcee52db9e60001b620006fc60201b60201c565b620002cc7fdc19d005d429b0093c3b547d1a17bc935b455085669625bcce78b7b836ab852e60001b620006fc60201b60201c565b6012600660006101000a81548160ff021916908360ff16021790555050506200031e7fb8895eb6132e961e6aaa4e37685f2b1f1def20c30d7e8f9de5c3cfe6bb24930460001b620006ff60201b60201c565b620003527f640f0ff86472fc0de6b8494203af68b16a9e6d2634a9365d3300767a32dca83460001b620006ff60201b60201c565b620003867fbbf03bbe01e3b828306586157f94a572a4da5c83627a42a0e050e221cfacbfa860001b620006ff60201b60201c565b620003ba7f33f7e92239fbee0cc470a7cb8f8cba5e4fe63991106a16ba04e25cb729e5f6d860001b620006ff60201b60201c565b6000811162000400576040517f08c379a0000000000000000000000000000000000000000000000000000000008152600401620003f7906200145f565b60405180910390fd5b620004347feb47f036abd1dab2313e5af785a5f0715960ed25d9b14f2031567f7bb981dcf460001b620006ff60201b60201c565b620004687feefd6e7919fa75e4f5ee5d8b9b4b6c27113f03619cfc0e4d8630a7615c0b9b4460001b620006ff60201b60201c565b6200049c7f57dff2bd493a45d16db518aee2bf4d517a4645c5b05f775dedbd15d3239c543560001b620006ff60201b60201c565b8060078190555050620004d87f04b479a92492eccd6b8c8d2e9f2dd244002fe580e4a7e225c6da3bd47a3e6fa260001b6200070260201b60201c565b6200050c7f045b82a93d3a47ecba356839e714349d6b8e366ce921d86e727670685db1bd9560001b6200070260201b60201c565b620005407f5e20d3adb67b9201f934093bb4a46286b78b040934c2c5dffded5a5dadd9502660001b6200070260201b60201c565b8173ffffffffffffffffffffffffffffffffffffffff16632b66d72e34836040518363ffffffff1660e01b81526004016200057c9190620013d5565b6000604051808303818588803b1580156200059657600080fd5b505af1158015620005ab573d6000803e3d6000fd5b50505050505050620005e67f9f131c6e7ef46a02ddb1b0a3ab7392c0b9683587955acc6b57ce11efc167fb1660001b6200070560201b60201c565b6200061a7f1a33d999ded3a6f3f60b98c9e25cb6554479ccdc78914edb65c028998983320060001b6200070560201b60201c565b6200064e7fe0f3044b30a1c043e09236d3eeeb189d44b4e971673b184990bb96b175cabe4360001b6200070560201b60201c565b6200065f846200070860201b60201c565b620006937f3612f72106eaeef45637449e87df33ce387a2821725585219147949eebabcec460001b6200070560201b60201c565b620006c77f4fd7acacf482cc316efbec87fc896c9ce9002c97e3be7549043435f58213666860001b6200070560201b60201c565b620006e8620006db620006f460201b60201c565b83620007c260201b60201c565b505050505050620017f3565b600033905090565b50565b50565b50565b50565b6200073c7f91627bb9556277aa30c1b19062a1a02b113c6674c802ba44c615d14666f6fd9860001b620006fc60201b60201c565b620007707f7d80bd734fd99c4b6216fc8a91a28d0239e9ac7019c8e18d160fad43aad53aea60001b620006fc60201b60201c565b620007a47f5f8dabd086842b030d4a3703d1cf5548d1de895e2ebd6dac49d3de16808adf6c60001b620006fc60201b60201c565b80600660006101000a81548160ff021916908360ff16021790555050565b620007d2620006f460201b60201c565b73ffffffffffffffffffffffffffffffffffffffff16620007f86200090860201b60201c565b73ffffffffffffffffffffffffffffffffffffffff161462000851576040517f08c379a000000000000000000000000000000000000000000000000000000000815260040162000848906200141b565b60405180910390fd5b620008857f7e92d36d5267bd8fadd90788aaadf0866fb5b77a59e564f4b5a461783bec816d60001b6200070560201b60201c565b620008b97fc7bea525524582840c152c508b79dcdcc663ead73a7152a9621e7526130240cf60001b6200070560201b60201c565b620008ed7fb7491b966d49f1a0c46f295b20af756608cc6af9e16b37f654ef95f212ceafb960001b6200070560201b60201c565b6200090482826200093160201b62001b091760201c565b5050565b60008060009054906101000a900473ffffffffffffffffffffffffffffffffffffffff16905090565b620009657f0eddf27ff8494f18b5f9c4889798a80e1dabde5f8519f475a9917c1beff1b4c860001b620006ff60201b60201c565b620009997fddbfb4d8a816ca3f4277459715724d193f73dbd833b6a33a2ddde74867cfe99160001b620006ff60201b60201c565b620009cd7f91d1cf4aeb288ad40ecbf8bda9c19dbb6f88976f08827c38b87c9513f22b609e60001b620006ff60201b60201c565b62000a017f125090941db332c0855206f497fae00861441227e8fcf6b43d0f2b5106ae5d7c60001b620006ff60201b60201c565b62000a1162000b2960201b60201c565b8162000a2262000bcf60201b60201c565b62000a2e919062001519565b111562000a72576040517f08c379a000000000000000000000000000000000000000000000000000000000815260040162000a69906200143d565b60405180910390fd5b62000aa67fd6df69bd7040a6ae6bbdbe734c300a79b7affb24a10ec49d642ad1742cd32feb60001b620006ff60201b60201c565b62000ada7f147197717efdcde0c79d9608fb210876e0f06ba86dbd60929b6c46fffde01c5460001b620006ff60201b60201c565b62000b0e7f17a79d5b416cde855d6252023a3e90b531455eff57e10515fa45e282414a6f5a60001b620006ff60201b60201c565b62000b25828262000c7560201b62001ca71760201c565b5050565b600062000b5f7fc9de882d0d54394f3ff1c79a1d71a720cdced212b3111f4e8d0600c5c1d7433e60001b620006ff60201b60201c565b62000b937fbf39f12dccd0cdd0d861b7024bde7f63add96c49a0ea1aebf7e2dec31386533860001b620006ff60201b60201c565b62000bc77f572665983864acd1b7740e3e4e125c21be21874ed57eee6a275d0a4bc4f47e7960001b620006ff60201b60201c565b600754905090565b600062000c057f89577bc67186870780481f61fa8bb4e785985e2d0cdf8eb35732b5b1c99c35ff60001b620006fc60201b60201c565b62000c397fa9b47ecfe5da68eec3d84d07064f6e3671c004784e579c83950296a57de9d45760001b620006fc60201b60201c565b62000c6d7feb21b845994cafc22007702042e35e83fbf00ebd6bc119106653eea1c2c8b03160001b620006fc60201b60201c565b600354905090565b62000ca97f1c22ea87892a53b18e8c380e0541bfc55eb83d37b01945606c5b3a858c9a16ae60001b620006fc60201b60201c565b62000cdd7fec4b583e7a3abe290b53c6f583c0836a513d5932fdd3837a91933e0617c30c2e60001b620006fc60201b60201c565b62000d117fd6508c3686ebd2e39a62760e9b4b71151d08cf90be446edf5aad5cf49066abc760001b620006fc60201b60201c565b62000d457f4869c1f45f78c3ff5935ff0f6e9bc6377f400ed71694adb3e7b6e78162e97a9360001b620006fc60201b60201c565b600073ffffffffffffffffffffffffffffffffffffffff168273ffffffffffffffffffffffffffffffffffffffff16141562000db8576040517f08c379a000000000000000000000000000000000000000000000000000000000815260040162000daf90620013f9565b60405180910390fd5b62000dec7f85a78fa52fbda579e9874d6e94a6ed44c6f059c0edd51c9861cb2d7b93aff01f60001b620006fc60201b60201c565b62000e207f3db9f5b6011d3b15c25f808a551c0ec974ab120115ae112e18fe2e80cb596fcf60001b620006fc60201b60201c565b62000e547f9df3ccf91c06a4848c0fc41e85b4ec1c2e3ae3bafc3facb84e62bec0c611d93260001b620006fc60201b60201c565b62000e68600083836200107f60201b60201c565b62000e9c7f97471b0e7fbd3c8184a86b00d5ce32819633f8728af61fc43a68a79ac7599a2260001b620006fc60201b60201c565b62000ed07fda59c8a9ad27f6548cb398ab91dcf98721adcc59f7d1a1c4f0704d02c44e628c60001b620006fc60201b60201c565b806003600082825462000ee4919062001519565b9250508190555062000f1f7fd61a8de8eefdce39f57a1f0eb0257ce9a70c3440baba9721ae47e086b23026db60001b620006fc60201b60201c565b62000f537fb75e24f8b862d249d4aee7402c9fac020c64717b8b5c37f0077a0e3253ffe2ea60001b620006fc60201b60201c565b80600160008473ffffffffffffffffffffffffffffffffffffffff1673ffffffffffffffffffffffffffffffffffffffff168152602001908152602001600020600082825462000fa4919062001519565b9250508190555062000fdf7fd9eae19e483846b3084401bd7cbc3b6a4bee948ee40c023bda99d897349e1ca160001b620006fc60201b60201c565b620010137f64c28404cfcea01737e5ccb040880a1fe979beaf1b8852abc72c4bb836b26f1760001b620006fc60201b60201c565b8173ffffffffffffffffffffffffffffffffffffffff16600073ffffffffffffffffffffffffffffffffffffffff167fddf252ad1be2c89b69c2b068fc378daa952ba7f163c4a11628f55a4df523b3ef8360405162001073919062001481565b60405180910390a35050565b620010b37fdf1dfb0e3ec8664c0b9154c19ea4e17ab3772d3c93d8913baf6671d66a2dae1c60001b620006fc60201b60201c565b505050565b828054620010c690620015f7565b90600052602060002090601f016020900481019282620010ea576000855562001136565b82601f106200110557805160ff191683800117855562001136565b8280016001018555821562001136579182015b828111156200113557825182559160200191906001019062001118565b5b50905062001145919062001149565b5090565b5b80821115620011645760008160009055506001016200114a565b5090565b60006200117f6200117984620014c7565b6200149e565b9050828152602081018484840111156200119857600080fd5b620011a5848285620015c1565b509392505050565b600081519050620011be81620017a5565b92915050565b600082601f830112620011d657600080fd5b8151620011e884826020860162001168565b91505092915050565b6000815190506200120281620017bf565b92915050565b6000815190506200121981620017d9565b92915050565b60008060008060008060c087890312156200123957600080fd5b600087015167ffffffffffffffff8111156200125457600080fd5b6200126289828a01620011c4565b965050602087015167ffffffffffffffff8111156200128057600080fd5b6200128e89828a01620011c4565b9550506040620012a189828a0162001208565b9450506060620012b489828a01620011f1565b9350506080620012c789828a01620011f1565b92505060a0620012da89828a01620011ad565b9150509295509295509295565b6000620012f482620014fd565b62001300818562001508565b935062001312818560208601620015c1565b6200131d81620016f0565b840191505092915050565b600062001337601f8362001508565b9150620013448262001701565b602082019050919050565b60006200135e60208362001508565b91506200136b826200172a565b602082019050919050565b60006200138560198362001508565b9150620013928262001753565b602082019050919050565b6000620013ac60158362001508565b9150620013b9826200177c565b602082019050919050565b620013cf81620015aa565b82525050565b60006020820190508181036000830152620013f18184620012e7565b905092915050565b60006020820190508181036000830152620014148162001328565b9050919050565b6000602082019050818103600083015262001436816200134f565b9050919050565b60006020820190508181036000830152620014588162001376565b9050919050565b600060208201905081810360008301526200147a816200139d565b9050919050565b6000602082019050620014986000830184620013c4565b92915050565b6000620014aa620014bd565b9050620014b882826200162d565b919050565b6000604051905090565b600067ffffffffffffffff821115620014e557620014e4620016c1565b5b620014f082620016f0565b9050602081019050919050565b600081519050919050565b600082825260208201905092915050565b60006200152682620015aa565b91506200153383620015aa565b9250827fffffffffffffffffffffffffffffffffffffffffffffffffffffffffffffffff038211156200156b576200156a62001663565b5b828201905092915050565b600062001583826200158a565b9050919050565b600073ffffffffffffffffffffffffffffffffffffffff82169050919050565b6000819050919050565b600060ff82169050919050565b60005b83811015620015e1578082015181840152602081019050620015c4565b83811115620015f1576000848401525b50505050565b600060028204905060018216806200161057607f821691505b6020821081141562001627576200162662001692565b5b50919050565b6200163882620016f0565b810181811067ffffffffffffffff821117156200165a5762001659620016c1565b5b80604052505050565b7f4e487b7100000000000000000000000000000000000000000000000000000000600052601160045260246000fd5b7f4e487b7100000000000000000000000000000000000000000000000000000000600052602260045260246000fd5b7f4e487b7100000000000000000000000000000000000000000000000000000000600052604160045260246000fd5b6000601f19601f8301169050919050565b7f42455032303a206d696e7420746f20746865207a65726f206164647265737300600082015250565b7f4f776e61626c653a2063616c6c6572206973206e6f7420746865206f776e6572600082015250565b7f42455032304361707065643a2063617020657863656564656400000000000000600082015250565b7f42455032304361707065643a2063617020697320300000000000000000000000600082015250565b620017b08162001576565b8114620017bc57600080fd5b50565b620017ca81620015aa565b8114620017d657600080fd5b50565b620017e481620015b4565b8114620017f057600080fd5b50565b6138ed80620018036000396000f3fe608060405234801561001057600080fd5b50600436106101215760003560e01c806370a08231116100ad57806395d89b411161007157806395d89b41146102e8578063a457c2d714610306578063a9059cbb14610336578063dd62ed3e14610366578063f2fde38b1461039657610121565b806370a0823114610268578063715018a6146102985780637d64bcb4146102a2578063893d20e8146102ac5780638da5cb5b146102ca57610121565b806323b872dd116100f457806323b872dd146101b0578063313ce567146101e0578063355274ea146101fe578063395093511461021c57806340c10f191461024c57610121565b806305d2035b1461012657806306fdde0314610144578063095ea7b31461016257806318160ddd14610192575b600080fd5b61012e6103b2565b60405161013b9190613185565b60405180910390f35b61014c61044d565b60405161015991906131a0565b60405180910390f35b61017c60048036038101906101779190612f15565b610563565b6040516101899190613185565b60405180910390f35b61019a61065d565b6040516101a79190613342565b60405180910390f35b6101ca60048036038101906101c59190612ec6565b6106eb565b6040516101d79190613185565b60405180910390f35b6101e8610a28565b6040516101f5919061335d565b60405180910390f35b610206610ac3565b6040516102139190613342565b60405180910390f35b61023660048036038101906102319190612f15565b610b51565b6040516102439190613185565b60405180910390f35b61026660048036038101906102619190612f15565b610cd9565b005b610282600480360381019061027d9190612e61565b610ec3565b60405161028f9190613342565b60405180910390f35b6102a0610f90565b005b6102aa6110ca565b005b6102b46112b0565b6040516102c1919061316a565b60405180910390f35b6102d2611343565b6040516102df919061316a565b60405180910390f35b6102f061136c565b6040516102fd91906131a0565b60405180910390f35b610320600480360381019061031b9190612f15565b611482565b60405161032d9190613185565b60405180910390f35b610350600480360381019061034b9190612f15565b61175b565b60405161035d9190613185565b60405180910390f35b610380600480360381019061037b9190612e8a565b611855565b60405161038d9190613342565b60405180910390f35b6103b060048036038101906103ab9190612e61565b611960565b005b60006103e07fdcf0e308b3b014e7406929f24d86c44c71749e5ea97f9dc93f01556c5c09019960001b612038565b61040c7fb9e3e7992775ec23f06382f43dff25f2b00eb9a14cf137532fa8188353a1b6a460001b612038565b6104387f7d3f0f93126373dc68c3608869cd72ea1407cd650ad6b9e0c957636b3158de6a60001b612038565b600860009054906101000a900460ff16905090565b606061047b7f484185e46e02d5d25ea29139d2dfc8d7e796399ca8dad1959367786c71f87bbe60001b61203b565b6104a77f5a449bf80f8bdef4d076735614d2500f07f298dccd535d3354605149d1d6665160001b61203b565b6104d37f09570b59ac0d3bcacf825d25d68c953c906bde6a7c08d9d0f76f25175680e7a660001b61203b565b600480546104e0906134a6565b80601f016020809104026020016040519081016040528092919081815260200182805461050c906134a6565b80156105595780601f1061052e57610100808354040283529160200191610559565b820191906000526020600020905b81548152906001019060200180831161053c57829003601f168201915b5050505050905090565b60006105917f14c4e6f92a23b323255e1ea96f7d135c7ee738fa6a95cbbf140042159d72b9eb60001b61203b565b6105bd7f3275c7f11dfe3795ec1ccce9e984b9c35d9ad860716814f2b0eaf110e77f6ab460001b61203b565b6105e97f344da9908f6ecc26c54a5b1d4ea6ab0e51981b5a333f69cf1f163772491cc99760001b61203b565b6105fb6105f461203e565b8484612046565b6106277f7f8fa0566800d9147630c78d5dfb0f25580b06201f53b1ff9545eb2cd571f5c660001b61203b565b6106537fa828e269cd8ee4aaa3e392780d8fd839a0edc42b060d143eb1139372db3db49560001b61203b565b6001905092915050565b600061068b7f89577bc67186870780481f61fa8bb4e785985e2d0cdf8eb35732b5b1c99c35ff60001b61203b565b6106b77fa9b47ecfe5da68eec3d84d07064f6e3671c004784e579c83950296a57de9d45760001b61203b565b6106e37feb21b845994cafc22007702042e35e83fbf00ebd6bc119106653eea1c2c8b03160001b61203b565b600354905090565b60006107197f92d40a6fb9fd22476b8ffd32e8a4ed589798746c002eb2a0b484aac9b9c40e0660001b61203b565b6107457f671f0b70bfe0ae9055df43ccb227578502685d6e5324a86d5aac2bcd1a89772a60001b61203b565b6107717f1c00d24def30936d42b77f089c2a9a23245b1430e6daff79fa319a8111012e0560001b61203b565b61077c84848461244d565b6107a87ffdf45a6640dfe526757d49dc7a42b1cb88a8fc8bd582fcdd41ef339b08352ffc60001b61203b565b6107d47f9098274b85766f95860e6dcb1798199be5a1dc37bad8b3ec08831db9d6b8877d60001b61203b565b6000600260008673ffffffffffffffffffffffffffffffffffffffff1673ffffffffffffffffffffffffffffffffffffffff168152602001908152602001600020600061081f61203e565b73ffffffffffffffffffffffffffffffffffffffff1673ffffffffffffffffffffffffffffffffffffffff1681526020019081526020016000205490506108887fe96a90fc2858e023520a266e2332e5510f720d4cac7ac3990a630895f0a5123260001b61203b565b6108b47f44e0da3a779c46acc50df3361461828de9a009a65e70d18effe6647ba923bb6260001b61203b565b6108e07f3db9fd0d4dc1336f6449aba63bd7c0c0956f52fce988aeb30eff597ce60a9f1660001b61203b565b82811015610923576040517f08c379a000000000000000000000000000000000000000000000000000000000815260040161091a90613242565b60405180910390fd5b61094f7f5ba9d5bcd10ee9f8802ae892ffc6240e1572f8c73580f4ae95dcbb81e3e5faf160001b61203b565b61097b7f68f51e9d958533c872002fafa61d2642c7367e3404565e7800c45514d2e1201560001b61203b565b6109a77f786b817ccc14f8ee067dd191d44ba053052350fc86720e797f73446d0ae0afc560001b61203b565b6109c4856109b361203e565b85846109bf91906133ea565b612046565b6109f07fcdcdffe503aa7ff0d4173e014095bb90eafa334dc3912e541ae6811e0938a35b60001b61203b565b610a1c7f03a29102b1201e9811b3bad0e86d894005323f483995d0f43660cabe100e481a60001b61203b565b60019150509392505050565b6000610a567fc8539dbf87b6957305d50f108ff23495af51b570a1af5914406af8bd45f51b7660001b61203b565b610a827f0d41bd2dddc3fb7065c78fb10d1cc535c31bf5313c1bae1a71676ebf87985f3260001b61203b565b610aae7fd4400c10511f7e198c4d8aa94ab1cb130a9b2a49068bced0f0338fdc2a989d2260001b61203b565b600660009054906101000a900460ff16905090565b6000610af17fc9de882d0d54394f3ff1c79a1d71a720cdced212b3111f4e8d0600c5c1d7433e60001b612ac3565b610b1d7fbf39f12dccd0cdd0d861b7024bde7f63add96c49a0ea1aebf7e2dec31386533860001b612ac3565b610b497f572665983864acd1b7740e3e4e125c21be21874ed57eee6a275d0a4bc4f47e7960001b612ac3565b600754905090565b6000610b7f7f75408c831e2b35e48366b41bde6d530e5c987d55590d7a7a63f3be00dab21d5960001b61203b565b610bab7f54434211770713e0a398f4e2a01fb3815fa8cdf49ee037ce76af679875e42c3a60001b61203b565b610bd77fa6e0f44c3da7a7d0ec9445af42cf4ba3904588fa22c85177b690fdb03501cd4e60001b61203b565b610c77610be261203e565b848460026000610bf061203e565b73ffffffffffffffffffffffffffffffffffffffff1673ffffffffffffffffffffffffffffffffffffffff16815260200190815260200160002060008873ffffffffffffffffffffffffffffffffffffffff1673ffffffffffffffffffffffffffffffffffffffff16815260200190815260200160002054610c729190613394565b612046565b610ca37fd6dbf3c18aa633932368190d5f48580ca88a91e777f8241d1fd9e4c950509a4760001b61203b565b610ccf7f7be88749fa7968ae878a06d5d62ac0cd29ba3a9ae6d941d830bb6ccd51c86d2e60001b61203b565b6001905092915050565b610d057ffe96ac9e5dc6ec5e93f74f49f243d6b8bd76790bafb893c58ab67a67ff16024c60001b612038565b610d317f0921ae40b937bf0d6fa248c9afaf53d7b0744ac6d8c21a77e5c1d2a4dfd5b78460001b612038565b610d5d7f5a1fcc616bff1a793dcab10bea7872e4994e5c29bb8be91321a4391900317b3a60001b612038565b610d897ff06000dd08dc89c9b09602502e20db53d35fb19fcc75b855cd75bcb4c936ab6060001b612038565b600860009054906101000a900460ff1615610dd9576040517f08c379a0000000000000000000000000000000000000000000000000000000008152600401610dd090613222565b60405180910390fd5b610e057fddf7ff8855429fd6e56493565c7656051f36dfca7be20756c7ff9edf6685296a60001b612038565b610e317fdf0e466752b48119c1cfa9d715a0df0451ecc5589578d0304c444e32ed18f9e960001b612038565b610e5d7f8a9e1cb8c86b338264f386e97577dcdf2c2a136762ad5edd9f42d772f90fc16060001b612038565b610e897f665e058a8c870348af7227f6ea770e8a97cceda4cab52a649e585dc554f841e660001b612038565b610eb57ff5a5fff8fa85cc716ae9e8508403994bdb2011a7db1ac3f77346f0c1f39c478f60001b612038565b610ebf8282612ac6565b5050565b6000610ef17f79a1e8a8a1165beab1a98e2b4833f7e2291c0b3eddf3963cac7b80baf6fee7de60001b61203b565b610f1d7fbfe926b7977b2c273da1ed029f65091db4f20c77c504b46a9816357a7107037f60001b61203b565b610f497fcacdfbd527609ccbae7437ff7a4ba5a99813224a72080d1f2b7b401581331ad260001b61203b565b600160008373ffffffffffffffffffffffffffffffffffffffff1673ffffffffffffffffffffffffffffffffffffffff168152602001908152602001600020549050919050565b610f9861203e565b73ffffffffffffffffffffffffffffffffffffffff16610fb6611343565b73ffffffffffffffffffffffffffffffffffffffff161461100c576040517f08c379a000000000000000000000000000000000000000000000000000000000815260040161100390613282565b60405180910390fd5b600073ffffffffffffffffffffffffffffffffffffffff1660008054906101000a900473ffffffffffffffffffffffffffffffffffffffff1673ffffffffffffffffffffffffffffffffffffffff167f8be0079c531659141344cd1fd0a4f28419497f9722a3daafe3b4186f6b6457e060405160405180910390a360008060006101000a81548173ffffffffffffffffffffffffffffffffffffffff021916908373ffffffffffffffffffffffffffffffffffffffff160217905550565b6110f67ffe96ac9e5dc6ec5e93f74f49f243d6b8bd76790bafb893c58ab67a67ff16024c60001b612038565b6111227f0921ae40b937bf0d6fa248c9afaf53d7b0744ac6d8c21a77e5c1d2a4dfd5b78460001b612038565b61114e7f5a1fcc616bff1a793dcab10bea7872e4994e5c29bb8be91321a4391900317b3a60001b612038565b61117a7ff06000dd08dc89c9b09602502e20db53d35fb19fcc75b855cd75bcb4c936ab6060001b612038565b600860009054906101000a900460ff16156111ca576040517f08c379a00000000000000000000000000000000000000000000000000000000081526004016111c190613222565b60405180910390fd5b6111f67fddf7ff8855429fd6e56493565c7656051f36dfca7be20756c7ff9edf6685296a60001b612038565b6112227fdf0e466752b48119c1cfa9d715a0df0451ecc5589578d0304c444e32ed18f9e960001b612038565b61124e7fa20b234d4ffcda52ea0049a08e70402886120855b2a6cca86573c222bf1f7dfb60001b612038565b61127a7f9c92447cf716624b975cddaf295f85aa0ca1e7fb31779927c5331688b0fd5b8260001b612038565b6112a67f236266dd863622b204297dac282f866d49d74104821bcef8c4d095d20331096460001b612038565b6112ae612bd4565b565b60006112de7ffdafd5baa8d11a6a76674f55e8f4c5585dd88dba785518726a93f19fdefa561660001b61203b565b61130a7fbdcec761d97bf410535c39579f7de93f0f85185c03ddef81ac14207125e8f82b60001b61203b565b6113367fcf7f350d80ffe1d7c92ba4198058b66c5a1017f4eff08a75a4df237617f0bc5560001b61203b565b61133e611343565b905090565b60008060009054906101000a900473ffffffffffffffffffffffffffffffffffffffff16905090565b606061139a7f837da9945b1e37e9a489e53347c25ec02c003faa861d9eedeccf89c0fe7cd8c460001b61203b565b6113c67f660713aecadba305585b19aa2b43cb56859cacbf019aa7362810301017bab8ce60001b61203b565b6113f27f185dd7eb5dab1dd0c01af159e88f2643916bec358b808d99d4ecbd78b420a31e60001b61203b565b600580546113ff906134a6565b80601f016020809104026020016040519081016040528092919081815260200182805461142b906134a6565b80156114785780601f1061144d57610100808354040283529160200191611478565b820191906000526020600020905b81548152906001019060200180831161145b57829003601f168201915b5050505050905090565b60006114b07f3a9aa5fba9807d053d4432a82f92ddb80d9032675fc5402c367c7b2bc014e00260001b61203b565b6114dc7f298d4508d57f9823dc3b339659acd35ddc8aa533ed20d184b1b0fc1237ba954c60001b61203b565b6115087f04c32e1b2acf7c637b2a6107a5b37a4d06c05916611975d0ad438968ecb9612560001b61203b565b60006002600061151661203e565b73ffffffffffffffffffffffffffffffffffffffff1673ffffffffffffffffffffffffffffffffffffffff16815260200190815260200160002060008573ffffffffffffffffffffffffffffffffffffffff1673ffffffffffffffffffffffffffffffffffffffff1681526020019081526020016000205490506115bc7f5c4c5b17c9dfeeb6c1278a7ba155c6d66364877bc5260e75bd500da88060124660001b61203b565b6115e87f5f92d97918548249ffb9e70b72faa95a8bf9c181121f9e978a2ca2197785059f60001b61203b565b6116147f3f9cac0174c349ac883b503798f4f7402e5f75641b23754d27f992c5238e426160001b61203b565b82811015611657576040517f08c379a000000000000000000000000000000000000000000000000000000000815260040161164e906132e2565b60405180910390fd5b6116837f5bf86eb6f3404f96fdf6cb5cc829db8f43161420bb7114dbccdf0f79669b2f2060001b61203b565b6116af7f32766e1fdf4607ae970c162e9f959ce9c63c77d7f4c809a4f6fcb5d489bb02a960001b61203b565b6116db7fdbce515b635d34f96588fd5883df6e5f0b7dd571b95f813cbb8d4bd029be657460001b61203b565b6116f86116e661203e565b8585846116f391906133ea565b612046565b6117247f201fd7adb5036c1b9ae28c7aa50c38c55c74f55175aa1fa38ba8d37cc91da9e860001b61203b565b6117507fd8175fbfb2bebc8fe8a63ba1dde5517cae72580ac0beeceb80bb132d8c71b21a60001b61203b565b600191505092915050565b60006117897fb82335c066cc496c668a708cf677cde5bbdb0bcc766a8b6132d432e1bf892a9f60001b61203b565b6117b57f12f3a206d23a69f12001b9650c4ffb2a18e7c8af9c94be582b7ef3d1db9ea09c60001b61203b565b6117e17f57fb051521146211d6e7c7e7222273c443fc0c93a18eeb9edd90433fbe3f07cd60001b61203b565b6117f36117ec61203e565b848461244d565b61181f7ffedacbfaa184510510418b878e316be723490c1165a45cd4fa583057ef0fc0e360001b61203b565b61184b7f5e96f2ede87d6e8595875c8a93ec37c4265fd7fb81105a8fbca81591ca71b11f60001b61203b565b6001905092915050565b60006118837fb4f496f2c880799314b4c518bfd47b37bdd3f8ef6c3ccb3509951382b207bde460001b61203b565b6118af7ff91a03ea39e1e1c7a456cd72a978b5b9d770d3df63baaa87451d1bb699b5059f60001b61203b565b6118db7f4e361880ede374fc1a18457bac990c6554f6b09762cc6b6e66eb8a59ad0896cf60001b61203b565b600260008473ffffffffffffffffffffffffffffffffffffffff1673ffffffffffffffffffffffffffffffffffffffff16815260200190815260200160002060008373ffffffffffffffffffffffffffffffffffffffff1673ffffffffffffffffffffffffffffffffffffffff16815260200190815260200160002054905092915050565b61196861203e565b73ffffffffffffffffffffffffffffffffffffffff16611986611343565b73ffffffffffffffffffffffffffffffffffffffff16146119dc576040517f08c379a00000000000000000000000000000000000000000000000000000000081526004016119d390613282565b60405180910390fd5b600073ffffffffffffffffffffffffffffffffffffffff168173ffffffffffffffffffffffffffffffffffffffff161415611a4c576040517f08c379a0000000000000000000000000000000000000000000000000000000008152600401611a4390613202565b60405180910390fd5b8073ffffffffffffffffffffffffffffffffffffffff1660008054906101000a900473ffffffffffffffffffffffffffffffffffffffff1673ffffffffffffffffffffffffffffffffffffffff167f8be0079c531659141344cd1fd0a4f28419497f9722a3daafe3b4186f6b6457e060405160405180910390a3806000806101000a81548173ffffffffffffffffffffffffffffffffffffffff021916908373ffffffffffffffffffffffffffffffffffffffff16021790555050565b611b357f0eddf27ff8494f18b5f9c4889798a80e1dabde5f8519f475a9917c1beff1b4c860001b612ac3565b611b617fddbfb4d8a816ca3f4277459715724d193f73dbd833b6a33a2ddde74867cfe99160001b612ac3565b611b8d7f91d1cf4aeb288ad40ecbf8bda9c19dbb6f88976f08827c38b87c9513f22b609e60001b612ac3565b611bb97f125090941db332c0855206f497fae00861441227e8fcf6b43d0f2b5106ae5d7c60001b612ac3565b611bc1610ac3565b81611bca61065d565b611bd49190613394565b1115611c15576040517f08c379a0000000000000000000000000000000000000000000000000000000008152600401611c0c90613302565b60405180910390fd5b611c417fd6df69bd7040a6ae6bbdbe734c300a79b7affb24a10ec49d642ad1742cd32feb60001b612ac3565b611c6d7f147197717efdcde0c79d9608fb210876e0f06ba86dbd60929b6c46fffde01c5460001b612ac3565b611c997f17a79d5b416cde855d6252023a3e90b531455eff57e10515fa45e282414a6f5a60001b612ac3565b611ca38282611ca7565b5050565b611cd37f1c22ea87892a53b18e8c380e0541bfc55eb83d37b01945606c5b3a858c9a16ae60001b61203b565b611cff7fec4b583e7a3abe290b53c6f583c0836a513d5932fdd3837a91933e0617c30c2e60001b61203b565b611d2b7fd6508c3686ebd2e39a62760e9b4b71151d08cf90be446edf5aad5cf49066abc760001b61203b565b611d577f4869c1f45f78c3ff5935ff0f6e9bc6377f400ed71694adb3e7b6e78162e97a9360001b61203b565b600073ffffffffffffffffffffffffffffffffffffffff168273ffffffffffffffffffffffffffffffffffffffff161415611dc7576040517f08c379a0000000000000000000000000000000000000000000000000000000008152600401611dbe90613262565b60405180910390fd5b611df37f85a78fa52fbda579e9874d6e94a6ed44c6f059c0edd51c9861cb2d7b93aff01f60001b61203b565b611e1f7f3db9f5b6011d3b15c25f808a551c0ec974ab120115ae112e18fe2e80cb596fcf60001b61203b565b611e4b7f9df3ccf91c06a4848c0fc41e85b4ec1c2e3ae3bafc3facb84e62bec0c611d93260001b61203b565b611e5760008383612cde565b611e837f97471b0e7fbd3c8184a86b00d5ce32819633f8728af61fc43a68a79ac7599a2260001b61203b565b611eaf7fda59c8a9ad27f6548cb398ab91dcf98721adcc59f7d1a1c4f0704d02c44e628c60001b61203b565b8060036000828254611ec19190613394565b92505081905550611ef47fd61a8de8eefdce39f57a1f0eb0257ce9a70c3440baba9721ae47e086b23026db60001b61203b565b611f207fb75e24f8b862d249d4aee7402c9fac020c64717b8b5c37f0077a0e3253ffe2ea60001b61203b565b80600160008473ffffffffffffffffffffffffffffffffffffffff1673ffffffffffffffffffffffffffffffffffffffff1681526020019081526020016000206000828254611f6f9190613394565b92505081905550611fa27fd9eae19e483846b3084401bd7cbc3b6a4bee948ee40c023bda99d897349e1ca160001b61203b565b611fce7f64c28404cfcea01737e5ccb040880a1fe979beaf1b8852abc72c4bb836b26f1760001b61203b565b8173ffffffffffffffffffffffffffffffffffffffff16600073ffffffffffffffffffffffffffffffffffffffff167fddf252ad1be2c89b69c2b068fc378daa952ba7f163c4a11628f55a4df523b3ef8360405161202c9190613342565b60405180910390a35050565b50565b50565b600033905090565b6120727fca2ea0f5ccb6a03897e0ddcf9e6817d81f5bac8fbdc74ce2d8c88c4f706363a660001b61203b565b61209e7f4d0887d9809595a4ab8d16253ae204cb8a20d60c5c997c53557c6069f178e90a60001b61203b565b6120ca7f2a8399319c1362d3e76014eb4f6882599a5019e449c271b811cb7b48030878c960001b61203b565b6120f67fd7ab2550228cfa94ceebeffe39065ac71e37aea20f7033a14878109817578cec60001b61203b565b600073ffffffffffffffffffffffffffffffffffffffff168373ffffffffffffffffffffffffffffffffffffffff161415612166576040517f08c379a000000000000000000000000000000000000000000000000000000000815260040161215d906131e2565b60405180910390fd5b6121927f7070a150143b0140fc32b418244e118fefb6c8996e067c62d54d4abb10d2941460001b61203b565b6121be7f410b9c9edeb1b35e55a7d669aba857126218c796734a94336cfa5dc1fee4526a60001b61203b565b6121ea7f964fe0a844bb2aa60f7548321a62627883b643198ccb443f66820ba3c62e86af60001b61203b565b6122167f273cfa3e4ebc0715eabbf158f685681b37a623e385601fd78d50097bf943602c60001b61203b565b600073ffffffffffffffffffffffffffffffffffffffff168273ffffffffffffffffffffffffffffffffffffffff161415612286576040517f08c379a000000000000000000000000000000000000000000000000000000000815260040161227d90613322565b60405180910390fd5b6122b27f06cd03469ea1664ed1357de5955b443c86eebdd0850c642bd794c2688be1077e60001b61203b565b6122de7fada9e0f9221e1f11a21256963d8e99f47ef74a7cddea3d690f2051acb4232bbd60001b61203b565b61230a7f9b24aecec6468be367979a5724faa84a36abf5bf866a1f47f2c3aaf93a694fd260001b61203b565b80600260008573ffffffffffffffffffffffffffffffffffffffff1673ffffffffffffffffffffffffffffffffffffffff16815260200190815260200160002060008473ffffffffffffffffffffffffffffffffffffffff1673ffffffffffffffffffffffffffffffffffffffff168152602001908152602001600020819055506123b77f4043f99b2c074f5fedf1250cc10ce7089b350a7c6b214ee900f248de34f7dda660001b61203b565b6123e37f81ff70cdade6cfc28cb7a442ae45668c3b683d866c46ecd6e2ce12b8cb01af7b60001b61203b565b8173ffffffffffffffffffffffffffffffffffffffff168373ffffffffffffffffffffffffffffffffffffffff167f8c5be1e5ebec7d5bd14f71427d1e84f3dd0314c0f7b2291e5b200ac8c7c3b925836040516124409190613342565b60405180910390a3505050565b6124797f84ddc6436b1ee76888579e73a4586bf4fb7475271a7a8fdc652f5a51c86e755560001b61203b565b6124a57f83602d37bf577810ce9922881c49fae9f38d7f1217cefd0687cfeea2d5ab785360001b61203b565b6124d17f7d710cec05260676d8dbbfc23eae148c8930f0363d305f773d4a08808998c36c60001b61203b565b6124fd7f5663da5be93eba937077e26e5a42aca125822f118e693fee2f86efba49a285e060001b61203b565b600073ffffffffffffffffffffffffffffffffffffffff168373ffffffffffffffffffffffffffffffffffffffff16141561256d576040517f08c379a0000000000000000000000000000000000000000000000000000000008152600401612564906131c2565b60405180910390fd5b6125997f8d784fe104521bb72133df99bf84802087fc1d7bb5ec438547da5e3070f1781c60001b61203b565b6125c57f6a08bcfabdc775cd10b7fa042f65df10bba85cf399c86d4f12946f01e53823fa60001b61203b565b6125f17febaf60f087b590dddbe443599b1b8afed46cec909bb7a9c80f87959f7519fca260001b61203b565b61261d7f62f6b451236ea30a871a4fd37c8907fc3cb06a756884e8bae4d4881ad9d0bfba60001b61203b565b600073ffffffffffffffffffffffffffffffffffffffff168273ffffffffffffffffffffffffffffffffffffffff16141561268d576040517f08c379a0000000000000000000000000000000000000000000000000000000008152600401612684906132c2565b60405180910390fd5b6126b97f7d1a6342d93b04b12bfde6083843caaa5b8d40a4070a11293111a3de9f07852460001b61203b565b6126e57f40235a2013651c6b831c5aaa546c07300b9cfd944b298a8caef92a57e41601ff60001b61203b565b6127117fbbc29bb0075b317058db70e44d3499f43bdbb214bc3cdf58a27ed0fe884ba7f260001b61203b565b61271c838383612cde565b6127487f810e62a37aff74010be1e9b60c1d2a2180fe96c8e094da6e4c37c6b9e72261ef60001b61203b565b6127747f4b1cb515dc8c9c3aa3e835bc73465174cb5a1904874508086b90807959bff28460001b61203b565b6000600160008573ffffffffffffffffffffffffffffffffffffffff1673ffffffffffffffffffffffffffffffffffffffff1681526020019081526020016000205490506127e47fa33dc2fa78299564e43ce5150fb5fcd26b8b27e91f74efd057d1d0ffdd56bd8260001b61203b565b6128107f22f11d5d3446cb8b63243dddea685b2a891b0e9ba934e38312d008d58a7d964f60001b61203b565b61283c7f9d460f4a57098f7b78aa9422d848243220a1b79d595ea2c5244aff5526a449db60001b61203b565b8181101561287f576040517f08c379a0000000000000000000000000000000000000000000000000000000008152600401612876906132a2565b60405180910390fd5b6128ab7fbe00ad36091d1162580b0006028849a5c823cc7559f33dd476ef5f478e8cd35b60001b61203b565b6128d77f5091301fa51c01fe4a3b62d3c7450060161873df470be73c21bf188f0ede394260001b61203b565b6129037fc92562b76bec0ef8474151a753f4b881bf2ab70e3055b5b62a632ff522a41ea660001b61203b565b818161290f91906133ea565b600160008673ffffffffffffffffffffffffffffffffffffffff1673ffffffffffffffffffffffffffffffffffffffff1681526020019081526020016000208190555061297e7f8ed823fdceac080cc7d944cd5257453220935ef2b9987f58f478cb2731a3967f60001b61203b565b6129aa7f3084027f97a0800c8d1533ba09b9b5667da2fea1274309d89de57f59b95e09b060001b61203b565b81600160008573ffffffffffffffffffffffffffffffffffffffff1673ffffffffffffffffffffffffffffffffffffffff16815260200190815260200160002060008282546129f99190613394565b92505081905550612a2c7f954130d903aabc26b9eaba0b17e956a2516d7aa7671f0a64d4e6f0ccdac6dbe260001b61203b565b612a587f6b9d7acbfd57823c365d563d4e0aa85963a9b0fcf123e0aa3f3c8b5433570d3060001b61203b565b8273ffffffffffffffffffffffffffffffffffffffff168473ffffffffffffffffffffffffffffffffffffffff167fddf252ad1be2c89b69c2b068fc378daa952ba7f163c4a11628f55a4df523b3ef84604051612ab59190613342565b60405180910390a350505050565b50565b612ace61203e565b73ffffffffffffffffffffffffffffffffffffffff16612aec611343565b73ffffffffffffffffffffffffffffffffffffffff1614612b42576040517f08c379a0000000000000000000000000000000000000000000000000000000008152600401612b3990613282565b60405180910390fd5b612b6e7f7e92d36d5267bd8fadd90788aaadf0866fb5b77a59e564f4b5a461783bec816d60001b612d0f565b612b9a7fc7bea525524582840c152c508b79dcdcc663ead73a7152a9621e7526130240cf60001b612d0f565b612bc67fb7491b966d49f1a0c46f295b20af756608cc6af9e16b37f654ef95f212ceafb960001b612d0f565b612bd08282611b09565b5050565b612bdc61203e565b73ffffffffffffffffffffffffffffffffffffffff16612bfa611343565b73ffffffffffffffffffffffffffffffffffffffff1614612c50576040517f08c379a0000000000000000000000000000000000000000000000000000000008152600401612c4790613282565b60405180910390fd5b612c7c7fee7056e9200687ca8070fdc4ed6cb325987ebf3b1a9dc0b988d1db07b136f86a60001b612d0f565b612ca87f60c7d7391d7ef6c15039ef8c227991d4b10e255ccd68f7ff55ab27be3df9053b60001b612d0f565b612cd47fe8155840fd931fb563c69a79663f2ed90052d847c095fd468d734d6d142b034d60001b612d0f565b612cdc612d12565b565b612d0a7fdf1dfb0e3ec8664c0b9154c19ea4e17ab3772d3c93d8913baf6671d66a2dae1c60001b61203b565b505050565b50565b612d3e7f8ddb2bbb847c00cc8450238840274e92717ad85b3ee75ac811b2e028415e2e7960001b612038565b612d6a7f21db1c51422b4deea7d77d6a0e40608ff1c43fea49433a0f64534c4e2667eaff60001b612038565b612d967fe0c403aad5f980de914bde3746a1e43a81002242448b1ef7e60600e4619dd8af60001b612038565b6001600860006101000a81548160ff021916908315150217905550612ddd7faab1c775a750ada10cd7ba3d96f72fbaf3083c90664186c9a4463ac19369798260001b612038565b612e097f3b8e9b8239c1166b154be5c4cef331e5418468481c682bd23c2c3f802d7f17ab60001b612038565b7fae5184fba832cb2b1f702aca6117b8d265eaf03ad33eb133f19dde0f5920fa0860405160405180910390a1565b600081359050612e4681613889565b92915050565b600081359050612e5b816138a0565b92915050565b600060208284031215612e7357600080fd5b6000612e8184828501612e37565b91505092915050565b60008060408385031215612e9d57600080fd5b6000612eab85828601612e37565b9250506020612ebc85828601612e37565b9150509250929050565b600080600060608486031215612edb57600080fd5b6000612ee986828701612e37565b9350506020612efa86828701612e37565b9250506040612f0b86828701612e4c565b9150509250925092565b60008060408385031215612f2857600080fd5b6000612f3685828601612e37565b9250506020612f4785828601612e4c565b9150509250929050565b612f5a8161341e565b82525050565b612f6981613430565b82525050565b6000612f7a82613378565b612f848185613383565b9350612f94818560208601613473565b612f9d81613536565b840191505092915050565b6000612fb5602583613383565b9150612fc082613547565b604082019050919050565b6000612fd8602483613383565b9150612fe382613596565b604082019050919050565b6000612ffb602683613383565b9150613006826135e5565b604082019050919050565b600061301e602283613383565b915061302982613634565b604082019050919050565b6000613041602883613383565b915061304c82613683565b604082019050919050565b6000613064601f83613383565b915061306f826136d2565b602082019050919050565b6000613087602083613383565b9150613092826136fb565b602082019050919050565b60006130aa602683613383565b91506130b582613724565b604082019050919050565b60006130cd602383613383565b91506130d882613773565b604082019050919050565b60006130f0602583613383565b91506130fb826137c2565b604082019050919050565b6000613113601983613383565b915061311e82613811565b602082019050919050565b6000613136602283613383565b91506131418261383a565b604082019050919050565b6131558161345c565b82525050565b61316481613466565b82525050565b600060208201905061317f6000830184612f51565b92915050565b600060208201905061319a6000830184612f60565b92915050565b600060208201905081810360008301526131ba8184612f6f565b905092915050565b600060208201905081810360008301526131db81612fa8565b9050919050565b600060208201905081810360008301526131fb81612fcb565b9050919050565b6000602082019050818103600083015261321b81612fee565b9050919050565b6000602082019050818103600083015261323b81613011565b9050919050565b6000602082019050818103600083015261325b81613034565b9050919050565b6000602082019050818103600083015261327b81613057565b9050919050565b6000602082019050818103600083015261329b8161307a565b9050919050565b600060208201905081810360008301526132bb8161309d565b9050919050565b600060208201905081810360008301526132db816130c0565b9050919050565b600060208201905081810360008301526132fb816130e3565b9050919050565b6000602082019050818103600083015261331b81613106565b9050919050565b6000602082019050818103600083015261333b81613129565b9050919050565b6000602082019050613357600083018461314c565b92915050565b6000602082019050613372600083018461315b565b92915050565b600081519050919050565b600082825260208201905092915050565b600061339f8261345c565b91506133aa8361345c565b9250827fffffffffffffffffffffffffffffffffffffffffffffffffffffffffffffffff038211156133df576133de6134d8565b5b828201905092915050565b60006133f58261345c565b91506134008361345c565b925082821015613413576134126134d8565b5b828203905092915050565b60006134298261343c565b9050919050565b60008115159050919050565b600073ffffffffffffffffffffffffffffffffffffffff82169050919050565b6000819050919050565b600060ff82169050919050565b60005b83811015613491578082015181840152602081019050613476565b838111156134a0576000848401525b50505050565b600060028204905060018216806134be57607f821691505b602082108114156134d2576134d1613507565b5b50919050565b7f4e487b7100000000000000000000000000000000000000000000000000000000600052601160045260246000fd5b7f4e487b7100000000000000000000000000000000000000000000000000000000600052602260045260246000fd5b6000601f19601f8301169050919050565b7f42455032303a207472616e736665722066726f6d20746865207a65726f20616460008201527f6472657373000000000000000000000000000000000000000000000000000000602082015250565b7f42455032303a20617070726f76652066726f6d20746865207a65726f2061646460008201527f7265737300000000000000000000000000000000000000000000000000000000602082015250565b7f4f776e61626c653a206e6577206f776e657220697320746865207a65726f206160008201527f6464726573730000000000000000000000000000000000000000000000000000602082015250565b7f42455032304d696e7461626c653a206d696e74696e672069732066696e69736860008201527f6564000000000000000000000000000000000000000000000000000000000000602082015250565b7f42455032303a207472616e7366657220616d6f756e742065786365656473206160008201527f6c6c6f77616e6365000000000000000000000000000000000000000000000000602082015250565b7f42455032303a206d696e7420746f20746865207a65726f206164647265737300600082015250565b7f4f776e61626c653a2063616c6c6572206973206e6f7420746865206f776e6572600082015250565b7f42455032303a207472616e7366657220616d6f756e742065786365656473206260008201527f616c616e63650000000000000000000000000000000000000000000000000000602082015250565b7f42455032303a207472616e7366657220746f20746865207a65726f206164647260008201527f6573730000000000000000000000000000000000000000000000000000000000602082015250565b7f42455032303a2064656372656173656420616c6c6f77616e63652062656c6f7760008201527f207a65726f000000000000000000000000000000000000000000000000000000602082015250565b7f42455032304361707065643a2063617020657863656564656400000000000000600082015250565b7f42455032303a20617070726f766520746f20746865207a65726f20616464726560008201527f7373000000000000000000000000000000000000000000000000000000000000602082015250565b6138928161341e565b811461389d57600080fd5b50565b6138a98161345c565b81146138b457600080fd5b5056fea26469706673582212202eaf04d21a340baf08487e4ba6f8ac019a64a50dfb3586babd05243763b0e83764736f6c63430008030033",
  "linkReferences": {},
  "deployedLinkReferences": {}
}