{
  "contractName": "AmazingBEP20",
  "abi": [
    {
      "inputs": [
        {
          "internalType": "string",
          "name": "name",
          "type": "string"
        },
        {
          "internalType": "string",
          "name": "symbol",
          "type": "string"
        },
        {
          "internalType": "uint8",
          "name": "decimals",
          "type": "uint8"
        },
        {
          "internalType": "uint256",
          "name": "initialBalance",
          "type": "uint256"
        },
        {
          "internalType": "address payable",
          "name": "feeReceiver",
          "type": "address"
        }
      ],
      "stateMutability": "payable",
      "type": "constructor"
    },
    {
      "anonymous": false,
      "inputs": [
        {
          "indexed": true,
          "internalType": "address",
          "name": "owner",
          "type": "address"
        },
        {
          "indexed": true,
          "internalType": "address",
          "name": "spender",
          "type": "address"
        },
        {
          "indexed": false,
          "internalType": "uint256",
          "name": "value",
          "type": "uint256"
        }
      ],
      "name": "Approval",
      "type": "event"
    },
    {
      "anonymous": false,
      "inputs": [],
      "name": "MintFinished",
      "type": "event"
    },
    {
      "anonymous": false,
      "inputs": [
        {
          "indexed": true,
          "internalType": "address",
          "name": "previousOwner",
          "type": "address"
        },
        {
          "indexed": true,
          "internalType": "address",
          "name": "newOwner",
          "type": "address"
        }
      ],
      "name": "OwnershipTransferred",
      "type": "event"
    },
    {
      "anonymous": false,
      "inputs": [
        {
          "indexed": true,
          "internalType": "address",
          "name": "from",
          "type": "address"
        },
        {
          "indexed": true,
          "internalType": "address",
          "name": "to",
          "type": "address"
        },
        {
          "indexed": false,
          "internalType": "uint256",
          "name": "value",
          "type": "uint256"
        }
      ],
      "name": "Transfer",
      "type": "event"
    },
    {
      "inputs": [
        {
          "internalType": "address",
          "name": "owner",
          "type": "address"
        },
        {
          "internalType": "address",
          "name": "spender",
          "type": "address"
        }
      ],
      "name": "allowance",
      "outputs": [
        {
          "internalType": "uint256",
          "name": "",
          "type": "uint256"
        }
      ],
      "stateMutability": "view",
      "type": "function"
    },
    {
      "inputs": [
        {
          "internalType": "address",
          "name": "spender",
          "type": "address"
        },
        {
          "internalType": "uint256",
          "name": "amount",
          "type": "uint256"
        }
      ],
      "name": "approve",
      "outputs": [
        {
          "internalType": "bool",
          "name": "",
          "type": "bool"
        }
      ],
      "stateMutability": "nonpayable",
      "type": "function"
    },
    {
      "inputs": [
        {
          "internalType": "address",
          "name": "spender",
          "type": "address"
        },
        {
          "internalType": "uint256",
          "name": "amount",
          "type": "uint256"
        }
      ],
      "name": "approveAndCall",
      "outputs": [
        {
          "internalType": "bool",
          "name": "",
          "type": "bool"
        }
      ],
      "stateMutability": "nonpayable",
      "type": "function"
    },
    {
      "inputs": [
        {
          "internalType": "address",
          "name": "spender",
          "type": "address"
        },
        {
          "internalType": "uint256",
          "name": "amount",
          "type": "uint256"
        },
        {
          "internalType": "bytes",
          "name": "data",
          "type": "bytes"
        }
      ],
      "name": "approveAndCall",
      "outputs": [
        {
          "internalType": "bool",
          "name": "",
          "type": "bool"
        }
      ],
      "stateMutability": "nonpayable",
      "type": "function"
    },
    {
      "inputs": [
        {
          "internalType": "address",
          "name": "account",
          "type": "address"
        }
      ],
      "name": "balanceOf",
      "outputs": [
        {
          "internalType": "uint256",
          "name": "",
          "type": "uint256"
        }
      ],
      "stateMutability": "view",
      "type": "function"
    },
    {
      "inputs": [
        {
          "internalType": "uint256",
          "name": "amount",
          "type": "uint256"
        }
      ],
      "name": "burn",
      "outputs": [],
      "stateMutability": "nonpayable",
      "type": "function"
    },
    {
      "inputs": [
        {
          "internalType": "address",
          "name": "account",
          "type": "address"
        },
        {
          "internalType": "uint256",
          "name": "amount",
          "type": "uint256"
        }
      ],
      "name": "burnFrom",
      "outputs": [],
      "stateMutability": "nonpayable",
      "type": "function"
    },
    {
      "inputs": [],
      "name": "decimals",
      "outputs": [
        {
          "internalType": "uint8",
          "name": "",
          "type": "uint8"
        }
      ],
      "stateMutability": "view",
      "type": "function"
    },
    {
      "inputs": [
        {
          "internalType": "address",
          "name": "spender",
          "type": "address"
        },
        {
          "internalType": "uint256",
          "name": "subtractedValue",
          "type": "uint256"
        }
      ],
      "name": "decreaseAllowance",
      "outputs": [
        {
          "internalType": "bool",
          "name": "",
          "type": "bool"
        }
      ],
      "stateMutability": "nonpayable",
      "type": "function"
    },
    {
      "inputs": [],
      "name": "finishMinting",
      "outputs": [],
      "stateMutability": "nonpayable",
      "type": "function"
    },
    {
      "inputs": [],
      "name": "getOwner",
      "outputs": [
        {
          "internalType": "address",
          "name": "",
          "type": "address"
        }
      ],
      "stateMutability": "view",
      "type": "function"
    },
    {
      "inputs": [
        {
          "internalType": "address",
          "name": "spender",
          "type": "address"
        },
        {
          "internalType": "uint256",
          "name": "addedValue",
          "type": "uint256"
        }
      ],
      "name": "increaseAllowance",
      "outputs": [
        {
          "internalType": "bool",
          "name": "",
          "type": "bool"
        }
      ],
      "stateMutability": "nonpayable",
      "type": "function"
    },
    {
      "inputs": [
        {
          "internalType": "address",
          "name": "account",
          "type": "address"
        },
        {
          "internalType": "uint256",
          "name": "amount",
          "type": "uint256"
        }
      ],
      "name": "mint",
      "outputs": [],
      "stateMutability": "nonpayable",
      "type": "function"
    },
    {
      "inputs": [],
      "name": "mintingFinished",
      "outputs": [
        {
          "internalType": "bool",
          "name": "",
          "type": "bool"
        }
      ],
      "stateMutability": "view",
      "type": "function"
    },
    {
      "inputs": [],
      "name": "name",
      "outputs": [
        {
          "internalType": "string",
          "name": "",
          "type": "string"
        }
      ],
      "stateMutability": "view",
      "type": "function"
    },
    {
      "inputs": [],
      "name": "owner",
      "outputs": [
        {
          "internalType": "address",
          "name": "",
          "type": "address"
        }
      ],
      "stateMutability": "view",
      "type": "function"
    },
    {
      "inputs": [
        {
          "internalType": "address",
          "name": "tokenAddress",
          "type": "address"
        },
        {
          "internalType": "uint256",
          "name": "tokenAmount",
          "type": "uint256"
        }
      ],
      "name": "recoverBEP20",
      "outputs": [],
      "stateMutability": "nonpayable",
      "type": "function"
    },
    {
      "inputs": [],
      "name": "renounceOwnership",
      "outputs": [],
      "stateMutability": "nonpayable",
      "type": "function"
    },
    {
      "inputs": [
        {
          "internalType": "bytes4",
          "name": "interfaceId",
          "type": "bytes4"
        }
      ],
      "name": "supportsInterface",
      "outputs": [
        {
          "internalType": "bool",
          "name": "",
          "type": "bool"
        }
      ],
      "stateMutability": "view",
      "type": "function"
    },
    {
      "inputs": [],
      "name": "symbol",
      "outputs": [
        {
          "internalType": "string",
          "name": "",
          "type": "string"
        }
      ],
      "stateMutability": "view",
      "type": "function"
    },
    {
      "inputs": [],
      "name": "totalSupply",
      "outputs": [
        {
          "internalType": "uint256",
          "name": "",
          "type": "uint256"
        }
      ],
      "stateMutability": "view",
      "type": "function"
    },
    {
      "inputs": [
        {
          "internalType": "address",
          "name": "recipient",
          "type": "address"
        },
        {
          "internalType": "uint256",
          "name": "amount",
          "type": "uint256"
        }
      ],
      "name": "transfer",
      "outputs": [
        {
          "internalType": "bool",
          "name": "",
          "type": "bool"
        }
      ],
      "stateMutability": "nonpayable",
      "type": "function"
    },
    {
      "inputs": [
        {
          "internalType": "address",
          "name": "recipient",
          "type": "address"
        },
        {
          "internalType": "uint256",
          "name": "amount",
          "type": "uint256"
        }
      ],
      "name": "transferAndCall",
      "outputs": [
        {
          "internalType": "bool",
          "name": "",
          "type": "bool"
        }
      ],
      "stateMutability": "nonpayable",
      "type": "function"
    },
    {
      "inputs": [
        {
          "internalType": "address",
          "name": "recipient",
          "type": "address"
        },
        {
          "internalType": "uint256",
          "name": "amount",
          "type": "uint256"
        },
        {
          "internalType": "bytes",
          "name": "data",
          "type": "bytes"
        }
      ],
      "name": "transferAndCall",
      "outputs": [
        {
          "internalType": "bool",
          "name": "",
          "type": "bool"
        }
      ],
      "stateMutability": "nonpayable",
      "type": "function"
    },
    {
      "inputs": [
        {
          "internalType": "address",
          "name": "sender",
          "type": "address"
        },
        {
          "internalType": "address",
          "name": "recipient",
          "type": "address"
        },
        {
          "internalType": "uint256",
          "name": "amount",
          "type": "uint256"
        }
      ],
      "name": "transferFrom",
      "outputs": [
        {
          "internalType": "bool",
          "name": "",
          "type": "bool"
        }
      ],
      "stateMutability": "nonpayable",
      "type": "function"
    },
    {
      "inputs": [
        {
          "internalType": "address",
          "name": "sender",
          "type": "address"
        },
        {
          "internalType": "address",
          "name": "recipient",
          "type": "address"
        },
        {
          "internalType": "uint256",
          "name": "amount",
          "type": "uint256"
        },
        {
          "internalType": "bytes",
          "name": "data",
          "type": "bytes"
        }
      ],
      "name": "transferFromAndCall",
      "outputs": [
        {
          "internalType": "bool",
          "name": "",
          "type": "bool"
        }
      ],
      "stateMutability": "nonpayable",
      "type": "function"
    },
    {
      "inputs": [
        {
          "internalType": "address",
          "name": "sender",
          "type": "address"
        },
        {
          "internalType": "address",
          "name": "recipient",
          "type": "address"
        },
        {
          "internalType": "uint256",
          "name": "amount",
          "type": "uint256"
        }
      ],
      "name": "transferFromAndCall",
      "outputs": [
        {
          "internalType": "bool",
          "name": "",
          "type": "bool"
        }
      ],
      "stateMutability": "nonpayable",
      "type": "function"
    },
    {
      "inputs": [
        {
          "internalType": "address",
          "name": "newOwner",
          "type": "address"
        }
      ],
      "name": "transferOwnership",
      "outputs": [],
      "stateMutability": "nonpayable",
      "type": "function"
    }
  ],
  "bytecode": "0x608060408190526006805461ff001916905562001ce53881900390819083398101604081905262000030916200040b565b604080518082018252600c81526b0416d617a696e6742455032360a41b6020820152600080546001600160a01b03191633908117825592518493899289928291907f8be0079c531659141344cd1fd0a4f28419497f9722a3daafe3b4186f6b6457e0908290a3508151620000ac906004906020850190620002d6565b508051620000c2906005906020840190620002d6565b50506006805460ff19166012179055506040516315b36b9760e11b81526001600160a01b03831690632b66d72e90349062000102908590600401620004b6565b6000604051808303818588803b1580156200011c57600080fd5b505af115801562000131573d6000803e3d6000fd5b5050505050505062000149836200016060201b60201c565b62000155338362000176565b505050505062000596565b6006805460ff191660ff92909216919091179055565b6000546001600160a01b03163314620001d65760405162461bcd60e51b815260206004820181905260248201527f4f776e61626c653a2063616c6c6572206973206e6f7420746865206f776e657260448201526064015b60405180910390fd5b620001ed8282620001f160201b62000b121760201c565b5050565b6001600160a01b038216620002495760405162461bcd60e51b815260206004820152601f60248201527f42455032303a206d696e7420746f20746865207a65726f2061646472657373006044820152606401620001cd565b80600360008282546200025d9190620004eb565b90915550506001600160a01b038216600090815260016020526040812080548392906200028c908490620004eb565b90915550506040518181526001600160a01b038316906000907fddf252ad1be2c89b69c2b068fc378daa952ba7f163c4a11628f55a4df523b3ef9060200160405180910390a35050565b828054620002e49062000543565b90600052602060002090601f01602090048101928262000308576000855562000353565b82601f106200032357805160ff191683800117855562000353565b8280016001018555821562000353579182015b828111156200035357825182559160200191906001019062000336565b506200036192915062000365565b5090565b5b8082111562000361576000815560010162000366565b600082601f8301126200038d578081fd5b81516001600160401b0380821115620003aa57620003aa62000580565b604051601f8301601f19908116603f01168101908282118183101715620003d557620003d562000580565b81604052838152866020858801011115620003ee578485fd5b6200040184602083016020890162000510565b9695505050505050565b600080600080600060a0868803121562000423578081fd5b85516001600160401b03808211156200043a578283fd5b6200044889838a016200037c565b965060208801519150808211156200045e578283fd5b506200046d888289016200037c565b945050604086015160ff8116811462000484578182fd5b6060870151608088015191945092506001600160a01b0381168114620004a8578182fd5b809150509295509295909350565b6000602082528251806020840152620004d781604085016020870162000510565b601f01601f19169190910160400192915050565b600082198211156200050b57634e487b7160e01b81526011600452602481fd5b500190565b60005b838110156200052d57818101518382015260200162000513565b838111156200053d576000848401525b50505050565b600181811c908216806200055857607f821691505b602082108114156200057a57634e487b7160e01b600052602260045260246000fd5b50919050565b634e487b7160e01b600052604160045260246000fd5b61173f80620005a66000396000f3fe608060405234801561001057600080fd5b50600436106101c45760003560e01c8063715018a6116100f9578063a9059cbb11610097578063d8fbe99411610071578063d8fbe994146103ae578063dd62ed3e146103c1578063efa08806146103fa578063f2fde38b1461040d576101c4565b8063a9059cbb14610375578063c1d34b8914610388578063cae9ca511461039b576101c4565b8063893d20e8116100d3578063893d20e8146103245780638da5cb5b1461034957806395d89b411461035a578063a457c2d714610362576101c4565b8063715018a61461030157806379cc6790146103095780637d64bcb41461031c576101c4565b8063313ce567116101665780634000aea0116101405780634000aea01461029d57806340c10f19146102b057806342966c68146102c557806370a08231146102d8576101c4565b8063313ce567146102625780633177029f14610277578063395093511461028a576101c4565b8063095ea7b3116101a2578063095ea7b3146102175780631296ee621461022a57806318160ddd1461023d57806323b872dd1461024f576101c4565b806301ffc9a7146101c957806305d2035b146101f157806306fdde0314610202575b600080fd5b6101dc6101d736600461147f565b610420565b60405190151581526020015b60405180910390f35b6101dc600654610100900460ff1690565b61020a610459565b6040516101e89190611587565b6101dc6102253660046113e1565b6104eb565b6101dc6102383660046113e1565b610501565b6003545b6040519081526020016101e8565b6101dc61025d366004611340565b610524565b60065460405160ff90911681526020016101e8565b6101dc6102853660046113e1565b6105da565b6101dc6102983660046113e1565b6105f6565b6101dc6102ab36600461140a565b61062d565b6102c36102be3660046113e1565b61066c565b005b6102c36102d33660046114b7565b6106a2565b6102416102e63660046112f4565b6001600160a01b031660009081526001602052604090205490565b6102c36106af565b6102c36103173660046113e1565b610723565b6102c36107ab565b6000546001600160a01b03165b6040516001600160a01b0390911681526020016101e8565b6000546001600160a01b0316610331565b61020a6107dd565b6101dc6103703660046113e1565b6107ec565b6101dc6103833660046113e1565b61087d565b6101dc61039636600461137b565b61088a565b6101dc6103a936600461140a565b6108c8565b6101dc6103bc366004611340565b610940565b6102416103cf36600461130e565b6001600160a01b03918216600090815260026020908152604080832093909416825291909152205490565b6102c36104083660046113e1565b61095d565b6102c361041b3660046112f4565b610a28565b60006001600160e01b0319821663b0202a1160e01b148061045157506301ffc9a760e01b6001600160e01b03198316145b90505b919050565b6060600480546104689061168c565b80601f01602080910402602001604051908101604052809291908181526020018280546104949061168c565b80156104e15780601f106104b6576101008083540402835291602001916104e1565b820191906000526020600020905b8154815290600101906020018083116104c457829003601f168201915b5050505050905090565b60006104f8338484610bf1565b50600192915050565b600061051d83836040518060200160405280600081525061062d565b9392505050565b6000610531848484610d16565b6001600160a01b0384166000908152600260209081526040808320338452909152902054828110156105bb5760405162461bcd60e51b815260206004820152602860248201527f42455032303a207472616e7366657220616d6f756e74206578636565647320616044820152676c6c6f77616e636560c01b60648201526084015b60405180910390fd5b6105cf85336105ca8685611675565b610bf1565b506001949350505050565b600061051d8383604051806020016040528060008152506108c8565b3360008181526002602090815260408083206001600160a01b038716845290915281205490916104f89185906105ca90869061165d565b6000610639848461087d565b5061064633858585610eee565b6106625760405162461bcd60e51b81526004016105b2906115dc565b5060019392505050565b600654610100900460ff16156106945760405162461bcd60e51b81526004016105b29061159a565b61069e8282610fac565b5050565b6106ac3382610fe0565b50565b6000546001600160a01b031633146106d95760405162461bcd60e51b81526004016105b290611628565b600080546040516001600160a01b03909116907f8be0079c531659141344cd1fd0a4f28419497f9722a3daafe3b4186f6b6457e0908390a3600080546001600160a01b0319169055565b600061072f83336103cf565b90508181101561078d5760405162461bcd60e51b8152602060048201526024808201527f42455032303a206275726e20616d6f756e74206578636565647320616c6c6f77604482015263616e636560e01b60648201526084016105b2565b61079c83336105ca8585611675565b6107a68383610fe0565b505050565b600654610100900460ff16156107d35760405162461bcd60e51b81526004016105b29061159a565b6107db61112f565b565b6060600580546104689061168c565b3360009081526002602090815260408083206001600160a01b03861684529091528120548281101561086e5760405162461bcd60e51b815260206004820152602560248201527f42455032303a2064656372656173656420616c6c6f77616e63652062656c6f77604482015264207a65726f60d81b60648201526084016105b2565b61066233856105ca8685611675565b60006104f8338484610d16565b6000610897858585610524565b506108a485858585610eee565b6105cf5760405162461bcd60e51b81526004016105b2906115dc565b949350505050565b60006108d484846104eb565b506108e0848484611161565b6106625760405162461bcd60e51b815260206004820152602b60248201527f42455032304f70657261626c653a205f636865636b416e6443616c6c4170707260448201526a6f7665207265766572747360a81b60648201526084016105b2565b60006108c08484846040518060200160405280600081525061088a565b6000546001600160a01b031633146109875760405162461bcd60e51b81526004016105b290611628565b816001600160a01b031663a9059cbb6109a86000546001600160a01b031690565b6040516001600160e01b031960e084901b1681526001600160a01b03909116600482015260248101849052604401602060405180830381600087803b1580156109f057600080fd5b505af1158015610a04573d6000803e3d6000fd5b505050506040513d601f19601f820116820180604052508101906107a6919061145f565b6000546001600160a01b03163314610a525760405162461bcd60e51b81526004016105b290611628565b6001600160a01b038116610ab75760405162461bcd60e51b815260206004820152602660248201527f4f776e61626c653a206e6577206f776e657220697320746865207a65726f206160448201526564647265737360d01b60648201526084016105b2565b600080546040516001600160a01b03808516939216917f8be0079c531659141344cd1fd0a4f28419497f9722a3daafe3b4186f6b6457e091a3600080546001600160a01b0319166001600160a01b0392909216919091179055565b6001600160a01b038216610b685760405162461bcd60e51b815260206004820152601f60248201527f42455032303a206d696e7420746f20746865207a65726f20616464726573730060448201526064016105b2565b8060036000828254610b7a919061165d565b90915550506001600160a01b03821660009081526001602052604081208054839290610ba790849061165d565b90915550506040518181526001600160a01b038316906000907fddf252ad1be2c89b69c2b068fc378daa952ba7f163c4a11628f55a4df523b3ef9060200160405180910390a35050565b6001600160a01b038316610c535760405162461bcd60e51b8152602060048201526024808201527f42455032303a20617070726f76652066726f6d20746865207a65726f206164646044820152637265737360e01b60648201526084016105b2565b6001600160a01b038216610cb45760405162461bcd60e51b815260206004820152602260248201527f42455032303a20617070726f766520746f20746865207a65726f206164647265604482015261737360f01b60648201526084016105b2565b6001600160a01b0383811660008181526002602090815260408083209487168084529482529182902085905590518481527f8c5be1e5ebec7d5bd14f71427d1e84f3dd0314c0f7b2291e5b200ac8c7c3b92591015b60405180910390a3505050565b6001600160a01b038316610d7a5760405162461bcd60e51b815260206004820152602560248201527f42455032303a207472616e736665722066726f6d20746865207a65726f206164604482015264647265737360d81b60648201526084016105b2565b6001600160a01b038216610ddc5760405162461bcd60e51b815260206004820152602360248201527f42455032303a207472616e7366657220746f20746865207a65726f206164647260448201526265737360e81b60648201526084016105b2565b6001600160a01b03831660009081526001602052604090205481811015610e545760405162461bcd60e51b815260206004820152602660248201527f42455032303a207472616e7366657220616d6f756e7420657863656564732062604482015265616c616e636560d01b60648201526084016105b2565b610e5e8282611675565b6001600160a01b038086166000908152600160205260408082209390935590851681529081208054849290610e9490849061165d565b92505081905550826001600160a01b0316846001600160a01b03167fddf252ad1be2c89b69c2b068fc378daa952ba7f163c4a11628f55a4df523b3ef84604051610ee091815260200190565b60405180910390a350505050565b60006001600160a01b0384163b610f07575060006108c0565b604051632229f29760e21b81526000906001600160a01b038616906388a7ca5c90610f3c9033908a908990899060040161151a565b602060405180830381600087803b158015610f5657600080fd5b505af1158015610f6a573d6000803e3d6000fd5b505050506040513d601f19601f82011682018060405250810190610f8e919061149b565b6001600160e01b031916632229f29760e21b14915050949350505050565b6000546001600160a01b03163314610fd65760405162461bcd60e51b81526004016105b290611628565b61069e8282610b12565b6001600160a01b0382166110405760405162461bcd60e51b815260206004820152602160248201527f42455032303a206275726e2066726f6d20746865207a65726f206164647265736044820152607360f81b60648201526084016105b2565b6001600160a01b038216600090815260016020526040902054818110156110b45760405162461bcd60e51b815260206004820152602260248201527f42455032303a206275726e20616d6f756e7420657863656564732062616c616e604482015261636560f01b60648201526084016105b2565b6110be8282611675565b6001600160a01b038416600090815260016020526040812091909155600380548492906110ec908490611675565b90915550506040518281526000906001600160a01b038516907fddf252ad1be2c89b69c2b068fc378daa952ba7f163c4a11628f55a4df523b3ef90602001610d09565b6000546001600160a01b031633146111595760405162461bcd60e51b81526004016105b290611628565b6107db61121c565b60006001600160a01b0384163b61117a5750600061051d565b6040516307b04a2d60e41b81526000906001600160a01b03861690637b04a2d0906111ad90339088908890600401611557565b602060405180830381600087803b1580156111c757600080fd5b505af11580156111db573d6000803e3d6000fd5b505050506040513d601f19601f820116820180604052508101906111ff919061149b565b6001600160e01b0319166307b04a2d60e41b149150509392505050565b6006805461ff0019166101001790556040517fae5184fba832cb2b1f702aca6117b8d265eaf03ad33eb133f19dde0f5920fa0890600090a1565b80356001600160a01b038116811461045457600080fd5b600082601f83011261127d578081fd5b813567ffffffffffffffff80821115611298576112986116dd565b604051601f8301601f19908116603f011681019082821181831017156112c0576112c06116dd565b816040528381528660208588010111156112d8578485fd5b8360208701602083013792830160200193909352509392505050565b600060208284031215611305578081fd5b61051d82611256565b60008060408385031215611320578081fd5b61132983611256565b915061133760208401611256565b90509250929050565b600080600060608486031215611354578081fd5b61135d84611256565b925061136b60208501611256565b9150604084013590509250925092565b60008060008060808587031215611390578081fd5b61139985611256565b93506113a760208601611256565b925060408501359150606085013567ffffffffffffffff8111156113c9578182fd5b6113d58782880161126d565b91505092959194509250565b600080604083850312156113f3578182fd5b6113fc83611256565b946020939093013593505050565b60008060006060848603121561141e578283fd5b61142784611256565b925060208401359150604084013567ffffffffffffffff811115611449578182fd5b6114558682870161126d565b9150509250925092565b600060208284031215611470578081fd5b8151801515811461051d578182fd5b600060208284031215611490578081fd5b813561051d816116f3565b6000602082840312156114ac578081fd5b815161051d816116f3565b6000602082840312156114c8578081fd5b5035919050565b60008151808452815b818110156114f4576020818501810151868301820152016114d8565b818111156115055782602083870101525b50601f01601f19169290920160200192915050565b6001600160a01b038581168252841660208201526040810183905260806060820181905260009061154d908301846114cf565b9695505050505050565b600060018060a01b03851682528360208301526060604083015261157e60608301846114cf565b95945050505050565b60006020825261051d60208301846114cf565b60208082526022908201527f42455032304d696e7461626c653a206d696e74696e672069732066696e697368604082015261195960f21b606082015260800190565b6020808252602c908201527f42455032304f70657261626c653a205f636865636b416e6443616c6c5472616e60408201526b73666572207265766572747360a01b606082015260800190565b6020808252818101527f4f776e61626c653a2063616c6c6572206973206e6f7420746865206f776e6572604082015260600190565b60008219821115611670576116706116c7565b500190565b600082821015611687576116876116c7565b500390565b600181811c908216806116a057607f821691505b602082108114156116c157634e487b7160e01b600052602260045260246000fd5b50919050565b634e487b7160e01b600052601160045260246000fd5b634e487b7160e01b600052604160045260246000fd5b6001600160e01b0319811681146106ac57600080fdfea2646970667358221220461606cd76427f8677e22b7f718ea4408b0943e6971bb458cf604b7754d4495664736f6c63430008030033",
  "immutableReferences": {},
  "source": "// SPDX-License-Identifier: MIT\n\npragma solidity ^0.8.0;\n\nimport \"./lib/BEP20Mintable.sol\";\nimport \"./lib/BEP20Burnable.sol\";\nimport \"./lib/BEP20Operable.sol\";\n\nimport \"../../utils/TokenRecover.sol\";\n\nimport \"../../service/ServicePayer.sol\";\n\n/**\n * @title AmazingBEP20\n * @dev Implementation of the AmazingBEP20\n */\ncontract AmazingBEP20 is BEP20Mintable, BEP20Burnable, BEP20Operable, TokenRecover, ServicePayer {\n\n    constructor (\n        string memory name,\n        string memory symbol,\n        uint8 decimals,\n        uint256 initialBalance,\n        address payable feeReceiver\n    )\n      BEP20(name, symbol)\n      ServicePayer(feeReceiver, \"AmazingBEP20\")\n      payable\n    {\n        _setupDecimals(decimals);\n        _mint(_msgSender(), initialBalance);\n    }\n\n    /**\n     * @dev Function to mint tokens.\n     *\n     * NOTE: restricting access to owner only. See {BEP20Mintable-mint}.\n     *\n     * @param account The address that will receive the minted tokens\n     * @param amount The amount of tokens to mint\n     */\n    function _mint(address account, uint256 amount) internal override onlyOwner {\n        super._mint(account, amount);\n    }\n\n    /**\n     * @dev Function to stop minting new tokens.\n     *\n     * NOTE: restricting access to owner only. See {BEP20Mintable-finishMinting}.\n     */\n    function _finishMinting() internal override onlyOwner {\n        super._finishMinting();\n    }\n}\n",
  "sourcePath": "/Users/marioterek/github/coinmaker/contracts/token/BEP20/AmazingBEP20.sol",
  "compiler": {
    "name": "solc",
    "version": "0.8.3+commit.8d00100c.Emscripten.clang"
  },
  "schemaVersion": "3.4.6",
  "updatedAt": "2022-03-21T00:23:03.096Z",
  "devdoc": {
    "details": "Implementation of the AmazingBEP20",
    "kind": "dev",
    "methods": {
      "allowance(address,address)": {
        "details": "See {IBEP20-allowance}."
      },
      "approve(address,uint256)": {
        "details": "See {IBEP20-approve}. Requirements: - `spender` cannot be the zero address."
      },
      "approveAndCall(address,uint256)": {
        "details": "Approve spender to transfer tokens and then execute a callback on recipient.",
        "params": {
          "amount": "The amount allowed to be transferred",
          "spender": "The address allowed to transfer to"
        },
        "returns": {
          "_0": "A boolean that indicates if the operation was successful."
        }
      },
      "approveAndCall(address,uint256,bytes)": {
        "details": "Approve spender to transfer tokens and then execute a callback on recipient.",
        "params": {
          "amount": "The amount allowed to be transferred.",
          "data": "Additional data with no specified format.",
          "spender": "The address allowed to transfer to."
        },
        "returns": {
          "_0": "A boolean that indicates if the operation was successful."
        }
      },
      "balanceOf(address)": {
        "details": "See {IBEP20-balanceOf}."
      },
      "burn(uint256)": {
        "details": "Destroys `amount` tokens from the caller. See {BEP20-_burn}."
      },
      "burnFrom(address,uint256)": {
        "details": "Destroys `amount` tokens from `account`, deducting from the caller's allowance. See {BEP20-_burn} and {BEP20-allowance}. Requirements: - the caller must have allowance for ``accounts``'s tokens of at least `amount`."
      },
      "decimals()": {
        "details": "Returns the number of decimals used to get its user representation. For example, if `decimals` equals `2`, a balance of `505` tokens should be displayed to a user as `5,05` (`505 / 10 ** 2`). Tokens usually opt for a value of 18, imitating the relationship between Ether and Wei. This is the value {BEP20} uses, unless {_setupDecimals} is called. NOTE: This information is only used for _display_ purposes: it in no way affects any of the arithmetic of the contract, including {IBEP20-balanceOf} and {IBEP20-transfer}."
      },
      "decreaseAllowance(address,uint256)": {
        "details": "Atomically decreases the allowance granted to `spender` by the caller. This is an alternative to {approve} that can be used as a mitigation for problems described in {IBEP20-approve}. Emits an {Approval} event indicating the updated allowance. Requirements: - `spender` cannot be the zero address. - `spender` must have allowance for the caller of at least `subtractedValue`."
      },
      "finishMinting()": {
        "details": "Function to stop minting new tokens. WARNING: it allows everyone to finish minting. Access controls MUST be defined in derived contracts."
      },
      "getOwner()": {
        "details": "See {IBEP20-getOwner}."
      },
      "increaseAllowance(address,uint256)": {
        "details": "Atomically increases the allowance granted to `spender` by the caller. This is an alternative to {approve} that can be used as a mitigation for problems described in {IBEP20-approve}. Emits an {Approval} event indicating the updated allowance. Requirements: - `spender` cannot be the zero address."
      },
      "mint(address,uint256)": {
        "details": "Function to mint tokens. WARNING: it allows everyone to mint new tokens. Access controls MUST be defined in derived contracts.",
        "params": {
          "account": "The address that will receive the minted tokens",
          "amount": "The amount of tokens to mint"
        }
      },
      "mintingFinished()": {
        "returns": {
          "_0": "if minting is finished or not."
        }
      },
      "name()": {
        "details": "Returns the name of the token."
      },
      "owner()": {
        "details": "Returns the address of the current owner."
      },
      "recoverBEP20(address,uint256)": {
        "details": "Remember that only owner can call so be careful when use on contracts generated from other contracts.",
        "params": {
          "tokenAddress": "The token contract address",
          "tokenAmount": "Number of tokens to be sent"
        }
      },
      "renounceOwnership()": {
        "details": "Leaves the contract without owner. It will not be possible to call `onlyOwner` functions anymore. Can only be called by the current owner. NOTE: Renouncing ownership will leave the contract without an owner, thereby removing any functionality that is only available to the owner."
      },
      "supportsInterface(bytes4)": {
        "details": "See {IERC165-supportsInterface}."
      },
      "symbol()": {
        "details": "Returns the symbol of the token, usually a shorter version of the name."
      },
      "totalSupply()": {
        "details": "See {IBEP20-totalSupply}."
      },
      "transfer(address,uint256)": {
        "details": "See {IBEP20-transfer}. Requirements: - `recipient` cannot be the zero address. - the caller must have a balance of at least `amount`."
      },
      "transferAndCall(address,uint256)": {
        "details": "Transfer tokens to a specified address and then execute a callback on recipient.",
        "params": {
          "amount": "The amount to be transferred.",
          "recipient": "The address to transfer to."
        },
        "returns": {
          "_0": "A boolean that indicates if the operation was successful."
        }
      },
      "transferAndCall(address,uint256,bytes)": {
        "details": "Transfer tokens to a specified address and then execute a callback on recipient.",
        "params": {
          "amount": "The amount to be transferred",
          "data": "Additional data with no specified format",
          "recipient": "The address to transfer to"
        },
        "returns": {
          "_0": "A boolean that indicates if the operation was successful."
        }
      },
      "transferFrom(address,address,uint256)": {
        "details": "See {IBEP20-transferFrom}. Emits an {Approval} event indicating the updated allowance. This is not required by the EIP. See the note at the beginning of {BEP20}. Requirements: - `sender` and `recipient` cannot be the zero address. - `sender` must have a balance of at least `amount`. - the caller must have allowance for ``sender``'s tokens of at least `amount`."
      },
      "transferFromAndCall(address,address,uint256)": {
        "details": "Transfer tokens from one address to another and then execute a callback on recipient.",
        "params": {
          "amount": "The amount of tokens to be transferred",
          "recipient": "The address which you want to transfer to",
          "sender": "The address which you want to send tokens from"
        },
        "returns": {
          "_0": "A boolean that indicates if the operation was successful."
        }
      },
      "transferFromAndCall(address,address,uint256,bytes)": {
        "details": "Transfer tokens from one address to another and then execute a callback on recipient.",
        "params": {
          "amount": "The amount of tokens to be transferred",
          "data": "Additional data with no specified format",
          "recipient": "The address which you want to transfer to",
          "sender": "The address which you want to send tokens from"
        },
        "returns": {
          "_0": "A boolean that indicates if the operation was successful."
        }
      },
      "transferOwnership(address)": {
        "details": "Transfers ownership of the contract to a new account (`newOwner`). Can only be called by the current owner."
      }
    },
    "title": "AmazingBEP20",
    "version": 1
  },
  "userdoc": {
    "kind": "user",
    "methods": {},
    "version": 1
  }
}