{
  "contractName": "BEP20OperableSpenderMock",
  "abi": [
    {
      "inputs": [
        {
          "internalType": "bytes4",
          "name": "retval",
          "type": "bytes4"
        },
        {
          "internalType": "bool",
          "name": "reverts",
          "type": "bool"
        }
      ],
      "stateMutability": "nonpayable",
      "type": "constructor"
    },
    {
      "anonymous": false,
      "inputs": [
        {
          "indexed": false,
          "internalType": "address",
          "name": "sender",
          "type": "address"
        },
        {
          "indexed": false,
          "internalType": "uint256",
          "name": "amount",
          "type": "uint256"
        },
        {
          "indexed": false,
          "internalType": "bytes",
          "name": "data",
          "type": "bytes"
        },
        {
          "indexed": false,
          "internalType": "uint256",
          "name": "gas",
          "type": "uint256"
        }
      ],
      "name": "Approved",
      "type": "event"
    },
    {
      "inputs": [
        {
          "internalType": "address",
          "name": "sender",
          "type": "address"
        },
        {
          "internalType": "uint256",
          "name": "amount",
          "type": "uint256"
        },
        {
          "internalType": "bytes",
          "name": "data",
          "type": "bytes"
        }
      ],
      "name": "onApprovalReceived",
      "outputs": [
        {
          "internalType": "bytes4",
          "name": "",
          "type": "bytes4"
        }
      ],
      "stateMutability": "nonpayable",
      "type": "function"
    }
  ],
  "bytecode": "0x608060405234801561001057600080fd5b5060405161035838038061035883398101604081905261002f91610059565b600080549115156401000000000264ffffffffff1990921660e09390931c929092171790556100a2565b6000806040838503121561006b578182fd5b82516001600160e01b031981168114610082578283fd5b60208401519092508015158114610097578182fd5b809150509250929050565b6102a7806100b16000396000f3fe608060405234801561001057600080fd5b506004361061002b5760003560e01c80637b04a2d014610030575b600080fd5b61004361003e366004610116565b610060565b6040516001600160e01b0319909116815260200160405180910390f35b60008054640100000000900460ff16156100cb5760405162461bcd60e51b815260206004820152602260248201527f42455032304f70657261626c655370656e6465724d6f636b3a207468726f77696044820152616e6760f01b606482015260840160405180910390fd5b7fe7c2bad6c6b2105a7cfcf604a9b58fc7f698a6bd195c88ea6242427303eaa51b8484845a60405161010094939291906101e9565b60405180910390a15060005460e01b9392505050565b60008060006060848603121561012a578283fd5b83356001600160a01b0381168114610140578384fd5b925060208401359150604084013567ffffffffffffffff80821115610163578283fd5b818601915086601f830112610176578283fd5b8135818111156101885761018861025b565b604051601f8201601f19908116603f011681019083821181831017156101b0576101b061025b565b816040528281528960208487010111156101c8578586fd5b82602086016020830137856020848301015280955050505050509250925092565b600060018060a01b038616825260208581840152608060408401528451806080850152825b8181101561022a5786810183015185820160a00152820161020e565b8181111561023b578360a083870101525b5060608401949094525050601f91909101601f19160160a0019392505050565b634e487b7160e01b600052604160045260246000fdfea2646970667358221220b964cf4bfc41662c083e54ffe99dd9d36079aad72a35981f5b6128e571da289364736f6c63430008030033",
  "immutableReferences": {},
  "source": "// SPDX-License-Identifier: MIT\n\npragma solidity ^0.8.0;\n\nimport \"../token/BEP20/lib/IBEP20OperableSpender.sol\";\n\n// mock class using IBEP20OperableSpender\ncontract BEP20OperableSpenderMock is IBEP20OperableSpender {\n    bytes4 private _retval;\n    bool private _reverts;\n\n    event Approved(\n        address sender,\n        uint256 amount,\n        bytes data,\n        uint256 gas\n    );\n\n    constructor(bytes4 retval, bool reverts) {\n        _retval = retval;\n        _reverts = reverts;\n    }\n\n    function onApprovalReceived(address sender, uint256 amount, bytes memory data) public override returns (bytes4) {\n        require(!_reverts, \"BEP20OperableSpenderMock: throwing\");\n        emit Approved(sender, amount, data, gasleft());\n        return _retval;\n    }\n}\n",
  "sourcePath": "/Users/marioterek/github/coinmaker/contracts/mocks/BEP20OperableSpenderMock.sol",
  "compiler": {
    "name": "solc",
    "version": "0.8.3+commit.8d00100c.Emscripten.clang"
  },
  "schemaVersion": "3.4.6",
  "updatedAt": "2022-03-21T00:43:22.435Z",
  "devdoc": {
    "kind": "dev",
    "methods": {
      "onApprovalReceived(address,uint256,bytes)": {
        "details": "Any BEP20Operable smart contract calls this function on the recipient after an `approve`. This function MAY throw to revert and reject the approval. Return of other than the magic value MUST result in the transaction being reverted. Note: the token contract address is always the message sender.",
        "params": {
          "amount": "uint256 The amount of tokens to be spent",
          "data": "bytes Additional data with no specified format",
          "sender": "address The address which called `approveAndCall` function"
        },
        "returns": {
          "_0": "`bytes4(keccak256(\"onApprovalReceived(address,uint256,bytes)\"))` unless throwing"
        }
      }
    },
    "version": 1
  },
  "userdoc": {
    "kind": "user",
    "methods": {
      "onApprovalReceived(address,uint256,bytes)": {
        "notice": "Handle the approval of BEP20Operable tokens"
      }
    },
    "version": 1
  }
}