{
  "contractName": "BEP20OperableReceiverMock",
  "abi": [
    {
      "inputs": [
        {
          "internalType": "bytes4",
          "name": "retval",
          "type": "bytes4"
        },
        {
          "internalType": "bool",
          "name": "reverts",
          "type": "bool"
        }
      ],
      "stateMutability": "nonpayable",
      "type": "constructor"
    },
    {
      "anonymous": false,
      "inputs": [
        {
          "indexed": false,
          "internalType": "address",
          "name": "operator",
          "type": "address"
        },
        {
          "indexed": false,
          "internalType": "address",
          "name": "sender",
          "type": "address"
        },
        {
          "indexed": false,
          "internalType": "uint256",
          "name": "amount",
          "type": "uint256"
        },
        {
          "indexed": false,
          "internalType": "bytes",
          "name": "data",
          "type": "bytes"
        },
        {
          "indexed": false,
          "internalType": "uint256",
          "name": "gas",
          "type": "uint256"
        }
      ],
      "name": "Received",
      "type": "event"
    },
    {
      "inputs": [
        {
          "internalType": "address",
          "name": "operator",
          "type": "address"
        },
        {
          "internalType": "address",
          "name": "sender",
          "type": "address"
        },
        {
          "internalType": "uint256",
          "name": "amount",
          "type": "uint256"
        },
        {
          "internalType": "bytes",
          "name": "data",
          "type": "bytes"
        }
      ],
      "name": "onTransferReceived",
      "outputs": [
        {
          "internalType": "bytes4",
          "name": "",
          "type": "bytes4"
        }
      ],
      "stateMutability": "nonpayable",
      "type": "function"
    }
  ],
  "bytecode": "0x608060405234801561001057600080fd5b5060405161038638038061038683398101604081905261002f91610059565b600080549115156401000000000264ffffffffff1990921660e09390931c929092171790556100a2565b6000806040838503121561006b578182fd5b82516001600160e01b031981168114610082578283fd5b60208401519092508015158114610097578182fd5b809150509250929050565b6102d5806100b16000396000f3fe608060405234801561001057600080fd5b506004361061002b5760003560e01c806388a7ca5c14610030575b600080fd5b61004361003e366004610136565b610060565b6040516001600160e01b0319909116815260200160405180910390f35b60008054640100000000900460ff16156100cc5760405162461bcd60e51b815260206004820152602360248201527f42455032304f70657261626c6552656365697665724d6f636b3a207468726f77604482015262696e6760e81b606482015260840160405180910390fd5b7f28fa6e16458f9c24aa59ddd4085264573006dbe30304837873c7deafc702b038858585855a60405161010395949392919061020b565b60405180910390a15060005460e01b949350505050565b80356001600160a01b038116811461013157600080fd5b919050565b6000806000806080858703121561014b578384fd5b6101548561011a565b93506101626020860161011a565b925060408501359150606085013567ffffffffffffffff80821115610185578283fd5b818701915087601f830112610198578283fd5b8135818111156101aa576101aa610289565b604051601f8201601f19908116603f011681019083821181831017156101d2576101d2610289565b816040528281528a60208487010111156101ea578586fd5b82602086016020830137918201602001949094529598949750929550505050565b600060018060a01b03808816835260208188168185015286604085015260a06060850152855191508160a0850152825b828110156102575786810182015185820160c00152810161023b565b82811115610268578360c084870101525b5050608083019390935250601f91909101601f19160160c001949350505050565b634e487b7160e01b600052604160045260246000fdfea2646970667358221220a285f54bc13b79453b9aa1a96405de2e5ef60e6e98998c8520be7a3e23cf7fda64736f6c63430008030033",
  "immutableReferences": {},
  "source": "// SPDX-License-Identifier: MIT\n\npragma solidity ^0.8.0;\n\nimport \"../token/BEP20/lib/IBEP20OperableReceiver.sol\";\n\n// mock class using IBEP20OperableReceiver\ncontract BEP20OperableReceiverMock is IBEP20OperableReceiver {\n    bytes4 private _retval;\n    bool private _reverts;\n\n    event Received(\n        address operator,\n        address sender,\n        uint256 amount,\n        bytes data,\n        uint256 gas\n    );\n\n    constructor(bytes4 retval, bool reverts) {\n        _retval = retval;\n        _reverts = reverts;\n    }\n\n    function onTransferReceived(address operator, address sender, uint256 amount, bytes memory data) public override returns (bytes4) {\n        require(!_reverts, \"BEP20OperableReceiverMock: throwing\");\n        emit Received(operator, sender, amount, data, gasleft());\n        return _retval;\n    }\n}\n",
  "sourcePath": "/Users/marioterek/github/coinmaker/contracts/mocks/BEP20OperableReceiverMock.sol",
  "compiler": {
    "name": "solc",
    "version": "0.8.3+commit.8d00100c.Emscripten.clang"
  },
  "schemaVersion": "3.4.6",
  "updatedAt": "2022-03-21T00:43:22.428Z",
  "devdoc": {
    "kind": "dev",
    "methods": {
      "onTransferReceived(address,address,uint256,bytes)": {
        "details": "Any BEP20Operable smart contract calls this function on the recipient after a `transfer` or a `transferFrom`. This function MAY throw to revert and reject the transfer. Return of other than the magic value MUST result in the transaction being reverted. Note: the token contract address is always the message sender.",
        "params": {
          "amount": "uint256 The amount of tokens transferred",
          "data": "bytes Additional data with no specified format",
          "operator": "address The address which called `transferAndCall` or `transferFromAndCall` function",
          "sender": "address The address which are token transferred from"
        },
        "returns": {
          "_0": "`bytes4(keccak256(\"onTransferReceived(address,address,uint256,bytes)\"))` unless throwing"
        }
      }
    },
    "version": 1
  },
  "userdoc": {
    "kind": "user",
    "methods": {
      "onTransferReceived(address,address,uint256,bytes)": {
        "notice": "Handle the receipt of BEP20Operable tokens"
      }
    },
    "version": 1
  }
}