{
  "contractName": "GeneratorCopyright",
  "abi": [
    {
      "inputs": [
        {
          "internalType": "string",
          "name": "version_",
          "type": "string"
        }
      ],
      "stateMutability": "nonpayable",
      "type": "constructor"
    },
    {
      "inputs": [],
      "name": "generator",
      "outputs": [
        {
          "internalType": "string",
          "name": "",
          "type": "string"
        }
      ],
      "stateMutability": "pure",
      "type": "function"
    },
    {
      "inputs": [],
      "name": "version",
      "outputs": [
        {
          "internalType": "string",
          "name": "",
          "type": "string"
        }
      ],
      "stateMutability": "view",
      "type": "function"
    }
  ],
  "bytecode": "0x608060405234801561001057600080fd5b5060405161040a38038061040a83398101604081905261002f916100e2565b8051610042906000906020840190610049565b50506101fc565b828054610055906101ab565b90600052602060002090601f01602090048101928261007757600085556100bd565b82601f1061009057805160ff19168380011785556100bd565b828001600101855582156100bd579182015b828111156100bd5782518255916020019190600101906100a2565b506100c99291506100cd565b5090565b5b808211156100c957600081556001016100ce565b600060208083850312156100f4578182fd5b82516001600160401b038082111561010a578384fd5b818501915085601f83011261011d578384fd5b81518181111561012f5761012f6101e6565b604051601f8201601f19908116603f01168101908382118183101715610157576101576101e6565b81604052828152888684870101111561016e578687fd5b8693505b8284101561018f5784840186015181850187015292850192610172565b8284111561019f57868684830101525b98975050505050505050565b600181811c908216806101bf57607f821691505b602082108114156101e057634e487b7160e01b600052602260045260246000fd5b50919050565b634e487b7160e01b600052604160045260246000fd5b6101ff8061020b6000396000f3fe608060405234801561001057600080fd5b50600436106100365760003560e01c806354fd4d501461003b5780637afa1eed14610059575b600080fd5b610043610061565b6040516100509190610113565b60405180910390f35b6100436100f3565b60606000805461007090610166565b80601f016020809104026020016040519081016040528092919081815260200182805461009c90610166565b80156100e95780601f106100be576101008083540402835291602001916100e9565b820191906000526020600020905b8154815290600101906020018083116100cc57829003601f168201915b5050505050905090565b60606040518060600160405280602881526020016101a260289139905090565b6000602080835283518082850152825b8181101561013f57858101830151858201604001528201610123565b818111156101505783604083870101525b50601f01601f1916929092016040019392505050565b600181811c9082168061017a57607f821691505b6020821081141561019b57634e487b7160e01b600052602260045260246000fd5b5091905056fe68747470733a2f2f6269742d627573696e6573732e6769746875622e696f2f636f696e6d616b6572a26469706673582212209cab90577d559f07b0a3e8513d690d23e94c8ca0471c008af9c935d49476689264736f6c63430008030033",
  "immutableReferences": {},
  "source": "// SPDX-License-Identifier: MIT\n\npragma solidity ^0.8.0;\n\n/**\n * @title GeneratorCopyright\n * @author BEP20 Generator (https://bit-business.github.io/coinmaker)\n * @dev Implementation of the GeneratorCopyright\n */\ncontract GeneratorCopyright {\n\n    string private constant _GENERATOR = \"https://bit-business.github.io/coinmaker\";\n    string private _version;\n\n    constructor (string memory version_) {\n        _version = version_;\n    }\n\n    /**\n     * @dev Returns the token generator tool.\n     */\n    function generator() public pure returns (string memory) {\n        return _GENERATOR;\n    }\n\n    /**\n     * @dev Returns the token generator version.\n     */\n    function version() public view returns (string memory) {\n        return _version;\n    }\n}\n",
  "sourcePath": "/Users/marioterek/github/coinmaker/contracts/utils/GeneratorCopyright.sol",
  "compiler": {
    "name": "solc",
    "version": "0.8.3+commit.8d00100c.Emscripten.clang"
  },
  "schemaVersion": "3.4.6",
  "updatedAt": "2022-03-21T00:23:03.213Z",
  "devdoc": {
    "author": "BEP20 Generator (https://bit-business.github.io/coinmaker)",
    "details": "Implementation of the GeneratorCopyright",
    "kind": "dev",
    "methods": {
      "generator()": {
        "details": "Returns the token generator tool."
      },
      "version()": {
        "details": "Returns the token generator version."
      }
    },
    "title": "GeneratorCopyright",
    "version": 1
  },
  "userdoc": {
    "kind": "user",
    "methods": {},
    "version": 1
  }
}