{
  "contractName": "ServiceReceiver",
  "abi": [
    {
      "anonymous": false,
      "inputs": [
        {
          "indexed": false,
          "internalType": "string",
          "name": "serviceName",
          "type": "string"
        },
        {
          "indexed": true,
          "internalType": "address",
          "name": "serviceAddress",
          "type": "address"
        }
      ],
      "name": "Created",
      "type": "event"
    },
    {
      "anonymous": false,
      "inputs": [
        {
          "indexed": true,
          "internalType": "address",
          "name": "previousOwner",
          "type": "address"
        },
        {
          "indexed": true,
          "internalType": "address",
          "name": "newOwner",
          "type": "address"
        }
      ],
      "name": "OwnershipTransferred",
      "type": "event"
    },
    {
      "inputs": [],
      "name": "owner",
      "outputs": [
        {
          "internalType": "address",
          "name": "",
          "type": "address"
        }
      ],
      "stateMutability": "view",
      "type": "function"
    },
    {
      "inputs": [],
      "name": "renounceOwnership",
      "outputs": [],
      "stateMutability": "nonpayable",
      "type": "function"
    },
    {
      "inputs": [
        {
          "internalType": "address",
          "name": "newOwner",
          "type": "address"
        }
      ],
      "name": "transferOwnership",
      "outputs": [],
      "stateMutability": "nonpayable",
      "type": "function"
    },
    {
      "inputs": [
        {
          "internalType": "string",
          "name": "serviceName",
          "type": "string"
        }
      ],
      "name": "pay",
      "outputs": [],
      "stateMutability": "payable",
      "type": "function"
    },
    {
      "inputs": [
        {
          "internalType": "string",
          "name": "serviceName",
          "type": "string"
        }
      ],
      "name": "getPrice",
      "outputs": [
        {
          "internalType": "uint256",
          "name": "",
          "type": "uint256"
        }
      ],
      "stateMutability": "view",
      "type": "function"
    },
    {
      "inputs": [
        {
          "internalType": "string",
          "name": "serviceName",
          "type": "string"
        },
        {
          "internalType": "uint256",
          "name": "amount",
          "type": "uint256"
        }
      ],
      "name": "setPrice",
      "outputs": [],
      "stateMutability": "nonpayable",
      "type": "function"
    },
    {
      "inputs": [
        {
          "internalType": "uint256",
          "name": "amount",
          "type": "uint256"
        }
      ],
      "name": "withdraw",
      "outputs": [],
      "stateMutability": "nonpayable",
      "type": "function"
    }
  ],
  "bytecode": "0x608060405234801561001057600080fd5b50600080546001600160a01b031916339081178255604051909182917f8be0079c531659141344cd1fd0a4f28419497f9722a3daafe3b4186f6b6457e0908290a350610697806100616000396000f3fe6080604052600436106100705760003560e01c8063524f38891161004e578063524f3889146100ca578063715018a6146100fd5780638da5cb5b14610112578063f2fde38b1461013a57610070565b806322e01192146100755780632b66d72e146100975780632e1a7d4d146100aa575b600080fd5b34801561008157600080fd5b50610095610090366004610568565b61015a565b005b6100956100a536600461052d565b6101b0565b3480156100b657600080fd5b506100956100c53660046105ab565b61025e565b3480156100d657600080fd5b506100ea6100e536600461052d565b6102c5565b6040519081526020015b60405180910390f35b34801561010957600080fd5b506100956102ea565b34801561011e57600080fd5b506000546040516001600160a01b0390911681526020016100f4565b34801561014657600080fd5b506100956101553660046104ff565b61035e565b6000546001600160a01b0316331461018d5760405162461bcd60e51b815260040161018490610616565b60405180910390fd5b806001600061019b85610448565b81526020810191909152604001600020555050565b600160006101bd83610448565b815260200190815260200160002054341461021a5760405162461bcd60e51b815260206004820181905260248201527f5365727669636552656365697665723a20696e636f72726563742070726963656044820152606401610184565b336001600160a01b03167fdb4e8a6f69daa6b4b9977ed734b510ed9b7ce86536c87435bfd7ef57968d05ee8260405161025391906105c3565b60405180910390a250565b6000546001600160a01b031633146102885760405162461bcd60e51b815260040161018490610616565b600080546040516001600160a01b039091169183156108fc02918491818181858888f193505050501580156102c1573d6000803e3d6000fd5b5050565b6000600160006102d484610448565b8152602001908152602001600020549050919050565b6000546001600160a01b031633146103145760405162461bcd60e51b815260040161018490610616565b600080546040516001600160a01b03909116907f8be0079c531659141344cd1fd0a4f28419497f9722a3daafe3b4186f6b6457e0908390a3600080546001600160a01b0319169055565b6000546001600160a01b031633146103885760405162461bcd60e51b815260040161018490610616565b6001600160a01b0381166103ed5760405162461bcd60e51b815260206004820152602660248201527f4f776e61626c653a206e6577206f776e657220697320746865207a65726f206160448201526564647265737360d01b6064820152608401610184565b600080546040516001600160a01b03808516939216917f8be0079c531659141344cd1fd0a4f28419497f9722a3daafe3b4186f6b6457e091a3600080546001600160a01b0319166001600160a01b0392909216919091179055565b60008160405160200161045b91906105c3565b604051602081830303815290604052805190602001209050919050565b600082601f830112610488578081fd5b813567ffffffffffffffff808211156104a3576104a361064b565b604051601f8301601f19908116603f011681019082821181831017156104cb576104cb61064b565b816040528381528660208588010111156104e3578485fd5b8360208701602083013792830160200193909352509392505050565b600060208284031215610510578081fd5b81356001600160a01b0381168114610526578182fd5b9392505050565b60006020828403121561053e578081fd5b813567ffffffffffffffff811115610554578182fd5b61056084828501610478565b949350505050565b6000806040838503121561057a578081fd5b823567ffffffffffffffff811115610590578182fd5b61059c85828601610478565b95602094909401359450505050565b6000602082840312156105bc578081fd5b5035919050565b6000602080835283518082850152825b818110156105ef578581018301518582016040015282016105d3565b818111156106005783604083870101525b50601f01601f1916929092016040019392505050565b6020808252818101527f4f776e61626c653a2063616c6c6572206973206e6f7420746865206f776e6572604082015260600190565b634e487b7160e01b600052604160045260246000fdfea2646970667358221220f711fde110677613f9bc6f091010b8bd1efada9d1a2ae0f02ec9eacb5d266df364736f6c63430008030033",
  "immutableReferences": {},
  "source": "// SPDX-License-Identifier: MIT\n\npragma solidity ^0.8.0;\n\nimport \"@openzeppelin/contracts/access/Ownable.sol\";\n\n/**\n * @title ServiceReceiver\n * @dev Implementation of the ServiceReceiver\n */\ncontract ServiceReceiver is Ownable {\n\n    mapping (bytes32 => uint256) private _prices;\n\n    event Created(string serviceName, address indexed serviceAddress);\n\n    function pay(string memory serviceName) public payable {\n        require(msg.value == _prices[_toBytes32(serviceName)], \"ServiceReceiver: incorrect price\");\n\n        emit Created(serviceName, _msgSender());\n    }\n\n    function getPrice(string memory serviceName) public view returns (uint256) {\n        return _prices[_toBytes32(serviceName)];\n    }\n\n    function setPrice(string memory serviceName, uint256 amount) public onlyOwner {\n        _prices[_toBytes32(serviceName)] = amount;\n    }\n\n    function withdraw(uint256 amount) public onlyOwner {\n        payable(owner()).transfer(amount);\n    }\n\n    function _toBytes32(string memory serviceName) private pure returns (bytes32) {\n        return keccak256(abi.encode(serviceName));\n    }\n}\n",
  "sourcePath": "/Users/marioterek/github/coinmaker/contracts/service/ServiceReceiver.sol",
  "compiler": {
    "name": "solc",
    "version": "0.8.3+commit.8d00100c.Emscripten.clang"
  },
  "schemaVersion": "3.4.6",
  "updatedAt": "2022-03-21T00:43:22.450Z",
  "devdoc": {
    "details": "Implementation of the ServiceReceiver",
    "kind": "dev",
    "methods": {
      "owner()": {
        "details": "Returns the address of the current owner."
      },
      "renounceOwnership()": {
        "details": "Leaves the contract without owner. It will not be possible to call `onlyOwner` functions anymore. Can only be called by the current owner. NOTE: Renouncing ownership will leave the contract without an owner, thereby removing any functionality that is only available to the owner."
      },
      "transferOwnership(address)": {
        "details": "Transfers ownership of the contract to a new account (`newOwner`). Can only be called by the current owner."
      }
    },
    "title": "ServiceReceiver",
    "version": 1
  },
  "userdoc": {
    "kind": "user",
    "methods": {},
    "version": 1
  }
}